:020000040000FA
:060000000A128A110C280F
:10000800FE00030EF1000A08F2000A128A155B2EA0
:100018000A128A110F28F801F901FA018312031351
:10002800EB01EC01ED0183010A128A15462F8312B8
:1000380003132D088039B2003208B7002D08B2002A
:100048003207B3003308BD00AC1F2B282C282D28FD
:100058003D143D0803193128322841283D0A031D63
:10006800362837283F280030AD000030AC0000307B
:10007800AB000030AA00AC1749280030AD000030B2
:10008800AC000030AB000030AA0031088039B20063
:100098003208B7063108B2003207B3003308BC0093
:1000A800B01F5728582859283C143C0803195D28C4
:1000B8005E286D283C0A031D622863286B280030DF
:1000C800B1000030B0000030AF000030AE00B01713
:1000D80075280030B1000030B0000030AF000030AB
:1000E800AE003C08031979287A287F283D08031DAB
:1000F8007E287F2888280030AD000030AC00003012
:10010800AB000030AA007B2B2A08B2003208F300AB
:1001180030080A128A11CB270A128A11740883122E
:100128000313C3007308C2004208B200B301B4014C
:10013800B5013508BB003408BA003308B9003208E5
:10014800B8004308B200B301B401B5013508C100D5
:100158003408C0003308BF003208BE002B08B200C4
:100168003208F3002F080A128A11CB270A128A11C3
:10017800740883120313C3007308C2004208B20054
:10018800B301B401B5013208B807330803110318E5
:10019800013E0319D028B907340803110318013E9A
:1001A8000319D728BA07350803110318013E0319A4
:1001B800DE28BB074308B200B301B401B501320819
:1001C800BE07330803110318013E0319EC28BF07C3
:1001D800340803110318013E0319F328C007350832
:1001E80003110318013E0319FA28C1072C08B200AD
:1001F8003208F3002E080A128A11CB270A128A1134
:10020800740883120313C3007308C2004208B200C3
:10021800B301B401B5013208B80733080311031854
:10022800013E03191829B907340803110318013EC0
:1002380003191F29BA07350803110318013E0319CA
:100248002629BB074308B200B301B401B50132083F
:10025800BE07330803110318013E03193429BF07E9
:10026800340803110318013E03193B29C007350858
:1002780003110318013E03194229C1070830B200CF
:100288000310B80DB90DBA0DBB0DB20B44292B08DC
:10029800B2003208F3002E080A128A11CB270A127C
:1002A8008A11740883120313C3007308C20042083A
:1002B800B2004308B300B401B5013208B8073308E7
:1002C80003110318013E03196A29B90734080311F9
:1002D8000318013E03197129BA07350803110318D9
:1002E800013E03197829BB072A08B2003208F30037
:1002F8002F080A128A11CB270A128A11740883124E
:100308000313C3007308C2004208B2004308B300D5
:10031800B401B5013208B807330803110318013EC8
:1003280003199729B907340803110318013E031963
:100338009E29BA07350803110318013E0319A52998
:10034800BB070830B2000310B80DB90DBA0DBB0DCC
:10035800B20BA7292A08B2003208F3002E080A12A5
:100368008A11CB270A128A11740883120313C30057
:100378007308C2004208B2004308B300B401B501D3
:100388003208B807330803110318013E0319CD29B1
:10039800B907340803110318013E0319D429BA0711
:1003A800350803110318013E0319DB29BB072B0885
:1003B800B2003208F30030080A128A11CB270A1259
:1003C8008A11740883120313C3007308C200420819
:1003D800B2004308B300B401B5013208BE073308C0
:1003E80003110318013E0319FA29BF073408031142
:1003F8000318013E0319012AC00735080311031821
:10040800013E0319082AC1072C08B2003208F3007C
:100418002F080A128A11CB270A128A11740883122C
:100428000313C3007308C2004208B2004308B300B4
:10043800B401B5013208BE07330803110318013EA1
:100448000319272ABF07340803110318013E0319AB
:100458002E2AC007350803110318013E0319352A4F
:10046800C1072C08B2003208F30030080A128A11BA
:10047800CB270A128A11740883120313C300730866
:10048800C2004208B2004308B300B401B501083005
:100498000310B20DB30DB40DB50DFF3E031D4C2A6C
:1004A8003208BE07330803110318013E03195D2AF9
:1004B800BF07340803110318013E0319642AC00753
:1004C800350803110318013E03196B2AC1073808C0
:1004D800B2003908B3003A08B4003B08B500183038
:1004E8000310B50CB40CB30CB20CFF3E031D742AF8
:1004F8003208BE07330803110318013E0319852A81
:10050800BF07340803110318013E03198C2AC007DA
:10051800350803110318013E0319932AC10708304F
:10052800B2000310B80DB90DBA0DBB0DB20B952A68
:100538003D083C07B200B301B30D3208823EC20049
:1005480033080318013EFF3EC300C72A0130B2003A
:100558000310BE0DBF0DC00DC10DB20BAC2ABB1FE1
:10056800B62AB72AB82A3E140130B2000310B80DD3
:10057800B90DBA0DBB0DB20BBA2AFF30C20703186A
:10058800C30AFF30C307C01FCA2ACB2AAA2ABC0144
:10059800BB1FCF2AD02AEC2AFF303805B200FF3023
:1005A8003905B300FF303A05B4007F303B05B5008C
:1005B80035083404330432040319E32AE42AE72A09
:1005C800BC01BC0AEC2A3E1CEA2AEB2AEC2AE42AE3
:1005D8003C080319F02AF12A222B0130BE0700300B
:1005E80003180130BF07003003180130C00700307E
:1005F80003180130C107411C022B032B222B3E0894
:10060800B2003F08B3004008B4004108B50001300B
:10061800B600350DB50CB40CB30CB20CB60B0D2BE3
:100628003508C1003408C0003308BF003208BE00D6
:100638000130C2070318C30A0030C3074308803AD1
:10064800FF0080307F02031D2B2BFF304202031C6A
:100658002E2B2F2B3A2B7F3083120313C1008030AF
:10066800C0000030BF000030BE006F2B83120313A0
:100678004308803AFF0080307F02031D452B01307C
:1006880042020318482B492B552B003083120313C1
:10069800C1000030C0000030BF000030BE00B7010C
:1006A8006F2B831203134208B2003208BD00FF30DB
:1006B800BE05FF30BF057F30C0050030C1053D1CB9
:1006C800662B672B682BC0173D08B2000310320C4D
:1006D800B3003308C1003708B2003208C10441082A
:1006E800AD004008AC003F08AB003E08AA00080077
:1006F8008312031347088039CC004C08D4004708FC
:10070800CC004C07CD004D08D600C61F8C2B8D2B76
:100718008E2B561456080319922B932BA32B560A8B
:10072800031D972B982BA02B0030C7000030C60064
:100738000030C5000030C400C617C701AB2B00301D
:10074800C7000030C6000030C5000030C4004B08A8
:100758008039CC004C08D500550854060319B52B30
:10076800B62BB72B54174B08CC004C07CD004D08BF
:10077800D500CA1FC02BC12BC22B5514550803190D
:10078800C62BC72BD72B550A031DCB2BCC2BD42B11
:100798000030CB000030CA000030C9000030C8006B
:1007A800CA17CB01DF2B0030CB000030CA00003065
:1007B800C9000030C800560855020318E42BE52B81
:1007C800292C541FE82BE92BED2B8030CC004C084A
:1007D800D4065608CC004C08D7005508CC004C0865
:1007E800D6005708CC004C08D5004408CC004C086B
:1007F800D7004808CC004C08C4005708CC004C0867
:10080800C8004508CC004C08D7004908CC004C0863
:10081800C5005708CC004C08C9004608CC004C0855
:10082800D7004A08CC004C08C6005708CC004C0832
:10083800CA004708CC004C08D7004B08CC004C082D
:10084800C7005708CC004C08CB00D7015508CC008E
:10085800CD014D08CF0056084C02CE00031CCF0333
:100868004F08803AFF0080307F02031D3D2C1A306C
:100878004E02031C402C412C7E2C83120313470884
:10088800460445044404031D4A2C4C2C01304D2CCD
:100898000030CC004C08D7000030C7000030C6003C
:1008A8000030C5000030C4005508CC004C08D60004
:1008B800862C571C602C612C6A2C5708CC0003101E
:1008C8004C0C0138CD004D08D7006C2C0310D70C08
:1008D800441C6F2C702C712CD7170130CC00470D9D
:1008E800C70CC60CC50CC40CCC0B732C0130CC0047
:1008F8004C08D6078312031355085602031C852C8F
:10090800862C5D2C541B892C8A2CD52C5608031D4B
:100918008E2C8F2C982C0030C7000030C600003079
:10092800C5000030C400032E4808C4074908031155
:100938000318013E0319A12CC5074A08031103181F
:10094800013E0319A82CC6074B0803110318013EE2
:100958000319AF2CC707471CB22CB32C892D571C81
:10096800B62CB72CC02C5708CC0003104C0C0138FF
:10097800CD004D08D700C22C0310D70C441CC52C41
:10098800C62CC72CD7170130CC00470DC70CC60C96
:10099800C50CC40CCC0BC92C0130CC004C08D607B4
:1009A800892D4708803AFF004B08803A7F02031DD3
:1009B800E72C4A084602031DE72C49084502031D97
:1009C800E72C480844020318EA2CEB2C432DFF308F
:1009D800CC00FF30CD00FF30CE00FF30CF004808FC
:1009E800D0004908D1004A08D2004B08D300440877
:1009F800D0024508031C450F022D032DD1024608DD
:100A0800031C460F082D092DD2024708031C470F67
:100A18000E2D0F2DD3025008CC0751080318510F83
:100A2800162D172DCD0752080318520F1C2D1D2DFA
:100A3800CE0753080318530ACF074F08C7004E08BC
:100A4800C6004D08C5004C08C4008030CC004C08D6
:100A5800D406D709D70A5708031D332D342D512D35
:100A68000130C407003003180130C50700300318EF
:100A78000130C607003003180130C707512D480858
:100A8800C4024908031C490FC5024A08031C4A0F3F
:100A9800C6024B08031C4B0FC7024708460445040F
:100AA8004404031D582D592D852D5708031D5D2D10
:100AB8005E2D852D0030C7000030C6000030C5000F
:100AC8000030C400032E0130CC000310C40DC50D46
:100AD800C60DC70DCC0B692DD71F732D742D752D21
:100AE8004414571C782D792D7C2D0314D70D7E2D99
:100AF8000310D70D56080319822D832D852D01303B
:100B0800D602C61F882D892D672DD501D71F8D2D9B
:100B18008E2D9C2D57087F390319932D942D972DD1
:100B2800D501D50A9C2D441C9A2D9B2D9C2D942DC6
:100B380055080319A02DA12DD52D0130C40700306B
:100B480003180130C507003003180130C60700300C
:100B580003180130C707471CB22DB32DD52D440803
:100B6800CC004508CD004608CE004708CF0001302C
:100B7800D0004F0DCF0CCE0CCD0CCC0CD00BBD2D16
:100B88004F08C7004E08C6004D08C5004C08C400F1
:100B9800560A0319D02DD12DD52D0130CC004C0883
:100BA800D607560A0319D92DDA2DDF2D5608031D4D
:100BB800DE2DDF2DED2D0030C7000030C6000030DF
:100BC800C5000030C4005608031DEB2DEC2DED2D9B
:100BD800D401561CF02DF12DF32DC617F72D7F30BB
:100BE800CC004C08C6055608CC0003104C0CCD00B0
:100BF8004D08C700D41F012E022E032EC717080068
:100C0800F600831203131F149F141F083F3940383E
:100C18009F00831603131F129F12C62E83160317F5
:100C28000814C330831203139F0583160313051496
:100C3800FE2E831603178814831203131F08C33963
:100C480004389F00831603138514FE2E831603179A
:100C58000815831203131F08C33908389F00831629
:100C680003130515FE2E8316031788158312031325
:100C78001F08C3390C389F00831603138515FE2EF1
:100C8800831603170816831203131F08C339103875
:100C98009F00831603138516FE2E831603178816E6
:100CA800831203131F08C33914389F0083160313D4
:100CB8000914FE2E831603170817831203131F083F
:100CC800C33918389F00831603138914FE2E831620
:100CD80003178817831203131F08C3391C389F0092
:100CE800831603130915FE2E83160317091483129E
:100CF80003131F08C33920389F00831603130615F2
:100D0800FE2E831603178914831203131F08C33991
:100D180024389F00831603138615FE2E83160317A7
:100D28000915831203131F08C33928389F00831637
:100D380003138614FE2E83160317891583120313D3
:100D48001F08C3392C389F00831603130616FE2E7E
:100D5800831603170916831203131F08C339303883
:100D68009F00831603130614FE2E83160317891695
:100D7800831203131F08C33934389F0083160313E3
:100D88008616FE2E7608F400F5017508003A031958
:100D9800CE2EFE2E7408003A0319122E013A0319BA
:100DA8001D2E033A03192A2E013A0319372E073A42
:100DB8000319442E013A0319512E033A03195E2EE2
:100DC800013A03196B2E0F3A0319782E013A0319C9
:100DD800852E033A0319922E013A03199F2E073ADA
:100DE8000319AC2E013A0319B92EFE2E9F130E2FAC
:100DF8009F170E2F7308F400F5017508003A0319C0
:100E0800062F0E2F7408003A0319FA2E013A031917
:100E1800FC2E0E2F080083120313A40024080319C4
:100E2800162F172F2B2FF61F1A2F1B2F2B2F730957
:100E3800A6007409A7007509A8007609A900A60AE2
:100E48000319A70A0319A80A0319A90A332F760850
:100E5800A9007508A8007408A7007308A6007608FA
:100E6800750474047304031D3A2F3B2F442F00307C
:100E7800F6000030F5000030F4000030F300CA2F0F
:100E88009630A0002008A500562F0130A0002008A9
:100E9800A50701300310A90CA80CA70CA60CFF3E4F
:100EA800031D4E2FFE302905031D5B2F5C2F492F94
:100EB800782F0130A0002008A5070130A6070030D0
:100EC80003180130A707003003180130A8070030C5
:100ED80003180130A90701300310A90CA80CA70CAE
:100EE800A60CFF3E031D702FFF302905031D7D2F23
:100EF8007E2F5D2F8A2F0130A5020130A00003103C
:100F0800A60DA70DA80DA90DA00B832FA81B8D2F2B
:100F18008E2F942F023025020318932F942F7F2FA2
:100F28002518972F982FA02FFF30A605FF30A7056B
:100F38007F30A805FF30A9050310A50C2508A000DF
:100F4800A101A201A30118300310A00DA10DA20D4B
:100F5800A30DFF3E031DA82F2008A6042108A704FF
:100F68002208A8042308A90424080319BC2FBD2FAC
:100F7800C22FF61FC02FC12FC22FA9172908F600AC
:100F88002808F5002708F4002608F3000800831253
:100F98000313A400A001A1017308F500F601750868
:100FA800A2007608A300241CDA2FDB2FE12F2208E9
:100FB800A0070318A10A2308A10701300310A20DF6
:100FC800A30DFF3E031DE22F0310A40C2408031DEC
:100FD800EE2FEF2FD72F2108F4002008F300080088
:100FE800831203130C13831603130C178B170B1799
:020FF8000800EF
:101BB000F300730883160313930036308312031364
:101BC0009400803083160313940001309100871530
:101BD00007168B170B17831203138C11831603132D
:101BE0008C15080083120313A101F41FF82DF92DA1
:101BF000002EF309F409F30A0319F40AA101A10A5A
:101C0000F61F032E042E0D2EF509F609F50A031909
:101C1000F60A0130F7007708A106A201A3017308B4
:101C200074040319142E152E4C2EA001A00A232E85
:101C300001300310F30DF40DFF3E031D192E01308A
:101C4000F7007708A007F41F262E272E182E013044
:101C50000310A20DA30DFF3E031D282E740876026B
:101C6000031D342E73087502031C372E382E3F2EA9
:101C70007308F5027408031CF603F60222140130FF
:101C80000310F40CF30CFF3E031D402E0130A002A4
:101C9000031D4B2E4C2E272E21080319502E512E9A
:101CA000562EA209A309A20A0319A30A2308F400C5
:101CB0002208F3000800831203130C1F602E612E0C
:101CC000672E1E08F0007008ED000C139F148C1D89
:101CD0006A2E6B2EC32E1412141B6F2E702E742EB0
:101CE000941F732E742E7B2E1308F0007008F900D9
:101CF00014139413141683160313941A802E812E32
:101D00009F2E1419842E852E9F2E831203131308E1
:101D1000F0007008F9008C11141683160313141CBC
:101D2000922E932E8D2E831203131308F000700849
:101D3000F800A630F000F00B9B2E0000C02E941A85
:101D4000A22EA32EC02E141DA62EA72EC02E8312A7
:101D500003131308F0007008F9008316031314101E
:101D6000831203136C0893001416A630F000F00BD6
:101D7000B72E0000831603131418BF2EC02EBA2EE0
:101D8000831203138C1172088A00710E8300FE0EF9
:101D90007E0E09000310831203135A0D5B0DDC0045
:101DA0005C08E2006208031DD62ED72EE02E00301C
:101DB000DB000030DA000030D9000030D800452FB9
:101DC0005808DC005908DD005A08DE005B08DF0017
:101DD0001F300310DF0CDE0CDD0CDC0CFF3E031D9E
:101DE000E92E5C08E0006008E100DA17FF30D80552
:101DF000FF30D905FF30DA050030DB059630E2020E
:101E0000E21F032F042F1E2F6208803A973E03180B
:101E10000A2F0B2F0C2FD72E01300310DB0CDA0CFE
:101E2000D90CD80CFF3E031D0D2F0130DC005C08DF
:101E3000E207031D1C2F1D2F0C2F352F20306202AF
:101E4000031C232F242F302FD72E0130DC0003104A
:101E5000D80DD90DDA0DDB0DDC0B272F0130E20296
:101E60006208031D342F352F252F61080319392FE0
:101E70003A2F452FD809D909DA09DB09D80A0319FD
:101E8000D90A0319DA0A0319DB0A080083160317B3
:101E9000880189018316031385018701FF308600BD
:101EA000880110300A128A15D8250A128A15F30102
:101EB0000D300A128A1104260A128A150A128A1192
:101EC000F4270A128A15831203139F146D08E30086
:101ED000E401E501E6016608F6006508F50064081E
:101EE000F4006308F30001300A128A110F270A1266
:101EF0008A15760883120313B1007508B0007408C0
:101F0000AF007308AE00BE30AD00B430AC002C3072
:101F1000AB003D30AA000A128A111B200A128A1552
:101F2000831203132D08CB002C08CA002B08C9000C
:101F30002A08C8004230C7006C30C600BD30C5005A
:101F40007130C4000A128A117C230A128A15831286
:101F500003134708EA004608E9004508E80044087A
:101F6000E7006A08CB006908CA006808C90067086A
:101F7000C8004030C7008030C6000030C5000030C7
:101F8000C4000A128A117C230A128A1583120313D1
:101F90004708DB004608DA004508D9004408D800A5
:101FA0000A128A15CA260A128A15831203135808C0
:101FB000E3006308EC000230F3000030F4006C082A
:101FC0006B07F500F601F60D0A128A15F2250A12C2
:101FD0008A15730883120313E3006308EC001D30B5
:101FE0006C02031CF42FF52FF72F8814F82F88109C
:101FF0006C08E3006308EB00662F0A128A110C28B4
:04400E00D4E0FFFFFC
:00000001FF
