:020000040000FA
:060000000A128A110C280F
:10000800FE00030EF1000A08F2000A128A15EB2D11
:100018000A128A110F28F801F901FA018312031351
:10002800EB01EC01ED0183010A128A15272F8312D7
:1000380003132D088039B2003208B7002D08B2002A
:100048003207B3003308BD00AC1F2B282C282E28FC
:100058003D142E283D0803193228332843283D0A29
:10006800031D3728382841280030AD000030AC0087
:100078000030AB000030AA004128AC174C280030F3
:10008800AD000030AC000030AB000030AA004C28B6
:1000980031088039B2003208B7063108B200320799
:1000A800B3003308B800B01F5A285B285D283814FD
:1000B8005D2838080319612862287228380A031D48
:1000C8006628672870280030B1000030B000003082
:1000D800AF000030AE007028B0177B280030B100A8
:1000E8000030B0000030AF000030AE007B28380888
:1000F80003197F28802886283D08031D8428852821
:10010800902886280030AD000030AC000030AB00ED
:100118000030AA008F2B8F2B2A08B2003208F30078
:1001280030080A128A154C250A128A11740883129B
:100138000313C3007308C2004208B200B301B4013C
:10014800B5013508BC003408BB003308BA003208D2
:10015800B9004308B200B301B401B5013508C100C4
:100168003408C0003308BF003208BE002B08B200B4
:100178003208F3002F080A128A154C250A128A1130
:10018800740883120313C3007308C2004208B20044
:10019800B301B401B5013208B907330803110318D4
:1001A800013E0319D828BA07340803110318013E81
:1001B8000319DF28BB07350803110318013E03198B
:1001C800E628BC074308B200B301B401B501320800
:1001D800BE07330803110318013E0319F428BF07AB
:1001E800340803110318013E0319FB28C00735081A
:1001F80003110318013E03190229C1072C08B20094
:100208003208F3002E080A128A154C250A128A11A0
:10021800740883120313C3007308C2004208B200B3
:10022800B301B401B5013208B90733080311031843
:10023800013E03192029BA07340803110318013EA7
:1002480003192729BB07350803110318013E0319B1
:100258002E29BC074308B200B301B401B501320826
:10026800BE07330803110318013E03193C29BF07D1
:10027800340803110318013E03194329C007350840
:1002880003110318013E03194A29C1070830B200B7
:100298000310B90DBA0DBB0DBC0DB20B4C292B08C0
:1002A800B2003208F3002E080A128A154C250A12E9
:1002B8008A11740883120313C3007308C20042082A
:1002C800B2004308B300B401B5013208B9073308D6
:1002D80003110318013E03197229BA0734080311E0
:1002E8000318013E03197929BB07350803110318C0
:1002F800013E03198029BC072A08B2003208F3001E
:100308002F080A128A154C250A128A1174088312BA
:100318000313C3007308C2004208B2004308B300C5
:10032800B401B5013208B907330803110318013EB7
:1003380003199F29BA07340803110318013E03194A
:10034800A629BB07350803110318013E0319AD2977
:10035800BC070830B2000310B90DBA0DBB0DBC0DB7
:10036800B20BAF292A08B2003208F3002E080A128D
:100378008A154C250A128A11740883120313C300C4
:100388007308C2004208B2004308B300B401B501C3
:100398003208B907330803110318013E0319D52998
:1003A800BA07340803110318013E0319DC29BB07F7
:1003B800350803110318013E0319E329BC072B086C
:1003C800B2003208F30030080A128A154C250A12C6
:1003D8008A11740883120313C3007308C200420809
:1003E800B2004308B300B401B5013208BE073308B0
:1003F80003110318013E0319022ABF073408031129
:100408000318013E0319092AC00735080311031808
:10041800013E0319102AC1072C08B2003208F30064
:100428002F080A128A154C250A128A117408831299
:100438000313C3007308C2004208B2004308B300A4
:10044800B401B5013208BE07330803110318013E91
:1004580003192F2ABF07340803110318013E031993
:10046800362AC007350803110318013E03193D2A2F
:10047800C1072C08B2003208F30030080A128A15A6
:100488004C250A128A11740883120313C3007308D7
:10049800C2004208B2004308B300B401B5010830F5
:1004A8000310B20DB30DB40DB50DFF3E031D542A54
:1004B8003208BE07330803110318013E0319652AE1
:1004C800BF07340803110318013E03196C2AC0073B
:1004D800350803110318013E0319732AC1073908A7
:1004E800B2003A08B3003B08B4003C08B500183025
:1004F8000310B50CB40CB30CB20CFF3E031D7C2AE0
:100508003208BE07330803110318013E03198D2A68
:10051800BF07340803110318013E0319942AC007C2
:10052800350803110318013E03199B2AC107083037
:10053800B2000310B90DBA0DBB0DBC0DB20B9D2A4C
:100548003D083807B200B301B30D3208823EC2003D
:1005580033080318013EFF3EC300D12A0130B20020
:100568000310BE0DBF0DC00DC10DB20BB42ABC1FC8
:10057800BE2ABF2AC12A3E14C12A0130B200031084
:10058800B90DBA0DBB0DBC0DB20BC32AFF30C207A3
:100598000318C30AFF30C307D12AC01FD42AD52A9B
:1005A800B22AD62AB801BC1FDA2ADB2AFB2AFF3076
:1005B8003905B200FF303A05B300FF303B05B400FF
:1005C8007F303C05B5003508340433043204031980
:1005D800EE2AEF2AF22AB801B80AFB2A3E1CF52AAD
:1005E800F62AFB2AB801B80AFB2AFB2AFB2A380894
:1005F8000319FF2A002B332B0130BE0700300318E4
:100608000130BF07003003180130C007003003185D
:100618000130C107411C112B122B332B3E08B200AD
:100628003F08B3004008B4004108B5000130B600E7
:10063800350DB50CB40CB30CB20CB60B1C2B35082D
:10064800C1003408C0003308BF003208BE000130C2
:10065800C2070318C30A0030C307332B332B4308E0
:10066800803AFF0080307F02031D3C2BFF3042029E
:10067800031C3F2B402B4B2B7F3083120313C100ED
:100688008030C0000030BF000030BE00822B8312D3
:1006980003134308803AFF0080307F02031D562B66
:1006A800013042020318592B5A2B662B0030831253
:1006B8000313C1000030C0000030BF000030BE008E
:1006C800B701822B831203134208B2003208BD001F
:1006D800FF30BE05FF30BF057F30C0050030C105C3
:1006E8003D1C772B782B7A2BC0177A2B3D08B2004C
:1006F8000310320CB3003308C100822B3708B20054
:100708003208C1044108AD004008AC003F08AB0006
:100718003E08AA008F2B080083120313470880396C
:10072800CC004C08D8004708CC004C07CD004D0839
:10073800DA00C61FA02BA12BA32B5A14A32B5A08EF
:100748000319A72BA82BB92B5A0A031DAC2BAD2BC9
:10075800B62B0030C7000030C6000030C50000309E
:10076800C400B62BC617C701C22B0030C700003023
:10077800C6000030C5000030C400C22B4B088039C9
:10078800CC004C08D900590858060319CC2BCD2B9E
:10079800CF2B5817CF2B4B08CC004C07CD004D085A
:1007A800D900CA1FD82BD92BDB2B5914DB2B59089E
:1007B8000319DF2BE02BF12B590A031DE42BE52B42
:1007C800EE2B0030CB000030CA000030C9000030EA
:1007D800C800EE2BCA17CB01F92B0030CB00003034
:1007E800CA000030C9000030C8005A08590203186E
:1007F800FE2BFF2B452C581F022C032C082C803075
:10080800CC004C08D806082C5A08CC004C08DB0051
:100818005908CC004C08DA005B08CC004C08D90019
:100828004408CC004C08DB004808CC004C08C40045
:100838005B08CC004C08C8004508CC004C08DB001D
:100848004908CC004C08C5005B08CC004C08C9001E
:100858004608CC004C08DB004A08CC004C08C6000F
:100868005B08CC004C08CA004708CC004C08DB00E9
:100878004B08CC004C08C7005B08CC004C08CB00E8
:10088800452CDB015A08CC00CD01CC09CD09CC0A96
:100898000319CD0A59084C07CE004D0803184D0A14
:1008A800CF004F08803AFF0080307F02031D5E2C86
:1008B8001A304E02031C612C622CA32C83120313E2
:1008C8004708460445044404031D6B2C6D2C013075
:1008D8006E2C0030CC004C08DB000030C700003024
:1008E800C6000030C5000030C4005908CC004C08D0
:1008F800DA00AC2CA32C5B1C822C832C8C2C5B0880
:10090800CC0003104C0C0138CD004D08DB008F2CB7
:100918000310DB0C8F2C441C922C932C952CDB178A
:10092800952C0130CC00470DC70CC60CC50CC40C67
:10093800CC0B972C0130CC004C08DA07A32C83127F
:10094800031359085A02031CAA2CAB2C7F2CAC2C7D
:10095800581BAF2CB02CFF2C5A08031DB42CB52CF7
:10096800BF2C0030C7000030C6000030C500003082
:10097800C4004B2E4B2E4808C4074908031103181E
:10098800013E0319C82CC5074A0803110318013E84
:100998000319CF2CC6074B0803110318013E03198E
:1009A800D62CC707471CD92CDA2CC82D5B1CDD2C8C
:1009B800DE2CE72C5B08CC0003104C0C0138CD0072
:1009C8004D08DB00EA2C0310DB0CEA2C441CED2C50
:1009D800EE2CF02CDB17F02C0130CC00470DC70CA7
:1009E800C60CC50CC40CCC0BF22C0130CC004C0846
:1009F800DA07C82DC82D4708803AFF004B08803A0F
:100A08007F02031D112D4A084602031D112D4908B6
:100A18004502031D112D480844020318142D152DF5
:100A28007B2DFF30CC00FF30CD00FF30CE00FF30F3
:100A3800CF004808D0004908D1004A08D2004B0826
:100A4800D3004409D4004509D5004609D600470912
:100A5800D700D40A0319D50A0319D60A0319D70AE5
:100A68005408D00755080318550F3B2D3C2DD107C6
:100A780056080318560F412D422DD2075708031860
:100A8800570AD3075008CC0751080318510F4D2DAA
:100A98004E2DCD0752080318520F532D542DCE0753
:100AA80053080318530ACF074F08C7004E08C6005B
:100AB8004D08C5004C08C4008030CC004C08D8064E
:100AC800DB09DB0A5B08031D6A2D6B2D892D0130BC
:100AD800C407003003180130C5070030031801307F
:100AE800C607003003180130C707892D892D48082B
:100AF800C4024908031C490FC5024A08031C4A0FCF
:100B0800C6024B08031C4B0FC7024708460445049E
:100B18004404031D902D912DC22D5B08031D952DB6
:100B2800962DC22D0030C7000030C6000030C50029
:100B38000030C4004B2E4B2EC22D0130CC000310C8
:100B4800C40DC50DC60DC70DCC0BA32DDB1FAD2DD8
:100B5800AE2DAF2D44145B1CB22DB32DB62D03144E
:100B6800DB0DB92D0310DB0DB92D5A080319BD2D66
:100B7800BE2DC22D0130DA02C22DC22DC61FC52DD1
:100B8800C62DA12DC82DC82DD901DB1FCC2DCD2DEB
:100B9800DF2D5B087F390319D22DD32DD62DD9012E
:100BA800D90ADF2D441CD92DDA2DDF2DD901D90A18
:100BB800DF2DDF2DDF2D59080319E32DE42D1A2E23
:100BC8000130C407003003180130C507003003188E
:100BD8000130C607003003180130C707471CF52D40
:100BE800F62D1A2E4408CC004508CD004608CE0044
:100BF8004708CF000130D0004F0DCF0CCE0CCD0CE4
:100C0800CC0CD00B002E4F08C7004E08C6004D086C
:100C1800C5004C08C4005A0A0319132E142E1A2EA4
:100C28000130CC004C08DA071A2E1A2E5A0A03197A
:100C38001E2E1F2E252E5A08031D232E242E352E38
:100C4800252E0030C7000030C6000030C500003037
:100C5800C4005A08031D312E322E352ED801352EE8
:100C6800352E5A1C382E392E3B2EC6173F2E7F3074
:100C7800CC004C08C6055A08CC0003104C0CCD001B
:100C88004D08C700D81F492E4A2E4B2EC7170800FB
:100C9800F600831203131F149F141F083F394038AE
:100CA8009F00831603131F129F120F2F831603171B
:100CB8000814C330831203139F0583160313051406
:100CC800492F831603178814831203131F08C33987
:100CD80004389F00831603138514492F83160317BE
:100CE8000815831203131F08C33908389F00831699
:100CF80003130515492F8316031788158312031349
:100D08001F08C3390C389F00831603138515492F14
:100D1800831603170816831203131F08C3391038E4
:100D28009F00831603138516492F83160317881609
:100D3800831203131F08C33914389F008316031343
:100D48000914492F831603170817831203131F0862
:100D5800C33918389F00831603138914492F831643
:100D680003178817831203131F08C3391C389F0001
:100D7800831603130915492F8316031709148312C1
:100D880003131F08C33920389F0083160313061561
:100D9800492F831603178914831203131F08C339B5
:100DA80024389F00831603138615492F83160317CB
:100DB8000915831203131F08C33928389F008316A7
:100DC80003138614492F83160317891583120313F7
:100DD8001F08C3392C389F00831603130616492FA2
:100DE800831603170916831203131F08C3393038F3
:100DF8009F00831603130614492F831603178916B9
:100E0800831203131F08C33934389F008316031352
:100E18008616492F492F7608F400F5017508003A1F
:100E28000319172F492F7408003A03195A2E013A4B
:100E38000319652E033A0319722E013A03197F2EFE
:100E4800073A03198C2E013A0319992E033A03190C
:100E5800A62E013A0319B32E0F3A0319C02E013AF0
:100E68000319CD2E033A0319DA2E013A0319E72E96
:100E7800073A0319F42E013A0319012F492F492F74
:100E88009F13592F9F17592F592F7308F400F501F5
:100E98007508003A0319512F592F7408003A03199D
:100EA800442F013A0319462F592F080083120313C0
:100EB8005C08E0005D08E1005E08E2005F08E3000E
:100EC8000310620D630DE4006408E6006608031D64
:100ED8006E2F6F2F792F0030DF000030DE000030DA
:100EE800DD000030DC00F52FF52F5C08E0005D0820
:100EF800E1005E08E2005F08E3001F300310E30C26
:100F0800E20CE10CE00CFF3E031D822F6008E400B8
:100F18006408E500DE17FF30DC05FF30DD05FF3033
:100F2800DE050030DF059630E602E61F9C2F9D2F78
:100F3800C22F6608803A973E0318A32FA42FAF2F1D
:100F48000030DF000030DE000030DD000030DC0063
:100F5800F52FF52FAF2F01300310DF0CDE0CDD0C61
:100F6800DC0CFF3E031DB02F0130E0006008E607EF
:100F7800031DBF2FC02FAF2FE52FE52F20306602AE
:100F8800031CC72FC82FDE2F0030DF000030DE0023
:100F98000030DD000030DC00F52FF52FDE2F0130AA
:100FA800E0000310DC0DDD0DDE0DDF0DE00BD52FAD
:100FB8000130E6026608031DE22FE32FD32FE52F49
:100FC800E52F65080319E92FEA2FF52FDC09DD095C
:100FD800DE09DF09DC0A0319DD0A0319DE0A031931
:100FE800DF0A0800831203130C13831603130C176C
:060FF8008B170B17080027
:101A6400F3007308831603139300363083120313B1
:101A7400940080308316031394000130910087157D
:101A840007168B170B17831203138C11831603137A
:101A94008C15080083120313A400A001A10173088C
:101AA400F500F6017508A2007608A300592D241C40
:101AB4005C2D5D2D632D2208A0070318A10A2308BD
:101AC400A10701300310A20DA30DFF3E031D642DD9
:101AD4000310A40C2408031D702D712D592D722D93
:101AE4002108F4002008F300772D08008312031363
:101AF400A101F41F7E2D7F2D872DF309F409F30A2C
:101B04000319F40AA101A10A872DF61F8A2D8B2D32
:101B1400952DF509F609F50A0319F60A0130F700BF
:101B24007708A106952DA201A30173087404031973
:101B34009C2D9D2DDA2DA001A00AAC2D013003109F
:101B4400F30DF40DFF3E031DA12D0130F7007708BE
:101B5400A007AC2DF41FAF2DB02DA02DB22DB22DAA
:101B640001300310A20DA30DFF3E031DB32D740815
:101B74007602031DBF2D73087502031CC22DC32DED
:101B8400CB2D7308F5027408031CF603F602221425
:101B9400CB2D01300310F40CF30CFF3E031DCC2DB0
:101BA4000130A002031DD72DD82DB22DDA2DDA2D48
:101BB40021080319DE2DDF2DE52DA209A309A20AB0
:101BC4000319A30AE52D2308F4002208F300EA2DE3
:101BD4000800831203130C1FF02DF12DF82D1E089D
:101BE400F0007008ED000C139F14F82D8C1DFB2DD4
:101BF400FC2D5C2E1412141B002E012E062E941F95
:101C0400042E052E0E2E062E1308F0007008F9007F
:101C14001413941314160E2E83160313941A132EEE
:101C2400142E342E1419172E182E342E8312031347
:101C34001308F0007008F9008C111416212E831675
:101C44000313141C262E272E212E282E8312031351
:101C54001308F0007008F800A630F000F00B302EE6
:101C64000000582E941A372E382E582E141D3B2E51
:101C74003C2E582E831203131308F0007008F90049
:101C8400831603131410831203136C0893001416A1
:101C9400A630F000F00B4C2E0000502E83160313D8
:101CA4001418552E562E502E582E582E83120313C8
:101CB4008C115C2E72088A00710E8300FE0E7E0E5B
:101CC400090083120313A400240803196A2E6B2E3F
:101CD4007F2EF61F6E2E6F2E7F2E7309A6007409B9
:101CE400A7007509A8007609A900A60A0319A70A7E
:101CF4000319A80A0319A90A872E7608A9007508EA
:101D0400A8007408A7007308A60076087504740474
:101D14007304031D8E2E8F2E992E0030F600003092
:101D2400F5000030F4000030F300262F262F963003
:101D3400A0002008A500AC2E0130A0002008A507B3
:101D440001300310A90CA80CA70CA60CFF3E031D20
:101D5400A32EAC2EFE302905031DB12EB22E9E2ECD
:101D6400CF2ECF2E0130A0002008A5070130A607F2
:101D7400003003180130A707003003180130A8070A
:101D8400003003180130A90701300310A90CA80C76
:101D9400A70CA60CFF3E031DC72EFF302905031D0B
:101DA400D42ED52EB42EE32EE32E0130A50201301D
:101DB400A0000310A60DA70DA80DA90DA00BDB2EE6
:101DC400E32EA81BE62EE72EEE2E02302502031882
:101DD400EC2EED2ED72EEE2E2518F12EF22EFA2E05
:101DE400FF30A605FF30A7057F30A805FF30A90501
:101DF4000310A50C2508A000A101A201A30118301D
:101E04000310A00DA10DA20DA30DFF3E031D022F73
:101E14002008A6042108A7042208A8042308A9046A
:101E240024080319162F172F1D2FF61F1A2F1B2FE7
:101E34001D2FA9171D2F2908F6002808F5002708CB
:101E4400F4002608F300262F0800831603178801E0
:101E540089018316031385018701FF3086008801F9
:101E640010300A128A1532250A128A15F3010D3030
:101E74000A128A114C260A128A150A128A11F627A6
:101E84000A128A15831203139F14482F6D08E70062
:101E9400E801E901EA016A08F6006908F500680842
:101EA400F4006708F30001300A128A1563260A1247
:101EB4008A15760883120313B1007508B0007408FC
:101EC400AF007308AE00BE30AD00B430AC002C30AF
:101ED400AB003D30AA000A128A111B200A128A158F
:101EE400831203132D08CB002C08CA002B08C90049
:101EF4002A08C8004230C7006C30C600BD30C50097
:101F04007130C4000A128A1190230A128A158312AE
:101F14000313470883160313A3008312031346080D
:101F240083160313A20083120313450883160313B5
:101F3400A10083120313440883160313A00023088B
:101F440083120313CB008316031322088312031393
:101F5400CA0083160313210883120313C9008316CE
:101F64000313200883120313C8004030C7008030D5
:101F7400C6000030C5000030C4000A128A11902344
:101F84000A128A15831203134708DF004608DE008D
:101F94004508DD004408DC000A128A115A270A1297
:101FA4008A15831203135C08E7006708EC0002300B
:101FB400F3000030F4006C086B07F500F601F60D31
:101FC4000A128A1578250A128A15730883120313D4
:101FD400E7006708EC001D306C02031CF22FF32F9E
:101FE400F52F8814F72F8810F72F6C08E70067087F
:0C1FF400EB00482F482F0A128A110C281D
:04400E00D4E0FFFFFC
:00000001FF
