:020000040000FA
:060000000A128A110C280F
:10000800FE00030EF5000A08F6000A128A113529C7
:100018000A128A110F28F001F101F201F301F4012B
:1000280083120313A801A90183010A128A111C284B
:100038000A128A114B210A128A1183120313290802
:10004800031D272828282E282808031D2C282D289A
:100058002E2821282903031D32283328392828036C
:10006800031D37283828392821282903031D3D284E
:100078003E286828A401A50100300A128A119A2096
:100088000A128A11831203132808031D4C284D28CD
:100098004E2854282803031D522853285428212861
:1000A8000130A4070318A50A0030A5072508803ADF
:1000B800FF0084307F02031D632800302402031CE4
:1000C80066286728402821282803031D6C286D28E6
:1000D8002128A601A70101300A128A119A200A12C2
:1000E8008A11831203132908031D7B287C287D2885
:1000F80083282903031D8128822883282128013089
:10010800A6070318A70A0030A7072708803AFF00A8
:1001180084307F02031D922800302602031C952894
:1001280096286F2821280A128A110C28F9007903C9
:10013800031D9F28A028D4280130831203138600AA
:100148000130F7000030F8000A128A110E210A1255
:100158008A1102308312031386000130F700003041
:10016800F8000A128A110E210A128A110430831229
:10017800031386000130F7000030F8000A128A11D4
:100188000E210A128A1108308312031386000130E7
:10019800F7000030F8000A128A110E210A128A119B
:1001A8007908031DD828D9280D290830831203138C
:1001B80086000130F7000030F8000A128A110E217B
:1001C8000A128A1104308312031386000130F700E3
:1001D8000030F8000A128A110E210A128A11023020
:1001E8008312031386000130F7000030F8000A126A
:1001F8008A110E210A128A11013083120313860014
:100208000130F7000030F8000A128A110E210A1294
:100218008A11080083120313A001A1012A29A2014F
:10022800A3010130A2070318A30A0030A307003076
:100238002302FA3003192202031C23292429152931
:100248000130A0070318A10A0030A107780821028D
:10025800031D302977082002031C33293429132968
:1002680008000B1C3829392944290B100030831247
:100278000313861B0130A9000030061B0130A800BB
:1002880076088A00750E8300FE0E7E0E090083161E
:10029800031788018901C03083160313860083126F
:1002A8000313061486148316031396171617C830FB
:0802B8008B0070308F04080078
:04400E00D4E0FFFFFC
:00000001FF
