:020000040000FA
:060000000A128A110C280F
:10000800FE00030EF7000A08F8000A168A11DD2A16
:100018000A128A110F288313C830FD001130FE0020
:100028009B30FF00BE3084000A168A11DA210A12BA
:100038008A110A168A1158210A128A11FC000A1616
:100048008A1159210A128A11FD00A0308400BE309D
:100058000A168A1177210A128A11EF01F901FA01A9
:10006800FB0183010A128A158329831203133B08B3
:100078008039C0004008CC003B08C0004007C100E0
:100088004108CE00BA1F49284A284C284E144C284B
:100098004E0803195028512862284E0A031D552876
:1000A80056285F280030BB000030BA000030B90085
:1000B8000030B8005F28BA17BB016B280030BB00BE
:1000C8000030BA000030B9000030B8006B283F0893
:1000D8008039C0004008CD004D084C06031975282A
:1000E800762878284C1778283F08C0004007C100B8
:1000F8004108CD00BE1F8128822884284D148428F9
:100108004D080319882889289A284D0A031D8D2827
:100118008E2897280030BF000030BE000030BD0098
:100128000030BC009728BE17BF01A2280030BF00CE
:100138000030BE000030BD000030BC004E084D024B
:100148000318A728A828EE284C1FAB28AC28B128EC
:100158008030C0004008CC06B1284E08C0004008D6
:10016800CF004D08C0004008CE004F08C00040082E
:10017800CD003808C0004008CF003C08C000400847
:10018800B8004F08C0004008BC003908C00040084B
:10019800CF003D08C0004008B9004F08C000400823
:1001A800BD003A08C0004008CF003E08C000400823
:1001B800BA004F08C0004008BE003B08C000400815
:1001C800CF003F08C0004008BB004F08C0004008EF
:1001D800BF00EE28CF014E08C000C101C009C10907
:1001E800C00A0319C10A4D084007C2004108031894
:1001F800410AC3004308803AFF0080307F02031D94
:1002080007291A304202031C0A290B294C29831298
:1002180003133B083A0439043804031D142916292A
:10022800013017290030C0004008CF000030BB0063
:100238000030BA000030B9000030B8004D08C000E6
:100248004008CE0055294C294F1C2B292C2935292B
:100258004F08C0000310400C0138C1004108CF000E
:1002680038290310CF0C3829381C3B293C293E2952
:10027800CF173E290130C0003B0DBB0CBA0CB90C9E
:10028800B80CC00B40290130C0004008CE074C29EB
:10029800831203134D084E02031C5329542928299D
:1002A80055294C1B58295929A8294E08031D5D2991
:1002B8005E2968290030BB000030BA000030B90060
:1002C8000030B800F42AF42A3C08B8073D080311A6
:1002D8000318013E03197129B9073E0803110318D1
:1002E800013E03197829BA073F0803110318013E94
:1002F80003197F29BB073B1C82298329712A4F1CBC
:100308008629872990294F08C0000310400C01381E
:10031800C1004108CF0093290310CF0C9329381C42
:10032800962997299929CF1799290130C0003B0DA3
:10033800BB0CBA0CB90CB80CC00B9B290130C0001F
:100348004008CE07712A712A3B08803AFF003F080F
:10035800803A7F02031DBA293E083A02031DBA29D2
:100368003D083902031DBA293C0838020318BD2983
:10037800BE29242AFF30C000FF30C100FF30C20070
:10038800FF30C3003C08C4003D08C5003E08C60055
:100398003F08C7003809C8003909C9003A09CA0026
:1003A8003B09CB00C80A0319C90A0319CA0A031969
:1003B800CB0A4808C40749080318490FE429E52966
:1003C800C5074A0803184A0FEA29EB29C6074B084C
:1003D80003184B0AC7074408C00745080318450F08
:1003E800F629F729C10746080318460FFC29FD29F5
:1003F800C20747080318470AC3074308BB00420857
:10040800BA004108B9004008B8008030C000400870
:10041800CC06CF09CF0A4F08031D132A142A322A03
:100428000130B807003003180130B907003003184D
:100438000130BA07003003180130BB07322A322ACC
:100448003C08B8023D08031C3D0FB9023E08031CD6
:100458003E0FBA023F08031C3F0FBB023B083A0499
:1004680039043804031D392A3A2A6B2A4F08031D18
:100478003E2A3F2A6B2A0030BB000030BA00003009
:10048800B9000030B800F42AF42A6B2A0130C00001
:100498000310B80DB90DBA0DBB0DC00B4C2ACF1FF8
:1004A800562A572A582A38144F1C5B2A5C2A5F2A76
:1004B8000314CF0D622A0310CF0D622A4E080319C8
:1004C800662A672A6B2A0130CE026B2A6B2ABA1F6A
:1004D8006E2A6F2A4A2A712A712ACD01CF1F752ADE
:1004E800762A882A4F087F3903197B2A7C2A7F2A93
:1004F800CD01CD0A882A381C822A832A882ACD0170
:10050800CD0A882A882A882A4D0803198C2A8D2A18
:10051800C32A0130B807003003180130B90700308A
:1005280003180130BA07003003180130BB073B1C21
:100538009E2A9F2AC32A3808C0003908C1003A08F1
:10054800C2003B08C3000130C400430DC30CC20CF9
:10055800C10CC00CC40BA92A4308BB004208BA004E
:100568004108B9004008B8004E0A0319BC2ABD2A40
:10057800C32A0130C0004008CE07C32AC32A4E0A46
:100588000319C72AC82ACE2A4E08031DCC2ACD2A09
:10059800DE2ACE2A0030BB000030BA000030B90095
:1005A8000030B8004E08031DDA2ADB2ADE2ACC0107
:1005B800DE2ADE2A4E1CE12AE22AE42ABA17E82AB1
:1005C8007F30C0004008BA054E08C0000310400C38
:1005D800C1004108BB00CC1FF22AF32AF42ABB173A
:1005E80008008312031327088039A8002808B100DF
:1005F8002708A8002807A9002908B800A61F052B66
:10060800062B082B3814082B380803190C2B0D2B34
:100618001E2B380A031D112B122B1B2B0030A70091
:100628000030A6000030A5000030A4001B2BA61740
:10063800A701272B0030A7000030A6000030A50036
:100648000030A400272B23088039A8002808B10609
:100658002308A8002807A9002908B900A21F352BDC
:10066800362B382B3914382B390803193C2B3D2BE2
:100678004E2B390A031D412B422B4B2B0030A30074
:100688000030A2000030A1000030A0004B2BA217C0
:10069800A301562B0030A3000030A2000030A100B7
:1006A8000030A0002308220421042004031D5D2B30
:1006B8005E2B782B0030A7000030A6000030A50084
:1006C8000030A4008030A6047F30A7043108A800B9
:1006D8002808A7042708A3002608A2002508A100C7
:1006E8002408A000FD2CFD2C3808031D7C2B7D2B35
:1006F8008F2B0030A7000030A6000030A500003086
:10070800A4002708A3002608A2002508A1002408A1
:10071800A000FD2CFD2C3908A800A901A809A909E9
:10072800A80A0319A90A38082807AA0029080318DB
:10073800290AAB002A087F3EB2002B080318013EA5
:10074800003EB3002708B0002608AF002508AE0019
:100758002408AD000030A7000030A6000030A50036
:100768000030A4000030B7000030B6000030B500FB
:100778000030B400B9010E2C39080319C42BC52B5D
:10078800E72B0130A8000310AD0DAE0DAF0DB00D75
:10079800A80BC72B0130A8000310A40DA50DA60DAA
:1007A800A70DA80BD02BB71FDA2BDB2BDD2B2414BE
:1007B800DD2B0130A8000310B40DB50DB60DB70D33
:1007C800A80BDF2BE72B23083002031DF52B22088B
:1007D8002F02031DF52B21082E02031DF52B2008DF
:1007E8002D02031CF82BF92B092C37172008AD0212
:1007F8002108031C210FAE022208031C220FAF029E
:100808002308031C230FB002092C0130A800280874
:10081800B9070E2C1A303902031C132C142CC02BC8
:10082800152C30082F042E042D0403191C2C1D2C04
:100838003F2C34143F2C3F2C0130A8000310A40D8A
:10084800A50DA60DA70DA80B222CB71F2C2C2D2CFF
:100858002F2C24142F2C0130A8000310B40DB50D33
:10086800B60DB70DA80B312CFF30B2070318B30A29
:10087800FF30B3073F2CA61F422C432C202C442CBE
:10088800B901B71F482C492C692CFF303405A80042
:10089800FF303505A900FF303605AA007F3037053F
:1008A800AB002B082A042904280403195C2C5D2CAE
:1008B800602CB901B90A692C241C632C642C692C9E
:1008C800B901B90A692C692C692C390803196D2CEE
:1008D8006E2CA12C0130A407003003180130A507A5
:1008E800003003180130A607003003180130A707AD
:1008F800271C7F2C802CA12C2408A8002508A900DF
:100908002608AA002708AB000130AC002B0DAB0C61
:10091800AA0CA90CA80CAC0B8A2C2B08A7002A0837
:10092800A6002908A5002808A4000130B20703186A
:10093800B30A0030B307A12CA12C3308803AFF007A
:1009480080307F02031DAA2CFF303202031CAD2C1D
:10095800AE2CBD2CFF3083120313B2000030B3005D
:100968000030A7000030A6000030A5000030A40029
:10097800BD2C831203133308803AFF0080307F02B6
:10098800031DC82C013032020318CB2CCC2CD92CD7
:1009980083120313B201B3010030A7000030A60090
:1009A8000030A5000030A400B101831203133208FF
:1009B800A8002808B800381CE22CE32CE52CA61760
:1009C800E92C7F30A8002808A6053808A8000310DD
:1009D800280CA9002908A7003108A8002808A7049E
:1009E8002708A3002608A2002508A1002408A000C3
:1009F800FD2C08000A168A117F210A128A11D030AC
:100A080083120313AD000030AE000A168A1191213B
:100A18000A128A11003083120313AD00AE000A16C1
:100A28008A1191210A128A110A168A1188210A123A
:100A38008A110A168A117F210A128A11D13083126B
:100A48000313AD000030AE000A168A1191210A1274
:100A58008A11003083120313A000A1000A168A111C
:100A68003D230A128A11831203132108A7002008C4
:100A7800A6000A168A1188220A128A118312031301
:100A88002708FA002608F9000A168A1188210A128E
:100A98008A110A168A117F210A128A11D13083120B
:100AA8000313AD000030AE000A168A1191210A1214
:100AB8008A11003083120313A000A1000A168A11BC
:100AC8003D230A128A11831203132108A700200864
:100AD800A6000A168A1188220A128A1183120313A1
:100AE8002708FD002608FC000A168A1188210A1228
:100AF8008A110A168A117F210A128A11D1308312AB
:100B08000313AD000030AE000A168A1191210A12B3
:100B18008A11003083120313A000A1000A168A115B
:100B28003D230A128A11831203132108A700200803
:100B3800A6000A168A1188220A128A118312031340
:100B4800270883160313C700831203132608831686
:100B58000313C6000A168A1188210A128A110A1676
:100B68008A117F210A128A11D13083120313AD0032
:100B78000030AE000A168A1191210A128A1100303B
:100B880083120313A000A1000A168A113D230A123A
:100B98008A110A168A1188210A128A110A168A11DC
:100BA8007F210A128A11D13083120313AD0000305D
:100BB800AE000A168A1191210A128A110030831296
:100BC8000313A000A1000A168A113D230A128A11F4
:100BD800831203132108A7002008A6000A168A1109
:100BE80088220A128A118312031327088316031313
:100BF800C50083120313260883160313C4000A16BC
:100C08008A1188210A128A110A168A117F210A126A
:100C18008A11D13083120313AD000030AE000A16DA
:100C28008A1191210A128A11003083120313A0003D
:100C3800A1000A168A113D230A128A11831203138E
:100C48002108A7002008A6000A168A1188220A127D
:100C58008A1183120313270883160313C100831212
:100C68000313260883160313C0000A168A11882165
:100C78000A128A110A168A117F210A128A11D130A2
:100C880083120313AD000030AE000A168A119121B9
:100C98000A128A11003083120313A000A1000A1659
:100CA8008A113D230A128A11831203132108A7000F
:100CB8002008A6000A168A1188220A128A118312AD
:100CC8000313270883160313BF0083120313260890
:100CD80083160313BE000A168A1188210A128A1184
:100CE8000A168A1188210A128A110A168A117F2186
:100CF8000A128A11D13083120313AD000030AE00FE
:100D08000A168A1191210A128A11003083120313DC
:100D1800A000A1000A168A113D230A128A110A1698
:100D28008A1188210A128A1108000A3083120313D3
:100D3800A0000030A1007A08A3007908A2000A16D2
:100D48008A113D260A128A11831203132008A9006A
:100D58002908EF000A30A0000030A1007A08A3009B
:100D68007908A2000A168A11A2260A128A11831289
:100D780003132008A9002908FB000A30A00000304E
:100D8800A1007D08A3007C08A2000A168A113D264E
:100D98000A128A11831203132008A900290883164E
:100DA8000313B8000A3083120313A0000030A10017
:100DB8007D08A3007C08A2000A168A11A2260A123E
:100DC8008A11831203132008A90029088316031324
:100DD800B7000A3083120313A0000030A100831665
:100DE8000313470883120313A3008316031346084B
:100DF80083120313A2000A168A113D260A128A11C9
:100E0800831203132008A900290883160313B600C8
:100E18000A3083120313A0000030A10083160313C5
:100E2800470883120313A30083160313460883128B
:100E38000313A2000A168A11A2260A128A11831223
:100E480003132008A900290883160313B5000A30E4
:100E580083120313A0000030A10083160313450872
:100E680083120313A3008316031344088312031386
:100E7800A2000A168A113D260A128A118312031348
:100E88002008A900290883160313B4000A30831226
:100E98000313A0000030A100831603134508831232
:100EA8000313A30083160313440883120313A20039
:100EB8000A168A11A2260A128A118312031320081D
:100EC800A900290883160313B3000A3083120313F9
:100ED800A0000030A10083160313410883120313F6
:100EE800A30083160313400883120313A2000A16F3
:100EF8008A113D260A128A11831203132008A900B9
:100F0800290883160313B2000A3083120313A000C2
:100F18000030A10083160313410883120313A300B2
:100F280083160313400883120313A2000A168A11BA
:100F3800A2260A128A11831203132008A90029087D
:100F480083160313B1000A3083120313A000003084
:100F5800A100831603133F0883120313A30083160B
:100F680003133E0883120313A2000A168A113D26B2
:100F78000A128A11831203132008A900290883166C
:100F88000313B0000A3083120313A0000030A1003D
:100F9800831603133F0883120313A3008316031356
:100FA8003E0883120313A2000A168A11A2260A1207
:100FB8008A11831203132008A90029088316031332
:100FC800AF000800F30083120313861373080A1690
:100FD8008A11F7240A128A118312031388171A3008
:100FE800F200F830F100F10BF72FF20BF72F0000A9
:100FF8008312031388130800FF1B0A2883137F1822
:1010080083170008840A0319FF0A080008308A00B9
:101018000408840A82070034453473347434613414
:101028002034743465346D3462346C3461346E3415
:1010380064346F34213400345434723461346E347F
:101048007134753469346C346F34203470347234CC
:1010580072346F340034543465346D34703465340C
:101068007234613474347534723461343A3400340F
:1010780043346F346E347434613464346F3472348E
:101088003A34003441347534733465346E3474340E
:10109800653420340034543465346D3462346C342F
:1010A8006F3472343A3400345034723465347334E3
:1010B80065346E34743465340034463465346334CE
:1010C800683461343A34003448346F3472346134EB
:1010D8003A340034483475346D346F343A3400345B
:1010E8002F34003443340034003083120313AC002F
:1010F8000030AB000030AA000030A9002308220409
:1011080021042004031989288A28DD28AD01AD0AA5
:101118009B280130A8000310A00DA10DA20DA30D5E
:10112800A80B8F280130A8002808AD079B28A31F0B
:101138009E289F288D28A128A1280130A8000310E7
:10114800A90DAA0DAB0DAC0DA80BA32823082702E7
:10115800031DB82822082602031DB82821082502E5
:10116800031DB82820082402031CBB28BC28CC284F
:101178002008A4022108031C210FA5022208031C31
:10118800220FA6022308031C230FA7022914CC2828
:1011980001300310A30CA20CA10CA00CFF3E031DF0
:1011A800CD280130AD02031DDA28DB28A128DD286F
:1011B800DD282C08A3002B08A2002A08A100290872
:1011C800A000E6280800831203135008D400510831
:1011D800D5005208D6005308D7000310560D570DF6
:1011E800D8005808DA005A08031DFB28FC280629ED
:1011F8000030D3000030D2000030D1000030D000E1
:10120800822982295008D4005108D5005208D600F6
:101218005308D7001F300310D70CD60CD50CD40CAC
:10122800FF3E031D0F295408D8005808D900D217CB
:10123800FF30D005FF30D105FF30D2050030D3058F
:101248009630DA02DA1F29292A294F295A08803AC2
:10125800973E0318302931293C290030D30000304B
:10126800D2000030D1000030D000822982293C29E8
:1012780001300310D30CD20CD10CD00CFF3E031D4F
:101288003D290130D4005408DA07031D4C294D29A3
:101298003C297229722920305A02031C54295529E5
:1012A8006B290030D3000030D2000030D10000306C
:1012B800D000822982296B290130D4000310D00D77
:1012C800D10DD20DD30DD40B62290130DA025A08A0
:1012D800031D6F2970296029722972295908031979
:1012E800762977298229D009D109D209D309D00AC8
:1012F8000319D10A0319D20A0319D30A08000A16D6
:101308008A1168210A128A150A168A11C3210A123B
:101318008A150A168A116F210A128A150A168A1165
:101328007E250A128A15003083120313B10001309A
:10133800B0008630AF00A030AE000A168A114624ED
:101348000A128A15523083120313A4008030A500B4
:101358000A168A1136250A128A1583120313A40164
:10136800A40A02300A168A113C220A128A15593038
:1013780083120313A4008030A5000A168A113625AB
:101388000A128A150A128A150A250A128A1583165C
:101398000313A501A401AE01D1290A128A11FE2462
:1013A8000A128A150A128A15D1250A128A153730A7
:1013B80083120313ED006D08A0000530EE006E08DF
:1013C800A1000A300A168A1170230A128A153730CA
:1013D80083120313ED006D08A0000A30EE006E08BA
:1013E800A1000A300A168A11A5230A128A15373075
:1013F80083120313ED006D08A0000F30EE006E0895
:10140800A1000A300A168A11DA230A128A15053051
:101418000A168A11B2220A128A150A168A110C2390
:101428000A128A15831603132D03031D1C2A1D2A6D
:10143800262A0A168A1161210A128A1583160313AD
:10144800AD01D129AD01D129D129D1290A128A1199
:101458000C28831203135E08A7005D08A6005C0829
:10146800A5005B08A4004230A300C830A2000030E9
:10147800A1000030A0000A128A11F5220A128A156A
:10148800831203132308D3002208D2002108D100B5
:101498002008D0000A128A15E7200A128A1583123A
:1014A80003135008DF005F08E2006430A200003038
:1014B800A3006208DF00E0015F08A0006008A10047
:1014C8000A168A115E220A128A158312031320084B
:1014D800A6002108A7000030A71BFF30A800A9001C
:1014E80001300A128A1546240A128A158312031338
:1014F8002908B7002808B6002708B5002608B40050
:101508000A168A11B4210A128A158312031337089E
:10151800BF003608BE003508BD003408BC005E08B0
:10152800BB005D08BA005C08B9005B08B8000A1285
:101538008A1139200A128A15831203133B08D30033
:101548003A08D2003908D1003808D0000A128A15A2
:10155800E7200A128A15831203135008E100610874
:10156800E4000A30A0000030A1006408DF00E001B8
:101578005F08A2006008A3000A168A11A2260A12B0
:101588008A15831203132008E1006108E300630849
:101598000A168A11DB250A128A1583120313DF0043
:1015A8005F08E5006508D82A08000830831203138D
:1015B800AB002B08A40001300A168A113C220A123B
:1015C8008A15831603133308303E0A168A1120221F
:1015D8000A128A15831603133408303E0A168A1134
:1015E80020220A128A15653083120313A400803062
:1015F800A5000A168A1136250A128A1583160313BE
:101608003108303E0A168A1120220A128A158316DA
:1016180003133208303E0A168A1120220A128A154C
:10162800653083120313A4008030A5000A168A11BE
:1016380036250A128A15831603132F08303E0A1618
:101648008A1120220A128A15831603133008303EA5
:101658000A168A1120220A128A15083083120313E7
:10166800AB002B08A40002300A168A113C220A1289
:101678008A15831603133508303E0A168A1120226C
:101688000A128A15831603133608303E0A168A1181
:1016980020220A128A15573083120313A4008030BF
:1016A800A5000A168A1136250A128A15831603130D
:1016B8003708303E0A168A1120220A128A15831624
:1016C80003133808303E0A168A1120220A128A1596
:1016D800573083120313A4008030A5000A168A111C
:1016E80036250A128A157B08303E0A168A112022EE
:1016F8000A128A15831203136F08303E0A168A11DC
:1017080020220A128A150800831203135E08A70014
:101718005D08A6005C08A5005B08A4004230A30091
:10172800C830A2000030A1000030A0000A128A11BF
:10173800F5220A128A15831203132308D3002208FC
:10174800D2002108D1002008D0000A128A15E7200B
:101758000A128A15831203135008DF005F08E2009B
:101768006430A2000030A3006208DF00E0015F08D7
:10177800A0006008A1000A168A115E220A128A15C2
:10178800831203132008A6002108A7000030A71B16
:10179800FF30A800A90001300A128A1546240A124F
:1017A8008A15831203132908B7002808B6002708EA
:1017B800B5002608B4000A168A11B4210A128A153F
:1017C800831203133708BF003608BE003508BD0072
:1017D8003408BC005E08BB005D08BA005C08B900AC
:1017E8005B08B8000A128A1139200A128A15831276
:1017F80003133B08D3003A08D2003908D10038084F
:10180800D0000A128A15E7200A128A1583120313D8
:101818005008E1006108E6000A30A0000030A1008D
:101828006608DF00E0015F08A2006008A3000A164E
:101838008A11A2260A128A15831203132008E100CE
:101848006108E3000A30DF005F08A00063080A1699
:101858008A11E9210A128A15FF3A013E83120313FD
:101868006607E0006008E40064080A168A11DB25B0
:101878000A128A1583120313DF005F08E500650862
:10188800452C080083120313AE002E0803194D2CB3
:101898004E2C622CA91F512C522C622C2609B00008
:1018A8002709B1002809B2002909B300B00A0319B1
:1018B800B10A0319B20A0319B30A6A2C2908B3003A
:1018C8002808B2002708B1002608B0002908280413
:1018D80027042604031D712C722C7C2C0030A900CF
:1018E8000030A8000030A7000030A600092D092DFF
:1018F8009630AA002A08AF008F2C0130AA002A08C7
:10190800AF0701300310B30CB20CB10CB00CFF3EA2
:10191800031D862C8F2CFE303305031D942C952C2B
:10192800812CB22CB22C0130AA002A08AF07013052
:10193800B007003003180130B10700300318013038
:10194800B207003003180130B30701300310B30C9D
:10195800B20CB10CB00CFF3E031DAA2CFF303305AE
:10196800031DB72CB82C972CC62CC62C0130AF02FF
:101978000130AA000310B00DB10DB20DB30DAA0BC2
:10198800BE2CC62CB21BC92CCA2CD12C02302F025B
:101998000318CF2CD02CBA2CD12C2F18D42CD52C02
:1019A800DD2CFF30B005FF30B1057F30B205FF30C8
:1019B800B3050310AF0C2F08AA00AB01AC01AD01B1
:1019C80018300310AA0DAB0DAC0DAD0DFF3E031D75
:1019D800E52C2A08B0042B08B1042C08B2042D0801
:1019E800B3042E080319F92CFA2C002DA91FFD2C7D
:1019F800FE2C002DB317002D3308A9003208A800CB
:101A08003108A7003008A600092D08000A168A1117
:101A18007F210A128A15D03083120313AD000030DB
:101A2800AE000A168A1191210A128A150030831213
:101A38000313AD00AE000A168A1191210A128A1505
:101A48007A0883120313AA007908A9000A168A11D2
:101A58000F240A128A15831203132A08AE002908D4
:101A6800AD000A168A1191210A128A157D0883127F
:101A78000313AA007C08A9000A168A110F240A1267
:101A88008A15831203132A08AE002908AD000A1626
:101A98008A1191210A128A158316031347088312A3
:101AA8000313AA0083160313460883120313A9001D
:101AB8000A168A110F240A128A15831203132A0898
:101AC800AE002908AD000A168A1191210A128A155A
:101AD800013083120313AD000030AE000A168A11DC
:101AE80091210A128A1583160313450883120313DA
:101AF800AA0083160313440883120313A9000A16C5
:101B08008A110F240A128A15831203132A08AE00B9
:101B18002908AD000A168A1191210A128A1583161E
:101B28000313410883120313AA0083160313400802
:101B380083120313A9000A168A110F240A128A15A0
:101B4800831203132A08AE002908AD000A168A1169
:101B580091210A128A15831603133F08831203136F
:101B6800AA00831603133E0883120313A9000A165A
:101B78008A110F240A128A15831203132A08AE0049
:101B88002908AD000A168A1191210A128A150A1627
:101B98008A1188210A128A150800831603132E0851
:101BA800031DD72DD82D0D2E83120313A401A40ACB
:101BB80001300A168A113C220A128A155230831201
:101BC8000313A4008030A5000A168A1136250A12CC
:101BD8008A1583120313A401A40A02300A168A1173
:101BE8003C220A128A15593083120313A40080304C
:101BF800A5000A168A1136250A128A150A128A11B0
:101C080099260A128A150A128A15D9220A128A15E1
:101C1800D72E831603132E03031D132E142E5F2EA7
:101C280083120313A401A40A01300A168A113C2264
:101C38000A128A152D3083120313A4008030A500E0
:101C48000A168A1136250A128A1583120313A4016B
:101C5800A40A02300A168A113C220A128A150A308E
:101C6800831603132906031D3A2E3B2E452E0130F9
:101C780083120313EC006C0883160313A807A90149
:101C8800452E0A302806031D4A2E4B2E4E2EA9013A
:101C9800A8014E2E2808303E0A168A1120220A1260
:101CA8008A15831603132908303E0A168A11202242
:101CB8000A128A15D72E0230831603132E06031D27
:101CC800662E672E822E83120313A401A40A013004
:101CD8000A168A113C220A128A152030831203132D
:101CE800A4008030A5000A168A1136250A128A1522
:101CF8000A128A15D8260A128A15D72E0330831697
:101D080003132E06031D892E8A2EA52E8312031374
:101D1800A401A40A01300A168A113C220A128A1563
:101D2800403083120313A4008030A5000A168A11DC
:101D380036250A128A150A168A1188270A128A1560
:101D4800D72E0430831603132E06031DAC2EAD2E9A
:101D5800C82E83120313A401A40A01300A168A119B
:101D68003C220A128A155F3083120313A4008030C4
:101D7800A5000A168A1136250A128A150A168A112A
:101D880015270A128A15D72E0530831603132E023B
:101D9800031CCF2ED02ED72EAE01D72ED72ED72E5E
:101DA800D72ED72ED72E08000A168A117F210A129D
:101DB8008A15113083120313AD000030AE000A16E5
:101DC8008A1191210A128A15003083120313A00088
:101DD800A1000A168A113D230A128A1583120313D9
:101DE8002008E700670883160313AC000A168A1157
:101DF80088210A128A15033083120313E900083078
:101E0800E8007630E700E70B072FE80B072FE90B10
:101E1800072F000083120313A401A40A02300A1634
:101E28008A113C220A128A15831603132C0883127E
:101E38000313E700E801E901EA016A08A900690853
:101E4800A8006808A7006708A60000300A128A15CB
:101E580046240A128A1583120313290883160313CA
:101E6800CB0083120313280883160313CA008312B6
:101E78000313270883160313C900831203132608C4
:101E880083160313C8004B0883120313DE0083165E
:101E980003134A0883120313DD008316031349084A
:101EA80083120313DC0083160313480883120313F9
:101EB800DB000A128A1588230A128A158312031373
:101EC800E700670883160313BB002C08831203136B
:101ED800E700E801E901EA016A08A9006908A80021
:101EE8006808A7006708A60000300A128A15462469
:101EF8000A128A1583120313290883160313CF00C5
:101F080083120313280883160313CE0083120313C6
:101F1800270883160313CD0083120313260883169C
:101F28000313CC004F0883120313DE008316031338
:101F38004E0883120313DD00831603134D08831222
:101F48000313DC00831603134C0883120313DB000E
:101F58000A128A152D220A128A1583120313E70022
:101F6800670883160313BA002C0883120313E700CB
:101F7800E801E901EA016A08A9006908A8006808F7
:101F8800A7006708A60000300A128A1546240A121C
:101F98008A15831203132908DE002808DD002708A4
:101FA800DC002608DB000A168A1180240A128A152A
:101FB80083120313EB006B0883160313B900B930BF
:101FC80083120313A4000030A5000A168A113625CF
:101FD8000A128A15DF300A168A1120220A128A1577
:101FE800673083120313A4008030A5000A168A11F3
:081FF80036250A128A150800C3
:1022B0003734003401300A128A11E6270A168A11CF
:1022C000080001300A168A1104220A168A11080031
:1022D000831603130F168F160F170F1408008B1792
:1022E0000B178B150B1083160313161608006400CA
:1022F0008001840A040603190034040678290A16AA
:102300008A11A5210A168A118316031311140800D5
:102310000A168A11A5210A168A11831603131115AC
:1023200008000A168A11A5210A168A1183120313BE
:102330002D089300080014340034023400340134B2
:102340000034183400340A340034A62983160313E9
:102350001419AB29AC29A62911081F39031DB1296D
:10236000B229A629B32908008312031337083604BB
:10237000350434040319BD29BE29C1298030B706AC
:10238000C129C22908008316031385010130880082
:1023900089011030860083120313850188018901A9
:1023A0008601831603178801890108007E088A00C8
:1023B0007F0882000A168A11D6210A168A11800027
:1023C000840A04087D0603190034FF0A0319FE0A73
:1023D000DA2983120313A300A201EE29231CF12999
:1023E000F229F7292008A1002108A207F7290310E4
:1023F000A00D0310A30C2308031DFF29002AEE29BA
:10240000012A2208032A080083120313A30086135B
:1024100023080A168A11BA240A168A118312031392
:1024200088171A3083120313A200F730A100A10B02
:10243000172AA20B172A1C2A8312031388130800D9
:1024400083120313A300861723080A168A11BA24DD
:102450000A168A118312031388170B308312031391
:10246000A2006130A100A10B332AA20B332A382A23
:10247000831203138813080083120313A500250396
:10248000031D432A442A4C2A24087F3E0A168A1137
:1024900004220A168A115D2A0230831203132506CC
:1024A000031D532A542A5D2A2408BF3E0A168A11A6
:1024B00004220A168A115D2A5D2A0800831203137A
:1024C000A401A501632A201C662A672A6D2A220816
:1024D000A4070318A50A2308A50701300310A20DBD
:1024E000A30DFF3E031D6E2A01300310A10CA00CAA
:1024F000FF3E031D752A20082104031D802A812A1E
:10250000632A822A2508A1002408A000872A08003F
:102510000F30831203132605A80000302705A900F9
:10252000260E0F39A000270EF039A004270E0F3910
:10253000A100F030A11D0030A1040A30A20000303B
:10254000A3000A168A115E220A168A118312031347
:1025500028082007A60029080318290A2107A70030
:10256000B12A080083120313A2000A308316031352
:1025700046064704031DBD2ABE2ADC2A37307C06E6
:102580007D04031DC42AC52ADC2A831203132208F2
:102590000F3EA000003003180130A1007A08210688
:1025A000031DD42A79082006031DD72AD82ADC2A3D
:1025B000061086100611DC2A08000B1CE02AE12A0E
:1025C000052B0B1083120313061EE72AE82A052B9E
:1025D0000130F400740883160313AE070A168A113B
:1025E0005A210A168A1183160313AD01AD0A03306E
:1025F000F6000830F5007730F400F40BFD2AF50BF7
:10260000FD2AF60BFD2A052B052B78088A00770E8C
:102610008300FE0E7E0E0900831203130818112B8F
:10262000122B172B83160313A701A70A332B83162C
:1026300003132703031D1D2B1E2B332B0130831285
:102640000313A000200883160313A907A7010D3068
:1026500083120313A100FB30A000A00B2D2BA10BB4
:102660002D2B332B332B83160313290A031D392BF0
:102670003A2B3C2BA9013C2B08000A168A11A521F4
:102680000A168A118316031391150A168A11A521B9
:102690000A168A11831203131308A200A301220849
:1026A000A4002308A5000A168A11A5210A168A117A
:1026B0008312031320032104031D5F2B602B642B63
:1026C000831603139112672B8316031391161116A9
:1026D000831203132508A1002408A0006F2B080013
:1026E00083120313A4002408A200A301831603137A
:1026F0004708831203132306031D842B8316031339
:102700004608831203132206031D872B882BA42B54
:102710002008A200A3017D082306031D912B7C083D
:102720002206031D942B952BA42B2108A200A301A4
:102730007A082306031D9E2B79082206031DA12B70
:10274000A22BA42B0614A42B080083120313A400AD
:102750002408A200A301831603134708831203135E
:102760002306031DB92B8316031346088312031394
:102770002206031DBC2BBD2BD92B2008A200A301D0
:102780007D082306031DC62B7C082206031DC92BCA
:10279000CA2BD92B2108A200A3017A082306031D06
:1027A000D32B79082206031DD62BD72BD92B8614C1
:1027B000D92B080083120313A4002408A200A3014C
:1027C000831603134708831203132306031DEE2BFE
:1027D000831603134608831203132206031DF12BED
:1027E000F22B0E2C2008A200A3017D082306031D56
:1027F000FB2B7C082206031DFE2BFF2B0E2C210831
:10280000A200A3017A082306031D082C79082206DA
:10281000031D0B2C0C2C0E2C06150E2C08000A3058
:1028200083120313A0000030A1002A08A300290886
:10283000A2000A168A11A2260A168A11831203130D
:102840002008AB002108AC00AB0EAC0EF030AC059C
:102850002B080F39AC04F030AB050A30A000003073
:10286000A1002A08A3002908A2000A168A113D2601
:102870000A168A118312031320082B07A9002108C6
:102880000318210A2C07AA00452C080028308312BF
:1028900003139400831603139101831203132E086C
:1028A000B2002F08B3003008B4003108B500023080
:1028B0000310B20DB30DB40DB50DFF3E031D582C22
:1028C0003508A3003408A2003308A1003208A00094
:1028D0000030A7003D30A6000930A5000030A4005C
:1028E0000A128A1578200A168A1183120313200807
:1028F000FF3E831603139300940187150716080003
:10290000831203135E08A7005D08A6005C08A500FB
:102910005B08A4004230A300C830A2000030A10030
:102920000030A0000A128A11F5220A168A118312B9
:1029300003132308D3002208D2002108D100200865
:10294000D0000A128A15E7200A168A11831203138F
:102950005008DF005F08E00060080A168A11DB25D6
:102960000A168A1183120313DF005F08E100610871
:10297000B92C080083120313A000201CC02CC12C0A
:10298000C32C0514C42C0510A01CC72CC82CCA2CA1
:102990008514CB2C8510201DCE2CCF2CD12C0515C9
:1029A000D22C0511A01DD52CD62CD82C8515D92CB0
:1029B0008511201EDC2CDD2CDF2C0516E02C0512E9
:1029C000A01EE32CE42CE62C8516E72C8512201F94
:1029D000EA2CEB2CED2C0517EE2C0513A01FF12C87
:1029E000F22CF42C8517F62C8513F62C0800F00039
:1029F000701CFB2CFC2C002D831203130514032DDB
:102A0000831203130510F01C062D072D092D8514C4
:102A10000A2D8510701D0D2D0E2D102D0515112D53
:102A20000511F01D142D152D172D8515182D851147
:102A3000701E1B2D1C2D1E2D05161F2D0512F01EA0
:102A4000222D232D252D8516262D8512701F292D2B
:102A50002A2D2C2D05172D2D0513F01F302D312D6E
:102A6000332D8517352D8513352D0800831203135B
:102A7000A901AA01602D29082407A7002508A6009E
:102A80000318A60AA91F452DA603831203132608BF
:102A9000A8002808FF00270884000A128A150020D1
:102AA0000A168A110A168A1120220A168A11013082
:102AB00083120313A9070318AA0A0030AA07602D7E
:102AC00029082407A7002508A6000318A60AA91F9D
:102AD0006A2DA603831203132608A8002808FF0006
:102AE000270884000A128A1500200A168A11003A63
:102AF000031D7B2D7C2D3B2D7D2D0800273083125F
:102B00000313A500F430A400A40B842DA50B842D81
:102B1000000000300A168A11BA240A168A113430CD
:102B200083120313A500F130A400A40B952DA50B6F
:102B3000952D30300A168A1104220A168A110D309A
:102B400083120313A500FB30A400A40BA52DA50B35
:102B5000A52D30300A168A1104220A168A1169300E
:102B600083120313A400A40BB32DB62D30300A1624
:102B70008A1104220A168A1138300A168A11042290
:102B80000A168A1110300A168A1104220A168A11AE
:102B900001300A168A1104220A168A1106300A1612
:102BA0008A1104220A168A110C300A168A1104228C
:102BB0000A168A11080083120313A200122E303065
:102BC000A0002008A3003A2E3130A0002008A30066
:102BD0003A2E3230A0002008A3003A2E3330A00055
:102BE0002008A3003A2E3430A0002008A3003A2E7B
:102BF0003530A0002008A3003A2E3630A00020086F
:102C0000A3003A2E3730A0002008A3003A2E383017
:102C1000A0002008A3003A2E3930A0002008A3000D
:102C20003A2E3A2E2208A000A1012108003A0319E9
:102C30001A2E3A2E2008003A0319DF2D013A031903
:102C4000E42D033A0319E92D013A0319EE2D073A51
:102C50000319F32D013A0319F82D033A0319FD2D39
:102C6000013A0319022E0F3A0319072E013A0319EC
:102C70000C2E3A2E23083C2E080083120313A601C3
:102C8000A31F432E442E4C2EA209A309A20A031906
:102C9000A30AA601A60A4C2EA11F4F2E502E562E77
:102CA000A009A109A00A0319A10A562E200821048F
:102CB00003195B2E5C2E912EA501A50A6B2E013007
:102CC0000310A00DA10DFF3E031D602E0130A400D6
:102CD0002408A5076B2EA11F6E2E6F2E5F2E712E5E
:102CE000712E21082302031D772E20082202031CC7
:102CF0007A2E7B2E822E2008A2022108031CA30319
:102D0000A302822E01300310A10CA00CFF3E031D74
:102D1000832E0130A502031D8E2E8F2E712E912E33
:102D2000912E26080319952E962E9C2EA209A309F2
:102D3000A20A0319A30A9C2E2308A1002208A000BE
:102D4000A12E080083120313A601A11FA82EA92EED
:102D5000B12EA009A109A00A0319A10AA601A60A79
:102D6000B12EA31FB42EB52EBF2EA209A309A20A0D
:102D70000319A30A0130A4002408A606BF2EA70148
:102D8000A801200821040319C62EC72E042FA5016F
:102D9000A50AD62E01300310A00DA10DFF3E031D84
:102DA000CB2E0130A4002408A507D62EA11FD92EB2
:102DB000DA2ECA2EDC2EDC2E01300310A70DA80D52
:102DC000FF3E031DDD2E21082302031DE92E2008EE
:102DD0002202031CEC2EED2EF52E2008A202210863
:102DE000031CA303A3022714F52E01300310A10C2A
:102DF000A00CFF3E031DF62E0130A502031D012F7E
:102E0000022FDC2E042F042F26080319082F092F68
:102E10000F2FA709A809A70A0319A80A0F2F280826
:102E2000A1002708A000142F08000A168A117F218C
:102E30000A168A11313083120313AD000030AE0040
:102E40000A168A1191210A168A110030831203137F
:102E5000A000A1000A168A113D230A168A118312C6
:102E600003132008AF002F0883160313AA000A16C5
:102E70008A1188210A168A110D3083120313B000BB
:102E8000FB30AF00AF0B422FB00B422F8316031362
:102E90002A03031D4C2F4D2F712F83120313A401FE
:102EA000A40A02300A168A113C220A168A114930F5
:102EB00083120313A4008030A5000A168A11362558
:102EC0000A168A11333083120313B100BB30B000ED
:102ED000DF30AF00AF0B6A2FB00B6A2FB10B6A2F38
:102EE000872F83120313A401A40A02300A168A1141
:102EF0003C220A168A11373083120313A400803053
:102F0000A5000A168A1136250A168A11872F08008D
:102F10000A168A117F210A168A112130831203139F
:102F2000AD000030AE000A168A1191210A168A11EE
:102F3000003083120313A000A1000A168A113D235A
:102F40000A168A11831203132008AF002F08831674
:102F50000313AB000A168A1188210A168A110D3054
:102F600083120313B000FB30AF00AF0BB52FB00BD3
:102F7000B52F831603132B03031DBF2FC02FE92F7B
:102F800083120313A401A40A02300A168A113C22F8
:102F90000A168A11013083120313A4008030A500A1
:102FA0000A168A1136250A168A1133308312031342
:102FB000B100BB30B000DF30AF00AF0BDD2FB00B86
:102FC000DD2FB10BDD2F0A168A1161210A168A1135
:102FD000FF2F83120313A401A40A02300A168A11D8
:102FE0003C220A168A11113083120313A400803088
:102FF000A5000A168A1136250A168A11FF2F080025
:04400E00D4E0FFFFFC
:00000001FF
