:020000040000FA
:060000000A128A110C280F
:10000800FE00030EF7000A08F8000A168A11112DDF
:100018000A128A110F288313C430FD001330FE0022
:100028003430FF00BC3084000A168A118D230A126E
:100038008A110A128A11FB270A128A11F9000A1278
:100048008A11FC270A128A11FA000A128A11FD275E
:100058000A128A11FB000A128A11FE270A128A1153
:10006800FC00A0308400BC300A168A112C230A1226
:100078008A11EE01EF01FD0183010A128A15B529E3
:10008800831203133B088039C0004008CC003B08AA
:10009800C0004007C1004108CE00BA1F54285528A7
:1000A80057284E1457284E0803195B285C286D28DA
:1000B8004E0A031D602861286A280030BB00003002
:1000C800BA000030B9000030B8006A28BA17BB017E
:1000D80076280030BB000030BA000030B90000308C
:1000E800B80076283F088039C0004008CD004D0888
:1000F8004C0603198028812883284C1783283F0839
:10010800C0004007C1004108CD00BE1F8C288D28C3
:100118008F284D148F284D08031993289428A52853
:100128004D0A031D98289928A2280030BF000030E6
:10013800BE000030BD000030BC00A228BE17BF01C1
:10014800AD280030BF000030BE000030BD000030D8
:10015800BC004E084D020318B228B328F9284C1FDA
:10016800B628B728BC288030C0004008CC06BC2878
:100178004E08C0004008CF004D08C0004008CE001F
:100188004F08C0004008CD003808C0004008CF0024
:100198003C08C0004008B8004F08C0004008BC0038
:1001A8003908C0004008CF003D08C0004008B90029
:1001B8004F08C0004008BD003A08C0004008CF0002
:1001C8003E08C0004008BA004F08C0004008BE0002
:1001D8003B08C0004008CF003F08C0004008BB00F3
:1001E8004F08C0004008BF00F928CF014E08C000E2
:1001F800C101C009C109C00A0319C10A4D08400755
:10020800C20041080318410AC3004308803AFF00AE
:1002180080307F02031D12291A304202031C15295F
:1002280016295729831203133B083A043904380462
:10023800031D1F292129013022290030C000400850
:10024800CF000030BB000030BA000030B9000030E9
:10025800B8004D08C0004008CE00602957294F1C3F
:100268003629372940294F08C0000310400C0138AF
:10027800C1004108CF0043290310CF0C4329381C83
:10028800462947294929CF1749290130C0003B0D84
:10029800BB0CBA0CB90CB80CC00B4B290130C00010
:1002A8004008CE075729831203134D084E02031C3A
:1002B8005E295F29332960294C1B63296429B329E6
:1002C8004E08031D6829692973290030BB000030D6
:1002D800BA000030B9000030B800FF2AFF2A3C08F5
:1002E800B8073D0803110318013E03197C29B90713
:1002F8003E0803110318013E03198329BA073F0872
:1003080003110318013E03198A29BB073B1C8D29D9
:100318008E297C2A4F1C912992299B294F08C000BD
:100328000310400C0138C1004108CF009E2903107A
:10033800CF0C9E29381CA129A229A429CF17A429AA
:100348000130C0003B0DBB0CBA0CB90CB80CC00B8B
:10035800A6290130C0004008CE077C2A7C2A3B0829
:10036800803AFF003F08803A7F02031DC5293E08F6
:100378003A02031DC5293D083902031DC5293C0859
:1003880038020318C829C9292F2AFF30C000FF30B6
:10039800C100FF30C200FF30C3003C08C4003D0864
:1003A800C5003E08C6003F08C7003809C80039091B
:1003B800C9003A09CA003B09CB00C80A0319C90A8F
:1003C8000319CA0A0319CB0A4808C40749080318BD
:1003D800490FEF29F029C5074A0803184A0FF529DC
:1003E800F629C6074B0803184B0AC7074408C00775
:1003F80045080318450F012A022AC10746080318B1
:10040800460F072A082AC20747080318470AC307DE
:100418004308BB004208BA004108B9004008B800C8
:100428008030C0004008CC06CF09CF0A4F08031D12
:100438001E2A1F2A3D2A0130B80700300318013050
:10044800B907003003180130BA070030031801302B
:10045800BB073D2A3D2A3C08B8023D08031C3D0F56
:10046800B9023E08031C3E0FBA023F08031C3F0FA7
:10047800BB023B083A0439043804031D442A452AC0
:10048800762A4F08031D492A4A2A762A0030BB00DB
:100498000030BA000030B9000030B800FF2AFF2A47
:1004A800762A0130C0000310B80DB90DBA0DBB0D86
:1004B800C00B572ACF1F612A622A632A38144F1C9F
:1004C800662A672A6A2A0314CF0D6D2A0310CF0DF6
:1004D8006D2A4E080319712A722A762A0130CE0233
:1004E800762A762ABA1F792A7A2A552A7C2A7C2AD9
:1004F800CD01CF1F802A812A932A4F087F390319FB
:10050800862A872A8A2ACD01CD0A932A381C8D2A61
:100518008E2A932ACD01CD0A932A932A932A4D082D
:100528000319972A982ACE2A0130B80700300318F1
:100538000130B907003003180130BA07003003183A
:100548000130BB073B1CA92AAA2ACE2A3808C000BA
:100558003908C1003A08C2003B08C3000130C40092
:10056800430DC30CC20CC10CC00CC40BB42A430805
:10057800BB004208BA004108B9004008B8004E0A5A
:100588000319C72AC82ACE2A0130C0004008CE075E
:10059800CE2ACE2A4E0A0319D22AD32AD92A4E089D
:1005A800031DD72AD82AE92AD92A0030BB000030EF
:1005B800BA000030B9000030B8004E08031DE52A23
:1005C800E62AE92ACC01E92AE92A4E1CEC2AED2A76
:1005D800EF2ABA17F32A7F30C0004008BA054E0840
:1005E800C0000310400CC1004108BB00CC1FFD2A0D
:1005F800FE2AFF2ABB170800831203132708803935
:10060800A8002808B1002708A8002807A900290879
:10061800B800A61F102B112B132B3814132B3808D6
:100628000319172B182B292B380A031D1C2B1D2BDC
:10063800262B0030A7000030A6000030A5000030AF
:10064800A400262BA617A701322B0030A7000030E4
:10065800A6000030A5000030A400322B2308803902
:10066800A8002808B1062308A8002807A900290817
:10067800B900A21F402B412B432B3914432B3908B7
:100688000319472B482B592B390A031D4C2B4D2B8B
:10069800562B0030A3000030A2000030A10000302B
:1006A800A000562BA217A301612B0030A300003035
:1006B800A2000030A1000030A00023082204210479
:1006C8002004031D682B692B832B0030A700003002
:1006D800A6000030A5000030A4008030A6047F30BA
:1006E800A7043108A8002808A7042708A30026089B
:1006F800A2002508A1002408A000082D082D38080C
:10070800031D872B882B9A2B0030A7000030A600EA
:100718000030A5000030A4002708A3002608A20086
:100728002508A1002408A000082D082D3908A800D4
:10073800A901A809A909A80A0319A90A38082807B4
:10074800AA0029080318290AAB002A087F3EB2002C
:100758002B080318013E003EB3002708B000260806
:10076800AF002508AE002408AD000030A700003017
:10077800A6000030A5000030A4000030B70000300B
:10078800B6000030B5000030B400B901192C3908A2
:100798000319CF2BD02BF22B0130A8000310AD0D7D
:1007A800AE0DAF0DB00DA80BD22B0130A800031071
:1007B800A40DA50DA60DA70DA80BDB2BB71FE52BC8
:1007C800E62BE82B2414E82B0130A8000310B40D05
:1007D800B50DB60DB70DA80BEA2BF22B2308300286
:1007E800031D002C22082F02031D002C21082E02B5
:1007F800031D002C20082D02031C032C042C142C90
:1008080037172008AD022108031C210FAE02220869
:10081800031C220FAF022308031C230FB002142C61
:100828000130A8002808B907192C1A303902031C0E
:100838001E2C1F2CCB2B202C30082F042E042D040B
:100848000319272C282C4A2C34144A2C4A2C013002
:10085800A8000310A40DA50DA60DA70DA80B2D2CFF
:10086800B71F372C382C3A2C24143A2C0130A80006
:100878000310B40DB50DB60DB70DA80B3C2CFF3009
:10088800B2070318B30AFF30B3074A2CA61F4D2C32
:100898004E2C2B2C4F2CB901B71F532C542C742CD5
:1008A800FF303405A800FF303505A900FF303605B4
:1008B800AA007F303705AB002B082A042904280436
:1008C8000319672C682C6B2CB901B90A742C241CE9
:1008D8006E2C6F2C742CB901B90A742C742C742CDE
:1008E80039080319782C792CAC2C0130A407003076
:1008F80003180130A507003003180130A60700309F
:1009080003180130A707271C8A2C8B2CAC2C240831
:10091800A8002508A9002608AA002708AB0001306E
:10092800AC002B0DAB0CAA0CA90CA80CAC0B952C8D
:100938002B08A7002A08A6002908A5002808A40053
:100948000130B2070318B30A0030B307AC2CAC2C43
:100958003308803AFF0080307F02031DB52CFF303A
:100968003202031CB82CB92CC82CFF308312031395
:10097800B2000030B3000030A7000030A6000030FD
:10098800A5000030A400C82C831203133308803A52
:10099800FF0080307F02031DD32C01303202031880
:1009A800D62CD72CE42C83120313B201B3010030E8
:1009B800A7000030A6000030A5000030A400B10157
:1009C800831203133208A8002808B800381CED2C3D
:1009D800EE2CF02CA617F42C7F30A8002808A605CA
:1009E8003808A8000310280CA9002908A700310816
:1009F800A8002808A7042708A3002608A20025089D
:100A0800A1002408A000082D08000A168A113C231A
:100A18000A128A11D03083120313AD000030AE00E1
:100A28000A168A114E230A128A1100308312031300
:100A3800AD00AE000A168A114E230A128A110A1650
:100A48008A1145230A128A110A168A113C230A12AE
:100A58008A11D13083120313AD000030AE000A169C
:100A68008A114E230A128A11003083120313A00040
:100A7800A1000A168A1171250A128A11831203131A
:100A88002108A7002008A6000A168A1160240A1265
:100A98008A11831203132708EF002608EE000A16AE
:100AA8008A1145230A128A110A168A113C230A124E
:100AB8008A11D13083120313AD000030AE000A163C
:100AC8008A114E230A128A11003083120313A000E0
:100AD800A1000A168A1171250A128A1183120313BA
:100AE8002108A7002008A6000A168A1160240A1205
:100AF8008A11831203132708FC002608FB000A1634
:100B08008A1145230A128A110A168A113C230A12ED
:100B18008A11D13083120313AD000030AE000A16DB
:100B28008A114E230A128A11003083120313A0007F
:100B3800A1000A168A1171250A128A118312031359
:100B48002108A7002008A6000A168A1160240A12A4
:100B58008A11831203132708FA002608F9000A16D7
:100B68008A1145230A128A110A168A113C230A128D
:100B78008A11D13083120313AD000030AE000A167B
:100B88008A114E230A128A11003083120313A0001F
:100B9800A1000A168A1171250A128A110A168A11E9
:100BA80045230A128A110A168A113C230A128A114D
:100BB800D13083120313AD000030AE000A168A113B
:100BC8004E230A128A11003083120313A000A100D9
:100BD8000A168A1171250A128A1183120313210831
:100BE800A7002008A6000A168A1160240A128A1192
:100BF80083120313270883160313C30083120313F6
:100C0800260883160313C2000A168A1145230A12FE
:100C18008A110A168A113C230A128A11D1308312CA
:100C28000313AD000030AE000A168A114E230A12D3
:100C38008A11003083120313A000A1000A168A113A
:100C480071250A128A11831203132108A7002008AC
:100C5800A6000A168A1160240A128A118312031345
:100C6800270883160313BF0083120313260883166D
:100C78000313BE000A168A1145230A128A110A169E
:100C88008A113C230A128A11D13083120313AD0052
:100C98000030AE000A168A114E230A128A1100305B
:100CA80083120313A000A1000A168A1171250A12E3
:100CB8008A11831203132108A7002008A6000A1628
:100CC8008A1160240A128A118312031327088316D3
:100CD8000313BD0083120313260883160313BC00F5
:100CE8000A168A1145230A128A110A168A114523FF
:100CF8000A128A110A168A113C230A128A11D13063
:100D080083120313AD000030AE000A168A114E2379
:100D18000A128A11003083120313A000A1000A16D8
:100D28008A1171250A128A110A168A1145230A1294
:100D38008A1108000A3083120313A0000030A100B2
:100D48006F08A3006E08A2000A168A119B270A12D0
:100D58008A11831203132008A9002908FD000A300C
:100D6800A0000030A1006F08A3006E08A2000A12BC
:100D78008A15A6200A128A11831203132008A900D3
:100D8800290883160313B6000A3083120313A00040
:100D98000030A1007C08A3007B08A2000A168A1173
:100DA8009B270A128A11831203132008A900290815
:100DB80083160313B5000A3083120313A000003012
:100DC800A1007C08A3007B08A2000A128A15A620AD
:100DD8000A128A11831203132008A900290883160E
:100DE8000313B4000A3083120313A0000030A100DB
:100DF8007A08A3007908A2000A168A119B270A120A
:100E08008A11831203132008A900290883160313E3
:100E1800B3000A3083120313A0000030A1007A083F
:100E2800A3007908A2000A128A15A6200A128A11BC
:100E3800831203132008A900290883160313B2009C
:100E48000A3083120313A0000030A1008316031395
:100E5800430883120313A300831603134208831263
:100E68000313A2000A168A119B270A128A118312F9
:100E780003132008A900290883160313B1000A30B8
:100E880083120313A0000030A10083160313430844
:100E980083120313A3008316031342088312031358
:100EA800A2000A128A15A6200A128A1183120313B5
:100EB8002008A900290883160313B0000A308312FA
:100EC8000313A0000030A100831603133F08831208
:100ED8000313A300831603133E0883120313A2000F
:100EE8000A168A119B270A128A11831203132008F3
:100EF800A900290883160313AF000A3083120313CD
:100F0800A0000030A100831603133F0883120313C7
:100F1800A300831603133E0883120313A2000A12C8
:100F28008A15A6200A128A11831203132008A90021
:100F3800290883160313AE000A3083120313A00096
:100F48000030A100831603133D0883120313A30086
:100F5800831603133C0883120313A2000A168A118E
:100F68009B270A128A11831203132008A900290853
:100F780083160313AD000A3083120313A000003058
:100F8800A100831603133D0883120313A3008316DD
:100F980003133C0883120313A2000A128A15A62021
:100FA8000A128A11831203132008A900290883163C
:100FB8000313AC00080083120313A3008617230849
:100FC8000A168A1118260A128A118312031388171F
:100FD8000B3083120313A2006130A100A10BF22F82
:100FE800A20BF22FF72F83120313881308000A3479
:060FF80000343734003420
:101000000A3083120313A0000030A1002A08A300B5
:101010002908A2000A128A15A6200A128A1583122C
:1010200003132008AB002108AC00AB0EAC0EF0306F
:10103000AC052B080F39AC04F030AB050A30A0002A
:101040000030A1002A08A3002908A2000A168A116C
:101050009B270A128A158312031320082B07A90065
:1010600021080318210A2C07AA003628080000309E
:1010700083120313AC000030AB000030AA00003034
:10108000A900230822042104200403194828492820
:101090009C28AD01AD0A5A280130A8000310A00D0C
:1010A000A10DA20DA30DA80B4E280130A800280801
:1010B000AD075A28A31F5D285E284C2860286028A9
:1010C0000130A8000310A90DAA0DAB0DAC0DA80BA3
:1010D000622823082702031D772822082602031D01
:1010E000772821082502031D772820082402031CE5
:1010F0007A287B288B282008A4022108031C210FB2
:10110000A5022208031C220FA6022308031C230F9A
:10111000A70229148B2801300310A30CA20CA10CE8
:10112000A00CFF3E031D8C280130AD02031D992841
:101130009A2860289C289C282C08A3002B08A20031
:101140002A08A1002908A000A5280800831203137B
:10115000A601A11FAC28AD28B528A009A109A00AA5
:101160000319A10AA601A60AB528A31FB828B92801
:10117000C328A209A309A20A0319A30A0130A400E3
:101180002408A606C328A701A801200821040319E2
:10119000CA28CB280829A501A50ADA28013003109E
:1011A000A00DA10DFF3E031DCF280130A40024088F
:1011B000A507DA28A11FDD28DE28CE28E028E028B0
:1011C00001300310A70DA80DFF3E031DE1282108E3
:1011D0002302031DED2820082202031CF028F12819
:1011E000F9282008A2022108031CA303A302271444
:1011F000F92801300310A10CA00CFF3E031DFA28B2
:101200000130A502031D05290629E028082908291F
:10121000260803190C290D291329A709A809A70ACB
:101220000319A80A13292808A1002708A0001829D3
:101230000800831203135008D4005108D500520847
:10124000D6005308D7000310560D570DD800580884
:10125000DA005A08031D2D292E2938290030D30021
:101260000030D2000030D1000030D000B429B429C1
:101270005008D4005108D5005208D6005308D700B2
:101280001F300310D70CD60CD50CD40CFF3E031D19
:1012900041295408D8005808D900D217FF30D0058A
:1012A000FF30D105FF30D2050030D3059630DA0289
:1012B000DA1F5B295C2981295A08803A973E031876
:1012C000622963296E290030D3000030D20000303B
:1012D000D1000030D000B429B4296E2901300310A8
:1012E000D30CD20CD10CD00CFF3E031D6F29013062
:1012F000D4005408DA07031D7E297F296E29A4290A
:10130000A42920305A02031C862987299D290030F0
:10131000D3000030D2000030D1000030D000B4291A
:10132000B4299D290130D4000310D00DD10DD20D68
:10133000D30DD40B94290130DA025A08031DA129D8
:10134000A2299229A429A42959080319A829A9295D
:10135000B429D009D109D209D309D00A0319D10A75
:101360000319D20A0319D30A08000A168A11162390
:101370000A128A150A168A1176230A128A150A1683
:101380008A1124230A128A150A168A11DC260A12E7
:101390008A15003083120313B1000130B00086308B
:1013A000AF00A030AE000A168A11A4250A128A15D1
:1013B000213083120313A4008030A5000A168A117D
:1013C00094260A128A1583120313A401A40A023078
:1013D0000A168A11ED230A128A1528308312031384
:1013E000A4008030A5000A168A1194260A128A15D4
:1013F0000A128A1578240A128A1583160313A50186
:10140000A401AB01032A0A128A1109250A128A15BE
:101410000A128A15FD250A128A1537308312031322
:10142000EC006C08A0000530ED006D08A1000A304A
:101430000A168A118A240A128A1537308312031376
:10144000EC006C08A0000A30ED006D08A1000A3025
:101450000A168A11B7240A128A1537308312031329
:10146000EC006C08A0000F30ED006D08A1000A3000
:101470000A168A11E4240A128A1505300A168A11FE
:101480000F240A128A150A168A1140250A128A1593
:10149000831603132A03031D4E2A4F2A582A0A16BD
:1014A0008A111D230A128A1583160313AA01032A1F
:1014B000AA01032A032A032A0A128A110C2883127A
:1014C00003135E08A7005D08A6005C08A5005B0882
:1014D000A4004230A300C830A2000030A1000030B8
:1014E000A0000A128A1100230A128A15831203131C
:1014F0002308D3002208D2002108D1002008D00000
:101500000A128A1519210A128A1583120313500828
:10151000DF005F08E2006430A2000030A300620830
:10152000DF00E0015F08A0006008A1000A168A1130
:1015300036240A128A15831203132008A6002108F4
:10154000A7000030A71BFF30A800A90001300A1235
:101550008A1539250A128A15831203132908B70040
:101560002808B6002708B5002608B4000A168A1114
:1015700067230A128A15831203133708BF0036083F
:10158000BE003508BD003408BC005E08BB005D0825
:10159000BA005C08B9005B08B8000A128A1144203E
:1015A0000A128A15831203133B08D3003A08D200AB
:1015B0003908D1003808D0000A128A1519210A12F8
:1015C0008A15831203135008E1006108E4000A3011
:1015D000A0000030A1006408DF00E0015F08A20065
:1015E0006008A3000A128A15A6200A128A1583121F
:1015F00003132008E1006108E30063080A168A115A
:1016000039270A128A1583120313DF005F08E500E9
:1016100065080A2B0800083083120313AB002B085F
:10162000A40001300A168A11ED230A128A158316C6
:1016300003133008303E0A128A11DF270A128A1576
:10164000831603133108303E0A128A11DF270A126B
:101650008A15343083120313A4008030A5000A16C3
:101660008A1194260A128A15831603132E08303E17
:101670000A128A11DF270A128A15831603132F080C
:10168000303E0A128A11DF270A128A15343083127B
:101690000313A4008030A5000A168A1194260A12AA
:1016A0008A15831603132C08303E0A128A11DF278D
:1016B0000A128A15831603132D08303E0A128A1166
:1016C000DF270A128A15083083120313AB002B0898
:1016D000A40002300A168A11ED230A128A15831615
:1016E00003133208303E0A128A11DF270A128A15C4
:1016F000831603133308303E0A128A11DF270A12B9
:101700008A15263083120313A4008030A5000A1620
:101710008A1194260A128A15831603133408303E60
:101720000A128A11DF270A128A1583160313350855
:10173000303E0A128A11DF270A128A1526308312D8
:101740000313A4008030A5000A168A1194260A12F9
:101750008A15831603133608303E0A128A11DF27D2
:101760000A128A157D08303E0A128A11DF270A12F2
:101770008A150800831203135E08A7005D08A600FF
:101780005C08A5005B08A4004230A300C830A2009A
:101790000030A1000030A0000A128A1100230A12B2
:1017A0008A15831203132308D3002208D2002108CC
:1017B000D1002008D0000A128A1519210A128A15B0
:1017C000831203135008DF005F08E2006430A200B8
:1017D0000030A3006208DF00E0015F08A00060089D
:1017E000A1000A168A1136240A128A1583120313DD
:1017F0002008A6002108A7000030A71BFF30A80082
:10180000A90001300A128A1539250A128A15831295
:1018100003132908B7002808B6002708B5002608D2
:10182000B4000A168A1167230A128A158312031359
:101830003708BF003608BE003508BD003408BC00BC
:101840005E08BB005D08BA005C08B9005B08B80020
:101850000A128A1144200A128A15831203133B08C4
:10186000D3003A08D2003908D1003808D0000A1253
:101870008A1519210A128A15831203135008E100F0
:101880006108E6000A30A0000030A1006608DF0011
:10189000E0015F08A2006008A3000A128A15A620D2
:1018A0000A128A15831203132008E1006108E3007D
:1018B0000A30DF005F08A00063080A168A11B62309
:1018C0000A128A15FF3A013E831203136607E000ED
:1018D0006008E40064080A168A1139270A128A157A
:1018E00083120313DF005F08E5006508772C08000A
:1018F0000A168A113C230A128A15D0308312031368
:10190000AD000030AE000A168A114E230A128A1565
:10191000003083120313AD00AE000A168A114E2365
:101920000A128A15831203136F08AA006E08A90011
:101930000A128A1500200A128A15831203132A0834
:10194000AE002908AD000A168A114E230A128A1524
:101950007C0883120313AA007B08A9000A128A15C7
:1019600000200A128A15831203132A08AE002908E0
:10197000AD000A168A114E230A128A157A088312BC
:101980000313AA007908A9000A128A1500200A1276
:101990008A15831203132A08AE002908AD000A161F
:1019A0008A114E230A128A15013083120313AD00E7
:1019B0000030AE000A168A114E230A128A158316C9
:1019C0000313430883120313AA0083160313420868
:1019D00083120313A9000A128A1500200A128A151D
:1019E000831203132A08AE002908AD000A168A11D3
:1019F0004E230A128A15831603133F08831203131A
:101A0000AA00831603133E0883120313A9000A12C7
:101A10008A1500200A128A15831203132A08AE00C1
:101A20002908AD000A168A114E230A128A15831658
:101A300003133D0883120313AA00831603133C0803
:101A400083120313A9000A128A1500200A128A15AC
:101A5000831203132A08AE002908AD000A168A1162
:101A60004E230A128A150A168A1145230A128A156C
:101A7000080083120313AE002E080319402D412DD8
:101A8000552DA91F442D452D552D2609B000270998
:101A9000B1002809B2002909B300B00A0319B10A3C
:101AA0000319B20A0319B30A5D2D2908B3002808E7
:101AB000B2002708B1002608B0002908280427042E
:101AC0002604031D642D652D6F2D0030A900003004
:101AD000A8000030A7000030A600FC2DFC2D963099
:101AE000AA002A08AF00822D0130AA002A08AF07F9
:101AF00001300310B30CB20CB10CB00CFF3E031D4F
:101B0000792D822DFE303305031D872D882D742DF0
:101B1000A52DA52D0130AA002A08AF070130B00776
:101B2000003003180130B107003003180130B2074C
:101B3000003003180130B30701300310B30CB20CAE
:101B4000B10CB00CFF3E031D9D2DFF303305031D6E
:101B5000AA2DAB2D8A2DB92DB92D0130AF02013040
:101B6000AA000310B00DB10DB20DB30DAA0BB12D2B
:101B7000B92DB21BBC2DBD2DC42D02302F02031870
:101B8000C22DC32DAD2DC42D2F18C72DC82DD02D7E
:101B9000FF30B005FF30B1057F30B205FF30B3052F
:101BA0000310AF0C2F08AA00AB01AC01AD01183037
:101BB0000310AA0DAB0DAC0DAD0DFF3E031DD82DCE
:101BC0002A08B0042B08B1042C08B2042D08B30471
:101BD0002E080319EC2DED2DF32DA91FF02DF12D5D
:101BE000F32DB317F32D3308A9003208A8003108EC
:101BF000A7003008A600FC2D0800831603132B084D
:101C0000031D032E042E392E83120313A401A40AEC
:101C100001300A168A11ED230A128A152130831227
:101C20000313A4008030A5000A168A1194260A1214
:101C30008A1583120313A401A40A02300A168A111A
:101C4000ED230A128A15283083120313A400803072
:101C5000A5000A168A1194260A128A150A128A11F8
:101C60009E260A128A150A128A150B230A128A1551
:101C7000D72E831603132B03031D3F2E402E692EF0
:101C800083120313A401A40A01300A168A11ED235A
:101C90000A128A150E3083120313A4008030A500A7
:101CA0000A168A1194260A128A1583120313A401B4
:101CB000A40A02300A168A11ED230A128A15831625
:101CC00003132808303E0A128A11DF270A128A15E8
:101CD000D72E0230831603132B06031D702E712E90
:101CE0008C2E83120313A401A40A01300A168A1150
:101CF000ED230A128A15013083120313A4008030E9
:101D0000A5000A168A1194260A128A150A128A1543
:101D1000D8260A128A15D72E0330831603132B06F2
:101D2000031D932E942EAA2E83120313A401A40A3A
:101D300001300A168A11ED230A128A152E308312F9
:101D40000313A4008030A5000A168A1194260A12F3
:101D50008A15D72E0430831603132B06031DB12ECC
:101D6000B22EC82E83120313A401A40A01300A164E
:101D70008A11ED230A128A15183083120313A40066
:101D80008030A5000A168A1194260A128A15D72EC9
:101D90000530831603132B02031CCF2ED02ED72E13
:101DA000AB01D72ED72ED72ED72ED72ED72E080061
:101DB0000A168A113C230A128A1511308312031362
:101DC000AD000030AE000A168A114E230A128A15A1
:101DD000003083120313A000A1000A168A11712596
:101DE0000A128A15831203132008E7006708831676
:101DF0000313A9000A168A1145230A128A15033013
:101E000083120313E9000830E8007630E700E70B9F
:101E1000072FE80B072FE90B072F0000831203138E
:101E2000A401A40A02300A168A11ED230A128A15A7
:101E300083160313290883120313E700E801E9015D
:101E4000EA016A08A9006908A8006808A7006708ED
:101E5000A60000300A128A1539250A128A15831243
:101E60000313290883160313C700831203132808DA
:101E700083160313C6008312031327088316031364
:101E8000C50083120313260883160313C4004708F2
:101E900083120313DE008316031346088312031311
:101EA000DD0083160313450883120313DC00831639
:101EB0000313440883120313DB000A128A15BA23A2
:101EC0000A128A1583120313E700670883160313A7
:101ED000B900290883120313E700E801E901EA01C8
:101EE0006A08A9006908A8006808A7006708A60092
:101EF00000300A128A1539250A128A158312031333
:101F0000290883160313CB008312031328088316B2
:101F10000313CA0083120313270883160313C9008F
:101F200083120313260883160313C8004B08831279
:101F30000313DE00831603134A0883120313DD0024
:101F400083160313490883120313DC00831603135B
:101F5000480883120313DB000A128A155F220A1253
:101F60008A1583120313E700670883160313B8006A
:101F7000290883120313E700E801E901EA016A086E
:101F8000A9006908A8006808A7006708A600003033
:101F90000A128A1539250A128A1583120313290891
:101FA000DE002808DD002708DC002608DB000A1612
:101FB0008A11DE250A128A1583120313EB006B08BF
:101FC00083160313B700B73083120313A400003045
:101FD000A5000A168A1194260A128A15DF300A1201
:101FE0008A11DF270A128A15363083120313A400E0
:101FF0008030A5000A168A1194260A128A15080054
:10200000FF1B0A2883137F1883170008840A03190B
:10201000FF0A080010308A000408840A820700348E
:10202000543465346D3470346534723461347434CE
:102030007534723461343A34003443346F346E345E
:102040007434613464346F3472343A340034543448
:1020500065346D3462346C346F3472343A34003425
:10206000463465346334683461343A340034483477
:102070006F34723461343A340034483475346D341A
:0E2080006F343A3400342F34003443340034CB
:10261E0001300A168A119C230A168A1108008316A5
:10262E0003130F168F160F170F14080001300A161A
:10263E008A11D1230A168A1108008B170B178B15D6
:10264E000B10831603131616080064008001840A0B
:10265E0004060319003404062D2B143400340234FE
:10266E00003401340034183400340A168A11582309
:10267E000A168A1183160313111408000A168A11FA
:10268E0058230A168A1183160313111508000A1609
:10269E008A1158230A168A11831203132D089300E8
:1026AE000800592B8316031314195E2B5F2B592B1D
:1026BE0011081F39031D642B652B592B662B08003F
:1026CE008312031337083604350434040319702BB0
:1026DE00712B742B8030B706742B752B0800831664
:1026EE0003138501013088008901103086008312A2
:1026FE00031385018801890186018316031788015A
:10270E00890108007E088A007F0882000A168A1155
:10271E0089230A168A118000840A04087D0603198B
:10272E000034FF0A0319FE0A8D2BF30083120313E4
:10273E00861373080A168A1155260A168A118312F1
:10274E00031388171A30F200F830F100F10BAD2B9D
:10275E00F20BAD2B000083120313881308008312B3
:10276E000313A300A201BB2B231CBE2BBF2BC42B18
:10277E002008A1002108A207C42B0310A00D0310EE
:10278E00A30C2308031DCC2BCD2BBB2BCE2B220849
:10279E00D02B080083120313A300861323080A16F6
:1027AE008A1118260A168A118312031388171A30F3
:1027BE0083120313A200F730A100A10BE42BA20B8E
:1027CE00E42BE92B831203138813080083120313DF
:1027DE00A5002503031DF42BF52BFD2B24087F3EAE
:1027EE000A168A11D1230A168A110E2C0230831270
:1027FE0003132506031D042C052C0E2C2408BF3EA6
:10280E000A168A11D1230A168A110E2C0E2C0800D4
:10281E0083120313A2000A3079067A04031D182CC2
:10282E00192C352C37307B067C04031D1F2C202CD5
:10283E00352C22080F3EA000003003180130A100F5
:10284E006F082106031D2D2C6E082006031D302C4B
:10285E00312C352C061086100611352C08008312EB
:10286E000313A401A5013B2C201C3E2C3F2C452C10
:10287E002208A4070318A50A2308A5070130031090
:10288E00A20DA30DFF3E031D462C01300310A10C1B
:10289E00A00CFF3E031D4D2C20082104031D582CB7
:1028AE00592C3B2C5A2C2508A1002408A0005F2C83
:1028BE0008000F30831203132605A80000302705E9
:1028CE00A900260E0F39A000270EF039A004270EFE
:1028DE000F39A100F030A11D0030A1040A30A20072
:1028EE000030A3000A168A1136240A168A118312A2
:1028FE00031328082007A60029080318290A210710
:10290E00A700892C080083120313A4002408A20038
:10291E00A3017A082306031D962C79082206031DAF
:10292E00992C9A2CB62C2008A200A3017C08230611
:10293E00031DA32C7B082206031DA62CA72CB62C48
:10294E002108A200A3016F082306031DB02C6E08F8
:10295E002206031DB32CB42CB62C0614B62C08007C
:10296E0083120313A4002408A200A3017A082306ED
:10297E00031DC32C79082206031DC62CC72CE32C7D
:10298E002008A200A3017C082306031DD02C7B087F
:10299E002206031DD32CD42CE32C2108A200A30164
:1029AE006F082306031DDD2C6E082206031DE02C86
:1029BE00E12CE32C8614E32C080083120313A400ED
:1029CE002408A200A3017A082306031DF02C79081F
:1029DE002206031DF32CF42C102D2008A200A301B7
:1029EE007C082306031DFD2C7B082206031D002DEB
:1029FE00012D102D2108A200A3016F082306031D2F
:102A0E000A2D6E082206031D0D2D0E2D102D0615F6
:102A1E00102D08000B1C142D152D392D0B108312A3
:102A2E000313061E1B2D1C2D392D0130F4007408C6
:102A3E0083160313AB070A168A110F230A168A117F
:102A4E0083160313AA01AA0A0330F6000830F50014
:102A5E007730F400F40B312DF50B312DF60B312DB3
:102A6E00392D392D78088A00770E8300FE0E7E0EE2
:102A7E000900831203130818452D462D4B2D83167E
:102A8E000313A701A70A672D831603132703031D3C
:102A9E00512D522D672D013083120313A0002008F3
:102AAE0083160313A807A7010D3083120313A10089
:102ABE00FB30A000A00B612DA10B612D672D672DA2
:102ACE0083160313280A031D6D2D6E2D702DA8017C
:102ADE00702D08000A168A1158230A168A118316B9
:102AEE00031391150A168A1158230A168A11831296
:102AFE0003131308A200A3012208A4002308A500B3
:102B0E000A168A1158230A168A11831203132003F8
:102B1E002104031D932D942D982D831603139112CA
:102B2E009B2D83160313911611168312031325087A
:102B3E00A1002408A000A32D08002830831203133F
:102B4E009400831603139101831203132E08B2000F
:102B5E002F08B3003008B4003108B500023003105E
:102B6E00B20DB30DB40DB50DFF3E031DB62D3508D8
:102B7E00A3003408A2003308A1003208A0000030E0
:102B8E00A7003D30A6000930A5000030A4000A12AF
:102B9E008A1537200A168A11831203132008FF3E66
:102BAE0083160313930094018715071608008312EA
:102BBE0003135E08A7005D08A6005C08A5005B086D
:102BCE00A4004230A300C830A2000030A1000030A3
:102BDE00A0000A128A1100230A168A118312031307
:102BEE002308D3002208D2002108D1002008D000EB
:102BFE000A128A1519210A168A1183120313500814
:102C0E00DF005F08E00060080A168A1139270A16ED
:102C1E008A1183120313DF005F08E1006108172E8B
:102C2E00080083120313A000201C1E2E1F2E212E1F
:102C3E000514222E0510A01C252E262E282E8514B6
:102C4E00292E8510201D2C2E2D2E2F2E0515302EC3
:102C5E000511A01D332E342E362E8515372E8511D7
:102C6E00201E3A2E3B2E3D2E05163E2E0512A01E80
:102C7E00412E422E442E8516452E8512201F482E9B
:102C8E00492E4B2E05174C2E0513A01F4F2E502EDE
:102C9E00522E8517542E8513542E0800F000701CEA
:102CAE00592E5A2E5E2E831203130514612E831293
:102CBE0003130510F01C642E652E672E8514682EE6
:102CCE008510701D6B2E6C2E6E2E05156F2E051138
:102CDE00F01D722E732E752E8515762E8511701E93
:102CEE00792E7A2E7C2E05167D2E0512F01E802E44
:102CFE00812E832E8516842E8512701F872E882E88
:102D0E008A2E05178B2E0513F01F8E2E8F2E912EC9
:102D1E008517932E8513932E080083120313A90192
:102D2E00AA01BE2E29082407A7002508A60003180D
:102D3E00A60AA91FA32EA603831203132608A80012
:102D4E002808FF00270884000A168A1100200A1698
:102D5E008A110A128A11DF270A168A11013083128C
:102D6E000313A9070318AA0A0030AA07BE2E2908C2
:102D7E002407A7002508A6000318A60AA91FC82E17
:102D8E00A603831203132608A8002808FF002708AD
:102D9E0084000A168A1100200A168A11003A031DB1
:102DAE00D92EDA2E992EDB2E08002730831203132C
:102DBE00A500F430A400A40BE22EA50BE22E000019
:102DCE0000300A168A1118260A168A113430831218
:102DDE000313A500F130A400A40BF32EA50BF32EC4
:102DEE0030300A168A11D1230A168A110D30831239
:102DFE000313A500FB30A400A40B032FA50B032F78
:102E0E0030300A168A11D1230A168A1169308312BC
:102E1E000313A400A40B112F142F30300A168A119D
:102E2E00D1230A168A1138300A168A11D1230A16AE
:102E3E008A1110300A168A11D1230A168A1101300E
:102E4E000A168A11D1230A168A1106300A168A1119
:102E5E00D1230A168A110C300A168A11D1230A16AA
:102E6E008A11080083120313A200702F3030A000C5
:102E7E002008A300982F3130A0002008A300982F1F
:102E8E003230A0002008A300982F3330A000200875
:102E9E00A300982F3430A0002008A300982F3530BF
:102EAE00A0002008A300982F3630A0002008A30011
:102EBE00982F3730A0002008A300982F3830A0009C
:102ECE002008A300982F3930A0002008A300982FC7
:102EDE00982F2208A000A1012108003A0319782F8B
:102EEE00982F2008003A03193D2F013A0319422F5B
:102EFE00033A0319472F013A03194C2F073A0319C6
:102F0E00512F013A0319562F033A03195B2F013A39
:102F1E000319602F0F3A0319652F013A03196A2F0F
:102F2E00982F23089A2F080083120313A601A31FBC
:102F3E00A12FA22FAA2FA209A309A20A0319A30A3D
:102F4E00A601A60AAA2FA11FAD2FAE2FB42FA0093E
:102F5E00A109A00A0319A10AB42F200821040319FC
:102F6E00B92FBA2FEF2FA501A50AC92F01300310D3
:102F7E00A00DA10DFF3E031DBE2F0130A40024089D
:102F8E00A507C92FA11FCC2FCD2FBD2FCF2FCF2FF0
:102F9E0021082302031DD52F20082202031CD82F3F
:102FAE00D92FE02F2008A2022108031CA303A3029D
:102FBE00E02F01300310A10CA00CFF3E031DE12FEA
:102FCE000130A502031DEC2FED2FCF2FEF2FEF2F8A
:102FDE0026080319F32FF42FFA2FA209A309A20A28
:102FEE000319A30AFA2F2308A1002208A000FF2F1D
:022FFE000800C9
:04400E00D4E0FFFFFC
:00000001FF
