:020000040000FA
:060000000A128A110C280F
:10000800FE00030EF7000A08F8000A128A150F2FDF
:100018000A128A110F2883135A30FD000D30FE0092
:100028008D30FF00503084000A128A15BD250A124F
:100038008A110A128A11FC270A128A11F9000A1277
:100048008A11FD270A128A11FA00203084003830FC
:100058000A128A1569250A128A11FB0183010A12FC
:100068008A11FD2B0A128A1571250A128A11D030BD
:1000780083120313C5000030C6000A128A158325AF
:100088000A128A11003083120313C500C6000A122F
:100098008A1583250A128A110A128A157A250A12E4
:1000A8008A110A128A1571250A128A11D13083120F
:1000B8000313C5000030C6000A128A1583250A12E8
:1000C8008A11003083120313B800B9000A128A1586
:1000D80096270A128A11831203133908BF003808B9
:1000E800BE000A128A15BA260A128A11831203134D
:1000F8003F08A5003E08A4000A128A157A250A12AC
:100108008A110A128A1571250A128A11D1308312AE
:100118000313C5000030C6000A128A1583250A1287
:100128008A11003083120313B800B9000A128A1525
:1001380096270A128A11831203133908BF00380858
:10014800BE000A128A15BA260A128A1183120313EC
:100158003F08D9003E08D8000A128A157A250A12E3
:100168008A110A128A1571250A128A11D13083124E
:100178000313C5000030C6000A128A1583250A1227
:100188008A11003083120313B800B9000A128A15C5
:1001980096270A128A11831203133908BF003808F8
:1001A800BE000A128A15BA260A128A11831203138C
:1001B8003F08D7003E08D6000A128A157A250A1287
:1001C8008A110A128A1571250A128A11D1308312EE
:1001D8000313C5000030C6000A128A1583250A12C7
:1001E8008A11003083120313B800B9000A128A1565
:1001F80096270A128A110A128A157A250A128A1172
:100208000A128A1571250A128A11D1308312031332
:10021800C5000030C6000A128A1583250A128A1101
:10022800003083120313B800B9000A128A15962702
:100238000A128A11831203133908BF003808BE0056
:100248000A128A15BA260A128A11831203133F0862
:10025800D5003E08D4000A128A157A250A128A1196
:100268000A128A1571250A128A11D13083120313D2
:10027800C5000030C6000A128A1583250A128A11A1
:10028800003083120313B800B9000A128A159627A2
:100298000A128A11831203133908BF003808BE00F6
:1002A8000A128A15BA260A128A11831203133F0802
:1002B800D3003E08D2000A128A157A250A128A113A
:1002C8000A128A1571250A128A11D1308312031372
:1002D800C5000030C6000A128A1583250A128A1141
:1002E800003083120313B800B9000A128A15962742
:1002F8000A128A11831203133908BF003808BE0096
:100308000A128A15BA260A128A11831203133F08A1
:10031800D1003E08D0000A128A157A250A128A11DD
:100328000A128A157A250A128A110A128A15712563
:100338000A128A11D13083120313C5000030C60097
:100348000A128A1583250A128A11003083120313B0
:10035800B800B9000A128A1596270A128A110A12D9
:100368008A157A250A128A1108000A3083120313A3
:10037800B8000030B9002508BB002408BA000A12EA
:100388008A111C260A128A11831203133808C10025
:100398004108B7000A30B8000030B9002508BB0092
:1003A8002408BA000A128A113A250A128A118312FD
:1003B80003133808C1004108B6000A30B8000030FD
:1003C800B9005908BB005808BA000A128A111C263D
:1003D8000A128A11831203133808C1004108B500B4
:1003E8000A30B8000030B9005908BB005808BA00F4
:1003F8000A128A113A250A128A118312031338083D
:10040800C1004108B4000A30B8000030B9005708EC
:10041800BB005608BA000A128A111C260A128A1151
:10042800831203133808C1004108B3000A30B8002A
:100438000030B9005708BB005608BA000A128A11E2
:100448003A250A128A11831203133808C100410899
:10045800B2000A30B8000030B9005508BB00540893
:10046800BA000A128A111C260A128A11831203136F
:100478003808C1004108B1000A30B8000030B9009E
:100488005508BB005408BA000A128A113A250A1204
:100498008A11831203133808C1004108B0000A30DA
:1004A800B8000030B9005308BB005208BA000A125D
:1004B8008A111C260A128A11831203133808C100F4
:1004C8004108AF000A30B8000030B9005308BB003B
:1004D8005208BA000A128A113A250A128A1183129E
:1004E80003133808C1004108AE000A30B8000030D4
:1004F800B9005108BB005008BA000A128A111C261C
:100508000A128A11831203133808C1004108AD008A
:100518000A30B8000030B9005108BB005008BA00D2
:100528000A128A113A250A128A118312031338080B
:10053800C1004108AC0008000A128A1571250A1288
:100548008A11D03083120313C5000030C6000A1286
:100558008A1583250A128A11003083120313C500F5
:10056800C6000A128A1583250A128A1183120313F8
:100578002508C2002408C1000A128A15C9270A12D0
:100588008A11831203134208C6004108C5000A12E3
:100598008A1583250A128A11831203135908C20087
:1005A8005808C1000A128A15C9270A128A1183122B
:1005B80003134208C6004108C5000A128A1583259C
:1005C8000A128A11831203135708C2005608C10081
:1005D8000A128A15C9270A128A11831203134208BC
:1005E800C6004108C5000A128A1583250A128A1115
:1005F800013083120313C5000030C6000A128A15A1
:1006080083250A128A11831203135508C20054085D
:10061800C1000A128A15C9270A128A118312031304
:100628004208C6004108C5000A128A1583250A1225
:100638008A11831203135308C2005208C1000A1218
:100648008A15C9270A128A11831203134208C600A1
:100658004108C5000A128A1583250A128A118312D5
:1006680003135108C2005008C1000A128A15C9278D
:100678000A128A11831203134208C6004108C500F2
:100688000A128A1583250A128A110A128A157A25EE
:100698000A128A110800831203132B08031D552B15
:1006A800562B7F2BBC01BC0A01300A128A151E2664
:1006B8000A128A1121300A128A15E4260A128A11AE
:1006C80083120313BC01BC0A02300A128A151E26C3
:1006D8000A128A1128300A128A15E4260A128A1187
:1006E8000A128A11B9210A128A110A128A119D2442
:1006F8000A128A11FC2B831203132B03031D852B6B
:10070800862BA82BBC01BC0A01300A128A151E26AA
:100718000A128A110E300A128A15E4260A128A1160
:1007280083120313BC01BC0A02300A128A151E2662
:100738000A128A11831203132908303E0A128A15F5
:1007480002260A128A11FC2B0230831203132B068D
:10075800031DAF2BB02BBF2BBC01BC0A01300A1202
:100768008A151E260A128A1101300A128A15E426F1
:100778000A128A11FC2B0330831203132B06031D64
:10078800C62BC72BD62BBC01BC0A01300A128A150E
:100798001E260A128A112E300A128A15E4260A1217
:1007A8008A11FC2B0430831203132B06031DDD2B47
:1007B800DE2BED2BBC01BC0A01300A128A151E265D
:1007C8000A128A1118300A128A15E4260A128A11A6
:1007D800FC2B0530831203132B02031CF42BF52B7F
:1007E800FC2BAB01FC2BFC2BFC2BFC2BFC2BFC2B44
:1007F80008000A128A1553250A128A110A128A1544
:10080800A6250A128A110A128A1561250A128A1166
:100818000A128A1181260A128A11003083120313E0
:10082800C9000130C8008630C700A030C6000A12CF
:100838008A1195270A128A1121300A128A15E4268C
:100848000A128A1183120313BC01BC0A02300A126D
:100858008A151E260A128A1128300A128A15E426D9
:100868000A128A110A128A11A0220A128A11831204
:100878000313A701A601AB01412C0A128A113620E5
:100888000A128A110A128A114F230A128A11373062
:1008980083120313CE004E08B8000530CF004F086E
:1008A800B9000A300A128A153C270A128A11373011
:1008B80083120313CE004E08B8000A30CF004F0849
:1008C800B9000A300A128A1569270A128A113730C4
:1008D80083120313CE004E08B8000F30CF004F0824
:1008E800B9000A300A128A11CF270A128A11053074
:1008F8000A128A1540260A128A110A128A156726D0
:100908000A128A11831203132A03031D8C2C8D2CBF
:10091800962C0A128A155A250A128A118312031371
:10092800AA01412CAA01412C412C412C0A128A11FE
:100938000C28083083120313BF003F08BC000130A5
:100948000A128A151E260A128A1183120313300806
:10095800303E0A128A1502260A128A1183120313DC
:100968003108303E0A128A1502260A128A113430DA
:100978000A128A15E4260A128A11831203132E0812
:10098800303E0A128A1502260A128A1183120313AC
:100998002F08303E0A128A1502260A128A113430AC
:1009A8000A128A15E4260A128A11831203132C08E4
:1009B800303E0A128A1502260A128A11831203137C
:1009C8002D08303E0A128A1502260A128A110830AA
:1009D80083120313BF003F08BC0002300A128A15B5
:1009E8001E260A128A11831203133208303E0A1295
:1009F8008A1502260A128A11831203133308303E1D
:100A08000A128A1502260A128A1126300A128A1533
:100A1800E4260A128A11831203133408303E0A129C
:100A28008A1502260A128A11831203133508303EEA
:100A38000A128A1502260A128A1126300A128A1503
:100A4800E4260A128A11831203133608303E0A126A
:100A58008A1502260A128A11831203133708303EB8
:100A68000A128A1502260A128A1108008312031331
:100A7800BE01B91F402D412D492DB809B909B80A41
:100A88000319B90ABE01BE0A492DBB1F4C2D4D2DB5
:100A9800572DBA09BB09BA0A0319BB0A0130BC00B1
:100AA8003C08BE06572DBF01C00138083904031998
:100AB8005E2D5F2D9C2DBD01BD0A6E2D01300310EA
:100AC800B80DB90DFF3E031D632D0130BC003C0875
:100AD800BD076E2DB91F712D722D622D742D742DC9
:100AE80001300310BF0DC00DFF3E031D752D3908E1
:100AF8003B02031D812D38083A02031C842D852DE5
:100B08008D2D3808BA023908031CBB03BB023F14F9
:100B18008D2D01300310B90CB80CFF3E031D8E2D2E
:100B28000130BD02031D992D9A2D742D9C2D9C2DED
:100B38003E080319A02DA12DA72DBF09C009BF0A82
:100B48000319C00AA72D4008B9003F08B800AC2D0A
:100B58000800003083120313C4000030C3000030C3
:100B6800C2000030C1003B083A04390438040319B4
:100B7800BE2DBF2D122EC501C50AD02D0130C000D3
:100B88000310B80DB90DBA0DBB0DC00BC42D013043
:100B9800C0004008C507D02DBB1FD32DD42DC22DB2
:100BA800D62DD62D0130C0000310C10DC20DC30DC6
:100BB800C40DC00BD82D3B083F02031DED2D3A088C
:100BC8003E02031DED2D39083D02031DED2D3808A9
:100BD8003C02031CF02DF12D012E3808BC02390807
:100BE800031C390FBD023A08031C3A0FBE023B082A
:100BF800031C3B0FBF024114012E01300310BB0C34
:100C0800BA0CB90CB80CFF3E031D022E0130C50208
:100C1800031D0F2E102ED62D122E122E4408BB00A7
:100C28004308BA004208B9004108B8001B2E080062
:100C380083120313BE01BB1F222E232E2B2EBA09AB
:100C4800BB09BA0A0319BB0ABE01BE0A2B2EB91F7B
:100C58002E2E2F2E352EB809B909B80A0319B90A4C
:100C6800352E3808390403193A2E3B2E702EBD0153
:100C7800BD0A4A2E01300310B80DB90DFF3E031D01
:100C88003F2E0130BC003C08BD074A2EB91F4D2E2F
:100C98004E2E3E2E502E502E39083B02031D562E46
:100CA80038083A02031C592E5A2E612E3808BA0207
:100CB8003908031CBB03BB02612E01300310B90CB9
:100CC800B80CFF3E031D622E0130BD02031D6D2EC0
:100CD8006E2E502E702E702E3E080319742E752E0F
:100CE8007B2EBA09BB09BA0A0319BB0A7B2E3B083B
:100CF800B9003A08B800802E080027308312031381
:100D0800BD00F430BC00BC0B872EBD0B872E000045
:100D180000300A128A111D270A128A1134308312F0
:100D28000313BD00F130BC00BC0B982EBD0B982EF0
:100D380030300A128A15E6250A128A110D308312FC
:100D48000313BD00FB30BC00BC0BA82EBD0BA82EA6
:100D580030300A128A15E6250A128A116930831280
:100D68000313BC00BC0BB62EB92E30300A128A15FC
:100D7800E6250A128A1138300A128A15E6250A125F
:100D88008A1110300A128A15E6250A128A110130D2
:100D98000A128A15E6250A128A1106300A128A15DD
:100DA800E6250A128A110C300A128A15E6250A125B
:100DB8008A110800F000701CE22EE32EE72E831241
:100DC80003130514EA2E831203130510F01CED2EED
:100DD800EE2EF02E8514F12E8510701DF42EF52EB2
:100DE800F72E0515F82E0511F01DFB2EFC2EFE2EF4
:100DF8008515FF2E8511701E022F032F052F05164E
:100E0800062F0512F01E092F0A2F0C2F85160D2FFD
:100E18008512701F102F112F132F0517142F05136C
:100E2800F01F172F182F1A2F85171C2F85131C2F0B
:100E3800080083120313B800381C232F242F262FF1
:100E48000514272F0510B81C2A2F2B2F2D2F85149A
:100E58002E2F8510381D312F322F342F0515352FA1
:100E68000511B81D382F392F3B2F85153C2F8511BB
:100E7800381E3F2F402F422F0516432F0512B81E4C
:100E8800462F472F492F85164A2F8512381F4D2F79
:100E98004E2F502F0517512F0513B81F542F552FBC
:100EA800572F8517592F8513592F080007308A00A7
:100EB8000408840A82070034543465346D3470346D
:100EC80065347234613474347534723461343A344C
:100ED800003443346F346E347434613464346F34A2
:100EE80072343A340034543465346D3462346C34BA
:100EF8006F3472343A3400344634653463346834B9
:100F080061343A34003448346F34723461343A34DA
:100F18000034483475346D346F343A3400342F3427
:100F280000342830831203139400831603139101AD
:100F3800831203134608CA004708CB004808CC00B0
:100F48004908CD0002300310CA0DCB0DCC0DCD0DD4
:100F5800FF3E031DA72F4D08BB004C08BA004B08E5
:100F6800B9004A08B8000030BF003D30BE00093063
:100F7800BD000030BC000A128A11AD250A128A1180
:100F8800831203133808FF3E83160313930094015A
:100F980087150716080083120313BC003C08BA0023
:100FA800BB0157083B06031DDB2F56083A06031DF5
:100FB800DE2FDF2FFB2F3808BA00BB0159083B068C
:100FC800031DE82F58083A06031DEB2FEC2FFB2FC3
:100FD8003908BA00BB0125083B06031DF52F240874
:100FE8003A06031DF82FF92FFB2F0615FB2F0800D3
:040FF800013400348C
:101A980001300A128A15CC250A128A150800831605
:101AA80003130F168F160F170F14080001300A12B0
:101AB8008A15E6250A128A1508008B170B178B154D
:101AC8000B10831603131616080064008001840A9D
:101AD80004060319003404066A2D0A128A1597258C
:101AE8000A128A1583160313111408000A128A159C
:101AF80097250A128A1583160313111508000A126E
:101B08008A1597250A128A1583120313450893002C
:101B180008001434003402340034183400340A3411
:101B2800003437340034982D8316031314199D2D6F
:101B38009E2D982D11081F39031DA32DA42D982D16
:101B4800A52D08008316031385010130880089013B
:101B580010308600831203138501880189018601EC
:101B6800831603178801890108007E088A007F0808
:101B780082000A128A15B9250A128A158000840A79
:101B880004087D0603190034FF0A0319FE0ABD2D57
:101B9800F30083120313861373080A128A11DE26D0
:101BA8000A128A158312031388171A30F200F830C4
:101BB800F100F10BDD2DF20BDD2D00008312031374
:101BC8008813080083120313BB0086133B080A120C
:101BD8008A111D270A128A158312031388171A30CF
:101BE80083120313BA00F730B900B90BF92DBA0BF9
:101BF800F92DFE2D83120313881308008312031393
:101C0800BB0086173B080A128A111D270A128A157B
:101C18008312031388170B3083120313BA00613041
:101C2800B900B90B152EBA0B152E1A2E83120313F1
:101C38008813080083120313BD003D03031D252EDE
:101C4800262E2E2E3C087F3E0A128A15E6250A12F9
:101C58008A153F2E0230831203133D06031D352ECD
:101C6800362E3F2E3C08BF3E0A128A15E6250A1278
:101C78008A153F2E3F2E080083120313BA000A303C
:101C880056065704031D492E4A2E662E373058062D
:101C98005904031D502E512E662E3A080F3EB800E7
:101CA800003003180130B90025083906031D5E2EDF
:101CB80024083806031D612E622E662E0610861033
:101CC8000611662E08008312031308186C2E6D2E59
:101CD800702EFB01FB0A862E7B03031D742E752EC6
:101CE800862E0130B8003808A907FB010D30831291
:101CF8000313B900FB30B800B80B802EB90B802E47
:101D0800862E862E83120313290A031D8C2E8D2EF0
:101D18008F2EA9018F2E080083120313BC01BD0169
:101D2800952E381C982E992E9F2E3A08BC0703181A
:101D3800BD0A3B08BD0701300310BA0DBB0DFF3EBD
:101D4800031DA02E01300310B90CB80CFF3E031D73
:101D5800A72E38083904031DB22EB32E952EB42EA3
:101D68003D08B9003C08B800B92E08000F308312AE
:101D780003133E05C00000303F05C1003E0E0F3979
:101D8800B8003F0EF039B8043F0E0F39B900F030F3
:101D9800B91D0030B9040A30BA000030BB000A127D
:101DA8008A1590260A128A158312031340083807E9
:101DB800BE0041080318410A3907BF00E32E080096
:101DC80083120313BE00BC01BD01002F3C083E076F
:101DD80084000A128A115A270A128A150A128A15C9
:101DE80002260A128A15013083120313BC0703184E
:101DF800BD0A0030BD07002F3C083E0784000A12C8
:101E08008A115A270A128A15003A031D0C2F0D2F22
:101E1800EA2E0E2F08000B1C122F132F352F0B1034
:101E280083120313061E192F1A2F352F0130F400C1
:101E38007408AB070A128A154C250A128A158312F0
:101E48000313AA01AA0A0330F6000830F500773018
:101E5800F400F40B2D2FF50B2D2FF60B2D2F352F0E
:101E6800352F78088A00770E8300FE0E7E0E090053
:101E780083120313BC003C08BA00BB0157083B0699
:101E8800031D482F56083A06031D4B2F4C2F682F69
:101E98003808BA00BB0159083B06031D552F5808DE
:101EA8003A06031D582F592F682F3908BA00BB016D
:101EB80025083B06031D622F24083A06031D652FDB
:101EC800662F682F0614682F080083120313BC00BE
:101ED8003C08BA00BB0157083B06031D752F56087E
:101EE8003A06031D782F792F952F3808BA00BB01C1
:101EF80059083B06031D822F58083A06031D852FF3
:101F0800862F952F3908BA00BB0125083B06031D0B
:101F18008F2F24083A06031D922F932F952F86148E
:101F2800952F08000A128A1597250A128A15831612
:101F3800031391150A128A1597250A128A15831216
:101F480003131308BA00BB013A08BC003B08BD00E4
:101F58000A128A1597250A128A1583120313380361
:101F68003904031DB82FB92FBD2F831603139112FF
:101F7800C02F8316031391161116831203133D08FD
:101F8800B9003C08B800C82F08000A3083120313B0
:101F9800B8000030B9004208BB004108BA000A1274
:101FA8008A113A250A128A15831203133808C300C6
:101FB8003908C400C30EC40EF030C40543080F39F5
:101FC800C404F030C3050A30B8000030B900420834
:101FD800BB004108BA000A128A111C260A128A1587
:101FE8008312031338084307C10039080318390A54
:081FF8004407C200FF2F08009E
:04400E00D4E0FFFFFC
:00000001FF
