:020000040000FA
:060000000A128A11E62F2E
:10000C00F30083120313861773080A128A11F9215D
:10001C000A128A118312031388170630F20030304B
:10002C00F100F10B1728F20B1728000083120313B1
:10003C0088130800F5007503031D252826282E2893
:10004C0074087F3E0A128A15E6270A128A113D2887
:10005C0002307506031D332834283D287408BF3E32
:10006C000A128A15E6270A128A113D283D28080033
:10007C000F307605F80000307705F900760E0F3951
:10008C00F000770EF039F004770E0F39F100F030F4
:10009C00F11D0030F1040A30F2000030F3000A12B6
:1000AC008A11B2200A128A1178087007F6007908B2
:1000BC000318790A7107F70063280800F2000A3068
:1000CC00831203133A063B04031D6D286E288A28FD
:1000DC0037303C063D04031D742875288A287208A5
:1000EC000F3EF000003003180130F10025087106B6
:1000FC00031D822824087006031D852886288A285B
:10010C000610861006118A280800F600F401F50185
:10011C00A3287408760784000A128A1500200A1294
:10012C008A110A128A1106200A128A110130F40768
:10013C000318F50A0030F507A32874087607840025
:10014C000A128A1500200A128A11003A031DAF28E0
:10015C00B0288F28B1280800F401F501B528701CCF
:10016C00B828B928BF287208F4070318F50A7308D1
:10017C00F50701300310F20DF30DFF3E031DC028EF
:10018C0001300310F10CF00CFF3E031DC728700862
:10019C007104031DD228D328B528D4287508F10082
:1001AC007408F000D9280800F4007408F200F30178
:1001BC00831203133B087306031DE6283A087206E4
:1001CC00031DE928EA2806297008F200F3013D080E
:1001DC007306031DF3283C087206031DF628F72846
:1001EC0006297108F200F30125087306031D002986
:1001FC0024087206031D032904290629061406295E
:10020C000800F4007408F200F301831203133B0896
:10021C007306031D13293A087206031D16291729A4
:10022C0033297008F200F3013D087306031D2029E1
:10023C003C087206031D2329242933297108F20076
:10024C00F30125087306031D2D2924087206031DCE
:10025C00302931293329861433290800F400740815
:10026C00F200F301831203133B087306031D4029AC
:10027C003A087206031D4329442960297008F200CC
:10028C00F3013D087306031D4D293C087206031D3E
:10029C005029512960297108F200F30125087306D1
:1002AC00031D5A2924087206031D5D295E29602945
:1002BC000615602908000A128A15B3270A128A113A
:1002CC008316031391150A128A15B3270A128A1181
:1002DC00831203131308F200F3017208F40073087D
:1002EC00F5000A128A15B3270A128A1170037104D9
:1002FC00031D8129822986298316031391128929CA
:10030C0083160313911611167508F1007408F0008A
:10031C008F2908000A30F0000030F1007A08F30051
:10032C007908F2000A128A115D230A128A117008E8
:10033C00FB007108FC00FB0EFC0EF030FC057B088A
:10034C000F39FC04F030FB050A30F0000030F100EE
:10035C007A08F3007908F2000A128A118D220A1227
:10036C008A1170087B07F90071080318710A7C0761
:10037C00FA00C02908002830831203139400831656
:10038C0003139101831203133E08C2003F08C300FC
:10039C004008C4004108C50002300310C20DC30D53
:1003AC00C40DC50DFF3E031DD3294508F3004408B9
:1003BC00F2004308F1004208F0000030F7003D3035
:1003CC00F6000930F5000030F4000A128A11F02210
:1003DC000A128A117008FF3E8316031393009401CE
:1003EC00871507160800F000701CFD29FE29022A4B
:1003FC00831203130514052A831203130510F01C32
:10040C00082A092A0B2A85140C2A8510701D0F2A1C
:10041C00102A122A0515132A0511F01D162A172A5F
:10042C00192A85151A2A8511701E1D2A1E2A202AA2
:10043C000516212A0512F01E242A252A272A85169C
:10044C00282A8512701F2B2A2C2A2E2A05172F2AB0
:10045C000513F01F322A332A352A8517372A8513BC
:10046C00372A08001430F5007930F400F40B3C2ADC
:10047C00F50B3C2A412A00300A128A11F9210A1282
:10048C008A111A30F500F830F400F40B4B2AF50BF6
:10049C004B2A000030300A128A15E6270A128A11FC
:1004AC000730F5007D30F400F40B5A2AF50B5A2A6C
:1004BC0030300A128A15E6270A128A113530F400F8
:1004CC00F40B662A30300A128A15E6270A128A11B2
:1004DC0038300A128A15E6270A128A1110300A12CD
:1004EC008A15E6270A128A1101300A128A15E627A4
:1004FC000A128A1106300A128A15E6270A128A1184
:10050C000C300A128A15E6270A128A110800F60125
:10051C00F31F912A922A9A2AF209F309F20A031973
:10052C00F30AF601F60A9A2AF11F9D2A9E2AA42A9A
:10053C00F009F109F00A0319F10AA42A70087104F0
:10054C000319A92AAA2ADF2AF501F50AB92A0130CA
:10055C000310F00DF10DFF3E031DAE2A0130F40027
:10056C007408F507B92AF11FBC2ABD2AAD2ABF2A87
:10057C00BF2A71087302031DC52A70087202031C7E
:10058C00C82AC92AD02A7008F2027108031CF30386
:10059C00F302D02A01300310F10CF00CFF3E031DC6
:1005AC00D12A0130F502031DDC2ADD2ABF2ADF2AFD
:1005BC00DF2A76080319E32AE42AEA2AF209F30966
:1005CC00F20A0319F30AEA2A7308F1007208F00020
:1005DC00EF2A08000030FC000030FB000030FA006D
:1005EC000030F90073087204710470040319FF2AB7
:1005FC00002B532BFD01FD0A112B0130F8000310C9
:10060C00F00DF10DF20DF30DF80B052B0130F80088
:10061C007808FD07112BF31F142B152B032B172B0D
:10062C00172B0130F8000310F90DFA0DFB0DFC0D22
:10063C00F80B192B73087702031D2E2B7208760208
:10064C00031D2E2B71087502031D2E2B70087402CE
:10065C00031C312B322B422B7008F4027108031C43
:10066C00710FF5027208031C720FF6027308031C5B
:10067C00730FF7027914422B01300310F30CF20CB8
:10068C00F10CF00CFF3E031D432B0130FD02031D4A
:10069C00502B512B172B532B532B7C08F3007B081F
:1006AC00F2007A08F1007908F0005C2B0800F601E2
:1006BC00F11F612B622B6A2BF009F109F00A031967
:1006CC00F10AF601F60A6A2BF31F6D2B6E2B782BB1
:1006DC00F209F309F20A0319F30A0130F400740861
:1006EC00F606782BF701F8017008710403197F2BBB
:1006FC00802BBD2BF501F50A8F2B01300310F00D6B
:10070C00F10DFF3E031D842B0130F4007408F50736
:10071C008F2BF11F922B932B832B952B952B013029
:10072C000310F70DF80DFF3E031D962B7108730295
:10073C00031DA22B70087202031CA52BA62BAE2B3B
:10074C007008F2027108031CF303F3027714AE2B4A
:10075C0001300310F10CF00CFF3E031DAF2B0130E8
:10076C00F502031DBA2BBB2B952BBD2BBD2B76088D
:10077C000319C12BC22BC82BF709F809F70A031967
:10078C00F80AC82B7808F1007708F000CD2B080088
:10079C000A128A157C270A128A110A128A15C22794
:1007AC000A128A110A128A1138220A128A1100308E
:1007BC0083120313C1000130C0008630BF00A0308B
:1007CC00BE000A128A11C1210A128A1101300A12C2
:1007DC008A118B200A128A11F401F40A02300A12CF
:1007EC008A1120200A128A1108300A128A118B20D1
:1007FC000A128A110A128A11E9240A128A11062C89
:10080C000A128A117F260A128A110A128A11982555
:10081C000A128A110A128A1150240A128A113730CC
:10082C0083120313C6004608F0000530C7004708C2
:10083C00F1000A300A128A11DA200A128A113730B2
:10084C0083120313C6004608F0000A30C70047089D
:10085C00F1000A300A128A1107210A128A11373064
:10086C0083120313C6004608F0000F30C700470878
:10087C00F1000A300A128A1134210A128A11053049
:10088C000A128A1164200A128A11062C062C0A12EA
:10089C008A1100280830F7007708F40001300A129A
:1008AC008A1120200A128A11831203132A08303E5F
:1008BC000A128A1106200A128A11831203132B08BA
:1008CC00303E0A128A1106200A128A110E300A12C0
:1008DC008A118B200A128A11831203132808303EC6
:1008EC000A128A1106200A128A118312031329088C
:1008FC00303E0A128A1106200A128A110E300A1290
:10090C008A118B200A128A11831203132608303E97
:10091C000A128A1106200A128A118312031327085D
:10092C00303E0A128A1106200A128A110830F7008A
:10093C007708F40002300A128A1120200A128A1158
:10094C00831203132C08303E0A128A1106200A1255
:10095C008A11831203132D08303E0A128A110620C5
:10096C000A128A1106300A128A118B200A128A1175
:10097C00831203132E08303E0A128A1106200A1223
:10098C008A11831203132F08303E0A128A11062093
:10099C000A128A1106300A128A118B200A128A1145
:1009AC00831203133008303E0A128A1106200A12F1
:1009BC008A11831203133108303E0A128A11062061
:1009CC000A128A1108000A128A158B270A128A1138
:1009DC00D03083120313BE000030BF000A128A15F8
:1009EC009D270A128A11003083120313BE00BF0028
:1009FC000A128A159D270A128A11831203132508DD
:100A0C00FA002408F9000A128A1190210A128A119C
:100A1C007A0883120313BF007908BE000A128A15E4
:100A2C009D270A128A11831203133D08FA003C0811
:100A3C00F9000A128A1190210A128A117A0883127B
:100A4C000313BF007908BE000A128A159D270A12EB
:100A5C008A11831203133B08FA003A08F9000A12B0
:100A6C008A1190210A128A117A0883120313BF008B
:100A7C007908BE000A128A159D270A128A110130C4
:100A8C0083120313BE000030BF000A128A159D2783
:100A9C000A128A11831203133908FA003808F90074
:100AAC000A128A1190210A128A117A0883120313EE
:100ABC00BF007908BE000A128A159D270A128A11F6
:100ACC00831203133508FA003408F9000A128A114C
:100ADC0090210A128A117A0883120313BF00790835
:100AEC00BE000A128A159D270A128A11831203135B
:100AFC003308FA003208F9000A128A1190210A12FE
:100B0C008A117A0883120313BF007908BE000A12F7
:100B1C008A159D270A128A110A128A1594270A121D
:100B2C008A1108000A30F0000030F1008312031320
:100B3C002508F3002408F2000A128A118D220A12E9
:100B4C008A117008F900790883120313B1000A3076
:100B5C00F0000030F1002508F3002408F2000A121E
:100B6C008A115D230A128A117008F9007908831220
:100B7C000313B0000A30F0000030F1003D08F30020
:100B8C003C08F2000A128A118D220A128A1170088E
:100B9C00F900790883120313AF000A30F00000301B
:100BAC00F1003D08F3003C08F2000A128A115D23A3
:100BBC000A128A117008F900790883120313AE0027
:100BCC000A30F0000030F1003B08F3003A08F20064
:100BDC000A128A118D220A128A117008F9007908FA
:100BEC0083120313AD000A30F0000030F1003B0813
:100BFC00F3003A08F2000A128A115D230A128A11D4
:100C0C007008F900790883120313AC000A30F00065
:100C1C000030F1003908F3003808F2000A128A118A
:100C2C008D220A128A117008F900790883120313B5
:100C3C00AB000A30F0000030F1003908F30038083E
:100C4C00F2000A128A115D230A128A117008F90047
:100C5C00790883120313AA000A30F0000030F10067
:100C6C003508F3003408F2000A128A118D220A1298
:100C7C008A117008F900790883120313A9000A304D
:100C8C00F0000030F1003508F3003408F2000A12CD
:100C9C008A115D230A128A117008F90079088312EF
:100CAC000313A8000A30F0000030F1003308F30001
:100CBC003208F2000A128A118D220A128A11700867
:100CCC00F900790883120313A7000A30F0000030F2
:100CDC00F1003308F3003208F2000A128A115D2386
:100CEC000A128A117008F900790883120313A600FE
:100CFC0008000A128A158B270A128A11D030831227
:100D0C000313BE000030BF000A128A159D270A1279
:100D1C008A11003083120313BE00BF000A128A1519
:100D2C009D270A128A110A128A1594270A128A110F
:100D3C000A128A158B270A128A11D13083120313D7
:100D4C00BE000030BF000A128A159D270A128A11B4
:100D5C000030F000F1000A128A1161210A128A1186
:100D6C007108F7007008F6000A128A113E200A1268
:100D7C008A11770883120313A5007608A4000A12BF
:100D8C008A1594270A128A110A128A158B270A12BD
:100D9C008A11D13083120313BE000030BF000A1237
:100DAC008A159D270A128A110030F000F1000A12F0
:100DBC008A1161210A128A117108F7007008F60075
:100DCC000A128A113E200A128A1177088312031321
:100DDC00BD007608BC000A128A1594270A128A11E3
:100DEC000A128A158B270A128A11D1308312031327
:100DFC00BE000030BF000A128A159D270A128A1104
:100E0C000030F000F1000A128A1161210A128A11D5
:100E1C007108F7007008F6000A128A113E200A12B7
:100E2C008A11770883120313BB007608BA000A12E2
:100E3C008A1594270A128A110A128A158B270A120C
:100E4C008A11D13083120313BE000030BF000A1286
:100E5C008A159D270A128A110030F000F1000A123F
:100E6C008A1161210A128A110A128A1594270A1210
:100E7C008A110A128A158B270A128A11D130831211
:100E8C000313BE000030BF000A128A159D270A12F8
:100E9C008A110030F000F1000A128A1161210A1245
:100EAC008A117108F7007008F6000A128A113E20A8
:100EBC000A128A11770883120313B9007608B80056
:100ECC000A128A1594270A128A110A128A158B277C
:100EDC000A128A11D13083120313BE000030BF00F6
:100EEC000A128A159D270A128A110030F000F100AF
:100EFC000A128A1161210A128A117108F70070080E
:100F0C00F6000A128A113E200A128A1177088312FF
:100F1C000313B5007608B4000A128A1594270A1236
:100F2C008A110A128A158B270A128A11D130831260
:100F3C000313BE000030BF000A128A159D270A1247
:100F4C008A110030F000F1000A128A1161210A1294
:100F5C008A117108F7007008F6000A128A113E20F7
:100F6C000A128A11770883120313B3007608B200B1
:100F7C000A128A1594270A128A110A128A159427C2
:100F8C000A128A110A128A158B270A128A11D13079
:100F9C0083120313BE000030BF000A128A159D276E
:100FAC000A128A110030F000F1000A128A11612134
:100FBC000A128A110A128A1594270A128A11080039
:100FCC0083133E30FD000F30FE00A730FF0032309F
:100FDC0084000A128A15D7270A128A11203084003D
:100FEC0032300A128A1583270A128A1183010A12D7
:100FFC008A11CE2B08308A000408840A8207003438
:10100C00463465346334683461343A3400344834DB
:0E101C006F34723461343A3400342F340034AF
:101EF800831603130F128F160F170F1408006400B0
:101F08008001840A0406031900340406842F0A1287
:101F18008A15B3270A128A158316031311140800A9
:101F28000A128A15B3270A128A1583160313111584
:101F380008000A128A15B3270A128A158312031396
:101F48003E0893000800143400340234003401348D
:101F58000034183400340A34003437340034B42FD1
:101F6800831603131419B92FBA2FB42F11081F3968
:101F7800031DBF2FC02FB42FC12F080083160313D2
:101F8800850188018901860183120313850188016F
:101F980089018601831603178801890108007E08D4
:101FA8008A007F0882000A128A15D3270A128A1526
:101FB8008000840A04087D0603190034FF0A031907
:101FC800FE0AD72FF30083120313861373080A122D
:101FD8008A11F9210A128A158312031388170D3002
:101FE800F200FB30F100F10BF72FF20BF72FFC2F6B
:081FF800831203138813080093
:04400E00D4E0FFFFFC
:00000001FF
