:020000040000FA
:060000000A128A110C280F
:10000800FE00030EF7000A08F8000A168A11852B6D
:100018000A128A110F288313C630FD001130FE0022
:10002800C430FF00BE3084000A168A111D220A124D
:100038008A110A128A11FB270A128A11F9000A1278
:100048008A11FC270A128A11FA000A128A11FD275E
:100058000A128A11FB000A128A11FE270A128A1153
:10006800FC00A0308400BE300A168A11BC210A1296
:100078008A11EE01EF01FD0183010A128A15AB29ED
:10008800831203133B088039C0004008CC003B08AA
:10009800C0004007C1004108CE00BA1F54285528A7
:1000A80057284E1457284E0803195B285C286D28DA
:1000B8004E0A031D602861286A280030BB00003002
:1000C800BA000030B9000030B8006A28BA17BB017E
:1000D80076280030BB000030BA000030B90000308C
:1000E800B80076283F088039C0004008CD004D0888
:1000F8004C0603198028812883284C1783283F0839
:10010800C0004007C1004108CD00BE1F8C288D28C3
:100118008F284D148F284D08031993289428A52853
:100128004D0A031D98289928A2280030BF000030E6
:10013800BE000030BD000030BC00A228BE17BF01C1
:10014800AD280030BF000030BE000030BD000030D8
:10015800BC004E084D020318B228B328F9284C1FDA
:10016800B628B728BC288030C0004008CC06BC2878
:100178004E08C0004008CF004D08C0004008CE001F
:100188004F08C0004008CD003808C0004008CF0024
:100198003C08C0004008B8004F08C0004008BC0038
:1001A8003908C0004008CF003D08C0004008B90029
:1001B8004F08C0004008BD003A08C0004008CF0002
:1001C8003E08C0004008BA004F08C0004008BE0002
:1001D8003B08C0004008CF003F08C0004008BB00F3
:1001E8004F08C0004008BF00F928CF014E08C000E2
:1001F800C101C009C109C00A0319C10A4D08400755
:10020800C20041080318410AC3004308803AFF00AE
:1002180080307F02031D12291A304202031C15295F
:1002280016295729831203133B083A043904380462
:10023800031D1F292129013022290030C000400850
:10024800CF000030BB000030BA000030B9000030E9
:10025800B8004D08C0004008CE00602957294F1C3F
:100268003629372940294F08C0000310400C0138AF
:10027800C1004108CF0043290310CF0C4329381C83
:10028800462947294929CF1749290130C0003B0D84
:10029800BB0CBA0CB90CB80CC00B4B290130C00010
:1002A8004008CE075729831203134D084E02031C3A
:1002B8005E295F29332960294C1B63296429B329E6
:1002C8004E08031D6829692973290030BB000030D6
:1002D800BA000030B9000030B800FF2AFF2A3C08F5
:1002E800B8073D0803110318013E03197C29B90713
:1002F8003E0803110318013E03198329BA073F0872
:1003080003110318013E03198A29BB073B1C8D29D9
:100318008E297C2A4F1C912992299B294F08C000BD
:100328000310400C0138C1004108CF009E2903107A
:10033800CF0C9E29381CA129A229A429CF17A429AA
:100348000130C0003B0DBB0CBA0CB90CB80CC00B8B
:10035800A6290130C0004008CE077C2A7C2A3B0829
:10036800803AFF003F08803A7F02031DC5293E08F6
:100378003A02031DC5293D083902031DC5293C0859
:1003880038020318C829C9292F2AFF30C000FF30B6
:10039800C100FF30C200FF30C3003C08C4003D0864
:1003A800C5003E08C6003F08C7003809C80039091B
:1003B800C9003A09CA003B09CB00C80A0319C90A8F
:1003C8000319CA0A0319CB0A4808C40749080318BD
:1003D800490FEF29F029C5074A0803184A0FF529DC
:1003E800F629C6074B0803184B0AC7074408C00775
:1003F80045080318450F012A022AC10746080318B1
:10040800460F072A082AC20747080318470AC307DE
:100418004308BB004208BA004108B9004008B800C8
:100428008030C0004008CC06CF09CF0A4F08031D12
:100438001E2A1F2A3D2A0130B80700300318013050
:10044800B907003003180130BA070030031801302B
:10045800BB073D2A3D2A3C08B8023D08031C3D0F56
:10046800B9023E08031C3E0FBA023F08031C3F0FA7
:10047800BB023B083A0439043804031D442A452AC0
:10048800762A4F08031D492A4A2A762A0030BB00DB
:100498000030BA000030B9000030B800FF2AFF2A47
:1004A800762A0130C0000310B80DB90DBA0DBB0D86
:1004B800C00B572ACF1F612A622A632A38144F1C9F
:1004C800662A672A6A2A0314CF0D6D2A0310CF0DF6
:1004D8006D2A4E080319712A722A762A0130CE0233
:1004E800762A762ABA1F792A7A2A552A7C2A7C2AD9
:1004F800CD01CF1F802A812A932A4F087F390319FB
:10050800862A872A8A2ACD01CD0A932A381C8D2A61
:100518008E2A932ACD01CD0A932A932A932A4D082D
:100528000319972A982ACE2A0130B80700300318F1
:100538000130B907003003180130BA07003003183A
:100548000130BB073B1CA92AAA2ACE2A3808C000BA
:100558003908C1003A08C2003B08C3000130C40092
:10056800430DC30CC20CC10CC00CC40BB42A430805
:10057800BB004208BA004108B9004008B8004E0A5A
:100588000319C72AC82ACE2A0130C0004008CE075E
:10059800CE2ACE2A4E0A0319D22AD32AD92A4E089D
:1005A800031DD72AD82AE92AD92A0030BB000030EF
:1005B800BA000030B9000030B8004E08031DE52A23
:1005C800E62AE92ACC01E92AE92A4E1CEC2AED2A76
:1005D800EF2ABA17F32A7F30C0004008BA054E0840
:1005E800C0000310400CC1004108BB00CC1FFD2A0D
:1005F800FE2AFF2ABB170800831203132708803935
:10060800A8002808B1002708A8002807A900290879
:10061800B800A61F102B112B132B3814132B3808D6
:100628000319172B182B292B380A031D1C2B1D2BDC
:10063800262B0030A7000030A6000030A5000030AF
:10064800A400262BA617A701322B0030A7000030E4
:10065800A6000030A5000030A400322B2308803902
:10066800A8002808B1062308A8002807A900290817
:10067800B900A21F402B412B432B3914432B3908B7
:100688000319472B482B592B390A031D4C2B4D2B8B
:10069800562B0030A3000030A2000030A10000302B
:1006A800A000562BA217A301612B0030A300003035
:1006B800A2000030A1000030A00023082204210479
:1006C8002004031D682B692B832B0030A700003002
:1006D800A6000030A5000030A4008030A6047F30BA
:1006E800A7043108A8002808A7042708A30026089B
:1006F800A2002508A1002408A000082D082D38080C
:10070800031D872B882B9A2B0030A7000030A600EA
:100718000030A5000030A4002708A3002608A20086
:100728002508A1002408A000082D082D3908A800D4
:10073800A901A809A909A80A0319A90A38082807B4
:10074800AA0029080318290AAB002A087F3EB2002C
:100758002B080318013E003EB3002708B000260806
:10076800AF002508AE002408AD000030A700003017
:10077800A6000030A5000030A4000030B70000300B
:10078800B6000030B5000030B400B901192C3908A2
:100798000319CF2BD02BF22B0130A8000310AD0D7D
:1007A800AE0DAF0DB00DA80BD22B0130A800031071
:1007B800A40DA50DA60DA70DA80BDB2BB71FE52BC8
:1007C800E62BE82B2414E82B0130A8000310B40D05
:1007D800B50DB60DB70DA80BEA2BF22B2308300286
:1007E800031D002C22082F02031D002C21082E02B5
:1007F800031D002C20082D02031C032C042C142C90
:1008080037172008AD022108031C210FAE02220869
:10081800031C220FAF022308031C230FB002142C61
:100828000130A8002808B907192C1A303902031C0E
:100838001E2C1F2CCB2B202C30082F042E042D040B
:100848000319272C282C4A2C34144A2C4A2C013002
:10085800A8000310A40DA50DA60DA70DA80B2D2CFF
:10086800B71F372C382C3A2C24143A2C0130A80006
:100878000310B40DB50DB60DB70DA80B3C2CFF3009
:10088800B2070318B30AFF30B3074A2CA61F4D2C32
:100898004E2C2B2C4F2CB901B71F532C542C742CD5
:1008A800FF303405A800FF303505A900FF303605B4
:1008B800AA007F303705AB002B082A042904280436
:1008C8000319672C682C6B2CB901B90A742C241CE9
:1008D8006E2C6F2C742CB901B90A742C742C742CDE
:1008E80039080319782C792CAC2C0130A407003076
:1008F80003180130A507003003180130A60700309F
:1009080003180130A707271C8A2C8B2CAC2C240831
:10091800A8002508A9002608AA002708AB0001306E
:10092800AC002B0DAB0CAA0CA90CA80CAC0B952C8D
:100938002B08A7002A08A6002908A5002808A40053
:100948000130B2070318B30A0030B307AC2CAC2C43
:100958003308803AFF0080307F02031DB52CFF303A
:100968003202031CB82CB92CC82CFF308312031395
:10097800B2000030B3000030A7000030A6000030FD
:10098800A5000030A400C82C831203133308803A52
:10099800FF0080307F02031DD32C01303202031880
:1009A800D62CD72CE42C83120313B201B3010030E8
:1009B800A7000030A6000030A5000030A400B10157
:1009C800831203133208A8002808B800381CED2C3D
:1009D800EE2CF02CA617F42C7F30A8002808A605CA
:1009E8003808A8000310280CA9002908A700310816
:1009F800A8002808A7042708A3002608A20025089D
:100A0800A1002408A000082D08000A168A11CC218C
:100A18000A128A11D03083120313AD000030AE00E1
:100A28000A168A11DE210A128A1100308312031372
:100A3800AD00AE000A168A11DE210A128A110A16C2
:100A48008A11D5210A128A110A168A11CC210A1292
:100A58008A11D13083120313AD000030AE000A169C
:100A68008A11DE210A128A11003083120313A000B2
:100A7800A1000A168A11E5230A128A1183120313A8
:100A88002108A7002008A6000A168A11D4220A12F3
:100A98008A11831203132708EF002608EE000A16AE
:100AA8008A11D5210A128A110A168A11CC210A1232
:100AB8008A11D13083120313AD000030AE000A163C
:100AC8008A11DE210A128A11003083120313A00052
:100AD800A1000A168A11E5230A128A118312031348
:100AE8002108A7002008A6000A168A11D4220A1293
:100AF8008A11831203132708FC002608FB000A1634
:100B08008A11D5210A128A110A168A11CC210A12D1
:100B18008A11D13083120313AD000030AE000A16DB
:100B28008A11DE210A128A11003083120313A000F1
:100B3800A1000A168A11E5230A128A1183120313E7
:100B48002108A7002008A6000A168A11D4220A1232
:100B58008A11831203132708FA002608F9000A16D7
:100B68008A11D5210A128A110A168A11CC210A1271
:100B78008A11D13083120313AD000030AE000A167B
:100B88008A11DE210A128A11003083120313A00091
:100B9800A1000A168A11E5230A128A110A168A1177
:100BA800D5210A128A110A168A11CC210A128A1131
:100BB800D13083120313AD000030AE000A168A113B
:100BC800DE210A128A11003083120313A000A1004B
:100BD8000A168A11E5230A128A11831203132108BF
:100BE800A7002008A6000A168A11D4220A128A1120
:100BF80083120313270883160313C50083120313F4
:100C0800260883160313C4000A168A11D5210A126E
:100C18008A110A168A11CC210A128A11D13083123C
:100C28000313AD000030AE000A168A11DE210A1245
:100C38008A11003083120313A000A1000A168A113A
:100C4800E5230A128A11831203132108A70020083A
:100C5800A6000A168A11D4220A128A1183120313D3
:100C6800270883160313C10083120313260883166B
:100C78000313C0000A168A11D5210A128A110A160E
:100C88008A11CC210A128A11D13083120313AD00C4
:100C98000030AE000A168A11DE210A128A110030CD
:100CA80083120313A000A1000A168A11E5230A1271
:100CB8008A11831203132108A7002008A6000A1628
:100CC8008A11D4220A128A11831203132708831661
:100CD8000313BF0083120313260883160313BE00F1
:100CE8000A168A11D5210A128A110A168A11D521E3
:100CF8000A128A110A168A11CC210A128A11D130D5
:100D080083120313AD000030AE000A168A11DE21EB
:100D18000A128A11003083120313A000A1000A16D8
:100D28008A11E5230A128A110A168A11D5210A1294
:100D38008A1108000A3083120313A0000030A100B2
:100D48006F08A3006E08A2000A168A1146260A1226
:100D58008A11831203132008A9002908FD000A300C
:100D6800A0000030A1006F08A3006E08A2000A16B8
:100D78008A111A270A128A11831203132008A9005C
:100D8800290883160313B8000A3083120313A0003E
:100D98000030A1007C08A3007B08A2000A168A1173
:100DA80046260A128A11831203132008A90029086B
:100DB80083160313B7000A3083120313A000003010
:100DC800A1007C08A3007B08A2000A168A111A2732
:100DD8000A128A11831203132008A900290883160E
:100DE8000313B6000A3083120313A0000030A100D9
:100DF8007A08A3007908A2000A168A1146260A1260
:100E08008A11831203132008A900290883160313E3
:100E1800B5000A3083120313A0000030A1007A083D
:100E2800A3007908A2000A168A111A270A128A1141
:100E3800831203132008A900290883160313B4009A
:100E48000A3083120313A0000030A1008316031395
:100E5800450883120313A30083160313440883125F
:100E68000313A2000A168A1146260A128A1183124F
:100E780003132008A900290883160313B3000A30B6
:100E880083120313A0000030A10083160313450842
:100E980083120313A3008316031344088312031356
:100EA800A2000A168A111A270A128A11831203133A
:100EB8002008A900290883160313B2000A308312F8
:100EC8000313A0000030A100831603134108831206
:100ED8000313A30083160313400883120313A2000D
:100EE8000A168A1146260A128A1183120313200849
:100EF800A900290883160313B1000A3083120313CB
:100F0800A0000030A10083160313410883120313C5
:100F1800A30083160313400883120313A2000A16C2
:100F28008A111A270A128A11831203132008A900AA
:100F3800290883160313B0000A3083120313A00094
:100F48000030A100831603133F0883120313A30084
:100F5800831603133E0883120313A2000A168A118C
:100F680046260A128A11831203132008A9002908A9
:100F780083160313AF000A3083120313A000003056
:100F8800A100831603133F0883120313A3008316DB
:100F980003133E0883120313A2000A168A111A27A4
:100FA8000A128A11831203132008A900290883163C
:100FB8000313AE00080083120313A3008617230847
:100FC8000A168A11C3240A128A1183120313881776
:100FD8000B3083120313A2006130A100A10BF22F82
:100FE800A20BF22FF72F83120313881308000A3479
:060FF80000343734003420
:10100000FF1B0A2883137F1883170008840A03191B
:10101000FF0A080008308A000408840A82070034A6
:1010200045347334743461342034743465346D342D
:1010300062346C3461346E3464346F34213400347F
:101040005434723461346E347134753469346C34B0
:101050006F3420347034723472346F34003454344A
:1010600065346D347034653472346134743475347D
:10107000723461343A34003443346F346E3474342F
:10108000613464346F3472343A340034413475342A
:10109000733465346E34743465342034003454341D
:1010A00065346D3462346C346F3472343A340034E5
:1010B000503472346534733465346E34743465344A
:1010C0000034463465346334683461343A3400346F
:1010D00048346F34723461343A34003448347534EF
:1010E0006D346F343A3400342F34003443340034D8
:1010F60083120313A300861323080A168A11C32436
:101106000A128A158312031388171A3083120313DF
:10111600A200F730A100A10B8E28A20B8E289328DF
:1011260083120313881308000A168A11CC210A12A7
:101136008A15213083120313AD000030AE000A1663
:101146008A11DE210A128A15003083120313A000C9
:10115600A1000A168A11E5230A128A1583120313BF
:101166002008AF002F0883160313AA000A168A1157
:10117600D5210A128A150D3083120313B000FB30F5
:10118600AF00AF0BC428B00BC428831603132A0381
:10119600031DCE28CF28F82883120313A401A40A1E
:1011A60002300A168A1161220A128A150130831248
:1011B6000313A4008030A5000A168A113F250A12DF
:1011C6008A15333083120313B100BB30B000DF3011
:1011D600AF00AF0BEC28B00BEC28B10BEC280A16CD
:1011E6008A11A6210A128A150E2983120313A40155
:1011F600A40A02300A168A1161220A128A151130CF
:1012060083120313A4008030A5000A168A113F2515
:101216000A128A150E290800831203135008D400F7
:101226005108D5005208D6005308D7000310560DB2
:10123600570DD8005808DA005A08031D2329242917
:101246002E290030D3000030D2000030D10000300B
:10125600D000AA29AA295008D4005108D50052085E
:10126600D6005308D7001F300310D70CD60CD50C68
:10127600D40CFF3E031D37295408D8005808D9005E
:10128600D217FF30D005FF30D105FF30D205003030
:10129600D3059630DA02DA1F5129522977295A08DE
:1012A600803A973E03185829592964290030D300FB
:1012B6000030D2000030D1000030D000AA29AA297F
:1012C600642901300310D30CD20CD10CD00CFF3E94
:1012D600031D65290130D4005408DA07031D74295B
:1012E600752964299A299A2920305A02031C7C29D7
:1012F6007D2993290030D3000030D2000030D10080
:101306000030D000AA29AA2993290130D40003105D
:10131600D00DD10DD20DD30DD40B8A290130DA02AE
:101326005A08031D9729982988299A299A2959081C
:1013360003199E299F29AA29D009D109D209D309BF
:10134600D00A0319D10A0319D20A0319D30A0800CD
:101356000A168A11AD210A128A150A168A11062260
:101366000A128A150A168A11B4210A128A150A1651
:101376008A1187250A128A15003083120313B100D9
:101386000130B0008630AF00A030AE000A168A11D8
:101396004F240A128A15523083120313A400803098
:1013A600A5000A168A113F250A128A15831203130D
:1013B600A401A40A02300A168A1161220A128A15A9
:1013C600593083120313A4008030A5000A168A112F
:1013D6003F250A128A150A128A156E240A128A15E0
:1013E60083160313A501A401AD01F9290A128A1176
:1013F60009250A128A150A128A15F3250A128A1570
:10140600373083120313EC006C08A0000530ED00A2
:101416006D08A1000A300A168A11FE220A128A15E0
:10142600373083120313EC006C08A0000A30ED007D
:101436006D08A1000A300A168A112B230A128A1592
:10144600373083120313EC006C08A0000F30ED0058
:101456006D08A1000A300A168A1158230A128A1545
:1014660005300A168A1183220A128A150A168A116B
:10147600B4230A128A15831603132C03031D442A68
:10148600452A4E2A0A168A11A6210A128A15831699
:101496000313AC01F929AC01F929F929F9290A1232
:1014A6008A110C28831203135E08A7005D08A600A4
:1014B6005C08A5005B08A4004230A300C830A20067
:1014C6000030A1000030A0000A128A1100230A127F
:1014D6008A15831203132308D3002208D200210899
:1014E600D1002008D0000A128A150F210A128A1587
:1014F600831203135008DF005F08E2006430A20085
:101506000030A3006208DF00E0015F08A000600869
:10151600A1000A168A11AA220A128A158312031337
:101526002008A6002108A7000030A71BFF30A8004E
:10153600A90001300A128A152F250A128A1583126C
:1015460003132908B7002808B6002708B50026089F
:10155600B4000A168A11F7210A128A158312031398
:101566003708BF003608BE003508BD003408BC0089
:101576005E08BB005D08BA005C08B9005B08B800ED
:101586000A128A1144200A128A15831203133B0891
:10159600D3003A08D2003908D1003808D0000A1220
:1015A6008A150F210A128A15831203135008E100C7
:1015B6006108E4000A30A0000030A1006408DF00E2
:1015C600E0015F08A2006008A3000A168A111A2724
:1015D6000A128A15831203132008E1006108E3004A
:1015E60063080A168A11E4250A128A158312031360
:1015F600DF005F08E5006508002B0800083083124D
:101606000313AB002B08A40001300A168A116122CD
:101616000A128A15831603133208303E0A128A11FB
:10162600DF270A128A15831603133308303E0A127F
:101636008A11DF270A128A15653083120313A40064
:101646008030A5000A168A113F250A128A158316CC
:1016560003133008303E0A128A11DF270A128A1550
:10166600831603133108303E0A128A11DF270A1245
:101676008A15653083120313A4008030A5000A166C
:101686008A113F250A128A15831603132E08303E47
:101696000A128A11DF270A128A15831603132F08E6
:1016A600303E0A128A11DF270A128A150830831281
:1016B6000313AB002B08A40002300A168A1161221C
:1016C6000A128A15831603133408303E0A128A1149
:1016D600DF270A128A15831603133508303E0A12CD
:1016E6008A11DF270A128A15573083120313A400C2
:1016F6008030A5000A168A113F250A128A1583161C
:1017060003133608303E0A128A11DF270A128A1599
:10171600831603133708303E0A128A11DF270A128E
:101726008A15573083120313A4008030A5000A16C9
:101736008A113F250A128A15831603133808303E8C
:101746000A128A11DF270A128A157D08303E0A120C
:101756008A11DF270A128A150800831203135E080E
:10176600A7005D08A6005C08A5005B08A40042303F
:10177600A300C830A2000030A1000030A0000A1269
:101786008A1100230A128A15831203132308D30031
:101796002208D2002108D1002008D0000A128A159A
:1017A6000F210A128A15831203135008DF005F08FF
:1017B600E2006430A2000030A3006208DF00E0010E
:1017C6005F08A0006008A1000A168A11AA220A1260
:1017D6008A15831203132008A6002108A7000030EB
:1017E600A71BFF30A800A90001300A128A152F2571
:1017F6000A128A15831203132908B7002808B600AF
:101806002708B5002608B4000A168A11F7210A121D
:101816008A15831203133708BF003608BE00350841
:10182600BD003408BC005E08BB005D08BA005C0859
:10183600B9005B08B8000A128A1144200A128A15F8
:10184600831203133B08D3003A08D2003908D100AB
:101856003808D0000A128A150F210A128A15831237
:1018660003135008E1006108E6000A30A0000030CA
:10187600A1006608DF00E0015F08A2006008A3007F
:101886000A168A111A270A128A15831203132008C8
:10189600E1006108E3000A30DF005F08A00063088A
:1018A6000A168A1146220A128A15FF3A013E831247
:1018B60003136607E0006008E40064080A168A114C
:1018C600E4250A128A1583120313DF005F08E50078
:1018D60065086D2C08000A168A11CC210A128A1591
:1018E600D03083120313AD000030AE000A168A1101
:1018F600DE210A128A15003083120313AD00AE00F2
:101906000A168A11DE210A128A15831203136F083A
:10191600AA006E08A9000A168A1118240A128A1546
:10192600831203132A08AE002908AD000A168A118D
:10193600DE210A128A157C0883120313AA007B088B
:10194600A9000A168A1118240A128A15831203138B
:101956002A08AE002908AD000A168A11DE210A12ED
:101966008A157A0883120313AA007908A9000A16B1
:101976008A1118240A128A15831203132A08AE0044
:101986002908AD000A168A11DE210A128A150130CD
:1019960083120313AD000030AE000A168A11DE2151
:1019A6000A128A1583160313450883120313AA0025
:1019B60083160313440883120313A9000A168A1117
:1019C60018240A128A15831203132A08AE0029085E
:1019D600AD000A168A11DE210A128A158316031330
:1019E600410883120313AA008316031340088312C7
:1019F6000313A9000A168A1118240A128A158312DB
:101A060003132A08AE002908AD000A168A11DE2142
:101A16000A128A15831603133F0883120313AA00BA
:101A2600831603133E0883120313A9000A168A11AC
:101A360018240A128A15831203132A08AE002908ED
:101A4600AD000A168A11DE210A128A150A168A11B3
:101A5600D5210A128A15080083120313AE002E0838
:101A66000319362D372D4B2DA91F3A2D3B2D4B2D06
:101A76002609B0002709B1002809B2002909B300D8
:101A8600B00A0319B10A0319B20A0319B30A532D8E
:101A96002908B3002808B2002708B1002608B000BC
:101AA6002908280427042604031D5A2D5B2D652DBD
:101AB6000030A9000030A8000030A7000030A600C2
:101AC600F22DF22D9630AA002A08AF00782D0130AB
:101AD600AA002A08AF0701300310B30CB20CB10CF0
:101AE600B00CFF3E031D6F2D782DFE303305031D10
:101AF6007D2D7E2D6A2D9B2D9B2D0130AA002A0857
:101B0600AF070130B007003003180130B1070030CD
:101B160003180130B207003003180130B307013053
:101B26000310B30CB20CB10CB00CFF3E031D932D89
:101B3600FF303305031DA02DA12D802DAF2DAF2D18
:101B46000130AF020130AA000310B00DB10DB20D85
:101B5600B30DAA0BA72DAF2DB21BB22DB32DBA2DE7
:101B660002302F020318B82DB92DA32DBA2D2F1828
:101B7600BD2DBE2DC62DFF30B005FF30B1057F301F
:101B8600B205FF30B3050310AF0C2F08AA00AB0156
:101B9600AC01AD0118300310AA0DAB0DAC0DAD0DA7
:101BA600FF3E031DCE2D2A08B0042B08B1042C08D5
:101BB600B2042D08B3042E080319E22DE32DE92DF6
:101BC600A91FE62DE72DE92DB317E92D3308A90046
:101BD6003208A8003108A7003008A600F22D080038
:101BE600831603132D08031DF92DFA2D2F2E8312AC
:101BF6000313A401A40A01300A168A1161220A12EB
:101C06008A15523083120313A4008030A5000A16E9
:101C16008A113F250A128A1583120313A401A40A06
:101C260002300A168A1161220A128A155930831265
:101C36000313A4008030A5000A168A113F250A1254
:101C46008A150A128A119E260A128A150A128A15FE
:101C560001230A128A15D72E831603132D03031D9B
:101C6600352E362E5F2E83120313A401A40A0130EB
:101C76000A168A1161220A128A152D30831203135D
:101C8600A4008030A5000A168A113F250A128A157B
:101C960083120313A401A40A02300A168A116122D0
:101CA6000A128A15831603132808303E0A128A116F
:101CB600DF270A128A15D72E0230831603132D0644
:101CC600031D662E672E822E83120313A401A40A17
:101CD60001300A168A1161220A128A1520308312EF
:101CE6000313A4008030A5000A168A113F250A12A4
:101CF6008A150A128A15D8260A128A15D72E033093
:101D0600831603132D06031D892E8A2EA52E8312F4
:101D16000313A401A40A01300A168A1161220A12C9
:101D26008A15403083120313A4008030A5000A16DA
:101D36008A113F250A128A150A128A1597200A1255
:101D46008A15D72E0430831603132D06031DAC2ED9
:101D5600AD2EC82E83120313A401A40A01300A165D
:101D66008A1161220A128A155F3083120313A400B6
:101D76008030A5000A168A113F250A128A150A160E
:101D86008A118D270A128A15D72E0530831603135A
:101D96002D02031CCF2ED02ED72EAD01D72ED72E37
:101DA600D72ED72ED72ED72E08000A168A11CC2169
:101DB6000A128A15113083120313AD000030AE00EB
:101DC6000A168A11DE210A128A15003083120313BD
:101DD600A000A1000A168A11E5230A128A158312A9
:101DE60003132008E700670883160313AB000A16DF
:101DF6008A11D5210A128A15033083120313E900CA
:101E06000830E8007630E700E70B072FE80B072FCE
:101E1600E90B072F000083120313A401A40A023062
:101E26000A168A1161220A128A15831603132B08D1
:101E360083120313E700E801E901EA016A08A90031
:101E46006908A8006808A7006708A60000300A12FB
:101E56008A152F250A128A15831203132908831659
:101E66000313C90083120313280883160313C8003B
:101E760083120313270883160313C7008312031361
:101E8600260883160313C600490883120313DE00CF
:101E960083160313480883120313DD008316031306
:101EA600470883120313DC008316031346088312C4
:101EB6000313DB000A128A15B0230A128A1583124D
:101EC6000313E700670883160313BB002B0883126E
:101ED6000313E700E801E901EA016A08A9006908B5
:101EE600A8006808A7006708A60000300A128A152D
:101EF6002F250A128A158312031329088316031342
:101F0600CD0083120313280883160313CC00831213
:101F16000313270883160313CB0083120313260823
:101F260083160313CA004D0883120313DE008316BB
:101F360003134C0883120313DD00831603134B08A7
:101F460083120313DC00831603134A088312031358
:101F5600DB000A128A1555220A128A158312031308
:101F6600E700670883160313BA002B0883120313CE
:101F7600E700E801E901EA016A08A9006908A80082
:101F86006808A7006708A60000300A128A152F25E0
:101F96000A128A15831203132908DE002808DD00B9
:101FA6002708DC002608DB000A168A1189240A1293
:101FB6008A1583120313EB006B0883160313B9000B
:101FC600B93083120313A4000030A5000A168A1143
:101FD6003F250A128A15DF300A128A11DF270A12F4
:101FE6008A15673083120313A4008030A5000A16F1
:0A1FF6008A113F250A128A1508001F
:10233E0001300A168A112C220A168A110800013061
:10234E000A128A157B200A168A11080083160313B7
:10235E000F168F160F170F1408008B170B178B15F0
:10236E000B10831603131616080064008001840AEE
:10237E000406031900340406BD2914340034023453
:10238E00003401340034183400340A168A11E8215E
:10239E000A168A1183160313111408000A168A11DD
:1023AE00E8210A168A1183160313111508000A165E
:1023BE008A11E8210A168A11831203132D0893003D
:1023CE000800E929831603131419EE29EF29E929C8
:1023DE0011081F39031DF429F529E929F6290800EA
:1023EE008312031337083604350434040319002A04
:1023FE00012A042A8030B706042A052A080083160B
:10240E000313850101308800890110308600831284
:10241E00031385018801890186018316031788013C
:10242E00890108007E088A007F0882000A168A1138
:10243E0019220A168A118000840A04087D060319DF
:10244E000034FF0A0319FE0A1D2AF3008312031338
:10245E00861373080A168A1100250A168A1183122A
:10246E00031388171A30F200F830F100F10B3D2AF1
:10247E00F20B3D2A00008312031388130800831207
:10248E000313A300A2014B2A231C4E2A4F2A542ABF
:10249E002008A1002108A207542A0310A00D031042
:1024AE00A30C2308031D5C2A5D2A4B2A5E2A2208F0
:1024BE00602A080083120313A5002503031D682A52
:1024CE00692A712A24087F3E0A128A157B200A1671
:1024DE008A11822A0230831203132506031D782ADD
:1024EE00792A822A2408BF3E0A128A157B200A16F0
:1024FE008A11822A822A080083120313A2000A304C
:10250E0079067A04031D8C2A8D2AA92A37307B0678
:10251E007C04031D932A942AA92A22080F3EA000A8
:10252E00003003180130A1006F082106031DA12AF7
:10253E006E082006031DA42AA52AA92A06108610B5
:10254E000611A92A080083120313A401A501AF2ABC
:10255E00201CB22AB32AB92A2208A4070318A50AF6
:10256E002308A50701300310A20DA30DFF3E031D86
:10257E00BA2A01300310A10CA00CFF3E031DC12A84
:10258E0020082104031DCC2ACD2AAF2ACE2A2508E5
:10259E00A1002408A000D32A08000F3083120313D1
:1025AE002605A80000302705A900260E0F39A00029
:1025BE00270EF039A004270E0F39A100F030A11D0F
:1025CE000030A1040A30A2000030A3000A168A11BE
:1025DE00AA220A168A118312031328082007A600BE
:1025EE0029080318290A2107A700FD2A08008312CB
:1025FE000313A4002408A200A3017A082306031DD6
:10260E000A2B79082206031D0D2B0E2B2A2B2008D0
:10261E00A200A3017C082306031D172B7B082206AC
:10262E00031D1A2B1B2B2A2B2108A200A3016F08B6
:10263E002306031D242B6E082206031D272B282B91
:10264E002A2B06142A2B080083120313A400240835
:10265E00A200A3017A082306031D372B7908220650
:10266E00031D3A2B3B2B572B2008A200A3017C08FD
:10267E002306031D442B7B082206031D472B482BE4
:10268E00572B2108A200A3016F082306031D512B0F
:10269E006E082206031D542B552B572B8614572BD1
:1026AE00080083120313A4002408A200A3017A08D1
:1026BE002306031D642B79082206031D672B682B46
:1026CE00842B2008A200A3017C082306031D712B76
:1026DE007B082206031D742B752B842B2108A20068
:1026EE00A3016F082306031D7E2B6E082206031D11
:1026FE00812B822B842B0615842B08000B1C882B18
:10270E00892BAD2B0B1083120313061E8F2B902BD0
:10271E00AD2B0130F400740883160313AD070A16AF
:10272E008A119F210A168A1183160313AC01AC0A73
:10273E000330F6000830F5007730F400F40BA52BCB
:10274E00F50BA52BF60BA52BAD2BAD2B78088A0020
:10275E00770E8300FE0E7E0E0900831203130818F7
:10276E00B92BBA2BBF2B83160313A701A70ADB2B9A
:10277E00831603132703031DC52BC62BDB2B01303A
:10278E0083120313A000200883160313A807A701C2
:10279E000D3083120313A100FB30A000A00BD52B2C
:1027AE00A10BD52BDB2BDB2B83160313280A031D62
:1027BE00E12BE22BE42BA801E42B08000A168A1168
:1027CE00E8210A168A118316031391150A168A1127
:1027DE00E8210A168A11831203131308A200A3011B
:1027EE002208A4002308A5000A168A11E8210A1659
:1027FE008A118312031320032104031D072C082CB6
:10280E000C2C8316031391120F2C8316031391169F
:10281E001116831203132508A1002408A000172CFB
:10282E0008000A3083120313A0000030A1002A080A
:10283E00A3002908A2000A168A111A270A168A115D
:10284E00831203132008AB002108AC00AB0EAC0EB4
:10285E00F030AC052B080F39AC04F030AB050A3064
:10286E00A0000030A1002A08A3002908A2000A1621
:10287E008A1146260A168A118312031320082B0783
:10288E00A90021080318210A2C07AA004E2C0800C3
:10289E0028308312031394008316031391018312BD
:1028AE0003132E08B2002F08B3003008B40031080D
:1028BE00B50002300310B20DB30DB40DB50DFF3ED1
:1028CE00031D612C3508A3003408A2003308A100B3
:1028DE003208A0000030A7003D30A6000930A50048
:1028EE000030A4000A168A11AB260A168A1183122A
:1028FE0003132008FF3E83160313930094018715DC
:10290E0007160800831203135E08A7005D08A600D1
:10291E005C08A5005B08A4004230A300C830A200EA
:10292E000030A1000030A0000A128A1100230A16FE
:10293E008A11831203132308D3002208D200210820
:10294E00D1002008D0000A128A150F210A168A110A
:10295E00831203135008DF005F08E00060080A16B8
:10296E008A11E4250A168A1183120313DF005F0809
:10297E00E1006108C22C080083120313A000201C82
:10298E00C92CCA2CCC2C0514CD2C0510A01CD02C77
:10299E00D12CD32C8514D42C8510201DD72CD82CBB
:1029AE00DA2C0515DB2C0511A01DDE2CDF2CE12CFD
:1029BE008515E22C8511201EE52CE62CE82C05163B
:1029CE00E92C0512A01EEC2CED2CEF2C8516F02C0C
:1029DE008512201FF32CF42CF62C0517F72C05135B
:1029EE00A01FFA2CFB2CFD2C8517FF2C8513FF2C1A
:1029FE000800F000701C042D052D092D8312031301
:102A0E0005140C2D831203130510F01C0F2D102D21
:102A1E00122D8514132D8510701D162D172D192DA1
:102A2E0005151A2D0511F01D1D2D1E2D202D851598
:102A3E00212D8511701E242D252D272D0516282DAF
:102A4E000512F01E2B2D2C2D2E2D85162F2D8512B9
:102A5E00701F322D332D352D0517362D0513F01F12
:102A6E00392D3A2D3C2D85173E2D85133E2D080010
:102A7E0083120313A901AA01692D29082407A700AF
:102A8E002508A6000318A60AA91F4E2DA603831219
:102A9E0003132608A8002808FF00270884000A123E
:102AAE008A1500200A168A110A128A11DF270A16C1
:102ABE008A11013083120313A9070318AA0A0030E2
:102ACE00AA07692D29082407A7002508A6000318C0
:102ADE00A60AA91F732DA603831203132608A800A6
:102AEE002808FF00270884000A128A1500200A16FB
:102AFE008A11003A031D842D852D442D862D080044
:102B0E00273083120313A500F430A400A40B8D2DDF
:102B1E00A50B8D2D000000300A168A11C3240A164B
:102B2E008A11343083120313A500F130A400A40BD4
:102B3E009E2DA50B9E2D30300A128A157B200A166B
:102B4E008A110D3083120313A500FB30A400A40BD1
:102B5E00AE2DA50BAE2D30300A128A157B200A162B
:102B6E008A11693083120313A400A40BBC2DBF2D50
:102B7E0030300A128A157B200A168A1138300A1252
:102B8E008A157B200A168A1110300A128A157B20AC
:102B9E000A168A1101300A128A157B200A168A112A
:102BAE0006300A128A157B200A168A110C300A1278
:102BBE008A157B200A168A11080083120313A200BD
:102BCE001B2E3030A0002008A300432E3130A00071
:102BDE002008A300432E3230A0002008A300432E6D
:102BEE003330A0002008A300432E3430A00020086C
:102BFE00A300432E3530A0002008A300432E36300C
:102C0E00A0002008A300432E3730A0002008A30008
:102C1E00432E3830A0002008A300432E3930A000E8
:102C2E002008A300432E432E2208A000A101210854
:102C3E00003A0319232E432E2008003A0319E82DDB
:102C4E00013A0319ED2D033A0319F22D013A031936
:102C5E00F72D073A0319FC2D013A0319012E033AF9
:102C6E000319062E013A03190B2E0F3A0319102ED3
:102C7E00013A0319152E432E2308452E0800831200
:102C8E000313A601A31F4C2E4D2E552EA209A309E8
:102C9E00A20A0319A30AA601A60A552EA11F582E91
:102CAE00592E5F2EA009A109A00A0319A10A5F2EB1
:102CBE00200821040319642E652E9A2EA501A50A5B
:102CCE00742E01300310A00DA10DFF3E031D692EC1
:102CDE000130A4002408A507742EA11F772E782E8C
:102CEE00682E7A2E7A2E21082302031D802E2008AC
:102CFE002202031C832E842E8B2E2008A202210872
:102D0E00031CA303A3028B2E01300310A10CA00CF5
:102D1E00FF3E031D8C2E0130A502031D972E982E0B
:102D2E007A2E9A2E9A2E260803199E2E9F2EA52EA7
:102D3E00A209A309A20A0319A30AA52E2308A1001A
:102D4E002208A000AA2E0800003083120313AC0044
:102D5E000030AB000030AA000030A9002308220486
:102D6E00210420040319BC2EBD2E102FAD01AD0A77
:102D7E00CE2E0130A8000310A00DA10DA20DA30DA3
:102D8E00A80BC22E0130A8002808AD07CE2EA31F17
:102D9E00D12ED22EC02ED42ED42E0130A800031048
:102DAE00A90DAA0DAB0DAC0DA80BD62E230827022C
:102DBE00031DEB2E22082602031DEB2E21082502F1
:102DCE00031DEB2E20082402031CEE2EEF2EFF2EE9
:102DDE002008A4022108031C210FA5022208031CAF
:102DEE00220FA6022308031C230FA7022914FF2E6D
:102DFE0001300310A30CA20CA10CA00CFF3E031D6E
:102E0E00002F0130AD02031D0D2F0E2FD42E102FCB
:102E1E00102F2C08A3002B08A2002A08A1002908B5
:102E2E00A000192F080083120313A601A11F202F43
:102E3E00212F292FA009A109A00A0319A10AA60171
:102E4E00A60A292FA31F2C2F2D2F372FA209A30936
:102E5E00A20A0319A30A0130A4002408A606372FDC
:102E6E00A701A8012008210403193E2F3F2F7C2F14
:102E7E00A501A50A4E2F01300310A00DA10DFF3E96
:102E8E00031D432F0130A4002408A5074E2FA11FB8
:102E9E00512F522F422F542F542F01300310A70DB4
:102EAE00A80DFF3E031D552F21082302031D612F80
:102EBE0020082202031C642F652F6D2F2008A2020A
:102ECE002108031CA303A30227146D2F0130031046
:102EDE00A10CA00CFF3E031D6E2F0130A502031D99
:102EEE00792F7A2F542F7C2F7C2F26080319802FB1
:102EFE00812F872FA709A809A70A0319A80A872FC8
:102F0E002808A1002708A0008C2F08000A168A1195
:102F1E00CC210A168A11313083120313AD00003012
:102F2E00AE000A168A11DE210A168A1100308312AB
:102F3E000313A000A1000A168A11E5230A168A11AE
:102F4E00831203132008AF002F0883160313A90062
:102F5E000A168A11D5210A168A110D30831203130F
:102F6E00B000FB30AF00AF0BBA2FB00BBA2F8316E9
:102F7E0003132903031DC42FC52FE92F8312031337
:102F8E00A401A40A02300A168A1161220A168A11B5
:102F9E00493083120313A4008030A5000A168A114B
:102FAE003F250A168A11333083120313B100BB304A
:102FBE00B000DF30AF00AF0BE22FB00BE22FB10B42
:102FCE00E22FFF2F83120313A401A40A02300A1664
:102FDE008A1161220A168A11373083120313A40054
:102FEE008030A5000A168A113F250A168A11FF2F76
:022FFE000800C9
:04400E00D4E0FFFFFC
:00000001FF
