:020000040000FA
:060000000A128A110C280F
:10000800FE00030EF7000A08F8000A168A11432BAF
:100018000A128A110F288313C830FD001130FE0020
:10002800D030FF00BE3084000A168A111F220A123F
:100038008A110A168A1184210A128A11FC000A16EA
:100048008A1185210A128A11FD00A0308400BE3071
:100058000A168A11A3210A128A11EF01F901FA017D
:10006800FB0183010A128A15D42A831203133B0861
:100078008039C0004008CC003B08C0004007C100E0
:100088004108CE00BA1F49284A284C284E144C284B
:100098004E0803195028512862284E0A031D552876
:1000A80056285F280030BB000030BA000030B90085
:1000B8000030B8005F28BA17BB016B280030BB00BE
:1000C8000030BA000030B9000030B8006B283F0893
:1000D8008039C0004008CD004D084C06031975282A
:1000E800762878284C1778283F08C0004007C100B8
:1000F8004108CD00BE1F8128822884284D148428F9
:100108004D080319882889289A284D0A031D8D2827
:100118008E2897280030BF000030BE000030BD0098
:100128000030BC009728BE17BF01A2280030BF00CE
:100138000030BE000030BD000030BC004E084D024B
:100148000318A728A828EE284C1FAB28AC28B128EC
:100158008030C0004008CC06B1284E08C0004008D6
:10016800CF004D08C0004008CE004F08C00040082E
:10017800CD003808C0004008CF003C08C000400847
:10018800B8004F08C0004008BC003908C00040084B
:10019800CF003D08C0004008B9004F08C000400823
:1001A800BD003A08C0004008CF003E08C000400823
:1001B800BA004F08C0004008BE003B08C000400815
:1001C800CF003F08C0004008BB004F08C0004008EF
:1001D800BF00EE28CF014E08C000C101C009C10907
:1001E800C00A0319C10A4D084007C2004108031894
:1001F800410AC3004308803AFF0080307F02031D94
:1002080007291A304202031C0A290B294C29831298
:1002180003133B083A0439043804031D142916292A
:10022800013017290030C0004008CF000030BB0063
:100238000030BA000030B9000030B8004D08C000E6
:100248004008CE0055294C294F1C2B292C2935292B
:100258004F08C0000310400C0138C1004108CF000E
:1002680038290310CF0C3829381C3B293C293E2952
:10027800CF173E290130C0003B0DBB0CBA0CB90C9E
:10028800B80CC00B40290130C0004008CE074C29EB
:10029800831203134D084E02031C5329542928299D
:1002A80055294C1B58295929A8294E08031D5D2991
:1002B8005E2968290030BB000030BA000030B90060
:1002C8000030B800F42AF42A3C08B8073D080311A6
:1002D8000318013E03197129B9073E0803110318D1
:1002E800013E03197829BA073F0803110318013E94
:1002F80003197F29BB073B1C82298329712A4F1CBC
:100308008629872990294F08C0000310400C01381E
:10031800C1004108CF0093290310CF0C9329381C42
:10032800962997299929CF1799290130C0003B0DA3
:10033800BB0CBA0CB90CB80CC00B9B290130C0001F
:100348004008CE07712A712A3B08803AFF003F080F
:10035800803A7F02031DBA293E083A02031DBA29D2
:100368003D083902031DBA293C0838020318BD2983
:10037800BE29242AFF30C000FF30C100FF30C20070
:10038800FF30C3003C08C4003D08C5003E08C60055
:100398003F08C7003809C8003909C9003A09CA0026
:1003A8003B09CB00C80A0319C90A0319CA0A031969
:1003B800CB0A4808C40749080318490FE429E52966
:1003C800C5074A0803184A0FEA29EB29C6074B084C
:1003D80003184B0AC7074408C00745080318450F08
:1003E800F629F729C10746080318460FFC29FD29F5
:1003F800C20747080318470AC3074308BB00420857
:10040800BA004108B9004008B8008030C000400870
:10041800CC06CF09CF0A4F08031D132A142A322A03
:100428000130B807003003180130B907003003184D
:100438000130BA07003003180130BB07322A322ACC
:100448003C08B8023D08031C3D0FB9023E08031CD6
:100458003E0FBA023F08031C3F0FBB023B083A0499
:1004680039043804031D392A3A2A6B2A4F08031D18
:100478003E2A3F2A6B2A0030BB000030BA00003009
:10048800B9000030B800F42AF42A6B2A0130C00001
:100498000310B80DB90DBA0DBB0DC00B4C2ACF1FF8
:1004A800562A572A582A38144F1C5B2A5C2A5F2A76
:1004B8000314CF0D622A0310CF0D622A4E080319C8
:1004C800662A672A6B2A0130CE026B2A6B2ABA1F6A
:1004D8006E2A6F2A4A2A712A712ACD01CF1F752ADE
:1004E800762A882A4F087F3903197B2A7C2A7F2A93
:1004F800CD01CD0A882A381C822A832A882ACD0170
:10050800CD0A882A882A882A4D0803198C2A8D2A18
:10051800C32A0130B807003003180130B90700308A
:1005280003180130BA07003003180130BB073B1C21
:100538009E2A9F2AC32A3808C0003908C1003A08F1
:10054800C2003B08C3000130C400430DC30CC20CF9
:10055800C10CC00CC40BA92A4308BB004208BA004E
:100568004108B9004008B8004E0A0319BC2ABD2A40
:10057800C32A0130C0004008CE07C32AC32A4E0A46
:100588000319C72AC82ACE2A4E08031DCC2ACD2A09
:10059800DE2ACE2A0030BB000030BA000030B90095
:1005A8000030B8004E08031DDA2ADB2ADE2ACC0107
:1005B800DE2ADE2A4E1CE12AE22AE42ABA17E82AB1
:1005C8007F30C0004008BA054E08C0000310400C38
:1005D800C1004108BB00CC1FF22AF32AF42ABB173A
:1005E80008008312031327088039A8002808B100DF
:1005F8002708A8002807A9002908B800A61F052B66
:10060800062B082B3814082B380803190C2B0D2B34
:100618001E2B380A031D112B122B1B2B0030A70091
:100628000030A6000030A5000030A4001B2BA61740
:10063800A701272B0030A7000030A6000030A50036
:100648000030A400272B23088039A8002808B10609
:100658002308A8002807A9002908B900A21F352BDC
:10066800362B382B3914382B390803193C2B3D2BE2
:100678004E2B390A031D412B422B4B2B0030A30074
:100688000030A2000030A1000030A0004B2BA217C0
:10069800A301562B0030A3000030A2000030A100B7
:1006A8000030A0002308220421042004031D5D2B30
:1006B8005E2B782B0030A7000030A6000030A50084
:1006C8000030A4008030A6047F30A7043108A800B9
:1006D8002808A7042708A3002608A2002508A100C7
:1006E8002408A000FD2CFD2C3808031D7C2B7D2B35
:1006F8008F2B0030A7000030A6000030A500003086
:10070800A4002708A3002608A2002508A1002408A1
:10071800A000FD2CFD2C3908A800A901A809A909E9
:10072800A80A0319A90A38082807AA0029080318DB
:10073800290AAB002A087F3EB2002B080318013EA5
:10074800003EB3002708B0002608AF002508AE0019
:100758002408AD000030A7000030A6000030A50036
:100768000030A4000030B7000030B6000030B500FB
:100778000030B400B9010E2C39080319C42BC52B5D
:10078800E72B0130A8000310AD0DAE0DAF0DB00D75
:10079800A80BC72B0130A8000310A40DA50DA60DAA
:1007A800A70DA80BD02BB71FDA2BDB2BDD2B2414BE
:1007B800DD2B0130A8000310B40DB50DB60DB70D33
:1007C800A80BDF2BE72B23083002031DF52B22088B
:1007D8002F02031DF52B21082E02031DF52B2008DF
:1007E8002D02031CF82BF92B092C37172008AD0212
:1007F8002108031C210FAE022208031C220FAF029E
:100808002308031C230FB002092C0130A800280874
:10081800B9070E2C1A303902031C132C142CC02BC8
:10082800152C30082F042E042D0403191C2C1D2C04
:100838003F2C34143F2C3F2C0130A8000310A40D8A
:10084800A50DA60DA70DA80B222CB71F2C2C2D2CFF
:100858002F2C24142F2C0130A8000310B40DB50D33
:10086800B60DB70DA80B312CFF30B2070318B30A29
:10087800FF30B3073F2CA61F422C432C202C442CBE
:10088800B901B71F482C492C692CFF303405A80042
:10089800FF303505A900FF303605AA007F3037053F
:1008A800AB002B082A042904280403195C2C5D2CAE
:1008B800602CB901B90A692C241C632C642C692C9E
:1008C800B901B90A692C692C692C390803196D2CEE
:1008D8006E2CA12C0130A407003003180130A507A5
:1008E800003003180130A607003003180130A707AD
:1008F800271C7F2C802CA12C2408A8002508A900DF
:100908002608AA002708AB000130AC002B0DAB0C61
:10091800AA0CA90CA80CAC0B8A2C2B08A7002A0837
:10092800A6002908A5002808A4000130B20703186A
:10093800B30A0030B307A12CA12C3308803AFF007A
:1009480080307F02031DAA2CFF303202031CAD2C1D
:10095800AE2CBD2CFF3083120313B2000030B3005D
:100968000030A7000030A6000030A5000030A40029
:10097800BD2C831203133308803AFF0080307F02B6
:10098800031DC82C013032020318CB2CCC2CD92CD7
:1009980083120313B201B3010030A7000030A60090
:1009A8000030A5000030A400B101831203133208FF
:1009B800A8002808B800381CE22CE32CE52CA61760
:1009C800E92C7F30A8002808A6053808A8000310DD
:1009D800280CA9002908A7003108A8002808A7049E
:1009E8002708A3002608A2002508A1002408A000C3
:1009F800FD2C08000A168A11AB210A128A11D03080
:100A080083120313AD000030AE000A168A11C62106
:100A18000A128A11003083120313AD00AE000A16C1
:100A28008A11C6210A128A110A168A11B4210A12D9
:100A38008A110A168A11AB210A128A11D13083123F
:100A48000313AD000030AE000A168A11C6210A123F
:100A58008A11003083120313A000A1000A168A111C
:100A6800A5230A128A11831203132108A70020085C
:100A7800A6000A168A11EE220A128A11831203139B
:100A88002708FA002608F9000A168A11B4210A1262
:100A98008A110A168A11AB210A128A11D1308312DF
:100AA8000313AD000030AE000A168A11C6210A12DF
:100AB8008A11003083120313A000A1000A168A11BC
:100AC800A5230A128A11831203132108A7002008FC
:100AD800A6000A168A11EE220A128A11831203133B
:100AE8002708FD002608FC000A168A11B4210A12FC
:100AF8008A110A168A11AB210A128A11D13083127F
:100B08000313AD000030AE000A168A11C6210A127E
:100B18008A11003083120313A000A1000A168A115B
:100B2800A5230A128A11831203132108A70020089B
:100B3800A6000A168A11EE220A128A1183120313DA
:100B4800270883160313C700831203132608831686
:100B58000313C6000A168A11B4210A128A110A164A
:100B68008A11AB210A128A11D13083120313AD0006
:100B78000030AE000A168A11C6210A128A11003006
:100B880083120313A000A1000A168A11A5230A12D2
:100B98008A110A168A11B4210A128A110A168A11B0
:100BA800AB210A128A11D13083120313AD00003031
:100BB800AE000A168A11C6210A128A110030831261
:100BC8000313A000A1000A168A11A5230A128A118C
:100BD800831203132108A7002008A6000A168A1109
:100BE800EE220A128A1183120313270883160313AD
:100BF800C50083120313260883160313C4000A16BC
:100C08008A11B4210A128A110A168A11AB210A1212
:100C18008A11D13083120313AD000030AE000A16DA
:100C28008A11C6210A128A11003083120313A00008
:100C3800A1000A168A11A5230A128A118312031326
:100C48002108A7002008A6000A168A11EE220A1217
:100C58008A1183120313270883160313C100831212
:100C68000313260883160313C0000A168A11B42139
:100C78000A128A110A168A11AB210A128A11D13076
:100C880083120313AD000030AE000A168A11C62184
:100C98000A128A11003083120313A000A1000A1659
:100CA8008A11A5230A128A11831203132108A700A7
:100CB8002008A6000A168A11EE220A128A11831247
:100CC8000313270883160313BF0083120313260890
:100CD80083160313BE000A168A11B4210A128A1158
:100CE8000A168A11B4210A128A110A168A11AB212E
:100CF8000A128A11D13083120313AD000030AE00FE
:100D08000A168A11C6210A128A11003083120313A7
:100D1800A000A1000A168A11A5230A128A110A1630
:100D28008A11B4210A128A1108000A3083120313A7
:100D3800A0000030A1007A08A3007908A2000A16D2
:100D48008A1144260A128A11831203132008A90063
:100D58002908EF000A30A0000030A1007A08A3009B
:100D68007908A2000A168A1118270A128A11831212
:100D780003132008A9002908FB000A30A00000304E
:100D8800A1007D08A3007C08A2000A168A11442647
:100D98000A128A11831203132008A900290883164E
:100DA8000313B8000A3083120313A0000030A10017
:100DB8007D08A3007C08A2000A168A1118270A12C7
:100DC8008A11831203132008A90029088316031324
:100DD800B7000A3083120313A0000030A100831665
:100DE8000313470883120313A3008316031346084B
:100DF80083120313A2000A168A1144260A128A11C2
:100E0800831203132008A900290883160313B600C8
:100E18000A3083120313A0000030A10083160313C5
:100E2800470883120313A30083160313460883128B
:100E38000313A2000A168A1118270A128A118312AC
:100E480003132008A900290883160313B5000A30E4
:100E580083120313A0000030A10083160313450872
:100E680083120313A3008316031344088312031386
:100E7800A2000A168A1144260A128A118312031341
:100E88002008A900290883160313B4000A30831226
:100E98000313A0000030A100831603134508831232
:100EA8000313A30083160313440883120313A20039
:100EB8000A168A1118270A128A11831203132008A6
:100EC800A900290883160313B3000A3083120313F9
:100ED800A0000030A10083160313410883120313F6
:100EE800A30083160313400883120313A2000A16F3
:100EF8008A1144260A128A11831203132008A900B2
:100F0800290883160313B2000A3083120313A000C2
:100F18000030A10083160313410883120313A300B2
:100F280083160313400883120313A2000A168A11BA
:100F380018270A128A11831203132008A900290806
:100F480083160313B1000A3083120313A000003084
:100F5800A100831603133F0883120313A30083160B
:100F680003133E0883120313A2000A168A114426AB
:100F78000A128A11831203132008A900290883166C
:100F88000313B0000A3083120313A0000030A1003D
:100F9800831603133F0883120313A3008316031356
:100FA8003E0883120313A2000A168A1118270A1290
:100FB8008A11831203132008A90029088316031332
:100FC800AF000800F30083120313861373080A1690
:100FD8008A115F250A128A118312031388170D30AC
:100FE800F200FB30F100F10BF72FF20BF72FFC2F7B
:080FF8008312031388130800A3
:1010020083120313A20038283030A0002008A30066
:1010120060283130A0002008A30060283230A000F0
:101022002008A30060283330A0002008A300602815
:101032003430A0002008A30060283530A00020082A
:10104200A30060283630A0002008A30060283730B3
:10105200A0002008A30060283830A0002008A300C8
:1010620060283930A0002008A300602860282208E8
:10107200A000A1012108003A031940286028200895
:10108200003A03190528013A03190A28033A0319F9
:101092000F28013A03191428073A03191928013AAB
:1010A20003191E28033A03192328013A0319282891
:1010B2000F3A03192D28013A031932286028230810
:1010C200622808000A168A11AB210A128A152130F9
:1010D20083120313AD000030AE000A168A11C62136
:1010E2000A128A15003083120313A000A1000A1607
:1010F2008A11A5230A128A15831203132008AF004E
:101102002F0883160313AB000A168A11B4210A12A0
:101112008A15073083120313B0007C30AF00AF0B87
:101122009028B00B90280000831603132B03031D95
:101132009B289C28C62883120313A401A40A023008
:101142000A168A1180220A128A15013083120313A9
:10115200A4008030A5000A168A119E250A128A155B
:101162001A3083120313B1005E30B0006D30AF004D
:10117200AF0BB928B00BB928B10BB928C0280A1691
:101182008A118D210A128A15DC2883120313A40105
:10119200A40A02300A168A1180220A128A15113014
:1011A20083120313A4008030A5000A168A119E251B
:1011B2000A128A15DC280800831203135008D4008F
:1011C2005108D5005208D6005308D7000310560D17
:1011D200570DD8005808DA005A08031DF128F228E2
:1011E200FC280030D3000030D2000030D1000030A3
:1011F200D000782978295008D4005108D500520827
:10120200D6005308D7001F300310D70CD60CD50CCC
:10121200D40CFF3E031D05295408D8005808D900F4
:10122200D217FF30D005FF30D105FF30D205003094
:10123200D3059630DA02DA1F1F29202945295A08D8
:10124200803A973E03182629272932290030D300F5
:101252000030D2000030D1000030D0007829782947
:10126200322901300310D30CD20CD10CD00CFF3E2A
:10127200031D33290130D4005408DA07031D422923
:10128200432932296829682920305A02031C4A2935
:101292004B2961290030D3000030D2000030D10048
:1012A2000030D0007829782961290130D400031058
:1012B200D00DD10DD20DD30DD40B58290130DA0245
:1012C2005A08031D6529662956296829682959087B
:1012D20003196C296D297829D009D109D209D309BA
:1012E200D00A0319D10A0319D20A0319D30A080032
:1012F200831203135E08A7005D08A6005C08A50020
:101302005B08A4004230A300C830A2000030A10054
:101312000030A0000A128A11F5220A128A158312DD
:1013220003132308D3002208D2002108D100200889
:10133200D0000A128A15DD200A128A1583120313BD
:101342005008DF005F08E2006430A2000030A30012
:101352006208DF00E0015F08A0006008A1000A1631
:101362008A11C4220A128A15831203132008A600C6
:101372002108A7000030A71BFF30A800A9000130F8
:101382000A128A1546240A128A158312031329089F
:10139200B7002808B6002708B5002608B4000A16C8
:1013A2008A11E9210A128A15831203133708BF0032
:1013B2003608BE003508BD003408BC005E08BB001C
:1013C2005D08BA005C08B9005B08B8000A128A110D
:1013D20039200A128A15831203133B08D3003A08F4
:1013E200D2003908D1003808D0000A128A15DD204F
:1013F2000A128A15831203135008E1006108E400FF
:101402000A30A0000030A1006408DF00E0015F089C
:10141200A2006008A3000A168A1118270A128A1568
:10142200831203132008E1006108E30063080A1233
:101432008A1501200A128A1583120313DF005F083E
:10144200E5006508242A0800083083120313AB0064
:101452002B08A40001300A168A1180220A128A156A
:10146200831603133308303E0A168A1164220A12C5
:101472008A15831603133408303E0A168A11642231
:101482000A128A15653083120313A4008030A50066
:101492000A168A119E250A128A1583160313310829
:1014A200303E0A168A1164220A128A158316031321
:1014B2003208303E0A168A1164220A128A156530F1
:1014C20083120313A4008030A5000A168A119E25F8
:1014D2000A128A15831603132F08303E0A168A1140
:1014E20064220A128A15831603133008303E0A1644
:1014F2008A1164220A128A15083083120313AB0080
:101502002B08A40002300A168A1180220A128A15B8
:10151200831603133508303E0A168A1164220A1212
:101522008A15831603133608303E0A168A1164227E
:101532000A128A15573083120313A4008030A500C3
:101542000A168A119E250A128A1583160313370872
:10155200303E0A168A1164220A128A158316031370
:101562003808303E0A168A1164220A128A15573048
:1015720083120313A4008030A5000A168A119E2547
:101582000A128A157B08303E0A168A1164220A1250
:101592008A15831203136F08303E0A168A116422D9
:1015A2000A128A1508000A168A1194210A128A154B
:1015B2000A168A1108220A128A150A168A119B2112
:1015C2000A128A150A168A11E6250A128A150030AD
:1015D20083120313B1000130B0008630AF00A03097
:1015E200AE000A168A11AE240A128A150A168A1148
:1015F200A2220A128A15523083120313A4008030E9
:10160200A5000A168A119E250A128A15831203134F
:10161200A401A40A02300A168A1180220A128A152B
:10162200593083120313A4008030A5000A168A11D0
:101632009E250A128A150A128A150A250A128A1585
:1016420083160313A501A401AE01272B0A128A11E6
:10165200FE240A128A150A128A15D1250A128A153F
:10166200373083120313ED006D08A0000530EE0041
:101672006E08A1000A300A168A11D8230A128A15A6
:10168200373083120313ED006D08A0000A30EE001C
:101692006E08A1000A300A168A110D240A128A1550
:1016A200373083120313ED006D08A0000F30EE00F7
:1016B2006E08A1000A300A168A1142240A128A15FB
:1016C20005300A168A1118230A128A150A168A1177
:1016D20073230A128A150A168A11BD210A128A1563
:1016E200831603132D03031D772B782B812B0A16E8
:1016F2008A118D210A128A1583160313AD01272B35
:10170200AD01272B272B272B0A128A110C288312B3
:1017120003135E08A7005D08A6005C08A5005B082D
:10172200A4004230A300C830A2000030A100003063
:10173200A0000A128A11F5220A128A1583120313D3
:101742002308D3002208D2002108D1002008D000AB
:101752000A128A15DD200A128A1583120313500811
:10176200DF005F08E2006430A2000030A3006208DC
:10177200DF00E0015F08A0006008A1000A168A11DC
:10178200C4220A128A15831203132008A600210814
:10179200A7000030A71BFF30A800A90001300A12E1
:1017A2008A1546240A128A15831203132908B700E0
:1017B2002808B6002708B5002608B4000A168A11C0
:1017C200E9210A128A15831203133708BF0036086B
:1017D200BE003508BD003408BC005E08BB005D08D1
:1017E200BA005C08B9005B08B8000A128A113920F5
:1017F2000A128A15831203133B08D3003A08D20057
:101802003908D1003808D0000A128A15DD200A12E0
:101812008A15831203135008E1006108E6000A30BA
:10182200A0000030A1006608DF00E0015F08A2000E
:101832006008A3000A168A1118270A128A15831251
:1018420003132008E1006108E3000A30DF005F08AB
:10185200A00063080A168A1149220A128A15FF3A61
:10186200013E831203136607E0006008E400640887
:101872000A128A1501200A128A1583120313DF0045
:101882005F08E5006508452C080083120313AE00CB
:101892002E0803194D2C4E2C622CA91F512C522CB0
:1018A200622C2609B0002709B1002809B2002909D3
:1018B200B300B00A0319B10A0319B20A0319B30A31
:1018C2006A2C2908B3002808B2002708B1002608AC
:1018D200B0002908280427042604031D712C722C49
:1018E2007C2C0030A9000030A8000030A700003096
:1018F200A600092D092D9630AA002A08AF008F2CC8
:101902000130AA002A08AF0701300310B30CB20C51
:10191200B10CB00CFF3E031D862C8F2CFE3033051C
:10192200031D942C952C812CB22CB22C0130AA00D0
:101932002A08AF070130B007003003180130B107A1
:10194200003003180130B207003003180130B3072A
:1019520001300310B30CB20CB10CB00CFF3E031DEE
:10196200AA2CFF303305031DB72CB82C972CC62C9C
:10197200C62C0130AF020130AA000310B00DB10D28
:10198200B20DB30DAA0BBE2CC62CB21BC92CCA2C8D
:10199200D12C02302F020318CF2CD02CBA2CD12CF0
:1019A2002F18D42CD52CDD2CFF30B005FF30B1051B
:1019B2007F30B205FF30B3050310AF0C2F08AA0029
:1019C200AB01AC01AD0118300310AA0DAB0DAC0D8B
:1019D200AD0DFF3E031DE52C2A08B0042B08B1040F
:1019E2002C08B2042D08B3042E080319F92CFA2C82
:1019F200002DA91FFD2CFE2C002DB317002D33083E
:101A0200A9003208A8003108A7003008A600092D55
:101A120008000A168A11AB210A128A15D0308312E5
:101A22000313AD000030AE000A168A11C6210A1255
:101A32008A15003083120313AD00AE000A168A1114
:101A4200C6210A128A157A0883120313AA0079089A
:101A5200A9000A168A1177240A128A15831203131F
:101A62002A08AE002908AD000A168A11C6210A12F8
:101A72008A157D0883120313AA007C08A9000A169E
:101A82008A1177240A128A15831203132A08AE00D8
:101A92002908AD000A168A11C6210A128A15831670
:101AA2000313470883120313AA008316031346087D
:101AB20083120313A9000A168A1177240A128A15BF
:101AC200831203132A08AE002908AD000A168A11F0
:101AD200C6210A128A15013083120313AD000030A9
:101AE200AE000A168A11C6210A128A15831603133A
:101AF200450883120313AA008316031344088312B2
:101B02000313A9000A168A1177240A128A1583126E
:101B120003132A08AE002908AD000A168A11C6214D
:101B22000A128A1583160313410883120313AA00AB
:101B320083160313400883120313A9000A168A119D
:101B420077240A128A15831203132A08AE00290881
:101B5200AD000A168A11C6210A128A1583160313CA
:101B62003F0883120313AA00831603133E0883124D
:101B72000313A9000A168A1177240A128A158312FE
:101B820003132A08AE002908AD000A168A11C621DD
:101B92000A128A150A168A11B4210A128A15080035
:101BA200831603132E08031DD72DD82D0D2E831255
:101BB2000313A401A40A01300A168A1180220A1210
:101BC2008A15523083120313A4008030A5000A162E
:101BD2008A119E250A128A1583120313A401A40AEC
:101BE20002300A168A1180220A128A15593083128B
:101BF2000313A4008030A5000A168A119E250A123A
:101C02008A150A128A1199260A128A150A128A1547
:101C120025220A128A15D72E831603132E03031DBB
:101C2200132E142E5F2E83120313A401A40A013073
:101C32000A168A1180220A128A152D308312031382
:101C4200A4008030A5000A168A119E250A128A1560
:101C520083120313A401A40A02300A168A118022F5
:101C62000A128A150A30831603132906031D3A2E17
:101C72003B2E452E013083120313EC006C088316B1
:101C82000313A807A901452E0A302806031D4A2E70
:101C92004B2E4E2EA901A8014E2E2808303E0A16C0
:101CA2008A1164220A128A15831603132908303E08
:101CB2000A168A1164220A128A15D72E0230831656
:101CC20003132E06031D662E672E822E8312031324
:101CD200A401A40A01300A168A1180220A128A1566
:101CE200203083120313A4008030A5000A168A1143
:101CF2009E250A128A150A128A15D8260A128A15F0
:101D0200D72E0330831603132E06031D892E8A2E27
:101D1200A52E83120313A401A40A01300A168A1104
:101D220080220A128A15403083120313A4008030E5
:101D3200A5000A168A119E250A128A150A128A1508
:101D420063200A128A15D72E0430831603132E0637
:101D5200031DAC2EAD2EC82E83120313A401A40AB8
:101D620001300A168A1180220A128A155F30831204
:101D72000313A4008030A5000A168A119E250A12B8
:101D82008A150A168A118B270A128A15D72E053050
:101D9200831603132E02031CCF2ED02ED72EAE0194
:101DA200D72ED72ED72ED72ED72ED72E08000A16EB
:101DB2008A11AB210A128A15113083120313AD0066
:101DC2000030AE000A168A11C6210A128A150030A6
:101DD20083120313A000A1000A168A11A5230A1276
:101DE2008A15831203132008E7006708831603137A
:101DF200AC000A168A11B4210A128A150230831223
:101E02000313E9000430E800B930E700E70B072FBD
:101E1200E80B072FE90B072F0E2F83120313A401E0
:101E2200A40A02300A168A1180220A128A1583161F
:101E320003132C0883120313E700E801E901EA0106
:101E42006A08A9006908A8006808A7006708A60030
:101E520000300A128A1546240A128A1583120313C5
:101E6200290883160313CB00831203132808831651
:101E72000313CA0083120313270883160313C9002E
:101E820083120313260883160313C8004B08831218
:101E92000313DE00831603134A0883120313DD00C3
:101EA20083160313490883120313DC0083160313FA
:101EB200480883120313DB000A128A1588230A12C8
:101EC2008A1583120313E700670883160313BB0006
:101ED2002C0883120313E700E801E901EA016A080A
:101EE200A9006908A8006808A7006708A6000030D2
:101EF2000A128A1546240A128A1583120313290824
:101F020083160313CF0083120313280883160313C7
:101F1200CE0083120313270883160313CD00831206
:101F22000313260883160313CC004F0883120313EE
:101F3200DE00831603134E0883120313DD0083169B
:101F420003134D0883120313DC00831603134C089A
:101F520083120313DB000A128A1579210A128A15E9
:101F620083120313E700670883160313BA002C08D1
:101F720083120313E700E801E901EA016A08A900F4
:101F82006908A8006808A7006708A60000300A12BE
:101F92008A1546240A128A15831203132908DE00C1
:101FA2002808DD002708DC002608DB000A168A1153
:101FB200E8240A128A1583120313EB006B088316B6
:101FC2000313B900B93083120313A4000030A50033
:101FD2000A168A119E250A128A15DF300A168A11FC
:101FE20064220A128A15673083120313A400803018
:101FF200A5000A168A119E250A128A150800FF1BDF
:102002000A2883137F1883170008840A0319FF0A1A
:10201200080010308A000408840A8207003445341C
:102022007334743461342034743465346D346234FE
:102032006C3461346E3464346F342134003454347B
:10204200723461346E347134753469346C346F3483
:1020520020347034723472346F3400345434653442
:102062006D3470346534723461347434753472345E
:1020720061343A34003443346F346E34743461342E
:1020820064346F3472343A34003441347534733406
:1020920065346E3474346534203400345434653419
:1020A2006D3462346C346F3472343A3400345034E8
:1020B20072346534733465346E3474346534003488
:1020C200463465346334683461343A340034483415
:1020D2006F34723461343A340034483475346D34B8
:0E20E2006F343A3400342F3400344334003469
:102308003734003401300A128A11E6270A168A1176
:10231800080001300A168A112E220A168A110800AE
:10232800831603130F128F160F170F1408008B173D
:102338000B178B150B108316031316160800640071
:102348008001840A0406031900340406A4290A1625
:102358008A11DA210A168A11831603131114080048
:102368000A168A11DA210A168A118316031311151F
:1023780008008316031329080A168A11F8210A1679
:102388008A1108000A168A11DA210A168A1183129C
:1023980003132D0893000800143400340234003469
:1023A80001340034183400340A340034DB2983162D
:1023B80003131419E029E129DB2911081F39031D2A
:1023C800E629E729DB29E8290800831203133708DF
:1023D8003604350434040319F229F329F629803028
:1023E800B706F629F729080083120313A000FC2971
:1023F80083160313981C012A022AFC29032A831234
:10240800031320089900080083160313850101307F
:102418008800890110308600831203138501880122
:1024280089018601831603178801890108007E083F
:102438008A007F0882000A168A111B220A168A114E
:102448008000840A04087D0603190034FF0A031972
:10245800FE0A1F2A83120313A300861323080A16F1
:102468008A1122250A168A118312031388170D3040
:1024780083120313A200FB30A100A10B412AA20B77
:10248800412A831203138813080083120313A3003D
:10249800A2014E2A231C512A522A572A2008A10099
:1024A8002108A207572A0310A00D0310A30C230824
:1024B800031D5F2A602A4E2A612A2208632A08001F
:1024C80083120313A300861723080A168A112225EC
:1024D8000A168A118312031388170630831203130E
:1024E800A2002F30A100A10B772AA20B772A7C2A01
:1024F800831203138813080083120313A50025030E
:10250800031D872A882A902A24087F3E0A168A11E2
:102518002E220A168A11A12A0230831203132506D5
:10252800031D972A982AA12A2408BF3E0A168A1151
:102538002E220A168A11A12AA12A0800831603133B
:1025480087170713831603170712871107108316B7
:1025580003139816181218131815831203139817D3
:102568001813181619308316031399009A011812B4
:102578008312031398171816831603139816080066
:1025880083120313A401A501C92A201CCC2ACD2A31
:10259800D32A2208A4070318A50A2308A50701308F
:1025A8000310A20DA30DFF3E031DD42A0130031012
:1025B800A10CA00CFF3E031DDB2A20082104031DEB
:1025C800E62AE72AC92AE82A2508A1002408A00043
:1025D800ED2A08000F30831203132605A8000030E7
:1025E8002705A900260E0F39A000270EF039A004F0
:1025F800270E0F39A100F030A11D0030A1040A30C8
:10260800A2000030A3000A168A11C4220A168A11F1
:102618008312031328082007A60029080318290A8B
:102628002107A700172B080083120313A2000A3002
:102638008316031346064704031D232B242B422B22
:1026480037307C067D04031D2A2B2B2B422B83124B
:10265800031322080F3EA000003003180130A10028
:102668007A082106031D3A2B79082006031D3D2B05
:102678003E2B422B061086100611422B08000B1C1D
:10268800462B472B6C2B0B1083120313061E4D2B66
:102698004E2B6C2B0130F400740883160313AE071D
:1026A8000A168A1186210A168A1183160313AD01A8
:1026B800AD0A0230F6000430F500BA30F400F40B2D
:1026C800632BF50B632BF60B632B00006C2B6C2B29
:1026D80078088A00770E8300FE0E7E0E09008312AA
:1026E80003130818782B792B7E2B83160313A70165
:1026F800A70A9B2B831603132703031D842B852B03
:102708009B2B013083120313A000200883160313A8
:10271800A907A701073083120313A1007C30A0008A
:10272800A00B942BA10B942B00009B2B9B2B8316A7
:102738000313290A031DA12BA22BA42BA901A42B47
:1027480008000A168A11DA210A168A118316031359
:1027580091150A168A11DA210A168A1183120313AF
:102768001308A200A3012208A4002308A5000A1642
:102778008A11DA210A168A1183120313200321040D
:10278800031DC72BC82BCC2B831603139112CF2BF9
:102798008316031391161116831203132508A1003B
:1027A8002408A000D72B080083120313A4002408D0
:1027B800A200A301831603134708831203132306F9
:1027C800031DEC2B831603134608831203132206FA
:1027D800031DEF2BF02B0C2C2008A200A3017D0871
:1027E8002306031DF92B7C082206031DFC2BFD2B59
:1027F8000C2C2108A200A3017A082306031D062C2D
:1028080079082206031D092C0A2C0C2C06140C2C02
:10281800080083120313A4002408A200A30183164E
:1028280003134708831203132306031D212C831661
:1028380003134608831203132206031D242C252C98
:10284800412C2008A200A3017D082306031D2E2C7D
:102858007C082206031D312C322C412C2108A200B1
:10286800A3017A082306031D3B2C79082206031DC1
:102878003E2C3F2C412C8614412C08008312031354
:10288800A4002408A200A301831603134708831297
:1028980003132306031D562C8316031346088312BD
:1028A80003132206031D592C5A2C762C2008A2004B
:1028B800A3017D082306031D632C7C082206031D43
:1028C800662C672C762C2108A200A3017A0823061F
:1028D800031D702C79082206031D732C742C762C8A
:1028E8000615762C08000A3083120313A000003066
:1028F800A1002A08A3002908A2000A168A1118278D
:102908000A168A11831203132008AB002108AC00B1
:10291800AB0EAC0EF030AC052B080F39AC04F03020
:10292800AB050A30A0000030A1002A08A30029083E
:10293800A2000A168A1144260A168A118312031362
:1029480020082B07A90021080318210A2C07AA0030
:10295800AD2C080028308312031394008316031348
:102968009101831203132E08B2002F08B300300818
:10297800B4003108B50002300310B20DB30DB40D28
:10298800B50DFF3E031DC02C3508A3003408A20076
:102998003308A1003208A0000030A7007A30A60052
:1029A8001230A5000030A4000A168A11A9260A16BA
:1029B8008A11831203132008FF3E83160313930022
:1029C8009401871507160800831203135E08A700F1
:1029D8005D08A6005C08A5005B08A4004230A300BF
:1029E800C830A2000030A1000030A0000A128A11ED
:1029F800F5220A168A11831203132308D30022082A
:102A0800D2002108D1002008D0000A128A15DD2042
:102A18000A168A11831203135008DF005F08E000CA
:102A280060080A128A1501200A168A1183120313F4
:102A3800DF005F08E1006108212D080083120313FD
:102A4800A000201C282D292D2B2D05142C2D051018
:102A5800A01C2F2D302D322D8514332D8510201DCF
:102A6800362D372D392D05153A2D0511A01D3D2D73
:102A78003E2D402D8515412D8511201E442D452DB7
:102A8800472D0516482D0512A01E4B2D4C2D4E2DF9
:102A980085164F2D8512201F522D532D552D0517A4
:102AA800562D0513A01F592D5A2D5C2D85175E2D07
:102AB80085135E2D0800F000701C632D642D682DB1
:102AC8008312031305146B2D831203130510F01CD6
:102AD8006E2D6F2D712D8514722D8510701D752D1D
:102AE800762D782D0515792D0511F01D7C2D7D2D60
:102AF8007F2D8515802D8511701E832D842D862DA3
:102B08000516872D0512F01E8A2D8B2D8D2D851605
:102B18008E2D8512701F912D922D942D0517952DB0
:102B28000513F01F982D992D9B2D85179D2D851325
:102B38009D2D080083120313A901AA01C82D290895
:102B48002407A7002508A6000318A60AA91FAD2D6B
:102B5800A603831203132608A8002808FF002708E5
:102B680084000A168A1100200A168A110A168A1188
:102B780064220A168A11013083120313A907031865
:102B8800AA0A0030AA07C82D29082407A700250883
:102B9800A6000318A60AA91FD22DA60383120313A1
:102BA8002608A8002808FF00270884000A168A11AA
:102BB80000200A168A11003A031DE32DE42DA32DE7
:102BC800E52D0800143083120313A5007930A40002
:102BD800A40BEC2DA50BEC2D00300A168A1122252A
:102BE8000A168A111A3083120313A500F730A400BD
:102BF800A40BFC2DA50BFC2D012E30300A168A11D2
:102C08002E220A168A11073083120313A5007C307E
:102C1800A400A40B0D2EA50B0D2E000030300A16B3
:102C28008A112E220A168A11343083120313A40043
:102C3800A40B1C2E000030300A168A112E220A1608
:102C48008A1138300A168A112E220A168A11103073
:102C58000A168A112E220A168A1101300A168A11BA
:102C68002E220A168A1106300A168A112E220A16F0
:102C78008A110C300A168A112E220A168A110800A7
:102C880083120313A601A31F4A2E4B2E532EA2090B
:102C9800A309A20A0319A30AA601A60A532EA11F73
:102CA800562E572E5D2EA009A109A00A0319A10AC4
:102CB8005D2E200821040319622E632E982EA5018B
:102CC800A50A722E01300310A00DA10DFF3E031DB1
:102CD800672E0130A4002408A507722EA11F752EA7
:102CE800762E662E782E782E21082302031D7E2E3E
:102CF80020082202031C812E822E892E2008A2027F
:102D08002108031CA303A302892E01300310A10C80
:102D1800A00CFF3E031D8A2E0130A502031D952E2F
:102D2800962E782E982E982E260803199C2E9D2EC6
:102D3800A32EA209A309A20A0319A30AA32E2308F2
:102D4800A1002208A000A82E080000308312031357
:102D5800AC000030AB000030AA000030A900230806
:102D68002204210420040319BA2EBB2E0E2FAD0114
:102D7800AD0ACC2E0130A8000310A00DA10DA20DA4
:102D8800A30DA80BC02E0130A8002808AD07CC2E33
:102D9800A31FCF2ED02EBE2ED22ED22E0130A800A9
:102DA8000310A90DAA0DAB0DAC0DA80BD42E23084A
:102DB8002702031DE92E22082602031DE92E2108F9
:102DC8002502031DE92E20082402031CEC2EED2EFB
:102DD800FD2E2008A4022108031C210FA5022208A9
:102DE800031C220FA6022308031C230FA702291481
:102DF800FD2E01300310A30CA20CA10CA00CFF3E69
:102E0800031DFE2E0130AD02031D0B2F0C2FD22EF9
:102E18000E2F0E2F2C08A3002B08A2002A08A100B1
:102E28002908A000172F080083120313A601A11F69
:102E38001E2F1F2F272FA009A109A00A0319A10AD5
:102E4800A601A60A272FA31F2A2F2B2F352FA20949
:102E5800A309A20A0319A30A0130A4002408A6069C
:102E6800352FA701A8012008210403193C2F3D2F65
:102E78007A2FA501A50A4C2F01300310A00DA10D32
:102E8800FF3E031D412F0130A4002408A5074C2F45
:102E9800A11F4F2F502F402F522F522F01300310B8
:102EA800A70DA80DFF3E031D532F21082302031D64
:102EB8005F2F20082202031C622F632F6B2F20082C
:102EC800A2022108031CA303A30227146B2F0130BD
:102ED8000310A10CA00CFF3E031D6C2F0130A502AE
:102EE800031D772F782F522F7A2F7A2F2608031950
:102EF8007E2F7F2F852FA709A809A70A0319A80ADB
:102F0800852F2808A1002708A0008A2F08000A1684
:102F18008A11AB210A168A11313083120313AD00CE
:102F28000030AE000A168A11C6210A168A1100302E
:102F380083120313A000A1000A168A11A5230A16FA
:102F48008A11831203132008AF002F088316031376
:102F5800AA000A168A11B4210A168A1107308312A8
:102F68000313B0007C30AF00AF0BB82FB00BB82FF5
:102F78000000831603132A03031DC32FC42FE92F50
:102F880083120313A401A40A02300A168A118022AC
:102F98000A168A11493083120313A4008030A50051
:102FA8000A168A119E250A168A111A3083120313EB
:102FB800B1005E30B0006D30AF00AF0BE12FB00B49
:102FC800E12FB10BE12FE82FFF2F83120313A40188
:102FD800A40A02300A168A1180220A168A1137308A
:102FE80083120313A4008030A5000A168A119E25B7
:082FF8000A168A11FF2F0800E0
:04400E00D4E0FFFFFC
:00000001FF
