:020000040000FA
:060000000A128A110C280F
:10000800FE00030EF7000A08F8000A168A116B2C86
:100018000A128A110F288313C530FD001230FE0022
:10002800B530FF00BD3084000A168A110E230A126B
:100038008A110A128A11FB270A128A11F9000A1278
:100048008A11FC270A128A11FA000A128A11FD275E
:100058000A128A11FB000A128A11FE270A128A1153
:10006800FC00A0308400BD300A168A11AD220A12A5
:100078008A11EE01EF01FD0183010A128A15B029E8
:10008800831203133B088039C0004008CC003B08AA
:10009800C0004007C1004108CE00BA1F54285528A7
:1000A80057284E1457284E0803195B285C286D28DA
:1000B8004E0A031D602861286A280030BB00003002
:1000C800BA000030B9000030B8006A28BA17BB017E
:1000D80076280030BB000030BA000030B90000308C
:1000E800B80076283F088039C0004008CD004D0888
:1000F8004C0603198028812883284C1783283F0839
:10010800C0004007C1004108CD00BE1F8C288D28C3
:100118008F284D148F284D08031993289428A52853
:100128004D0A031D98289928A2280030BF000030E6
:10013800BE000030BD000030BC00A228BE17BF01C1
:10014800AD280030BF000030BE000030BD000030D8
:10015800BC004E084D020318B228B328F9284C1FDA
:10016800B628B728BC288030C0004008CC06BC2878
:100178004E08C0004008CF004D08C0004008CE001F
:100188004F08C0004008CD003808C0004008CF0024
:100198003C08C0004008B8004F08C0004008BC0038
:1001A8003908C0004008CF003D08C0004008B90029
:1001B8004F08C0004008BD003A08C0004008CF0002
:1001C8003E08C0004008BA004F08C0004008BE0002
:1001D8003B08C0004008CF003F08C0004008BB00F3
:1001E8004F08C0004008BF00F928CF014E08C000E2
:1001F800C101C009C109C00A0319C10A4D08400755
:10020800C20041080318410AC3004308803AFF00AE
:1002180080307F02031D12291A304202031C15295F
:1002280016295729831203133B083A043904380462
:10023800031D1F292129013022290030C000400850
:10024800CF000030BB000030BA000030B9000030E9
:10025800B8004D08C0004008CE00602957294F1C3F
:100268003629372940294F08C0000310400C0138AF
:10027800C1004108CF0043290310CF0C4329381C83
:10028800462947294929CF1749290130C0003B0D84
:10029800BB0CBA0CB90CB80CC00B4B290130C00010
:1002A8004008CE075729831203134D084E02031C3A
:1002B8005E295F29332960294C1B63296429B329E6
:1002C8004E08031D6829692973290030BB000030D6
:1002D800BA000030B9000030B800FF2AFF2A3C08F5
:1002E800B8073D0803110318013E03197C29B90713
:1002F8003E0803110318013E03198329BA073F0872
:1003080003110318013E03198A29BB073B1C8D29D9
:100318008E297C2A4F1C912992299B294F08C000BD
:100328000310400C0138C1004108CF009E2903107A
:10033800CF0C9E29381CA129A229A429CF17A429AA
:100348000130C0003B0DBB0CBA0CB90CB80CC00B8B
:10035800A6290130C0004008CE077C2A7C2A3B0829
:10036800803AFF003F08803A7F02031DC5293E08F6
:100378003A02031DC5293D083902031DC5293C0859
:1003880038020318C829C9292F2AFF30C000FF30B6
:10039800C100FF30C200FF30C3003C08C4003D0864
:1003A800C5003E08C6003F08C7003809C80039091B
:1003B800C9003A09CA003B09CB00C80A0319C90A8F
:1003C8000319CA0A0319CB0A4808C40749080318BD
:1003D800490FEF29F029C5074A0803184A0FF529DC
:1003E800F629C6074B0803184B0AC7074408C00775
:1003F80045080318450F012A022AC10746080318B1
:10040800460F072A082AC20747080318470AC307DE
:100418004308BB004208BA004108B9004008B800C8
:100428008030C0004008CC06CF09CF0A4F08031D12
:100438001E2A1F2A3D2A0130B80700300318013050
:10044800B907003003180130BA070030031801302B
:10045800BB073D2A3D2A3C08B8023D08031C3D0F56
:10046800B9023E08031C3E0FBA023F08031C3F0FA7
:10047800BB023B083A0439043804031D442A452AC0
:10048800762A4F08031D492A4A2A762A0030BB00DB
:100498000030BA000030B9000030B800FF2AFF2A47
:1004A800762A0130C0000310B80DB90DBA0DBB0D86
:1004B800C00B572ACF1F612A622A632A38144F1C9F
:1004C800662A672A6A2A0314CF0D6D2A0310CF0DF6
:1004D8006D2A4E080319712A722A762A0130CE0233
:1004E800762A762ABA1F792A7A2A552A7C2A7C2AD9
:1004F800CD01CF1F802A812A932A4F087F390319FB
:10050800862A872A8A2ACD01CD0A932A381C8D2A61
:100518008E2A932ACD01CD0A932A932A932A4D082D
:100528000319972A982ACE2A0130B80700300318F1
:100538000130B907003003180130BA07003003183A
:100548000130BB073B1CA92AAA2ACE2A3808C000BA
:100558003908C1003A08C2003B08C3000130C40092
:10056800430DC30CC20CC10CC00CC40BB42A430805
:10057800BB004208BA004108B9004008B8004E0A5A
:100588000319C72AC82ACE2A0130C0004008CE075E
:10059800CE2ACE2A4E0A0319D22AD32AD92A4E089D
:1005A800031DD72AD82AE92AD92A0030BB000030EF
:1005B800BA000030B9000030B8004E08031DE52A23
:1005C800E62AE92ACC01E92AE92A4E1CEC2AED2A76
:1005D800EF2ABA17F32A7F30C0004008BA054E0840
:1005E800C0000310400CC1004108BB00CC1FFD2A0D
:1005F800FE2AFF2ABB170800831203132708803935
:10060800A8002808B1002708A8002807A900290879
:10061800B800A61F102B112B132B3814132B3808D6
:100628000319172B182B292B380A031D1C2B1D2BDC
:10063800262B0030A7000030A6000030A5000030AF
:10064800A400262BA617A701322B0030A7000030E4
:10065800A6000030A5000030A400322B2308803902
:10066800A8002808B1062308A8002807A900290817
:10067800B900A21F402B412B432B3914432B3908B7
:100688000319472B482B592B390A031D4C2B4D2B8B
:10069800562B0030A3000030A2000030A10000302B
:1006A800A000562BA217A301612B0030A300003035
:1006B800A2000030A1000030A00023082204210479
:1006C8002004031D682B692B832B0030A700003002
:1006D800A6000030A5000030A4008030A6047F30BA
:1006E800A7043108A8002808A7042708A30026089B
:1006F800A2002508A1002408A000082D082D38080C
:10070800031D872B882B9A2B0030A7000030A600EA
:100718000030A5000030A4002708A3002608A20086
:100728002508A1002408A000082D082D3908A800D4
:10073800A901A809A909A80A0319A90A38082807B4
:10074800AA0029080318290AAB002A087F3EB2002C
:100758002B080318013E003EB3002708B000260806
:10076800AF002508AE002408AD000030A700003017
:10077800A6000030A5000030A4000030B70000300B
:10078800B6000030B5000030B400B901192C3908A2
:100798000319CF2BD02BF22B0130A8000310AD0D7D
:1007A800AE0DAF0DB00DA80BD22B0130A800031071
:1007B800A40DA50DA60DA70DA80BDB2BB71FE52BC8
:1007C800E62BE82B2414E82B0130A8000310B40D05
:1007D800B50DB60DB70DA80BEA2BF22B2308300286
:1007E800031D002C22082F02031D002C21082E02B5
:1007F800031D002C20082D02031C032C042C142C90
:1008080037172008AD022108031C210FAE02220869
:10081800031C220FAF022308031C230FB002142C61
:100828000130A8002808B907192C1A303902031C0E
:100838001E2C1F2CCB2B202C30082F042E042D040B
:100848000319272C282C4A2C34144A2C4A2C013002
:10085800A8000310A40DA50DA60DA70DA80B2D2CFF
:10086800B71F372C382C3A2C24143A2C0130A80006
:100878000310B40DB50DB60DB70DA80B3C2CFF3009
:10088800B2070318B30AFF30B3074A2CA61F4D2C32
:100898004E2C2B2C4F2CB901B71F532C542C742CD5
:1008A800FF303405A800FF303505A900FF303605B4
:1008B800AA007F303705AB002B082A042904280436
:1008C8000319672C682C6B2CB901B90A742C241CE9
:1008D8006E2C6F2C742CB901B90A742C742C742CDE
:1008E80039080319782C792CAC2C0130A407003076
:1008F80003180130A507003003180130A60700309F
:1009080003180130A707271C8A2C8B2CAC2C240831
:10091800A8002508A9002608AA002708AB0001306E
:10092800AC002B0DAB0CAA0CA90CA80CAC0B952C8D
:100938002B08A7002A08A6002908A5002808A40053
:100948000130B2070318B30A0030B307AC2CAC2C43
:100958003308803AFF0080307F02031DB52CFF303A
:100968003202031CB82CB92CC82CFF308312031395
:10097800B2000030B3000030A7000030A6000030FD
:10098800A5000030A400C82C831203133308803A52
:10099800FF0080307F02031DD32C01303202031880
:1009A800D62CD72CE42C83120313B201B3010030E8
:1009B800A7000030A6000030A5000030A400B10157
:1009C800831203133208A8002808B800381CED2C3D
:1009D800EE2CF02CA617F42C7F30A8002808A605CA
:1009E8003808A8000310280CA9002908A700310816
:1009F800A8002808A7042708A3002608A20025089D
:100A0800A1002408A000082D08000A168A11BD229A
:100A18000A128A11D03083120313AD000030AE00E1
:100A28000A168A11CF220A128A1100308312031380
:100A3800AD00AE000A168A11CF220A128A110A16D0
:100A48008A11C6220A128A110A168A11BD220A12AE
:100A58008A11D13083120313AD000030AE000A169C
:100A68008A11CF220A128A11003083120313A000C0
:100A7800A1000A168A11CB240A128A1183120313C1
:100A88002108A7002008A6000A168A11BA230A120C
:100A98008A11831203132708EF002608EE000A16AE
:100AA8008A11C6220A128A110A168A11BD220A124E
:100AB8008A11D13083120313AD000030AE000A163C
:100AC8008A11CF220A128A11003083120313A00060
:100AD800A1000A168A11CB240A128A118312031361
:100AE8002108A7002008A6000A168A11BA230A12AC
:100AF8008A11831203132708FC002608FB000A1634
:100B08008A11C6220A128A110A168A11BD220A12ED
:100B18008A11D13083120313AD000030AE000A16DB
:100B28008A11CF220A128A11003083120313A000FF
:100B3800A1000A168A11CB240A128A118312031300
:100B48002108A7002008A6000A168A11BA230A124B
:100B58008A11831203132708FA002608F9000A16D7
:100B68008A11C6220A128A110A168A11BD220A128D
:100B78008A11D13083120313AD000030AE000A167B
:100B88008A11CF220A128A11003083120313A0009F
:100B9800A1000A168A11CB240A128A110A168A1190
:100BA800C6220A128A110A168A11BD220A128A114D
:100BB800D13083120313AD000030AE000A168A113B
:100BC800CF220A128A11003083120313A000A10059
:100BD8000A168A11CB240A128A11831203132108D8
:100BE800A7002008A6000A168A11BA230A128A1139
:100BF80083120313270883160313C40083120313F5
:100C0800260883160313C3000A168A11C6220A127D
:100C18008A110A168A11BD220A128A11D13083124A
:100C28000313AD000030AE000A168A11CF220A1253
:100C38008A11003083120313A000A1000A168A113A
:100C4800CB240A128A11831203132108A700200853
:100C5800A6000A168A11BA230A128A1183120313EC
:100C6800270883160313C00083120313260883166C
:100C78000313BF000A168A11C6220A128A110A161D
:100C88008A11BD220A128A11D13083120313AD00D2
:100C98000030AE000A168A11CF220A128A110030DB
:100CA80083120313A000A1000A168A11CB240A128A
:100CB8008A11831203132108A7002008A6000A1628
:100CC8008A11BA230A128A1183120313270883167A
:100CD8000313BE0083120313260883160313BD00F3
:100CE8000A168A11C6220A128A110A168A11C622FF
:100CF8000A128A110A168A11BD220A128A11D130E3
:100D080083120313AD000030AE000A168A11CF22F9
:100D18000A128A11003083120313A000A1000A16D8
:100D28008A11CB240A128A110A168A11C6220A12BB
:100D38008A1108000A3083120313A0000030A100B2
:100D48006F08A3006E08A2000A168A112C270A123F
:100D58008A11831203132008A9002908FD000A300C
:100D6800A0000030A1006F08A3006E08A2000A12BC
:100D78008A1529200A128A11831203132008A90050
:100D8800290883160313B7000A3083120313A0003F
:100D98000030A1007C08A3007B08A2000A168A1173
:100DA8002C270A128A11831203132008A900290884
:100DB80083160313B6000A3083120313A000003011
:100DC800A1007C08A3007B08A2000A128A1529202A
:100DD8000A128A11831203132008A900290883160E
:100DE8000313B5000A3083120313A0000030A100DA
:100DF8007A08A3007908A2000A168A112C270A1279
:100E08008A11831203132008A900290883160313E3
:100E1800B4000A3083120313A0000030A1007A083E
:100E2800A3007908A2000A128A1529200A128A1139
:100E3800831203132008A900290883160313B3009B
:100E48000A3083120313A0000030A1008316031395
:100E5800440883120313A300831603134308831261
:100E68000313A2000A168A112C270A128A11831268
:100E780003132008A900290883160313B2000A30B7
:100E880083120313A0000030A10083160313440843
:100E980083120313A3008316031343088312031357
:100EA800A2000A128A1529200A128A118312031332
:100EB8002008A900290883160313B1000A308312F9
:100EC8000313A0000030A100831603134008831207
:100ED8000313A300831603133F0883120313A2000E
:100EE8000A168A112C270A128A1183120313200862
:100EF800A900290883160313B0000A3083120313CC
:100F0800A0000030A10083160313400883120313C6
:100F1800A300831603133F0883120313A2000A12C7
:100F28008A1529200A128A11831203132008A9009E
:100F3800290883160313AF000A3083120313A00095
:100F48000030A100831603133E0883120313A30085
:100F5800831603133D0883120313A2000A168A118D
:100F68002C270A128A11831203132008A9002908C2
:100F780083160313AE000A3083120313A000003057
:100F8800A100831603133E0883120313A3008316DC
:100F980003133D0883120313A2000A128A1529209D
:100FA8000A128A11831203132008A900290883163C
:100FB8000313AD00080083120313A3008617230848
:100FC8000A168A11A9250A128A118312031388178F
:100FD8000B3083120313A2006130A100A10BF22F82
:100FE800A20BF22FF72F83120313881308000A3479
:060FF80000343734003420
:1010040083120313A2000A3079067A04031D0B2805
:101014000C28282837307B067C04031D122813284B
:10102400282822080F3EA000003003180130A10038
:101034006F082106031D20286E082006031D23289F
:101044002428282806108610061128280800831250
:101054000313A601A11F2F2830283828A009A109AD
:10106400A00A0319A10AA601A60A3828A31F3B282F
:101074003C284628A209A309A20A0319A30A01309D
:10108400A4002408A6064628A701A80120082104D4
:1010940003194D284E288B28A501A50A5D28013087
:1010A4000310A00DA10DFF3E031D52280130A40022
:1010B4002408A5075D28A11F6028612851286328FA
:1010C400632801300310A70DA80DFF3E031D6428FB
:1010D40021082302031D702820082202031C732800
:1010E40074287C282008A2022108031CA303A3025D
:1010F40027147C2801300310A10CA00CFF3E031D13
:101104007D280130A502031D8828892863288B289F
:101114008B28260803198F2890289628A709A80940
:10112400A70A0319A80A96282808A1002708A000DE
:101134009B2808000A168A11BD220A128A1521303A
:1011440083120313AD000030AE000A168A11CF22B9
:101154000A128A15003083120313A000A1000A1694
:101164008A11CB240A128A15831203132008AF00B4
:101174002F0883160313A9000A168A11C6220A121D
:101184008A150D3083120313B000FB30AF00AF0B90
:10119400C928B00BC928831603132903031DD328B8
:1011A400D428FD2883120313A401A40A02300A16CA
:1011B4008A116E230A128A15013083120313A400C4
:1011C4008030A5000A168A1125260A128A153330A2
:1011D40083120313B100BB30B000DF30AF00AF0B9C
:1011E400F128B00BF128B10BF1280A168A119722C5
:1011F4000A128A15132983120313A401A40A0230C4
:101204000A168A116E230A128A15113083120313E7
:10121400A4008030A5000A168A1125260A128A1510
:1012240013290800831203135008D4005108D50071
:101234005208D6005308D7000310560D570DD80096
:101244005808DA005A08031D2829292933290030AF
:10125400D3000030D2000030D1000030D000AF29DC
:10126400AF295008D4005108D5005208D6005308BD
:10127400D7001F300310D70CD60CD50CD40CFF3E6E
:10128400031D3C295408D8005808D900D217FF3050
:10129400D005FF30D105FF30D2050030D30596309C
:1012A400DA02DA1F562957297C295A08803A973ED0
:1012B40003185D295E2969290030D3000030D2006B
:1012C4000030D1000030D000AF29AF2969290130A6
:1012D4000310D30CD20CD10CD00CFF3E031D6A2991
:1012E4000130D4005408DA07031D79297A296929C1
:1012F4009F299F2920305A02031C81298229982979
:101304000030D3000030D2000030D1000030D000D3
:10131400AF29AF2998290130D4000310D00DD10D85
:10132400D20DD30DD40B8F290130DA025A08031DD4
:101334009C299D298D299F299F2959080319A3298F
:10134400A429AF29D009D109D209D309D00A031994
:10135400D10A0319D20A0319D30A08000A168A11FA
:101364009E220A128A150A168A11F7220A128A156F
:101374000A168A11A5220A128A150A168A116D26DE
:101384000A128A15003083120313B1000130B00031
:101394008630AF00A030AE000A168A1135250A1235
:1013A4008A15403083120313A4008030A5000A1666
:1013B4008A1125260A128A1583120313A401A40A8A
:1013C40002300A168A116E230A128A1547308312D4
:1013D4000313A4008030A5000A168A1125260A12D8
:1013E4008A150A128A1573240A128A15831603139E
:1013F400A501A401AC01FE290A128A1109250A12C9
:101404008A150A128A15F8250A128A1537308312AA
:101414000313EC006C08A0000530ED006D08A1007A
:101424000A300A168A11E4230A128A153730831205
:101434000313EC006C08A0000A30ED006D08A10055
:101444000A300A168A1111240A128A1537308312B7
:101454000313EC006C08A0000F30ED006D08A10030
:101464000A300A168A113E240A128A1505300A1215
:101474008A1502200A128A150A168A119A240A1257
:101484008A15831603132B03031D492A4A2A532A58
:101494000A168A1197220A128A1583160313AB01BE
:1014A400FE29AB01FE29FE29FE290A128A110C2805
:1014B400831203135E08A7005D08A6005C08A5005C
:1014C4005B08A4004230A300C830A2000030A10091
:1014D4000030A0000A128A1100230A128A1583120E
:1014E40003132308D3002208D2002108D1002008C6
:1014F400D0000A128A1514210A128A1583120313C2
:101504005008DF005F08E2006430A2000030A3004E
:101514006208DF00E0015F08A0006008A1000A166D
:101524008A1190230A128A15831203132008A60035
:101534002108A7000030A71BFF30A800A900013034
:101544000A128A1534250A128A15831203132908EC
:10155400B7002808B6002708B5002608B4000A1604
:101564008A11E8220A128A15831203133708BF006E
:101574003608BE003508BD003408BC005E08BB0058
:101584005D08BA005C08B9005B08B8000A128A1149
:1015940044200A128A15831203133B08D3003A0825
:1015A400D2003908D1003808D0000A128A15142153
:1015B4000A128A15831203135008E1006108E4003B
:1015C4000A30A0000030A1006408DF00E0015F08D9
:1015D400A2006008A3000A128A1529200A128A159B
:1015E400831203132008E1006108E30063080A166C
:1015F4008A11CA260A128A1583120313DF005F08B0
:10160400E5006508052B0800083083120313AB00BE
:101614002B08A40001300A168A116E230A128A15B7
:10162400831603133108303E0A128A11DF270A1287
:101634008A15831603133208303E0A128A11DF27F3
:101644000A128A15533083120313A4008030A500B4
:101654000A168A1125260A128A15831603132F08DF
:10166400303E0A128A11DF270A128A1583160313E1
:101674003008303E0A128A11DF270A128A155330C5
:1016840083120313A4008030A5000A168A112526AC
:101694000A128A15831603132D08303E0A128A1182
:1016A400DF270A128A15831603132E08303E0A1206
:1016B4008A11DF270A128A15083083120313AB003C
:1016C4002B08A40002300A168A116E230A128A1506
:1016D400831603133308303E0A128A11DF270A12D5
:1016E4008A15831603133408303E0A128A11DF2741
:1016F4000A128A15453083120313A4008030A50012
:101704000A168A1125260A128A1583160313350828
:10171400303E0A128A11DF270A128A158316031330
:101724003608303E0A128A11DF270A128A1545301C
:1017340083120313A4008030A5000A168A112526FB
:101744000A128A15831603133708303E0A128A11C7
:10175400DF270A128A157D08303E0A128A11DF2714
:101764000A128A150800831203135E08A7005D0895
:10177400A6005C08A5005B08A4004230A300C830A2
:10178400A2000030A1000030A0000A128A11002338
:101794000A128A15831203132308D3002208D200E5
:1017A4002108D1002008D0000A128A1514210A1237
:1017B4008A15831203135008DF005F08E2006430C7
:1017C400A2000030A3006208DF00E0015F08A0006F
:1017D4006008A1000A168A1190230A128A1583123E
:1017E40003132008A6002108A7000030A71BFF3020
:1017F400A800A90001300A128A1534250A128A1594
:10180400831203132908B7002808B6002708B50077
:101814002608B4000A168A11E8220A128A158312CD
:1018240003133708BF003608BE003508BD0034086E
:10183400BC005E08BB005D08BA005C08B9005B0828
:10184400B8000A128A1144200A128A15831203135B
:101854003B08D3003A08D2003908D1003808D00038
:101864000A128A1514210A128A15831203135008C6
:10187400E1006108E6000A30A0000030A10066081B
:10188400DF00E0015F08A2006008A3000A128A15C5
:1018940029200A128A15831203132008E100610823
:1018A400E3000A30DF005F08A00063080A168A110B
:1018B40037230A128A15FF3A013E8312031366077F
:1018C400E0006008E40064080A168A11CA260A12B5
:1018D4008A1583120313DF005F08E5006508722C84
:1018E40008000A168A11BD220A128A15D030831202
:1018F4000313AD000030AE000A168A11CF220A127B
:101904008A15003083120313AD00AE000A168A1143
:10191400CF220A128A15831203136F08AA006E08D5
:10192400A9000A168A11FE240A128A1583120313C7
:101934002A08AE002908AD000A168A11CF220A121D
:101944008A157C0883120313AA007B08A9000A16CF
:101954008A11FE240A128A15831203132A08AE0080
:101964002908AD000A168A11CF220A128A157A08AC
:1019740083120313AA007908A9000A168A11FE2407
:101984000A128A15831203132A08AE002908AD002F
:101994000A168A11CF220A128A1501308312031300
:1019A400AD000030AE000A168A11CF220A128A1541
:1019B40083160313440883120313AA008316031324
:1019C400430883120313A9000A168A11FE240A127B
:1019D4008A15831203132A08AE002908AD000A16DB
:1019E4008A11CF220A128A15831603134008831220
:1019F4000313AA00831603133F0883120313A900D9
:101A04000A168A11FE240A128A15831203132A085D
:101A1400AE002908AD000A168A11CF220A128A15CF
:101A2400831603133E0883120313AA0083160313B9
:101A34003D0883120313A9000A168A11FE240A1210
:101A44008A15831203132A08AE002908AD000A166A
:101A54008A11CF220A128A150A168A11C6220A127C
:101A64008A15080083120313AE002E0803193B2DB8
:101A74003C2D502DA91F3F2D402D502D2609B0007F
:101A84002709B1002809B2002909B300B00A0319D3
:101A9400B10A0319B20A0319B30A582D2908B3006D
:101AA4002808B2002708B1002608B0002908280435
:101AB40027042604031D5F2D602D6A2D0030A90024
:101AC4000030A8000030A7000030A600F72DF72D45
:101AD4009630AA002A08AF007D2D0130AA002A08FA
:101AE400AF0701300310B30CB20CB10CB00CFF3EC5
:101AF400031D742D7D2DFE303305031D822D832D92
:101B04006F2DA02DA02D0130AA002A08AF070130A7
:101B1400B007003003180130B1070030031801305A
:101B2400B207003003180130B30701300310B30CBF
:101B3400B20CB10CB00CFF3E031D982DFF303305E1
:101B4400031DA52DA62D852DB42DB42D0130AF0276
:101B54000130AA000310B00DB10DB20DB30DAA0BE4
:101B6400AC2DB42DB21BB72DB82DBF2D02302F02D2
:101B74000318BD2DBE2DA82DBF2D2F18C22DC32D8A
:101B8400CB2DFF30B005FF30B1057F30B205FF30FB
:101B9400B3050310AF0C2F08AA00AB01AC01AD01D3
:101BA40018300310AA0DAB0DAC0DAD0DFF3E031D97
:101BB400D32D2A08B0042B08B1042C08B2042D0834
:101BC400B3042E080319E72DE82DEE2DA91FEB2DE4
:101BD400EC2DEE2DB317EE2D3308A9003208A80022
:101BE4003108A7003008A600F72D08008316031358
:101BF4002C08031DFE2DFF2D342E83120313A40184
:101C0400A40A01300A168A116E230A128A1540307A
:101C140083120313A4008030A5000A168A11252616
:101C24000A128A1583120313A401A40A02300A16A5
:101C34008A116E230A128A15473083120313A400F3
:101C44008030A5000A168A1125260A128A150A125E
:101C54008A119E260A128A150A128A1506230A1266
:101C64008A15D72E831603132C03031D3A2E3B2EFD
:101C7400642E83120313A401A40A01300A168A11E4
:101C84006E230A128A152D3083120313A4008030A8
:101C9400A5000A168A1125260A128A15831203132F
:101CA400A401A40A02300A168A116E230A128A15A4
:101CB400831603132808303E0A128A11DF270A12FA
:101CC4008A15D72E0230831603132C06031D6B2EA0
:101CD4006C2E872E83120313A401A40A01300A1662
:101CE4008A116E230A128A15203083120313A4006A
:101CF4008030A5000A168A1125260A128A150A12AE
:101D04008A15D8260A128A15D72E03308316031390
:101D14002C06031D8E2E8F2EAA2E83120313A401CC
:101D2400A40A01300A168A116E230A128A15373062
:101D340083120313A4008030A5000A168A112526F5
:101D44000A128A150A128A159C200A128A15D72E9D
:101D54000430831603132C06031DB12EB22EC82E95
:101D640083120313A401A40A01300A168A116E23F4
:101D74000A128A154D3083120313A4008030A50083
:101D84000A168A1125260A128A15D72E05308316BB
:101D940003132C02031CCF2ED02ED72EAC01D72E2A
:101DA400D72ED72ED72ED72ED72E08000A168A1153
:101DB400BD220A128A15113083120313AD000030BC
:101DC400AE000A168A11CF220A128A150030831235
:101DD4000313A000A1000A168A11CB240A128A1543
:101DE400831203132008E700670883160313AA006D
:101DF4000A168A11C6220A128A15033083120313A3
:101E0400E9000830E8007630E700E70B072FE80B1D
:101E1400072FE90B072F000083120313A401A40A60
:101E240002300A168A116E230A128A1583160313C6
:101E34002A0883120313E700E801E901EA016A08AA
:101E4400A9006908A8006808A7006708A600003070
:101E54000A128A1534250A128A15831203132908D3
:101E640083160313C800831203132808831603136D
:101E7400C70083120313270883160313C6008312B3
:101E84000313260883160313C5004808831203139B
:101E9400DE0083160313470883120313DD00831641
:101EA4000313460883120313DC0083160313450847
:101EB40083120313DB000A128A15B5230A128A154A
:101EC40083120313E700670883160313BA002A0872
:101ED40083120313E700E801E901EA016A08A90093
:101EE4006908A8006808A7006708A60000300A125D
:101EF4008A1534250A128A158312031329088316B6
:101F04000313CC0083120313280883160313CB0096
:101F140083120313270883160313CA0083120313BF
:101F2400260883160313C9004C0883120313DE002A
:101F3400831603134B0883120313DD008316031364
:101F44004A0883120313DC0083160313490883121F
:101F54000313DB000A128A155A220A128A15831205
:101F64000313E700670883160313B9002A088312D2
:101F74000313E700E801E901EA016A08A900690816
:101F8400A8006808A7006708A60000300A128A158E
:101F940034250A128A15831203132908DE0028083F
:101FA400DD002708DC002608DB000A168A116F25ED
:101FB4000A128A1583120313EB006B0883160313AA
:101FC400B800B83083120313A4000030A5000A1629
:101FD4008A1125260A128A15DF300A128A11DF2790
:101FE4000A128A15553083120313A4008030A50009
:101FF4000A168A1125260A128A150800FF1B0A28C8
:1020040083137F1883170008840A0319FF0A080042
:1020140010308A000408840A82070034453473347B
:10202400743461342034743465346D3462346C3403
:1020340061346E3464346F34213400345434723473
:1020440061346E347134753469346C346F342034D3
:102054007034723472346F340034543465346D34F3
:102064007034653472346134743475347234613468
:102074003A34003443346F346E3474346134643429
:102084006F3472343A340034543465346D34623409
:102094006C346F3472343A34003446346534633407
:1020A400683461343A34003448346F3472346134FF
:1020B4003A340034483475346D346F343A3400346F
:0820C4002F34003443340034D2
:1025200001300A168A111D230A168A11080001308B
:102530000A168A1152230A168A11080083160313F9
:102540000F168F160F170F1408008B170B178B150C
:102550000B10831603131616080064008001840A0A
:102560000406031900340406AE2A1434003402347D
:10257000003401340034183400340A168A11D92288
:102580000A168A1183160313111408000A168A11F9
:10259000D9220A168A1183160313111508000A1688
:1025A0008A11D9220A168A11831203132D08930067
:1025B0000800DA2A831603131419DF2AE02ADA2A1C
:1025C00011081F39031DE52AE62ADA2AE72A08003E
:1025D0008312031337083604350434040319F12A2F
:1025E000F22AF52A8030B706F52AF62A0800831663
:1025F00003138501013088008901103086008312A1
:102600000313850188018901860183160317880158
:10261000890108007E088A007F0882000A168A1154
:102620000A230A168A118000840A04087D06031909
:102630000034FF0A0319FE0A0E2BF3008312031362
:10264000861373080A168A11E6250A168A11831260
:10265000031388171A30F200F830F100F10B2E2B1B
:10266000F20B2E2B00008312031388130800831231
:102670000313A300A2013C2B231C3F2B402B452B13
:102680002008A1002108A207452B0310A00D03106C
:10269000A30C2308031D4D2B4E2B3C2B4F2B220844
:1026A000512B080083120313A300861323080A1674
:1026B0008A11A9250A168A118312031388171A3062
:1026C00083120313A200F730A100A10B652BA20B0C
:1026D000652B6A2B831203138813080083120313DC
:1026E000A5002503031D752B762B7E2B24087F3E2A
:1026F0000A168A1152230A168A118F2B023083126E
:1027000003132506031D852B862B8F2B2408BF3E24
:102710000A168A1152230A168A118F2B8F2B080052
:1027200083120313A401A501952B201C982B992B30
:102730009F2B2208A4070318A50A2308A507013028
:102740000310A20DA30DFF3E031DA02B01300310AB
:10275000A10CA00CFF3E031DA72B20082104031D84
:10276000B22BB32B952BB42B2508A1002408A00075
:10277000B92B08000F30831203132605A800003080
:102780002705A900260E0F39A000270EF039A00456
:10279000270E0F39A100F030A11D0030A1040A302E
:1027A000A2000030A3000A168A1190230A168A118B
:1027B0008312031328082007A60029080318290AF2
:1027C0002107A700E32B080083120313A4002408A9
:1027D000A200A3017A082306031DF02B7908220624
:1027E000031DF32BF42B102C2008A200A3017C085E
:1027F0002306031DFD2B7B082206031D002C012C44
:10280000102C2108A200A3016F082306031D0A2C27
:102810006E082206031D0D2C0E2C102C0614102CF5
:10282000080083120313A4002408A200A3017A085D
:102830002306031D1D2C79082206031D202C212CA4
:102840003D2C2008A200A3017C082306031D2A2C8E
:102850007B082206031D2D2C2E2C3D2C2108A200C6
:10286000A3016F082306031D372C6E082206031DE3
:102870003A2C3B2C3D2C86143D2C0800831203136C
:10288000A4002408A200A3017A082306031D4A2CF1
:1028900079082206031D4D2C4E2C6A2C2008A2001C
:1028A000A3017C082306031D572C7B082206031D69
:1028B0005A2C5B2C6A2C2108A200A3016F08230666
:1028C000031D642C6E082206031D672C682C6A2CDD
:1028D00006156A2C08000B1C6E2C6F2C932C0B1009
:1028E00083120313061E752C762C932C0130F400F2
:1028F000740883160313AC070A168A1190220A166D
:102900008A1183160313AB01AB0A0330F6000830BB
:10291000F5007730F400F40B8B2CF50B8B2CF60BB9
:102920008B2C932C932C78088A00770E8300FE0E54
:102930007E0E09008312031308189F2CA02CA52CCF
:1029400083160313A701A70AC12C831603132703B9
:10295000031DAB2CAC2CC12C013083120313A0003F
:10296000200883160313A807A7010D308312031351
:10297000A100FB30A000A00BBB2CA10BBB2CC12CD9
:10298000C12C83160313280A031DC72CC82CCA2C7C
:10299000A801CA2C08000A168A11D9220A168A111F
:1029A0008316031391150A168A11D9220A168A1161
:1029B000831203131308A200A3012208A400230812
:1029C000A5000A168A11D9220A168A118312031346
:1029D00020032104031DED2CEE2CF22C831603138F
:1029E0009112F52C831603139116111683120313FB
:1029F0002508A1002408A000FD2C08000A3083123D
:102A00000313A0000030A1002A08A3002908A20097
:102A10000A128A1529200A168A1183120313200824
:102A2000AB002108AC00AB0EAC0EF030AC052B08AF
:102A30000F39AC04F030AB050A30A0000030A10023
:102A40002A08A3002908A2000A168A112C270A16B0
:102A50008A118312031320082B07A90021080318E9
:102A6000210A2C07AA00342D0800283083120313F2
:102A70009400831603139101831203132E08B200EE
:102A80002F08B3003008B4003108B500023003103D
:102A9000B20DB30DB40DB50DFF3E031D472D350826
:102AA000A3003408A2003308A1003208A0000030BF
:102AB000A7003D30A6000930A5000030A4000A168A
:102AC0008A1191270A168A11831203132008FF3EE8
:102AD00083160313930094018715071608008312C9
:102AE00003135E08A7005D08A6005C08A5005B084C
:102AF000A4004230A300C830A2000030A100003082
:102B0000A0000A128A1100230A168A1183120313E5
:102B10002308D3002208D2002108D1002008D000C9
:102B20000A128A1514210A168A11831203135008F7
:102B3000DF005F08E00060080A168A11CA260A163C
:102B40008A1183120313DF005F08E1006108A82DDA
:102B5000080083120313A000201CAF2DB02DB22D4E
:102B60000514B32D0510A01CB62DB72DB92D851455
:102B7000BA2D8510201DBD2DBE2DC02D0515C12DD2
:102B80000511A01DC42DC52DC72D8515C82D851176
:102B9000201ECB2DCC2DCE2D0516CF2D0512A01E1F
:102BA000D22DD32DD52D8516D62D8512201FD92DAA
:102BB000DA2DDC2D0517DD2D0513A01FE02DE12DED
:102BC000E32D8517E52D8513E52D0800F000701C19
:102BD000EA2DEB2DEF2D831203130514F22D831232
:102BE00003130510F01CF52DF62DF82D8514F92D85
:102BF0008510701DFC2DFD2DFF2D0515002E0511D6
:102C0000F01D032E042E062E8515072E8511701E2D
:102C10000A2E0B2E0D2E05160E2E0512F01E112E4D
:102C2000122E142E8516152E8512701F182E192E91
:102C30001B2E05171C2E0513F01F1F2E202E222ED3
:102C40008517242E8513242E080083120313A9014F
:102C5000AA014F2E29082407A7002508A60003185B
:102C6000A60AA91F342EA603831203132608A80060
:102C70002808FF00270884000A168A1100200A1677
:102C80008A110A128A11DF270A168A11013083126B
:102C90000313A9070318AA0A0030AA074F2E290810
:102CA0002407A7002508A6000318A60AA91F592E65
:102CB000A603831203132608A8002808FF0027088C
:102CC00084000A168A1100200A168A11003A031D90
:102CD0006A2E6B2E2A2E6C2E0800273083120313C7
:102CE000A500F430A400A40B732EA50B732E0000D6
:102CF00000300A168A11A9250A168A113430831267
:102D00000313A500F130A400A40B842EA50B842E80
:102D100030300A168A1152230A168A110D30831296
:102D20000313A500FB30A400A40B942EA50B942E36
:102D300030300A168A1152230A168A11693083121A
:102D40000313A400A40BA22EA52E30300A168A115C
:102D500052230A168A1138300A168A1152230A168B
:102D60008A1110300A168A1152230A168A1101306C
:102D70000A168A1152230A168A1106300A168A1177
:102D800052230A168A110C300A168A1152230A1687
:102D90008A11080083120313A200012F3030A00013
:102DA0002008A300292F3130A0002008A300292FDC
:102DB0003230A0002008A300292F3330A0002008C3
:102DC000A300292F3430A0002008A300292F35307C
:102DD000A0002008A300292F3630A0002008A3005F
:102DE000292F3730A0002008A300292F3830A00059
:102DF0002008A300292F3930A0002008A300292F84
:102E0000292F2208A000A1012108003A0319092F47
:102E1000292F2008003A0319CE2E013A0319D32E88
:102E2000033A0319D82E013A0319DD2E073A031984
:102E3000E22E013A0319E72E033A0319EC2E013A68
:102E40000319F12E0F3A0319F62E013A0319FB2E3E
:102E5000292F23082B2F080083120313A601A31F79
:102E6000322F332F3B2FA209A309A20A0319A30A69
:102E7000A601A60A3B2FA11F3E2F3F2F452FA009D9
:102E8000A109A00A0319A10A452F2008210403194A
:102E90004A2F4B2F802FA501A50A5A2F013003106E
:102EA000A00DA10DFF3E031D4F2F0130A4002408EB
:102EB000A5075A2FA11F5D2F5E2F4E2F602F602F69
:102EC00021082302031D662F20082202031C692FFC
:102ED0006A2F712F2008A2022108031CA303A3025A
:102EE000712F01300310A10CA00CFF3E031D722FA7
:102EF0000130A502031D7D2F7E2F602F802F802F94
:102F000026080319842F852F8B2FA209A309A20A53
:102F10000319A30A8B2F2308A1002208A000902FD9
:102F20000800003083120313AC000030AB00003007
:102F3000AA000030A9002308220421042004031958
:102F4000A22FA32FF62FAD01AD0AB42F0130A80098
:102F50000310A00DA10DA20DA30DA80BA82F0130E9
:102F6000A8002808AD07B42FA31FB72FB82FA62F8E
:102F7000BA2FBA2F0130A8000310A90DAA0DAB0D6E
:102F8000AC0DA80BBC2F23082702031DD12F22084C
:102F90002602031DD12F21082502031DD12F200851
:102FA0002402031CD42FD52FE52F2008A4022108CA
:102FB000031C210FA5022208031C220FA6022308CE
:102FC000031C230FA7022914E52F01300310A30CC3
:102FD000A20CA10CA00CFF3E031DE62F0130AD0298
:102FE000031DF32FF42FBA2FF62FF62F2C08A30072
:102FF0002B08A2002A08A1002908A000FF2F080022
:04400E00D4E0FFFFFC
:00000001FF
