:020000040000FA
:060000000A128A110C280F
:10000800FE00030EF7000A08F8000A168A11D32A20
:100018000A128A110F288313C730FD001030FE0022
:10002800D730FF00BF3084000A168A1140210A1217
:100038008A110A168A11AE200A128A11F9000A16C4
:100048008A11AF200A128A11FA000A168A11B02002
:100058000A128A11FB000A168A11B1200A128A11A3
:10006800FC00A0308400BF300A168A11CF200A1283
:100078008A11EE01EF01FD0183010A128A15A32BF3
:10008800831203133B088039C0004008CC003B08AA
:10009800C0004007C1004108CE00BA1F54285528A7
:1000A80057284E1457284E0803195B285C286D28DA
:1000B8004E0A031D602861286A280030BB00003002
:1000C800BA000030B9000030B8006A28BA17BB017E
:1000D80076280030BB000030BA000030B90000308C
:1000E800B80076283F088039C0004008CD004D0888
:1000F8004C0603198028812883284C1783283F0839
:10010800C0004007C1004108CD00BE1F8C288D28C3
:100118008F284D148F284D08031993289428A52853
:100128004D0A031D98289928A2280030BF000030E6
:10013800BE000030BD000030BC00A228BE17BF01C1
:10014800AD280030BF000030BE000030BD000030D8
:10015800BC004E084D020318B228B328F9284C1FDA
:10016800B628B728BC288030C0004008CC06BC2878
:100178004E08C0004008CF004D08C0004008CE001F
:100188004F08C0004008CD003808C0004008CF0024
:100198003C08C0004008B8004F08C0004008BC0038
:1001A8003908C0004008CF003D08C0004008B90029
:1001B8004F08C0004008BD003A08C0004008CF0002
:1001C8003E08C0004008BA004F08C0004008BE0002
:1001D8003B08C0004008CF003F08C0004008BB00F3
:1001E8004F08C0004008BF00F928CF014E08C000E2
:1001F800C101C009C109C00A0319C10A4D08400755
:10020800C20041080318410AC3004308803AFF00AE
:1002180080307F02031D12291A304202031C15295F
:1002280016295729831203133B083A043904380462
:10023800031D1F292129013022290030C000400850
:10024800CF000030BB000030BA000030B9000030E9
:10025800B8004D08C0004008CE00602957294F1C3F
:100268003629372940294F08C0000310400C0138AF
:10027800C1004108CF0043290310CF0C4329381C83
:10028800462947294929CF1749290130C0003B0D84
:10029800BB0CBA0CB90CB80CC00B4B290130C00010
:1002A8004008CE075729831203134D084E02031C3A
:1002B8005E295F29332960294C1B63296429B329E6
:1002C8004E08031D6829692973290030BB000030D6
:1002D800BA000030B9000030B800FF2AFF2A3C08F5
:1002E800B8073D0803110318013E03197C29B90713
:1002F8003E0803110318013E03198329BA073F0872
:1003080003110318013E03198A29BB073B1C8D29D9
:100318008E297C2A4F1C912992299B294F08C000BD
:100328000310400C0138C1004108CF009E2903107A
:10033800CF0C9E29381CA129A229A429CF17A429AA
:100348000130C0003B0DBB0CBA0CB90CB80CC00B8B
:10035800A6290130C0004008CE077C2A7C2A3B0829
:10036800803AFF003F08803A7F02031DC5293E08F6
:100378003A02031DC5293D083902031DC5293C0859
:1003880038020318C829C9292F2AFF30C000FF30B6
:10039800C100FF30C200FF30C3003C08C4003D0864
:1003A800C5003E08C6003F08C7003809C80039091B
:1003B800C9003A09CA003B09CB00C80A0319C90A8F
:1003C8000319CA0A0319CB0A4808C40749080318BD
:1003D800490FEF29F029C5074A0803184A0FF529DC
:1003E800F629C6074B0803184B0AC7074408C00775
:1003F80045080318450F012A022AC10746080318B1
:10040800460F072A082AC20747080318470AC307DE
:100418004308BB004208BA004108B9004008B800C8
:100428008030C0004008CC06CF09CF0A4F08031D12
:100438001E2A1F2A3D2A0130B80700300318013050
:10044800B907003003180130BA070030031801302B
:10045800BB073D2A3D2A3C08B8023D08031C3D0F56
:10046800B9023E08031C3E0FBA023F08031C3F0FA7
:10047800BB023B083A0439043804031D442A452AC0
:10048800762A4F08031D492A4A2A762A0030BB00DB
:100498000030BA000030B9000030B800FF2AFF2A47
:1004A800762A0130C0000310B80DB90DBA0DBB0D86
:1004B800C00B572ACF1F612A622A632A38144F1C9F
:1004C800662A672A6A2A0314CF0D6D2A0310CF0DF6
:1004D8006D2A4E080319712A722A762A0130CE0233
:1004E800762A762ABA1F792A7A2A552A7C2A7C2AD9
:1004F800CD01CF1F802A812A932A4F087F390319FB
:10050800862A872A8A2ACD01CD0A932A381C8D2A61
:100518008E2A932ACD01CD0A932A932A932A4D082D
:100528000319972A982ACE2A0130B80700300318F1
:100538000130B907003003180130BA07003003183A
:100548000130BB073B1CA92AAA2ACE2A3808C000BA
:100558003908C1003A08C2003B08C3000130C40092
:10056800430DC30CC20CC10CC00CC40BB42A430805
:10057800BB004208BA004108B9004008B8004E0A5A
:100588000319C72AC82ACE2A0130C0004008CE075E
:10059800CE2ACE2A4E0A0319D22AD32AD92A4E089D
:1005A800031DD72AD82AE92AD92A0030BB000030EF
:1005B800BA000030B9000030B8004E08031DE52A23
:1005C800E62AE92ACC01E92AE92A4E1CEC2AED2A76
:1005D800EF2ABA17F32A7F30C0004008BA054E0840
:1005E800C0000310400CC1004108BB00CC1FFD2A0D
:1005F800FE2AFF2ABB170800831603132E08031DC3
:10060800062B072B3C2B83120313A401A40A0130E9
:100618000A168A11DC210A128A1153308312031335
:10062800A4008030A5000A168A1128250A128A110A
:1006380083120313A401A40A02300A168A11DC21CA
:100648000A128A115A3083120313A4008030A500BD
:100658000A168A1128250A128A110A128A152A25C9
:100668000A128A110A128A1575210A128A117B2D1B
:10067800831603132E03031D422B432B8E2B831249
:100688000313A401A40A01300A168A11DC210A12F4
:100698008A112E3083120313A4008030A5000A1695
:1006A8008A1128250A128A1183120313A401A40AA5
:1006B80002300A168A11DC210A128A110A308316BE
:1006C80003132906031D692B6A2B742B013083122F
:1006D8000313E700670883160313A807A901742BFF
:1006E8000A302806031D792B7A2B7D2BA901A80136
:1006F8007D2B2808303E0A168A119F210A128A117A
:10070800831603132908303E0A168A119F210A12FC
:100718008A117B2D0230831603132E06031D952B99
:10072800962BA22C83120313A401A40A01300A16E3
:100738008A11DC210A128A11213083120313A400C2
:100748008030A5000A168A1128250A128A110A166D
:100758008A1168230A128A1183120313A401A40AB6
:1007680002300A168A11DC210A128A118316031331
:100778002C0883120313E700E801E901EA016A087B
:10078800A9006908A8006808A7006708A600003043
:100798000A128A1566240A128A1183120313290879
:1007A80083160313CA00831203132808831603133E
:1007B800C90083120313270883160313C800831282
:1007C8000313260883160313C7004A08831203136A
:1007D800DE0083160313490883120313DD00831612
:1007E8000313480883120313DC0083160313470816
:1007F80083120313DB000A128A1524220A128A11B3
:1008080083120313E700670883160313BC002C0840
:1008180083120313E700E801E901EA016A08A90065
:100828006908A8006808A7006708A60000300A122F
:100838008A1566240A128A1183120313290883165B
:100848000313CE0083120313280883160313CD0065
:1008580083120313270883160313CC008312031390
:10086800260883160313CB004E0883120313DE00F9
:10087800831603134D0883120313DD008316031335
:100888004C0883120313DC00831603134B088312EE
:100898000313DB000A128A15C9200A128A1183126F
:1008A8000313E700670883160313BB002C088312A1
:1008B8000313E700E801E901EA016A08A9006908E9
:1008C800A8006808A7006708A60000300A128A1561
:1008D80066240A128A11831203132908DE002808E5
:1008E800DD002708DC002608DB000A168A117224BE
:1008F8000A128A1183120313EB006B088316031381
:10090800BA00BA3083120313A4000030A5000A16F7
:100918008A1128250A128A11DF300A168A119F21A6
:100928000A128A11683083120313A4008030A500CC
:100938000A168A1128250A128A117B2D033083167C
:1009480003132E06031DA92CAA2C072D83120313AB
:10095800A401A40A01300A168A11DC210A128A119C
:10096800413083120313A4008030A5000A168A11AF
:1009780028250A128A110A168A119B230A128A113B
:10098800831603132B03031DCA2CCB2CF02C8312C4
:100998000313A401A40A02300A168A11DC210A12E0
:1009A8008A11113083120313A4008030A5000A169F
:1009B8008A1128250A128A111A3083120313E900B2
:1009C8005E30E8006D30E700E70BE82CE80BE82C18
:1009D800E90BE82CEF2C7B2D83120313A401A40A46
:1009E80002300A168A11DC210A128A110130831298
:1009F8000313A4008030A5000A168A1128250A12BC
:100A08008A117B2D7B2D0430831603132E06031DBC
:100A18000E2D0F2D6C2D83120313A401A40A01308F
:100A28000A168A11DC210A128A1160308312031314
:100A3800A4008030A5000A168A1128250A128A11F6
:100A48000A168A11CE230A128A11831603132A035F
:100A5800031D2F2D302D552D83120313A401A40A35
:100A680002300A168A11DC210A128A114A308312CE
:100A78000313A4008030A5000A168A1128250A123B
:100A88008A111A3083120313E9005E30E8006D30D2
:100A9800E700E70B4D2DE80B4D2DE90B4D2D542D9F
:100AA8007B2D83120313A401A40A02300A168A11AB
:100AB800DC210A128A11383083120313A400803013
:100AC800A5000A168A1128250A128A117B2D7B2D6A
:100AD8000530831603132E02031C732D742D7B2DF2
:100AE800AE017B2D7B2D7B2D7B2D7B2D7B2D080057
:100AF8008312031327088039A8002808B1002708A3
:100B0800A8002807A9002908B800A61F8C2D8D2D3C
:100B18008F2D38148F2D38080319932D942DA52D5A
:100B2800380A031D982D992DA22D0030A7000030FA
:100B3800A6000030A5000030A400A22DA617A7012A
:100B4800AE2D0030A7000030A6000030A500003010
:100B5800A400AE2D23088039A8002808B106230870
:100B6800A8002807A9002908B900A21FBC2DBD2D7F
:100B7800BF2D3914BF2D39080319C32DC42DD52D08
:100B8800390A031DC82DC92DD22D0030A30000300D
:100B9800A2000030A1000030A000D22DA217A301AE
:100BA800DD2D0030A3000030A2000030A10000308D
:100BB800A0002308220421042004031DE42DE52DB0
:100BC800FF2D0030A7000030A6000030A50000303F
:100BD800A4008030A6047F30A7043108A8002808A4
:100BE800A7042708A3002608A2002508A1002408B6
:100BF800A000842F842F3808031D032E042E162EE0
:100C08000030A7000030A6000030A5000030A40086
:100C18002708A3002608A2002508A1002408A00090
:100C2800842F842F3908A800A901A809A909A80AAE
:100C38000319A90A38082807AA0029080318290A45
:100C4800AB002A087F3EB2002B080318013E003E85
:100C5800B3002708B0002608AF002508AE00240816
:100C6800AD000030A7000030A6000030A50000301D
:100C7800A4000030B7000030B6000030B5000030E6
:100C8800B400B901952E390803194B2E4C2E6E2E3F
:100C98000130A8000310AD0DAE0DAF0DB00DA80BBF
:100CA8004E2E0130A8000310A40DA50DA60DA70D0A
:100CB800A80B572EB71F612E622E642E2414642EA3
:100CC8000130A8000310B40DB50DB60DB70DA80B73
:100CD800662E6E2E23083002031D7C2E22082F025A
:100CE800031D7C2E21082E02031D7C2E20082D02B8
:100CF800031C7F2E802E902E37172008AD02210866
:100D0800031C210FAE022208031C220FAF02230886
:100D1800031C230FB002902E0130A8002808B90741
:100D2800952E1A303902031C9A2E9B2E472E9C2E84
:100D380030082F042E042D040319A32EA42EC62E2A
:100D48003414C62EC62E0130A8000310A40DA50D1C
:100D5800A60DA70DA80BA92EB71FB32EB42EB62E1D
:100D68002414B62E0130A8000310B40DB50DB60D2D
:100D7800B70DA80BB82EFF30B2070318B30AFF301F
:100D8800B307C62EA61FC92ECA2EA72ECB2EB90171
:100D9800B71FCF2ED02EF02EFF303405A800FF301D
:100DA8003505A900FF303605AA007F303705AB00AE
:100DB8002B082A04290428040319E32EE42EE72E1D
:100DC800B901B90AF02E241CEA2EEB2EF02EB90137
:100DD800B90AF02EF02EF02E39080319F42EF52E4C
:100DE800282F0130A407003003180130A507003070
:100DF80003180130A607003003180130A707271C85
:100E0800062F072F282F2408A8002508A900260840
:100E1800AA002708AB000130AC002B0DAB0CAA0CC4
:100E2800A90CA80CAC0B112F2B08A7002A08A600A8
:100E38002908A5002808A4000130B2070318B30A3E
:100E48000030B307282F282F3308803AFF0080305E
:100E58007F02031D312FFF303202031C342F352F40
:100E6800442FFF3083120313B2000030B300003068
:100E7800A7000030A6000030A5000030A400442FD1
:100E8800831203133308803AFF0080307F02031D6A
:100E98004F2F013032020318522F532F602F831225
:100EA8000313B201B3010030A7000030A6000030E0
:100EB800A5000030A400B101831203133208A80072
:100EC8002808B800381C692F6A2F6C2FA617702FB6
:100ED8007F30A8002808A6053808A8000310280CA9
:100EE800A9002908A7003108A8002808A70427088E
:100EF800A3002608A2002508A1002408A000842F2A
:100F08000800FF1B8F2F83137F1883170008840A9C
:100F18000319FF0A080007308A000408840A8207B8
:100F280000345434723461346E3471347534693435
:100F38006C346F3420347034723472346F3420342B
:100F48000034453473347434613420347434653473
:100F58006D3462346C3461346E3464346F342134EB
:100F68000034543465346D3470346534723461340B
:100F780074347534723461343A34003443346F3421
:100F88006E347434613464346F3472343A340034F7
:100F980041347534733465346E34743465342034B4
:100FA8000034543465346D3462346C346F347234C4
:100FB8003A340034503472346534733465346E34E2
:100FC80074346534003446346534633468346134C9
:100FD8003A34003448346F34723461343A3400346B
:100FE800483475346D346F343A3400342F34003457
:040FF800433400344A
:1010000083120313A4002408A200A3017A08230674
:10101000031D0C2879082206031D0F2810282C28F0
:101020002008A200A3017C082306031D19287B08C1
:101030002206031D1C281D282C282108A200A3011C
:101040006F082306031D26286E082206031D292883
:101050002A282C2806152C28080083120313500870
:10106000D4005108D5005208D6005308D700031009
:10107000560D570DD8005808DA005A08031D4128AC
:1010800042284C280030D3000030D2000030D1007C
:101090000030D000C828C8285008D4005108D50016
:1010A0005208D6005308D7001F300310D70CD60CB7
:1010B000D50CD40CFF3E031D55285408D800580801
:1010C000D900D217FF30D005FF30D105FF30D2054F
:1010D0000030D3059630DA02DA1F6F287028952881
:1010E0005A08803A973E03187628772882280030DD
:1010F000D3000030D2000030D1000030D000C8282A
:10110000C828822801300310D30CD20CD10CD00C8B
:10111000FF3E031D83280130D4005408DA07031D65
:10112000922893288228B828B82820305A02031C15
:101130009A289B28B1280030D3000030D20000301C
:10114000D1000030D000C828C828B1280130D40010
:101150000310D00DD10DD20DD30DD40BA828013022
:10116000DA025A08031DB528B628A628B828B828D8
:1011700059080319BC28BD28C828D009D109D209AB
:10118000D309D00A0319D10A0319D20A0319D30AC1
:101190000800831203135E08A7005D08A6005C0820
:1011A000A5005B08A4004230A300C830A2000030B4
:1011B000A1000030A0000A128A117C250A128A15AB
:1011C000831203132308D3002208D2002108D10080
:1011D0002008D0000A128A152D200A128A158312BF
:1011E00003135008DF005F08E2006430A200003003
:1011F000A3006208DF00E0015F08A0006008A10012
:101200000A168A1125220A128A158312031320084E
:10121000A6002108A7000030A71BFF30A800A900E6
:1012200001300A128A1566240A128A1583120313E2
:101230002908B7002808B6002708B5002608B4001A
:101240000A168A110A210A128A1583120313370813
:10125000BF003608BE003508BD003408BC005E087B
:10126000BB005D08BA005C08B9005B08B8000A1250
:101270008A1144200A128A15831203133B08D300F3
:101280003A08D2003908D1003808D0000A128A156D
:101290002D200A128A15831203135008E1006108F9
:1012A000E4000A30A0000030A1006408DF00E00183
:1012B0005F08A2006008A3000A168A1104270A1218
:1012C0008A15831203132008E1006108E300630814
:1012D0000A168A11CE250A128A1583120313DF001B
:1012E0005F08E500650874290800083083120313BD
:1012F000AB002B08A40001300A168A11DC210A1267
:101300008A15831603133308303E0A168A119F216B
:101310000A128A15831603133408303E0A168A11FE
:101320009F210A128A15663083120313A4008030AD
:10133000A5000A168A1128250A128A158316031396
:101340003108303E0A168A119F210A128A15831627
:1013500003133208303E0A168A119F210A128A1599
:10136000663083120313A4008030A5000A168A1188
:1013700028250A128A15831603132F08303E0A16F1
:101380008A119F210A128A15831603133008303EF2
:101390000A168A119F210A128A1508308312031334
:1013A000AB002B08A40002300A168A11DC210A12B5
:1013B0008A15831603133508303E0A168A119F21B9
:1013C0000A128A15831603133608303E0A168A114C
:1013D0009F210A128A15583083120313A40080300B
:1013E000A5000A168A1128250A128A1583160313E6
:1013F0003708303E0A168A119F210A128A15831671
:1014000003133808303E0A168A119F210A128A15E2
:10141000583083120313A4008030A5000A168A11E5
:1014200028250A128A15831603133908303E0A1636
:101430008A119F210A128A157D08303E0A168A11E8
:101440009F210A128A150800831203135E08A70061
:101450005D08A6005C08A5005B08A4004230A3005C
:10146000C830A2000030A1000030A0000A128A118A
:101470007C250A128A15831203132308D30022083D
:10148000D2002108D1002008D0000A128A152D2090
:101490000A128A15831203135008DF005F08E20066
:1014A0006430A2000030A3006208DF00E0015F08A2
:1014B000A0006008A1000A168A1125220A128A15C6
:1014C000831203132008A6002108A7000030A71BE1
:1014D000FF30A800A90001300A128A1566240A12FA
:1014E0008A15831203132908B7002808B6002708B5
:1014F000B5002608B4000A168A110A210A128A15B4
:10150000831203133708BF003608BE003508BD003C
:101510003408BC005E08BB005D08BA005C08B90076
:101520005B08B8000A128A1144200A128A15831235
:1015300003133B08D3003A08D2003908D100380819
:10154000D0000A128A152D200A128A15831203135D
:101550005008E1006108E6000A30A0000030A10058
:101560006608DF00E0015F08A2006008A3000A1619
:101570008A1104270A128A15831203132008E10036
:101580006108E3000A30DF005F08A00063080A1664
:101590008A1169210A128A15FF3A013E8312031348
:1015A0006607E0006008E40064080A168A11CE2588
:1015B0000A128A1583120313DF005F08E50065082D
:1015C000E12A08000A168A11DF200A128A15D03093
:1015D00083120313AD000030AE000A168A11F12009
:1015E0000A128A15003083120313AD00AE000A16EA
:1015F0008A11F1200A128A15831203136F08AA00B8
:101600006E08A9000A168A1101240A128A1583128B
:1016100003132A08AE002908AD000A168A11F1202A
:101620000A128A157C0883120313AA007B08A900FA
:101630000A168A1101240A128A15831203132A0832
:10164000AE002908AD000A168A11F1200A128A1587
:101650007A0883120313AA007908A9000A168A11CE
:1016600001240A128A15831203132A08AE002908DE
:10167000AD000A168A11F1200A128A150130831270
:101680000313AD000030AE000A168A11F1200A12D1
:101690008A1583160313460883120313AA008316C0
:1016A0000313450883120313A9000A168A110124A3
:1016B0000A128A15831203132A08AE002908AD0006
:1016C0000A168A11F1200A128A158316031342089A
:1016D00083120313AA008316031341088312031312
:1016E000A9000A168A1101240A128A15831203130B
:1016F0002A08AE002908AD000A168A11F1200A1244
:101700008A1583160313400883120313AA00831655
:1017100003133F0883120313A9000A168A11012438
:101720000A128A15831203132A08AE002908AD0095
:101730000A168A11F1200A128A150A168A11E8205F
:101740000A128A1508000A168A11B9200A128A1587
:101750000A168A1129210A128A150A168A11C72027
:101760000A128A150A168A1170250A128A15003083
:1017700083120313B1000130B0008630AF00A030F7
:10178000AE000A168A1138240A128A150A168A111E
:10179000BB210A128A15533083120313A400803030
:1017A000A5000A168A1128250A128A158312031326
:1017B000A401A40A02300A168A11DC210A128A1531
:1017C0005A3083120313A4008030A5000A168A1130
:1017D00028250A128A150A128A15E2220A128A1587
:1017E00083160313A501A401AE01F62B0A128A1574
:1017F0006B260A128A150A128A1100230A128A1508
:10180000373083120313EC006C08A0000530ED00A4
:101810006D08A1000A300A168A1179220A128A1567
:10182000373083120313EC006C08A0000A30ED007F
:101830006D08A1000A300A168A11A6220A128A151A
:10184000373083120313EC006C08A0000F30ED005A
:101850006D08A1000A300A128A1500200A128A15A2
:1018600005300A168A11FE210A128A150A168A11F3
:1018700003230A128A150A168A1168230A128A1586
:101880000A168A119B230A128A150A168A11CE2378
:101890000A128A150A168A1177270A128A158316E0
:1018A00003132D03031D552C562C5F2C0A168A1189
:1018B000C0200A128A1583160313AD01F62BAD0161
:1018C000F62BF62BF62B0A128A110C28831203131F
:1018D000AE002E0803196D2C6E2C822CA91F712CC2
:1018E000722C822C2609B0002709B1002809B20009
:1018F0002909B300B00A0319B10A0319B20A03197E
:10190000B30A8A2C2908B3002808B2002708B100BE
:101910002608B0002908280427042604031D912C5A
:10192000922C9C2C0030A9000030A8000030A700A9
:101930000030A600292D292D9630AA002A08AF00D4
:10194000AF2C0130AA002A08AF0701300310B30CF6
:10195000B20CB10CB00CFF3E031DA62CAF2CFE3018
:101960003305031DB42CB52CA12CD22CD22C013064
:10197000AA002A08AF070130B00700300318013071
:10198000B107003003180130B207003003180130EE
:10199000B30701300310B30CB20CB10CB00CFF3E16
:1019A000031DCA2CFF303305031DD72CD82CB72CB0
:1019B000E62CE62C0130AF020130AA000310B00D76
:1019C000B10DB20DB30DAA0BDE2CE62CB21BE92C27
:1019D000EA2CF12C02302F020318EF2CF02CDA2C19
:1019E000F12C2F18F42CF52CFD2CFF30B005FF3016
:1019F000B1057F30B205FF30B3050310AF0C2F08DF
:101A0000AA00AB01AC01AD0118300310AA0DAB0D5B
:101A1000AC0DAD0DFF3E031D052D2A08B0042B08AB
:101A2000B1042C08B2042D08B3042E080319192D93
:101A30001A2D202DA91F1D2D1E2D202DB317202D51
:101A40003308A9003208A8003108A7003008A60012
:101A5000292D08000A3083120313A0000030A100D2
:101A60006F08A3006E08A2000A168A1130260A1217
:101A70008A15831203132008A9002908FD000A30E3
:101A8000A0000030A1006F08A3006E08A2000A1693
:101A90008A1104270A128A15831203132008A90049
:101AA000290883160313B9000A3083120313A00018
:101AB0000030A1007C08A3007B08A2000A168A114E
:101AC00030260A128A15831203132008A900290858
:101AD00083160313B8000A3083120313A0000030EA
:101AE000A1007C08A3007B08A2000A168A11042723
:101AF0000A128A15831203132008A90029088316E5
:101B00000313B7000A3083120313A0000030A100B2
:101B10007A08A3007908A2000A168A1130260A1250
:101B20008A15831203132008A900290883160313BA
:101B3000B6000A3083120313A0000030A1007A0817
:101B4000A3007908A2000A168A1104270A128A152E
:101B5000831203132008A900290883160313B50074
:101B60000A3083120313A0000030A1008316031370
:101B7000460883120313A300831603134508831238
:101B80000313A2000A168A1130260A128A1583123C
:101B900003132008A900290883160313B4000A3090
:101BA00083120313A0000030A1008316031346081C
:101BB00083120313A3008316031345088312031330
:101BC000A2000A168A1104270A128A158312031327
:101BD0002008A900290883160313B3000A308312D2
:101BE0000313A0000030A1008316031342088312E0
:101BF0000313A30083160313410883120313A200E7
:101C00000A168A1130260A128A1583120313200835
:101C1000A900290883160313B2000A3083120313A4
:101C2000A0000030A100831603134208831203139F
:101C3000A30083160313410883120313A2000A169C
:101C40008A1104270A128A15831203132008A90097
:101C5000290883160313B1000A3083120313A0006E
:101C60000030A10083160313400883120313A3005E
:101C7000831603133F0883120313A2000A168A1166
:101C800030260A128A15831203132008A900290896
:101C900083160313B0000A3083120313A000003030
:101CA000A10083160313400883120313A3008316B5
:101CB00003133F0883120313A2000A168A11042794
:101CC0000A128A15831203132008A9002908831613
:101CD0000313AF0008000A168A11DF200A128A15C2
:101CE000D03083120313AD000030AE000A168A1103
:101CF000F1200A128A15003083120313AD00AE00E2
:101D00000A168A11F1200A128A150A168A11E82089
:101D10000A128A150A168A11DF200A128A15D13092
:101D200083120313AD000030AE000A168A11F120B1
:101D30000A128A15003083120313A000A1000A16AC
:101D40008A1135230A128A15831203132108A7006A
:101D50002008A6000A168A114F220A128A15831239
:101D600003132708EF002608EE000A168A11E82060
:101D70000A128A150A168A11DF200A128A15D13032
:101D800083120313AD000030AE000A168A11F12051
:101D90000A128A15003083120313A000A1000A164C
:101DA0008A1135230A128A15831203132108A7000A
:101DB0002008A6000A168A114F220A128A158312D9
:101DC00003132708FC002608FB000A168A11E820E6
:101DD0000A128A150A168A11DF200A128A15D130D2
:101DE00083120313AD000030AE000A168A11F120F1
:101DF0000A128A15003083120313A000A1000A16EC
:101E00008A1135230A128A15831203132108A700A9
:101E10002008A6000A168A114F220A128A15831278
:101E200003132708FA002608F9000A168A11E82089
:101E30000A128A150A168A11DF200A128A15D13071
:101E400083120313AD000030AE000A168A11F12090
:101E50000A128A15003083120313A000A1000A168B
:101E60008A1135230A128A150A168A11E8200A12E5
:101E70008A150A168A11DF200A128A15D1308312B8
:101E80000313AD000030AE000A168A11F1200A12C9
:101E90008A15003083120313A000A1000A168A11CC
:101EA00035230A128A15831203132108A70020087C
:101EB000A6000A168A114F220A128A1583120313EA
:101EC000270883160313C6008312031326088316FC
:101ED0000313C5000A168A11E8200A128A150A1689
:101EE0008A11DF200A128A15D13083120313AD0044
:101EF0000030AE000A168A11F1200A128A1500304D
:101F000083120313A000A1000A168A1135230A12B6
:101F10008A15831203132108A7002008A6000A16B9
:101F20008A114F220A128A15831203132708831677
:101F30000313C20083120313260883160313C10080
:101F40000A168A11E8200A128A150A168A11DF2059
:101F50000A128A15D13083120313AD000030AE008F
:101F60000A168A11F1200A128A150030831203130F
:101F7000A000A1000A168A1135230A128A158312BD
:101F800003132108A7002008A6000A168A114F2271
:101F90000A128A1583120313270883160313C0003D
:101FA00083120313260883160313BF000A168A112F
:101FB000E8200A128A150A168A11E8200A128A15E0
:101FC0000A168A11DF200A128A15D13083120313F0
:101FD000AD000030AE000A168A11F1200A128A15EF
:101FE000003083120313A000A1000A168A113523C2
:101FF0000A128A150A168A11E8200A128A150800A0
:10215C000A3400343734003401300A168A114F2106
:10216C000A168A110800831603130F128F160F1705
:10217C000F14080001300A168A1184210A168A11DC
:10218C0008008B170B178B150B10831603131616E1
:10219C00080064008001840A040603190034040654
:1021AC00D028143400340234003401340034183490
:1021BC0000340A168A11FB200A168A11831603139F
:1021CC00111408000A168A11FB200A168A118316AC
:1021DC000313111508000A168A11FB200A168A111E
:1021EC00831203132D0893000800FC288316031395
:1021FC00141901290229FC2811081F39031D07296C
:10220C000829FC280929080083120313370836040F
:10221C003504340403191329142917298030B706FF
:10222C0017291829080083120313A0001D298316EF
:10223C000313981C222923291D29242983120313F3
:10224C0020089900080083160313850101308800CB
:10225C0089011030860083120313850188018901DE
:10226C008601831603178801890108007E088A00FD
:10227C007F0882000A168A113C210A168A118000F6
:10228C00840A04087D0603190034FF0A0319FE0AA8
:10229C004029F30083120313861373080A168A115C
:1022AC00E9240A168A118312031388170D30F200E1
:1022BC00FB30F100F10B6029F20B602965298312C8
:1022CC0003138813080083120313A300A2016E29C1
:1022DC00231C7129722977292008A1002108A20743
:1022EC0077290310A00D0310A30C2308031D7F29CD
:1022FC0080296E298129220883290800831203135F
:10230C00A300861323080A168A11AC240A168A1114
:10231C008312031388170D3083120313A200FB30B2
:10232C00A100A10B9729A20B9729831203138813E1
:10233C00080083120313A300861723080A168A11B8
:10234C00AC240A168A1183120313881706308312E1
:10235C000313A2002F30A100A10BB229A20BB229AA
:10236C00B7298312031388130800831603138717E6
:10237C00071383160317071287110710831603130D
:10238C00981618121813181583120313981718138C
:10239C00181619308316031399001812831203139D
:1023AC009817181683160313981608008312031334
:1023BC00A5002503031DE329E429EC2924087F3E0D
:1023CC000A168A1184210A168A11FD2902308312F9
:1023DC0003132506031DF329F429FD292408BF3E08
:1023EC000A168A1184210A168A11FD29FD29080072
:1023FC0083120313A2000A3079067A04031D072AFC
:10240C00082A242A37307B067C04031D0E2A0F2A47
:10241C00242A22080F3EA000003003180130A1002E
:10242C006F082106031D1C2A6E082006031D1F2A97
:10243C00202A242A061086100611242A080083124A
:10244C000313A401A5012A2A201C2D2A2E2A342A82
:10245C002208A4070318A50A2308A50701300310B6
:10246C00A20DA30DFF3E031D352A01300310A10C54
:10247C00A00CFF3E031D3C2A20082104031D472A03
:10248C00482A2A2A492A2508A1002408A0004E2AF5
:10249C0008000F30831203132605A800003027050F
:1024AC00A900260E0F39A000270EF039A004270E24
:1024BC000F39A100F030A11D0030A1040A30A20098
:1024CC000030A3000A168A1125220A168A118312DB
:1024DC00031328082007A60029080318290A210736
:1024EC00A700782A080083120313A4002408A20072
:1024FC00A3017A082306031D852A79082206031DE9
:10250C00882A892AA52A2008A200A3017C08230670
:10251C00031D922A7B082206031D952A962AA52ABA
:10252C002108A200A3016F082306031D9F2A6E0831
:10253C002206031DA22AA32AA52A0614A52A0800EE
:10254C0083120313A4002408A200A3017A08230613
:10255C00031DB22A79082206031DB52AB62AD22AEF
:10256C002008A200A3017C082306031DBF2A7B08B8
:10257C002206031DC22AC32AD22A2108A200A301C3
:10258C006F082306031DCC2A6E082206031DCF2AD2
:10259C00D02AD22A8614D22A08000B1CD62AD72A73
:1025AC00FC2A0B1083120313061EDD2ADE2AFC2ADA
:1025BC000130F400740883160313AE070A168A114F
:1025CC00B2200A168A1183160313AD01AD0A02302C
:1025DC00F6000430F500BA30F400F40BF32AF50BD6
:1025EC00F32AF60BF32A0000FC2AFC2A78088A004E
:1025FC00770E8300FE0E7E0E09008312031308185B
:10260C00082B092B0E2B83160313A701A70A2B2BC0
:10261C00831603132703031D142B152B2B2B0130AF
:10262C0083120313A000200883160313A907A70124
:10263C00073083120313A1007C30A000A00B242BC5
:10264C00A10B242B00002B2B2B2B83160313290AF5
:10265C00031D312B322B342BA901342B08000A1605
:10266C008A11FB200A168A118316031391150A1678
:10267C008A11FB200A168A11831203131308A20075
:10268C00A3012208A4002308A5000A168A11FB2026
:10269C000A168A118312031320032104031D572BDE
:1026AC00582B5C2B8316031391125F2B8316031389
:1026BC0091161116831203132508A1002408A000FB
:1026CC00672B08000A168A11DF200A168A111130AE
:1026DC0083120313AD000030AE000A168A11F120EC
:1026EC000A168A11003083120313A000A1000A16E7
:1026FC008A1135230A168A11831203132008AF009E
:10270C002F0883160313AC000A168A11E8200A1648
:10271C008A11073083120313B0007C30AF00AF0B6B
:10272C00952BB00B952B000008000A168A11DF20A0
:10273C000A168A11213083120313AD000030AE004B
:10274C000A168A11F1200A168A110030831203131B
:10275C00A000A1000A168A1135230A168A118312C9
:10276C0003132008AF002F0883160313AB000A16BF
:10277C008A11E8200A168A11073083120313B0005D
:10278C007C30AF00AF0BC82BB00BC82B000008007F
:10279C000A168A11DF200A168A11313083120313AC
:1027AC00AD000030AE000A168A11F1200A168A110B
:1027BC00003083120313A000A1000A168A113523DE
:1027CC000A168A11831203132008AF002F088316F0
:1027DC000313AA000A168A11E8200A168A11073078
:1027EC0083120313B0007C30AF00AF0BFB2BB00B8C
:1027FC00FB2B000008000A3083120313A0000030EA
:10280C00A1002A08A3002908A2000A168A1104278D
:10281C000A168A11831203132008AB002108AC009E
:10282C00AB0EAC0EF030AC052B080F39AC04F0300D
:10283C00AB050A30A0000030A1002A08A30029082B
:10284C00A2000A168A1130260A168A118312031363
:10285C0020082B07A90021080318210A2C07AA001D
:10286C00372C0800283083120313940083160313AB
:10287C009101831203132E08B2002F08B300300805
:10288C00B4003108B50002300310B20DB30DB40D15
:10289C00B50DFF3E031D4A2C3508A3003408A200D9
:1028AC003308A1003208A0000030A7007A30A6003F
:1028BC001230A5000030A4000A168A1195260A16BB
:1028CC008A11831203132008FF3E8316031393000F
:1028DC009401871507160800831203135E08A700DE
:1028EC005D08A6005C08A5005B08A4004230A300AC
:1028FC00C830A2000030A1000030A0000A128A11DA
:10290C007C250A168A11831203132308D30022088C
:10291C00D2002108D1002008D0000A128A152D20DF
:10292C000A168A11831203135008DF005F08E000B7
:10293C0060080A168A11CE250A168A11831203130F
:10294C00DF005F08E1006108AB2C08008312031361
:10295C00A000201CB22CB32CB52C0514B62C0510E1
:10296C00A01CB92CBA2CBC2C8514BD2C8510201D98
:10297C00C02CC12CC32C0515C42C0511A01DC72CB3
:10298C00C82CCA2C8515CB2C8511201ECE2CCF2CF7
:10299C00D12C0516D22C0512A01ED52CD62CD82C39
:1029AC008516D92C8512201FDC2CDD2CDF2C05176D
:1029BC00E02C0513A01FE32CE42CE62C8517E82C47
:1029CC008513E82C0800F000701CED2CEE2CF22C7A
:1029DC00831203130514F52C831203130510F01C3A
:1029EC00F82CF92CFB2C8514FC2C8510701DFF2C5D
:1029FC00002D022D0515032D0511F01D062D072D9B
:102A0C00092D85150A2D8511701E0D2D0E2D102DDD
:102A1C000516112D0512F01E142D152D172D8516CA
:102A2C00182D8512701F1B2D1C2D1E2D05171F2DEB
:102A3C000513F01F222D232D252D8517272D8513EA
:102A4C00272D080083120313A901AA01522D29086E
:102A5C002407A7002508A6000318A60AA91F372DCE
:102A6C00A603831203132608A8002808FF002708D2
:102A7C0084000A128A1185270A168A110A168A11ED
:102A8C009F210A168A11013083120313A907031818
:102A9C00AA0A0030AA07522D29082407A7002508E6
:102AAC00A6000318A60AA91F5C2DA6038312031304
:102ABC002608A8002808FF00270884000A128A119B
:102ACC0085270A168A11003A031D6D2D6E2D2D2DAA
:102ADC006F2D0800143083120313A5007930A40065
:102AEC00A40B762DA50B762D00300A168A11AC247A
:102AFC000A168A111A3083120313A500F730A400AA
:102B0C00A40B862DA50B862D8B2D30300A168A1121
:102B1C0084210A168A11073083120313A5007C3016
:102B2C00A400A40B972DA50B972D000030300A168E
:102B3C008A1184210A168A11343083120313A400DB
:102B4C00A40BA62D000030300A168A1184210A1617
:102B5C008A1138300A168A1184210A168A1110300B
:102B6C000A168A1184210A168A1101300A168A1152
:102B7C0084210A168A1106300A168A1184210A1633
:102B8C008A110C300A168A1184210A168A1108003F
:102B9C0083120313A200052E3030A0002008A300DE
:102BAC002D2E3130A0002008A3002D2E3230A00095
:102BBC002008A3002D2E3330A0002008A3002D2EBA
:102BCC003430A0002008A3002D2E3530A0002008A2
:102BDC00A3002D2E3630A0002008A3002D2E373058
:102BEC00A0002008A3002D2E3830A0002008A30040
:102BFC002D2E3930A0002008A3002D2E2D2E2208BA
:102C0C00A000A1012108003A03190D2E2D2E200839
:102C1C00003A0319D22D013A0319D72D033A03199F
:102C2C00DC2D013A0319E12D073A0319E62D013A7F
:102C3C000319EB2D033A0319F02D013A0319F52D65
:102C4C000F3A0319FA2D013A0319FF2D2D2E2308E3
:102C5C002F2E080083120313A601A31F362E372E26
:102C6C003F2EA209A309A20A0319A30AA601A60AC8
:102C7C003F2EA11F422E432E492EA009A109A00AC6
:102C8C000319A10A492E2008210403194E2E4F2E98
:102C9C00842EA501A50A5E2E01300310A00DA10DF6
:102CAC00FF3E031D532E0130A4002408A5075E2E01
:102CBC00A11F612E622E522E642E642E2108230237
:102CCC00031D6A2E20082202031C6D2E6E2E752EFB
:102CDC002008A2022108031CA303A302752E0130B5
:102CEC000310A10CA00CFF3E031D762E0130A50293
:102CFC00031D812E822E642E842E842E2608031909
:102D0C00882E892E8F2EA209A309A20A0319A30AC1
:102D1C008F2E2308A1002208A000942E080000305A
:102D2C0083120313AC000030AB000030AA0000305B
:102D3C00A90023082204210420040319A62EA72E7F
:102D4C00FA2EAD01AD0AB82E0130A8000310A00D6B
:102D5C00A10DA20DA30DA80BAC2E0130A8002808C4
:102D6C00AD07B82EA31FBB2EBC2EAA2EBE2EBE2E78
:102D7C000130A8000310A90DAA0DAB0DAC0DA80BCA
:102D8C00C02E23082702031DD52E22082602031D60
:102D9C00D52E21082502031DD52E20082402031C44
:102DAC00D82ED92EE92E2008A4022108031C210FAD
:102DBC00A5022208031C220FA6022308031C230FC2
:102DCC00A7022914E92E01300310A30CA20CA10CAC
:102DDC00A00CFF3E031DEA2E0130AD02031DF72EA1
:102DEC00F82EBE2EFA2EFA2E2C08A3002B08A200C9
:102DFC002A08A1002908A000032F0800831203133E
:102E0C00A601A11F0A2F0B2F132FA009A109A00A9D
:102E1C000319A10AA601A60A132FA31F162F172FF9
:102E2C00212FA209A309A20A0319A30A0130A400A5
:102E3C002408A606212FA701A801200821040319A4
:102E4C00282F292F662FA501A50A382F0130031032
:102E5C00A00DA10DFF3E031D2D2F0130A400240851
:102E6C00A507382FA11F3B2F3C2F2C2F3E2F3E2F79
:102E7C0001300310A70DA80DFF3E031D3F2F2108A5
:102E8C002302031D4B2F20082202031C4E2F4F2F11
:102E9C00572F2008A2022108031CA303A302271406
:102EAC00572F01300310A10CA00CFF3E031D582F0F
:102EBC000130A502031D632F642F3E2F662F662F52
:102ECC00260803196A2F6B2F712FA709A809A70AC7
:102EDC000319A80A712F2808A1002708A000762F33
:102EEC000800C8300A168A1119210A168A11831291
:102EFC0003136E080A168A1119210A168A11C93091
:102F0C000A168A1119210A168A117B080A168A11C7
:102F1C0019210A168A11CA300A168A1119210A16A1
:102F2C008A1179080A168A1119210A168A11CB30CE
:102F3C000A168A1119210A168A11831603134508D9
:102F4C000A168A1119210A168A11CC300A168A110E
:102F5C0019210A168A118316031341080A168A11BD
:102F6C0019210A168A11CD300A168A1119210A164E
:102F7C008A11831603133F080A168A1119210A169F
:102F8C008A11CE300A168A1119210A168A11831653
:102F9C00031329080A168A1119210A168A11CF302F
:102FAC000A168A1119210A168A11831603132C0882
:102FBC000A168A1119210A168A11D0300A168A119A
:102FCC0019210A168A11831603132A080A168A1164
:102FDC0019210A168A11D1300A168A1119210A16DA
:102FEC008A11831603132B080A168A1119210A1643
:042FFC008A1108002E
:04400E00D4E0FFFFFC
:00000001FF
