:020000040000FA
:060000000A128A110C280F
:10000800FE00030EF7000A08F8000A168A115C2B96
:100018000A128A110F288313C730FD001130FE0021
:100028006030FF00BF3084000A168A11C9210A1205
:100038008A110A168A1137210A128A11F9000A163A
:100048008A1138210A128A11FA000A168A113921EE
:100058000A128A11FB000A168A113A210A128A1119
:10006800FC00A0308400BF300A168A1158210A12F9
:100078008A11EE01EF01FD0183010A128A15A32BF3
:10008800831203133B088039C0004008CC003B08AA
:10009800C0004007C1004108CE00BA1F54285528A7
:1000A80057284E1457284E0803195B285C286D28DA
:1000B8004E0A031D602861286A280030BB00003002
:1000C800BA000030B9000030B8006A28BA17BB017E
:1000D80076280030BB000030BA000030B90000308C
:1000E800B80076283F088039C0004008CD004D0888
:1000F8004C0603198028812883284C1783283F0839
:10010800C0004007C1004108CD00BE1F8C288D28C3
:100118008F284D148F284D08031993289428A52853
:100128004D0A031D98289928A2280030BF000030E6
:10013800BE000030BD000030BC00A228BE17BF01C1
:10014800AD280030BF000030BE000030BD000030D8
:10015800BC004E084D020318B228B328F9284C1FDA
:10016800B628B728BC288030C0004008CC06BC2878
:100178004E08C0004008CF004D08C0004008CE001F
:100188004F08C0004008CD003808C0004008CF0024
:100198003C08C0004008B8004F08C0004008BC0038
:1001A8003908C0004008CF003D08C0004008B90029
:1001B8004F08C0004008BD003A08C0004008CF0002
:1001C8003E08C0004008BA004F08C0004008BE0002
:1001D8003B08C0004008CF003F08C0004008BB00F3
:1001E8004F08C0004008BF00F928CF014E08C000E2
:1001F800C101C009C109C00A0319C10A4D08400755
:10020800C20041080318410AC3004308803AFF00AE
:1002180080307F02031D12291A304202031C15295F
:1002280016295729831203133B083A043904380462
:10023800031D1F292129013022290030C000400850
:10024800CF000030BB000030BA000030B9000030E9
:10025800B8004D08C0004008CE00602957294F1C3F
:100268003629372940294F08C0000310400C0138AF
:10027800C1004108CF0043290310CF0C4329381C83
:10028800462947294929CF1749290130C0003B0D84
:10029800BB0CBA0CB90CB80CC00B4B290130C00010
:1002A8004008CE075729831203134D084E02031C3A
:1002B8005E295F29332960294C1B63296429B329E6
:1002C8004E08031D6829692973290030BB000030D6
:1002D800BA000030B9000030B800FF2AFF2A3C08F5
:1002E800B8073D0803110318013E03197C29B90713
:1002F8003E0803110318013E03198329BA073F0872
:1003080003110318013E03198A29BB073B1C8D29D9
:100318008E297C2A4F1C912992299B294F08C000BD
:100328000310400C0138C1004108CF009E2903107A
:10033800CF0C9E29381CA129A229A429CF17A429AA
:100348000130C0003B0DBB0CBA0CB90CB80CC00B8B
:10035800A6290130C0004008CE077C2A7C2A3B0829
:10036800803AFF003F08803A7F02031DC5293E08F6
:100378003A02031DC5293D083902031DC5293C0859
:1003880038020318C829C9292F2AFF30C000FF30B6
:10039800C100FF30C200FF30C3003C08C4003D0864
:1003A800C5003E08C6003F08C7003809C80039091B
:1003B800C9003A09CA003B09CB00C80A0319C90A8F
:1003C8000319CA0A0319CB0A4808C40749080318BD
:1003D800490FEF29F029C5074A0803184A0FF529DC
:1003E800F629C6074B0803184B0AC7074408C00775
:1003F80045080318450F012A022AC10746080318B1
:10040800460F072A082AC20747080318470AC307DE
:100418004308BB004208BA004108B9004008B800C8
:100428008030C0004008CC06CF09CF0A4F08031D12
:100438001E2A1F2A3D2A0130B80700300318013050
:10044800B907003003180130BA070030031801302B
:10045800BB073D2A3D2A3C08B8023D08031C3D0F56
:10046800B9023E08031C3E0FBA023F08031C3F0FA7
:10047800BB023B083A0439043804031D442A452AC0
:10048800762A4F08031D492A4A2A762A0030BB00DB
:100498000030BA000030B9000030B800FF2AFF2A47
:1004A800762A0130C0000310B80DB90DBA0DBB0D86
:1004B800C00B572ACF1F612A622A632A38144F1C9F
:1004C800662A672A6A2A0314CF0D6D2A0310CF0DF6
:1004D8006D2A4E080319712A722A762A0130CE0233
:1004E800762A762ABA1F792A7A2A552A7C2A7C2AD9
:1004F800CD01CF1F802A812A932A4F087F390319FB
:10050800862A872A8A2ACD01CD0A932A381C8D2A61
:100518008E2A932ACD01CD0A932A932A932A4D082D
:100528000319972A982ACE2A0130B80700300318F1
:100538000130B907003003180130BA07003003183A
:100548000130BB073B1CA92AAA2ACE2A3808C000BA
:100558003908C1003A08C2003B08C3000130C40092
:10056800430DC30CC20CC10CC00CC40BB42A430805
:10057800BB004208BA004108B9004008B8004E0A5A
:100588000319C72AC82ACE2A0130C0004008CE075E
:10059800CE2ACE2A4E0A0319D22AD32AD92A4E089D
:1005A800031DD72AD82AE92AD92A0030BB000030EF
:1005B800BA000030B9000030B8004E08031DE52A23
:1005C800E62AE92ACC01E92AE92A4E1CEC2AED2A76
:1005D800EF2ABA17F32A7F30C0004008BA054E0840
:1005E800C0000310400CC1004108BB00CC1FFD2A0D
:1005F800FE2AFF2ABB170800831603132E08031DC3
:10060800062B072B3C2B83120313A401A40A0130E9
:100618000A168A1165220A128A11533083120313AB
:10062800A4008030A5000A168A11B1250A128A1181
:1006380083120313A401A40A02300A168A11652240
:100648000A128A115A3083120313A4008030A500BD
:100658000A168A11B1250A128A110A128A152A2540
:100668000A128A110A128A1575210A128A116B2D2B
:10067800831603132E03031D422B432B8E2B831249
:100688000313A401A40A01300A168A1165220A126A
:100698008A112E3083120313A4008030A5000A1695
:1006A8008A11B1250A128A1183120313A401A40A1C
:1006B80002300A168A1165220A128A110A30831634
:1006C80003132906031D692B6A2B742B013083122F
:1006D8000313E700670883160313A807A901742BFF
:1006E8000A302806031D792B7A2B7D2BA901A80136
:1006F8007D2B2808303E0A168A1128220A128A11F0
:10070800831603132908303E0A168A1128220A1272
:100718008A116B2D0230831603132E06031D952BA9
:10072800962BA22C83120313A401A40A01300A16E3
:100738008A1165220A128A11213083120313A40038
:100748008030A5000A168A11B1250A128A110A16E4
:100758008A11F1230A128A1183120313A401A40A2D
:1007680002300A168A1165220A128A1183160313A7
:100778002C0883120313E700E801E901EA016A087B
:10078800A9006908A8006808A7006708A600003043
:100798000A128A1566240A128A1183120313290879
:1007A80083160313CA00831203132808831603133E
:1007B800C90083120313270883160313C800831282
:1007C8000313260883160313C7004A08831203136A
:1007D800DE0083160313490883120313DD00831612
:1007E8000313480883120313DC0083160313470816
:1007F80083120313DB000A128A1524220A128A11B3
:1008080083120313E700670883160313BC002C0840
:1008180083120313E700E801E901EA016A08A90065
:100828006908A8006808A7006708A60000300A122F
:100838008A1566240A128A1183120313290883165B
:100848000313CE0083120313280883160313CD0065
:1008580083120313270883160313CC008312031390
:10086800260883160313CB004E0883120313DE00F9
:10087800831603134D0883120313DD008316031335
:100888004C0883120313DC00831603134B088312EE
:100898000313DB000A128A15C9200A128A1183126F
:1008A8000313E700670883160313BB002C088312A1
:1008B8000313E700E801E901EA016A08A9006908E9
:1008C800A8006808A7006708A60000300A128A1561
:1008D80066240A128A11831203132908DE002808E5
:1008E800DD002708DC002608DB000A168A11FB2435
:1008F8000A128A1183120313EB006B088316031381
:10090800BA00BA3083120313A4000030A5000A16F7
:100918008A11B1250A128A11DF300A168A11282293
:100928000A128A11683083120313A4008030A500CC
:100938000A168A11B1250A128A116B2D0330831603
:1009480003132E06031DA92CAA2C062D83120313AC
:10095800A401A40A01300A168A1165220A128A1112
:10096800413083120313A4008030A5000A168A11AF
:10097800B1250A128A110A168A1124240A128A1128
:10098800831603132B03031DCA2CCB2CEF2C8312C5
:100998000313A401A40A02300A168A1165220A1256
:1009A8008A11113083120313A4008030A5000A169F
:1009B8008A11B1250A128A11103083120313E90033
:1009C8003930E8000D30E700E70BE82CE80BE82C9D
:1009D800E90BE82C6B2D83120313A401A40A02303F
:1009E8000A168A1165220A128A110130831203132A
:1009F800A4008030A5000A168A11B1250A128A11AE
:100A08006B2D6B2D0430831603132E06031D0D2D3D
:100A18000E2D5C2D83120313A401A40A01300A16BB
:100A28008A1165220A128A11603083120313A40006
:100A38008030A5000A168A11B1250A128A110A16F1
:100A48008A1157240A128A11831603132A03031DD5
:100A58002E2D2F2D452D83120313A401A40A023035
:100A68000A168A1165220A128A114A308312031360
:100A7800A4008030A5000A168A11B1250A128A112D
:100A88006B2D83120313A401A40A02300A168A11DB
:100A980065220A128A11383083120313A4008030A9
:100AA800A5000A168A11B1250A128A116B2D6B2D21
:100AB8000530831603132E02031C632D642D6B2D42
:100AC800AE016B2D6B2D6B2D6B2D6B2D6B2D0800D7
:100AD8008312031327088039A8002808B1002708C3
:100AE800A8002807A9002908B800A61F7C2D7D2D7D
:100AF8007F2D38147F2D38080319832D842D952DCB
:100B0800380A031D882D892D922D0030A70000304A
:100B1800A6000030A5000030A400922DA617A7015A
:100B28009E2D0030A7000030A6000030A500003040
:100B3800A4009E2D23088039A8002808B1062308A0
:100B4800A8002807A9002908B900A21FAC2DAD2DBF
:100B5800AF2D3914AF2D39080319B32DB42DC52D78
:100B6800390A031DB82DB92DC22D0030A30000305D
:100B7800A2000030A1000030A000C22DA217A301DE
:100B8800CD2D0030A3000030A2000030A1000030BD
:100B9800A0002308220421042004031DD42DD52DF0
:100BA800EF2D0030A7000030A6000030A50000306F
:100BB800A4008030A6047F30A7043108A8002808C4
:100BC800A7042708A3002608A2002508A1002408D6
:100BD800A000742F742F3808031DF32DF42D062E52
:100BE8000030A7000030A6000030A5000030A400A7
:100BF8002708A3002608A2002508A1002408A000B1
:100C0800742F742F3908A800A901A809A909A80AEE
:100C18000319A90A38082807AA0029080318290A65
:100C2800AB002A087F3EB2002B080318013E003EA5
:100C3800B3002708B0002608AF002508AE00240836
:100C4800AD000030A7000030A6000030A50000303D
:100C5800A4000030B7000030B6000030B500003006
:100C6800B400B901852E390803193B2E3C2E5E2E9F
:100C78000130A8000310AD0DAE0DAF0DB00DA80BDF
:100C88003E2E0130A8000310A40DA50DA60DA70D3A
:100C9800A80B472EB71F512E522E542E2414542E13
:100CA8000130A8000310B40DB50DB60DB70DA80B93
:100CB800562E5E2E23083002031D6C2E22082F02AA
:100CC800031D6C2E21082E02031D6C2E20082D02F8
:100CD800031C6F2E702E802E37172008AD022108B6
:100CE800031C210FAE022208031C220FAF022308A7
:100CF800031C230FB002802E0130A8002808B90772
:100D0800852E1A303902031C8A2E8B2E372E8C2EF4
:100D180030082F042E042D040319932E942EB62E7A
:100D28003414B62EB62E0130A8000310A40DA50D5C
:100D3800A60DA70DA80B992EB71FA32EA42EA62E7D
:100D48002414A62E0130A8000310B40DB50DB60D5D
:100D5800B70DA80BA82EFF30B2070318B30AFF304F
:100D6800B307B62EA61FB92EBA2E972EBB2EB901E1
:100D7800B71FBF2EC02EE02EFF303405A800FF306D
:100D88003505A900FF303605AA007F303705AB00CE
:100D98002B082A04290428040319D32ED42ED72E6D
:100DA800B901B90AE02E241CDA2EDB2EE02EB90197
:100DB800B90AE02EE02EE02E39080319E42EE52EBC
:100DC800182F0130A407003003180130A5070030A0
:100DD80003180130A607003003180130A707271CA5
:100DE800F62EF72E182F2408A8002508A900260893
:100DF800AA002708AB000130AC002B0DAB0CAA0CE5
:100E0800A90CA80CAC0B012F2B08A7002A08A600D8
:100E18002908A5002808A4000130B2070318B30A5E
:100E28000030B307182F182F3308803AFF0080309E
:100E38007F02031D212FFF303202031C242F252F90
:100E4800342FFF3083120313B2000030B300003098
:100E5800A7000030A6000030A5000030A400342F01
:100E6800831203133308803AFF0080307F02031D8A
:100E78003F2F013032020318422F432F502F831285
:100E88000313B201B3010030A7000030A600003000
:100E9800A5000030A400B101831203133208A80092
:100EA8002808B800381C592F5A2F5C2FA617602F16
:100EB8007F30A8002808A6053808A8000310280CC9
:100EC800A9002908A7003108A8002808A7042708AE
:100ED800A3002608A2002508A1002408A000742F5A
:100EE8000800C8300A168A11A2210A128A11831230
:100EF80003136E080A168A11A2210A128A11C93030
:100F08000A168A11A2210A128A117B080A168A1166
:100F1800A2210A128A11CA300A168A11A2210A12BB
:100F28008A1179080A168A11A2210A128A11CB306D
:100F38000A168A11A2210A128A1183160313450878
:100F48000A168A11A2210A128A11CC300A168A11AD
:100F5800A2210A128A118316031341080A168A115C
:100F6800A2210A128A11CD300A168A11A2210A1268
:100F78008A11831603133F080A168A11A2210A123E
:100F88008A11CE300A168A11A2210A128A118316F2
:100F9800031329080A168A11A2210A128A11CF30CE
:100FA8000A168A11A2210A128A11831603132C0821
:100FB8000A168A11A2210A128A11D0300A168A1139
:100FC800A2210A128A11831603132A080A168A1103
:100FD800A2210A128A11D1300A168A11A2210A12F4
:100FE8008A11831603132B080A168A11A2210A12E2
:040FF8008A11080052
:1010000083120313A4002408A200A3017A08230674
:10101000031D0C2879082206031D0F2810282C28F0
:101020002008A200A3017C082306031D19287B08C1
:101030002206031D1C281D282C282108A200A3011C
:101040006F082306031D26286E082206031D292883
:101050002A282C2806152C28080083120313500870
:10106000D4005108D5005208D6005308D700031009
:10107000560D570DD8005808DA005A08031D4128AC
:1010800042284C280030D3000030D2000030D1007C
:101090000030D000C828C8285008D4005108D50016
:1010A0005208D6005308D7001F300310D70CD60CB7
:1010B000D50CD40CFF3E031D55285408D800580801
:1010C000D900D217FF30D005FF30D105FF30D2054F
:1010D0000030D3059630DA02DA1F6F287028952881
:1010E0005A08803A973E03187628772882280030DD
:1010F000D3000030D2000030D1000030D000C8282A
:10110000C828822801300310D30CD20CD10CD00C8B
:10111000FF3E031D83280130D4005408DA07031D65
:10112000922893288228B828B82820305A02031C15
:101130009A289B28B1280030D3000030D20000301C
:10114000D1000030D000C828C828B1280130D40010
:101150000310D00DD10DD20DD30DD40BA828013022
:10116000DA025A08031DB528B628A628B828B828D8
:1011700059080319BC28BD28C828D009D109D209AB
:10118000D309D00A0319D10A0319D20A0319D30AC1
:101190000800831203135E08A7005D08A6005C0820
:1011A000A5005B08A4004230A300C830A2000030B4
:1011B000A1000030A0000A128A116C250A128A15BB
:1011C000831203132308D3002208D2002108D10080
:1011D0002008D0000A128A152D200A128A158312BF
:1011E00003135008DF005F08E2006430A200003003
:1011F000A3006208DF00E0015F08A0006008A10012
:101200000A168A11AE220A128A15831203132008C5
:10121000A6002108A7000030A71BFF30A800A900E6
:1012200001300A128A1566240A128A1583120313E2
:101230002908B7002808B6002708B5002608B4001A
:101240000A168A1193210A128A158312031337088A
:10125000BF003608BE003508BD003408BC005E087B
:10126000BB005D08BA005C08B9005B08B8000A1250
:101270008A1144200A128A15831203133B08D300F3
:101280003A08D2003908D1003808D0000A128A156D
:101290002D200A128A15831203135008E1006108F9
:1012A000E4000A30A0000030A1006408DF00E00183
:1012B0005F08A2006008A3000A168A118D270A128F
:1012C0008A15831203132008E1006108E300630814
:1012D0000A168A1157260A128A1583120313DF0091
:1012E0005F08E500650874290800083083120313BD
:1012F000AB002B08A40001300A168A1165220A12DD
:101300008A15831603133308303E0A168A112822E1
:101310000A128A15831603133408303E0A168A11FE
:1013200028220A128A15663083120313A400803023
:10133000A5000A168A11B1250A128A15831603130D
:101340003108303E0A168A1128220A128A1583169D
:1013500003133208303E0A168A1128220A128A150F
:10136000663083120313A4008030A5000A168A1188
:10137000B1250A128A15831603132F08303E0A1668
:101380008A1128220A128A15831603133008303E68
:101390000A168A1128220A128A15083083120313AA
:1013A000AB002B08A40002300A168A1165220A122B
:1013B0008A15831603133508303E0A168A1128222F
:1013C0000A128A15831603133608303E0A168A114C
:1013D00028220A128A15583083120313A400803081
:1013E000A5000A168A11B1250A128A15831603135D
:1013F0003708303E0A168A1128220A128A158316E7
:1014000003133808303E0A168A1128220A128A1558
:10141000583083120313A4008030A5000A168A11E5
:10142000B1250A128A15831603133908303E0A16AD
:101430008A1128220A128A157D08303E0A168A115E
:1014400028220A128A150800831203135E08A700D7
:101450005D08A6005C08A5005B08A4004230A3005C
:10146000C830A2000030A1000030A0000A128A118A
:101470006C250A128A15831203132308D30022084D
:10148000D2002108D1002008D0000A128A152D2090
:101490000A128A15831203135008DF005F08E20066
:1014A0006430A2000030A3006208DF00E0015F08A2
:1014B000A0006008A1000A168A11AE220A128A153D
:1014C000831203132008A6002108A7000030A71BE1
:1014D000FF30A800A90001300A128A1566240A12FA
:1014E0008A15831203132908B7002808B6002708B5
:1014F000B5002608B4000A168A1193210A128A152B
:10150000831203133708BF003608BE003508BD003C
:101510003408BC005E08BB005D08BA005C08B90076
:101520005B08B8000A128A1144200A128A15831235
:1015300003133B08D3003A08D2003908D100380819
:10154000D0000A128A152D200A128A15831203135D
:101550005008E1006108E6000A30A0000030A10058
:101560006608DF00E0015F08A2006008A3000A1619
:101570008A118D270A128A15831203132008E100AD
:101580006108E3000A30DF005F08A00063080A1664
:101590008A11F2210A128A15FF3A013E83120313BF
:1015A0006607E0006008E40064080A168A115726FE
:1015B0000A128A1583120313DF005F08E50065082D
:1015C000E12A08000A168A1168210A128A15D03009
:1015D00083120313AD000030AE000A168A117A217F
:1015E0000A128A15003083120313AD00AE000A16EA
:1015F0008A117A210A128A15831203136F08AA002E
:101600006E08A9000A168A118A240A128A15831202
:1016100003132A08AE002908AD000A168A117A21A0
:101620000A128A157C0883120313AA007B08A900FA
:101630000A168A118A240A128A15831203132A08A9
:10164000AE002908AD000A168A117A210A128A15FD
:101650007A0883120313AA007908A9000A168A11CE
:101660008A240A128A15831203132A08AE00290855
:10167000AD000A168A117A210A128A1501308312E6
:101680000313AD000030AE000A168A117A210A1247
:101690008A1583160313460883120313AA008316C0
:1016A0000313450883120313A9000A168A118A241A
:1016B0000A128A15831203132A08AE002908AD0006
:1016C0000A168A117A210A128A1583160313420810
:1016D00083120313AA008316031341088312031312
:1016E000A9000A168A118A240A128A158312031382
:1016F0002A08AE002908AD000A168A117A210A12BA
:101700008A1583160313400883120313AA00831655
:1017100003133F0883120313A9000A168A118A24AF
:101720000A128A15831203132A08AE002908AD0095
:101730000A168A117A210A128A150A168A1171214B
:101740000A128A1508000A168A1142210A128A15FD
:101750000A168A11B2210A128A150A168A11502114
:101760000A128A150A168A11F9250A128A150030FA
:1017700083120313B1000130B0008630AF00A030F7
:10178000AE000A168A11C1240A128A150A168A1195
:1017900044220A128A15533083120313A4008030A6
:1017A000A5000A168A11B1250A128A15831203139D
:1017B000A401A40A02300A168A1165220A128A15A7
:1017C0005A3083120313A4008030A5000A168A1130
:1017D000B1250A128A150A128A15E2220A128A15FE
:1017E00083160313A501A401AE01F62B0A128A1574
:1017F0006B260A128A150A128A1100230A128A1508
:10180000373083120313EC006C08A0000530ED00A4
:101810006D08A1000A300A168A1102230A128A15DD
:10182000373083120313EC006C08A0000A30ED007F
:101830006D08A1000A300A168A112F230A128A1590
:10184000373083120313EC006C08A0000F30ED005A
:101850006D08A1000A300A128A1500200A128A15A2
:1018600005300A168A1187220A128A150A168A1169
:101870008C230A128A150A168A11F1230A128A1574
:101880000A168A1124240A128A150A168A11572464
:101890000A128A150A128A1175270A128A158316E6
:1018A00003132D03031D552C562C5F2C0A168A1189
:1018B00049210A128A1583160313AD01F62BAD01D7
:1018C000F62BF62BF62B0A128A110C28831203131F
:1018D000AE002E0803196D2C6E2C822CA91F712CC2
:1018E000722C822C2609B0002709B1002809B20009
:1018F0002909B300B00A0319B10A0319B20A03197E
:10190000B30A8A2C2908B3002808B2002708B100BE
:101910002608B0002908280427042604031D912C5A
:10192000922C9C2C0030A9000030A8000030A700A9
:101930000030A600292D292D9630AA002A08AF00D4
:10194000AF2C0130AA002A08AF0701300310B30CF6
:10195000B20CB10CB00CFF3E031DA62CAF2CFE3018
:101960003305031DB42CB52CA12CD22CD22C013064
:10197000AA002A08AF070130B00700300318013071
:10198000B107003003180130B207003003180130EE
:10199000B30701300310B30CB20CB10CB00CFF3E16
:1019A000031DCA2CFF303305031DD72CD82CB72CB0
:1019B000E62CE62C0130AF020130AA000310B00D76
:1019C000B10DB20DB30DAA0BDE2CE62CB21BE92C27
:1019D000EA2CF12C02302F020318EF2CF02CDA2C19
:1019E000F12C2F18F42CF52CFD2CFF30B005FF3016
:1019F000B1057F30B205FF30B3050310AF0C2F08DF
:101A0000AA00AB01AC01AD0118300310AA0DAB0D5B
:101A1000AC0DAD0DFF3E031D052D2A08B0042B08AB
:101A2000B1042C08B2042D08B3042E080319192D93
:101A30001A2D202DA91F1D2D1E2D202DB317202D51
:101A40003308A9003208A8003108A7003008A60012
:101A5000292D08000A3083120313A0000030A100D2
:101A60006F08A3006E08A2000A168A11B9260A128E
:101A70008A15831203132008A9002908FD000A30E3
:101A8000A0000030A1006F08A3006E08A2000A1693
:101A90008A118D270A128A15831203132008A900C0
:101AA000290883160313B9000A3083120313A00018
:101AB0000030A1007C08A3007B08A2000A168A114E
:101AC000B9260A128A15831203132008A9002908CF
:101AD00083160313B8000A3083120313A0000030EA
:101AE000A1007C08A3007B08A2000A168A118D279A
:101AF0000A128A15831203132008A90029088316E5
:101B00000313B7000A3083120313A0000030A100B2
:101B10007A08A3007908A2000A168A11B9260A12C7
:101B20008A15831203132008A900290883160313BA
:101B3000B6000A3083120313A0000030A1007A0817
:101B4000A3007908A2000A168A118D270A128A15A5
:101B5000831203132008A900290883160313B50074
:101B60000A3083120313A0000030A1008316031370
:101B7000460883120313A300831603134508831238
:101B80000313A2000A168A11B9260A128A158312B3
:101B900003132008A900290883160313B4000A3090
:101BA00083120313A0000030A1008316031346081C
:101BB00083120313A3008316031345088312031330
:101BC000A2000A168A118D270A128A15831203139E
:101BD0002008A900290883160313B3000A308312D2
:101BE0000313A0000030A1008316031342088312E0
:101BF0000313A30083160313410883120313A200E7
:101C00000A168A11B9260A128A15831203132008AC
:101C1000A900290883160313B2000A3083120313A4
:101C2000A0000030A100831603134208831203139F
:101C3000A30083160313410883120313A2000A169C
:101C40008A118D270A128A15831203132008A9000E
:101C5000290883160313B1000A3083120313A0006E
:101C60000030A10083160313400883120313A3005E
:101C7000831603133F0883120313A2000A168A1166
:101C8000B9260A128A15831203132008A90029080D
:101C900083160313B0000A3083120313A000003030
:101CA000A10083160313400883120313A3008316B5
:101CB00003133F0883120313A2000A168A118D270B
:101CC0000A128A15831203132008A9002908831613
:101CD0000313AF0008000A168A1168210A128A1538
:101CE000D03083120313AD000030AE000A168A1103
:101CF0007A210A128A15003083120313AD00AE0058
:101D00000A168A117A210A128A150A168A11712175
:101D10000A128A150A168A1168210A128A15D13008
:101D200083120313AD000030AE000A168A117A2127
:101D30000A128A15003083120313A000A1000A16AC
:101D40008A11BE230A128A15831203132108A700E1
:101D50002008A6000A168A11D8220A128A158312B0
:101D600003132708EF002608EE000A168A117121D6
:101D70000A128A150A168A1168210A128A15D130A8
:101D800083120313AD000030AE000A168A117A21C7
:101D90000A128A15003083120313A000A1000A164C
:101DA0008A11BE230A128A15831203132108A70081
:101DB0002008A6000A168A11D8220A128A15831250
:101DC00003132708FC002608FB000A168A1171215C
:101DD0000A128A150A168A1168210A128A15D13048
:101DE00083120313AD000030AE000A168A117A2167
:101DF0000A128A15003083120313A000A1000A16EC
:101E00008A11BE230A128A15831203132108A70020
:101E10002008A6000A168A11D8220A128A158312EF
:101E200003132708FA002608F9000A168A117121FF
:101E30000A128A150A168A1168210A128A15D130E7
:101E400083120313AD000030AE000A168A117A2106
:101E50000A128A15003083120313A000A1000A168B
:101E60008A11BE230A128A150A168A1171210A12D2
:101E70008A150A168A1168210A128A15D13083122E
:101E80000313AD000030AE000A168A117A210A123F
:101E90008A15003083120313A000A1000A168A11CC
:101EA000BE230A128A15831203132108A7002008F3
:101EB000A6000A168A11D8220A128A158312031361
:101EC000270883160313C6008312031326088316FC
:101ED0000313C5000A168A1171210A128A150A16FF
:101EE0008A1168210A128A15D13083120313AD00BA
:101EF0000030AE000A168A117A210A128A150030C3
:101F000083120313A000A1000A168A11BE230A122D
:101F10008A15831203132108A7002008A6000A16B9
:101F20008A11D8220A128A158312031327088316EE
:101F30000313C20083120313260883160313C10080
:101F40000A168A1171210A128A150A168A11682145
:101F50000A128A15D13083120313AD000030AE008F
:101F60000A168A117A210A128A1500308312031385
:101F7000A000A1000A168A11BE230A128A15831234
:101F800003132108A7002008A6000A168A11D822E8
:101F90000A128A1583120313270883160313C0003D
:101FA00083120313260883160313BF000A168A112F
:101FB00071210A128A150A168A1171210A128A15CC
:101FC0000A168A1168210A128A15D1308312031366
:101FD000AD000030AE000A168A117A210A128A1565
:101FE000003083120313A000A1000A168A11BE2339
:101FF0000A128A150A168A1171210A128A15080016
:10200000FF1B0A2883137F1883170008840A03190B
:10201000FF0A080010308A000408840A820700348E
:102020005434723461346E347134753469346C34C0
:102030006F3420347034723472346F34203400348E
:1020400045347334743461342034743465346D34FD
:1020500062346C3461346E3464346F34213400344F
:10206000543465346D34703465347234613474348E
:102070007534723461343A34003443346F346E341E
:102080007434613464346F3472343A34003441341B
:102090007534733465346E347434653420340034EC
:1020A000543465346D3462346C346F3472343A3481
:1020B0000034503472346534733465346E3474349F
:1020C00065340034463465346334683461343A34FA
:1020D000003448346F34723461343A340034483454
:1020E00075346D346F343A3400342F340034433453
:0220F0000034BA
:10226E000A3400343734003401300A168A11D8216A
:10227E000A168A110800831603130F128F160F17F2
:10228E000F14080001300A168A110D220A168A113F
:10229E0008008B170B178B150B10831603131616CE
:1022AE00080064008001840A040603190034040641
:1022BE0059291434003402340034013400341834F3
:1022CE0000340A168A1184210A168A118316031302
:1022DE00111408000A168A1184210A168A1183160F
:1022EE000313111508000A168A1184210A168A1181
:1022FE00831203132D0893000800852983160313F8
:10230E0014198A298B29852911081F39031D902933
:10231E009129852992290800831203133708360460
:10232E003504340403199C299D29A0298030B70651
:10233E00A029A129080083120313A000A629831641
:10234E000313981CAB29AC29A629AD2983120313BC
:10235E0020089900080083160313850101308800B8
:10236E0089011030860083120313850188018901CB
:10237E008601831603178801890108007E088A00EA
:10238E007F0882000A168A11C5210A168A1180005A
:10239E00840A04087D0603190034FF0A0319FE0A95
:1023AE00C929F30083120313861373080A168A11C0
:1023BE0072250A168A118312031388170D30F20044
:1023CE00FB30F100F10BE929F20BE929EE2983121A
:1023DE0003138813080083120313A300A201F72925
:1023EE00231CFA29FB29002A2008A1002108A20794
:1023FE00002A0310A00D0310A30C2308031D082AA6
:10240E00092AF7290A2A22080C2A08008312031324
:10241E00A300861323080A168A1135250A168A1177
:10242E008312031388170D3083120313A200FB309F
:10243E00A100A10B202AA20B202A831203138813BA
:10244E00080083120313A300861723080A168A11A5
:10245E0035250A168A118312031388170630831244
:10246E000313A2002F30A100A10B3B2AA20B3B2A83
:10247E00402A831203138813080083160313871749
:10248E0007138316031707128711071083160313FA
:10249E009816181218131815831203139817181379
:1024AE00181619308316031399001812831203138A
:1024BE009817181683160313981608008312031321
:1024CE00A5002503031D6C2A6D2A752A24087F3E5C
:1024DE000A168A110D220A168A11862A02308312D2
:1024EE0003132506031D7C2A7D2A862A2408BF3E57
:1024FE000A168A110D220A168A11862A862A0800C1
:10250E0083120313A2000A3079067A04031D902A5F
:10251E00912AAD2A37307B067C04031D972A982A10
:10252E00AD2A22080F3EA000003003180130A10092
:10253E006F082106031DA52A6E082006031DA82A72
:10254E00A92AAD2A061086100611AD2A080083129C
:10255E000313A401A501B32A201CB62AB72ABD2A4B
:10256E002208A4070318A50A2308A50701300310A3
:10257E00A20DA30DFF3E031DBE2A01300310A10CB8
:10258E00A00CFF3E031DC52A20082104031DD02ADE
:10259E00D12AB32AD22A2508A1002408A000D72ABE
:1025AE0008000F30831203132605A80000302705FC
:1025BE00A900260E0F39A000270EF039A004270E11
:1025CE000F39A100F030A11D0030A1040A30A20085
:1025DE000030A3000A168A11AE220A168A1183123F
:1025EE00031328082007A60029080318290A210723
:1025FE00A700012B080083120313A4002408A200D5
:10260E00A3017A082306031D0E2B79082206031D4B
:10261E00112B122B2E2B2008A200A3017C082306BF
:10262E00031D1B2B7B082206031D1E2B1F2B2E2B7F
:10263E002108A200A3016F082306031D282B6E0894
:10264E002206031D2B2B2C2B2E2B06142E2B0800B3
:10265E0083120313A4002408A200A3017A08230600
:10266E00031D3B2B79082206031D3E2B3F2B5B2BB4
:10267E002008A200A3017C082306031D482B7B081B
:10268E002206031D4B2B4C2B5B2B2108A200A30112
:10269E006F082306031D552B6E082206031D582BAB
:1026AE00592B5B2B86145B2B08000B1C5F2B602BAE
:1026BE00852B0B1083120313061E662B672B852B9F
:1026CE000130F400740883160313AE070A168A113C
:1026DE003B210A168A1183160313AD01AD0A02308F
:1026EE00F6000430F500BA30F400F40B7C2BF50B39
:1026FE007C2BF60B7C2B0000852B852B78088A0013
:10270E00770E8300FE0E7E0E090083120313081847
:10271E00912B922B972B83160313A701A70AB42B89
:10272E00831603132703031D9D2B9E2BB42B013001
:10273E0083120313A000200883160313A907A70111
:10274E00073083120313A1007C30A000A00BAD2B29
:10275E00A10BAD2B0000B42BB42B83160313290A47
:10276E00031DBA2BBB2BBD2BA901BD2B08000A16CE
:10277E008A1184210A168A118316031391150A16DB
:10278E008A1184210A168A11831203131308A200D8
:10279E00A3012208A4002308A5000A168A11842189
:1027AE000A168A118312031320032104031DE02B42
:1027BE00E12BE52B831603139112E82B83160313DB
:1027CE0091161116831203132508A1002408A000E8
:1027DE00F02B08000A168A1168210A168A11113088
:1027EE0083120313AD000030AE000A168A117A214F
:1027FE000A168A11003083120313A000A1000A16D4
:10280E008A11BE230A168A11831203132008AF0001
:10281E002F0883160313AC000A168A1171210A16AB
:10282E008A11073083120313B0007C30AF00AF0B58
:10283E001E2CB00B1E2C000008000A168A116821EF
:10284E000A168A11213083120313AD000030AE0038
:10285E000A168A117A210A168A110030831203137E
:10286E00A000A1000A168A11BE230A168A1183122D
:10287E0003132008AF002F0883160313AB000A16AC
:10288E008A1171210A168A11073083120313B000C0
:10289E007C30AF00AF0B512CB00B512C0000080058
:1028AE000A168A1168210A168A113130831203130F
:1028BE00AD000030AE000A168A117A210A168A116E
:1028CE00003083120313A000A1000A168A11BE2342
:1028DE000A168A11831203132008AF002F088316DD
:1028EE000313AA000A168A1171210A168A110730DB
:1028FE0083120313B0007C30AF00AF0B842CB00BEF
:10290E00842C000008000A3083120313A00000304C
:10291E00A1002A08A3002908A2000A168A118D27F1
:10292E000A168A11831203132008AB002108AC008B
:10293E00AB0EAC0EF030AC052B080F39AC04F030FA
:10294E00AB050A30A0000030A1002A08A300290818
:10295E00A2000A168A11B9260A168A1183120313C7
:10296E0020082B07A90021080318210A2C07AA000A
:10297E00C02C08002830831203139400831603130F
:10298E009101831203132E08B2002F08B3003008F2
:10299E00B4003108B50002300310B20DB30DB40D02
:1029AE00B50DFF3E031DD32C3508A3003408A2003D
:1029BE003308A1003208A0000030A7007A30A6002C
:1029CE001230A5000030A4000A168A111E270A161E
:1029DE008A11831203132008FF3E831603139300FC
:1029EE009401871507160800831203135E08A700CB
:1029FE005D08A6005C08A5005B08A4004230A30099
:102A0E00C830A2000030A1000030A0000A128A11C6
:102A1E006C250A168A11831203132308D300220889
:102A2E00D2002108D1002008D0000A128A152D20CC
:102A3E000A168A11831203135008DF005F08E000A4
:102A4E0060080A168A1157260A168A118312031372
:102A5E00DF005F08E1006108342D080083120313C4
:102A6E00A000201C3B2D3C2D3E2D05143F2D0510A6
:102A7E00A01C422D432D452D8514462D8510201D5D
:102A8E00492D4A2D4C2D05154D2D0511A01D502DEE
:102A9E00512D532D8515542D8511201E572D582D32
:102AAE005A2D05165B2D0512A01E5E2D5F2D612D74
:102ABE008516622D8512201F652D662D682D051732
:102ACE00692D0513A01F6C2D6D2D6F2D8517712D82
:102ADE008513712D0800F000701C762D772D7B2D3F
:102AEE008312031305147E2D831203130510F01C9D
:102AFE00812D822D842D8514852D8510701D882D98
:102B0E00892D8B2D05158C2D0511F01D8F2D902DDA
:102B1E00922D8515932D8511701E962D972D992D1D
:102B2E0005169A2D0512F01E9D2D9E2DA02D851693
:102B3E00A12D8512701FA42DA52DA72D0517A82D2B
:102B4E000513F01FAB2DAC2DAE2D8517B02D8513B3
:102B5E00B02D080083120313A901AA01DB2D290849
:102B6E002407A7002508A6000318A60AA91FC02D32
:102B7E00A603831203132608A8002808FF002708BF
:102B8E0084000A168A1100200A168A110A168A1162
:102B9E0028220A168A11013083120313A90703187B
:102BAE00AA0A0030AA07DB2D29082407A70025084A
:102BBE00A6000318A60AA91FE52DA6038312031368
:102BCE002608A8002808FF00270884000A168A1184
:102BDE0000200A168A11003A031DF62DF72DB62D88
:102BEE00F82D0800143083120313A5007930A400C9
:102BFE00A40BFF2DA50BFF2D00300A168A113525CB
:102C0E000A168A111A3083120313A500F730A40096
:102C1E00A40B0F2EA50B0F2E142E30300A168A1170
:102C2E000D220A168A11073083120313A5007C3079
:102C3E00A400A40B202EA50B202E000030300A1667
:102C4E008A110D220A168A11343083120313A4003E
:102C5E00A40B2F2E000030300A168A110D220A16F0
:102C6E008A1138300A168A110D220A168A1110306E
:102C7E000A168A110D220A168A1101300A168A11B5
:102C8E000D220A168A1106300A168A110D220A160C
:102C9E008A110C300A168A110D220A168A110800A2
:102CAE0083120313A2008E2E3030A0002008A30042
:102CBE00B62E3130A0002008A300B62E3230A00070
:102CCE002008A300B62E3330A0002008A300B62E95
:102CDE003430A0002008A300B62E3530A000200806
:102CEE00A300B62E3630A0002008A300B62E373033
:102CFE00A0002008A300B62E3830A0002008A300A4
:102D0E00B62E3930A0002008A300B62EB62E22080B
:102D1E00A000A1012108003A0319962EB62E200814
:102D2E00003A03195B2E013A0319602E033A031978
:102D3E00652E013A03196A2E073A03196F2E013ACE
:102D4E000319742E033A0319792E013A03197E2EB4
:102D5E000F3A0319832E013A0319882EB62E230833
:102D6E00B82E080083120313A601A31FBF2EC02E78
:102D7E00C82EA209A309A20A0319A30AA601A60A2C
:102D8E00C82EA11FCB2ECC2ED22EA009A109A00A8F
:102D9E000319A10AD22E200821040319D72ED82EEA
:102DAE000D2FA501A50AE72E01300310A00DA10DD0
:102DBE00FF3E031DDC2E0130A4002408A507E72EDC
:102DCE00A11FEA2EEB2EDB2EED2EED2E2108230277
:102DDE00031DF32E20082202031CF62EF72EFE2EC4
:102DEE002008A2022108031CA303A302FE2E013019
:102DFE000310A10CA00CFF3E031DFF2E0130A502F7
:102E0E00031D0A2F0B2FED2E0D2F0D2F2608031944
:102E1E00112F122F182FA209A309A20A0319A30A10
:102E2E00182F2308A1002208A0001D2F0800003033
:102E3E0083120313AC000030AB000030AA00003048
:102E4E00A900230822042104200403192F2F302F58
:102E5E00832FAD01AD0A412F0130A8000310A00D44
:102E6E00A10DA20DA30DA80B352F0130A800280827
:102E7E00AD07412FA31F442F452F332F472F472F29
:102E8E000130A8000310A90DAA0DAB0DAC0DA80BB7
:102E9E00492F23082702031D5E2F22082602031D39
:102EAE005E2F21082502031D5E2F20082402031C1D
:102EBE00612F622F722F2008A4022108031C210FFC
:102ECE00A5022208031C220FA6022308031C230FAF
:102EDE00A7022914722F01300310A30CA20CA10C0F
:102EEE00A00CFF3E031D732F0130AD02031D802F7A
:102EFE00812F472F832F832F2C08A3002B08A2008E
:102F0E002A08A1002908A0008C2F080083120313A1
:102F1E00A601A11F932F942F9C2FA009A109A00AEF
:102F2E000319A10AA601A60A9C2FA31F9F2FA02F4B
:102F3E00AA2FA209A309A20A0319A30A0130A40009
:102F4E002408A606AA2FA701A80120082104031908
:102F5E00B12FB22FEF2FA501A50AC12F01300310FB
:102F6E00A00DA10DFF3E031DB62F0130A4002408B5
:102F7E00A507C12FA11FC42FC52FB52FC72FC72F30
:102F8E0001300310A70DA80DFF3E031DC82F210809
:102F9E002302031DD42F20082202031CD72FD82F63
:102FAE00E02F2008A2022108031CA303A30227146A
:102FBE00E02F01300310A10CA00CFF3E031DE12FEA
:102FCE000130A502031DEC2FED2FC72FEF2FEF2F92
:102FDE0026080319F32FF42FFA2FA709A809A70A19
:102FEE000319A80AFA2F2808A1002708A000FF2F0E
:022FFE000800C9
:04400E00D4E0FFFFFC
:00000001FF
