:020000040000FA
:100000000A128A11E62F00308A000408840A820747
:100010000034463465346334683461343A3400342F
:1000200048346F34723461343A3400342F3400343D
:100030000A128A15F1270A128A11831203133E0845
:100040009300080083160313850188018901860146
:100050008312031385018801890186018316031722
:100060008801890108007E088A007F0882000A1240
:100070008A1133200A128A118000840A04087D063E
:1000800003190034FF0A0319FE0A3728F30083120C
:100090000313861373080A128A111A220A128A118C
:1000A0008312031388170D30F200FB30F100F10BBF
:1000B0005728F20B57285C28831203138813080073
:1000C000F30083120313861773080A128A111A2287
:1000D0000A128A118312031388170630F200303097
:1000E000F100F10B7128F20B712800008312031349
:1000F000881308000A30831203133A063B04031DD9
:1001000082288328932837303C063D04031D892824
:100110008A289328053024062504031D9028912859
:1001200093280614932808000A30831203133A0612
:100130003B04031D9C289D28AD2837303C063D0418
:10014000031DA328A428AD280A3024062504031D76
:10015000AA28AB28AD288614AD2808000A308312DF
:1001600003133A063B04031DB628B728C7283730C7
:100170003C063D04031DBD28BE28C7280F302406B9
:100180002504031DC428C528C7280615C72808004C
:10019000F5007503031DCD28CE28D62874087F3EB0
:1001A0000A128A1146200A128A11E52802307506C1
:1001B000031DDB28DC28E5287408BF3E0A128A11DB
:1001C00046200A128A11E528E52808000F30760536
:1001D000F80000307705F900760E0F39F000770E41
:1001E000F039F004770E0F39F100F030F11D0030D6
:1001F000F1040A30F2000030F3000A128A115A2189
:100200000A128A1178087007F60079080318790A2B
:100210007107F7000B290800F2000A30831203135C
:100220003A063B04031D15291629322937303C06AE
:100230003D04031D1C291D29322972080F3EF000C0
:10024000003003180130F10025087106031D2A292A
:1002500024087006031D2D292E2932290610861028
:10026000061132290800F600F401F5014B29740843
:10027000760784000A128A1103200A128A110A12D0
:100280008A1160200A128A110130F4070318F50A56
:100290000030F5074B297408760784000A128A118A
:1002A00003200A128A11003A031D572958293729B9
:1002B00059290800F401F5015D29701C60296129A4
:1002C00067297208F4070318F50A7308F507013067
:1002D0000310F20DF30DFF3E031D682901300310DA
:1002E000F10CF00CFF3E031D6F2970087104031D13
:1002F0007A297B295D297C297508F1007408F000B2
:10030000812908000A128A15F1270A128A11831618
:10031000031391150A128A15F1270A128A11831202
:1003200003131308F200F3017208F4007308F500D8
:100330000A128A15F1270A128A1170037104031D2B
:10034000A229A329A729831603139112AA29831688
:100350000313911611167508F1007408F000B02906
:1003600008000A30F0000030F1007A08F300790844
:10037000F2000A128A11DF230A128A117008FB00A8
:100380007108FC00FB0EFC0EF030FC057B080F39F9
:10039000FC04F030FB050A30F0000030F1007A0870
:1003A000F3007908F2000A128A110F230A128A1147
:1003B00070087B07F90071080318710A7C07FA00BE
:1003C000E1290800283083120313940083160313D5
:1003D0009101831203133E08C2003F08C300400886
:1003E000C4004108C50002300310C20DC30DC40D86
:1003F000C50DFF3E031DF4294508F3004408F20033
:100400004308F1004208F0000030F7003D30F600EC
:100410000930F5000030F4000A128A1172230A1222
:100420008A117008FF3E8316031393009401871509
:1004300007160800F000701C1E2A1F2A232A8312A8
:1004400003130514262A831203130510F01C292A0E
:100450002A2A2C2A85142D2A8510701D302A312A2B
:10046000332A0515342A0511F01D372A382A3A2A6D
:1004700085153B2A8511701E3E2A3F2A412A051602
:10048000422A0512F01E452A462A482A8516492A7C
:100490008512701F4C2A4D2A4F2A0517502A051322
:1004A000F01F532A542A562A8517582A8513582A8A
:1004B00008001430F5007930F400F40B5D2AF50BD8
:1004C0005D2A622A00300A128A111A220A128A113F
:1004D0001A30F500F830F400F40B6C2AF50B6C2A96
:1004E000000030300A128A1146200A128A110730A1
:1004F000F5007D30F400F40B7B2AF50B7B2A3030BD
:100500000A128A1146200A128A113530F400F40BBF
:10051000872A30300A128A1146200A128A1138308E
:100520000A128A1146200A128A1110300A128A1100
:1005300046200A128A1101300A128A1146200A1234
:100540008A1106300A128A1146200A128A110C30CA
:100550000A128A1146200A128A1108000A128A1504
:10056000C4270A128A110A128A1122200A128A1139
:100570000A128A1159220A128A11003083120313B7
:10058000C1000130C0008630BF00A030BE000A129A
:100590008A11E2210A128A1101300A128A113321CA
:1005A0000A128A11F401F40A02300A128A11C820D0
:1005B0000A128A1108300A128A1133210A128A118A
:1005C0000A128A11E9240A128A11E62A0A128A11E9
:1005D0007F260A128A110A128A1198250A128A1194
:1005E0000A128A1150240A128A110A128A117A20D8
:1005F0000A128A110A128A1194200A128A110A1206
:100600008A11AE200A128A1105300A128A110C21B1
:100610000A128A11E62AE62A0A128A110028F6012D
:10062000F31F132B142B1C2BF209F309F20A0319E5
:10063000F30AF601F60A1C2BF11F1F2B202B262B89
:10064000F009F109F00A0319F10A262B7008710468
:1006500003192B2B2C2B612BF501F50A3B2B0130B9
:100660000310F00DF10DFF3E031D302B0130F4009F
:100670007408F5073B2BF11F3E2B3F2B2F2B412BF3
:10068000412B71087302031D472B70087202031C73
:100690004A2B4B2B522B7008F2027108031CF303F8
:1006A000F302522B01300310F10CF00CFF3E031D3E
:1006B000532B0130F502031D5E2B5F2B412B612B69
:1006C000612B76080319652B662B6C2BF209F30955
:1006D000F20A0319F30A6C2B7308F1007208F00098
:1006E000712B08000030FC000030FB000030FA00E5
:1006F0000030F90073087204710470040319812B2F
:10070000822BD52BFD01FD0A932B0130F80003103D
:10071000F00DF10DF20DF30DF80B872B0130F80001
:100720007808FD07932BF31F962B972B852B992B7E
:10073000992B0130F8000310F90DFA0DFB0DFC0D9B
:10074000F80B9B2B73087702031DB02B72087602FF
:10075000031DB02B71087502031DB02B70087402C5
:10076000031CB32BB42BC42B7008F4027108031CB8
:10077000710FF5027208031C720FF6027308031C56
:10078000730FF7027914C42B01300310F30CF20C31
:10079000F10CF00CFF3E031DC52B0130FD02031DC3
:1007A000D22BD32B992BD52BD52B7C08F3007B0890
:1007B000F2007A08F1007908F000DE2B0800F6015B
:1007C000F11FE32BE42BEC2BF009F109F00A0319DC
:1007D000F10AF601F60AEC2BF31FEF2BF02BFA2BA4
:1007E000F209F309F20A0319F30A0130F40074085C
:1007F000F606FA2BF701F801700871040319012CB1
:10080000022C3F2CF501F50A112C01300310F00DDC
:10081000F10DFF3E031D062C0130F4007408F507AE
:10082000112CF11F142C152C052C172C172C013012
:100830000310F70DF80DFF3E031D182C710873020D
:10084000031D242C70087202031C272C282C302C2A
:100850007008F2027108031CF303F3027714302CC2
:1008600001300310F10CF00CFF3E031D312C013060
:10087000F502031D3C2C3D2C172C3F2C3F2C7608F9
:100880000319432C442C4A2CF709F809F70A0319D9
:10089000F80A4A2C7808F1007708F0004F2C08007D
:1008A0000830F7007708F40001300A128A11C820D6
:1008B0000A128A11831203132A08303E0A128A117F
:1008C00060200A128A11831203132B08303E0A1289
:1008D0008A1160200A128A110E300A128A113321FD
:1008E0000A128A11831203132808303E0A128A1151
:1008F00060200A128A11831203132908303E0A125B
:100900008A1160200A128A110E300A128A113321CC
:100910000A128A11831203132608303E0A128A1122
:1009200060200A128A11831203132708303E0A122C
:100930008A1160200A128A110830F7007708F40043
:1009400002300A128A11C8200A128A118312031374
:100950002C08303E0A128A1160200A128A11831272
:1009600003132D08303E0A128A1160200A128A11E0
:1009700006300A128A1133210A128A1183120313D4
:100980002E08303E0A128A1160200A128A11831240
:1009900003132F08303E0A128A1160200A128A11AE
:1009A00006300A128A1133210A128A1183120313A4
:1009B0003008303E0A128A1160200A128A1183120E
:1009C00003133108303E0A128A1160200A128A117C
:1009D00008000A128A15D3270A128A11D03083120E
:1009E0000313BE000030BF000A128A1118200A1239
:1009F0008A11003083120313BE00BF000A128A114D
:100A000018200A128A11831203132508FA002408F9
:100A1000F9000A128A11B1210A128A117A08831286
:100A20000313BF007908BE000A128A1118200A12A7
:100A30008A11831203133D08FA003C08F9000A12D8
:100A40008A11B1210A128A117A0883120313BF0096
:100A50007908BE000A128A1118200A128A1183121C
:100A600003133B08FA003A08F9000A128A11B1216F
:100A70000A128A117A0883120313BF007908BE0094
:100A80000A128A1118200A128A11013083120313E4
:100A9000BE000030BF000A128A1118200A128A1103
:100AA000831203133908FA003808F9000A128A1170
:100AB000B1210A128A117A0883120313BF00790840
:100AC000BE000A128A1118200A128A118312031317
:100AD0003508FA003408F9000A128A11B1210A1205
:100AE0008A117A0883120313BF007908BE000A1224
:100AF0008A1118200A128A11831203133308FA008C
:100B00003208F9000A128A11B1210A128A117A08F0
:100B100083120313BF007908BE000A128A1118203D
:100B20000A128A110A128A15DC270A128A11080091
:100B30000A30F0000030F100831203132508F3009F
:100B40002408F2000A128A110F230A128A1170086F
:100B5000F900790883120313B1000A30F000003065
:100B6000F1002508F3002408F2000A128A11DF239D
:100B70000A128A117008F900790883120313B00071
:100B80000A30F0000030F1003D08F3003C08F200AC
:100B90000A128A110F230A128A117008F9007908C3
:100BA00083120313AF000A30F0000030F1003D085B
:100BB000F3003C08F2000A128A11DF230A128A119C
:100BC0007008F900790883120313AE000A30F000B0
:100BD0000030F1003B08F3003A08F2000A128A11D3
:100BE0000F230A128A117008F9007908831203137F
:100BF000AD000A30F0000030F1003B08F3003A0885
:100C0000F2000A128A11DF230A128A117008F90011
:100C1000790883120313AC000A30F0000030F100B1
:100C20003908F3003808F2000A128A110F230A1259
:100C30008A117008F900790883120313AB000A3097
:100C4000F0000030F1003908F3003808F2000A1211
:100C50008A11DF230A128A117008F90079088312B9
:100C60000313AA000A30F0000030F1003508F30049
:100C70003408F2000A128A110F230A128A1170082E
:100C8000F900790883120313A9000A30F00000303C
:100C9000F1003508F3003408F2000A128A11DF234C
:100CA0000A128A117008F900790883120313A80048
:100CB0000A30F0000030F1003308F3003208F2008F
:100CC0000A128A110F230A128A117008F900790892
:100CD00083120313A7000A30F0000030F10033083C
:100CE000F3003208F2000A128A11DF230A128A1175
:100CF0007008F900790883120313A60008000A128D
:100D00008A15D3270A128A11D03083120313BE002A
:100D10000030BF000A128A1118200A128A1100300E
:100D200083120313BE00BF000A128A1118200A1290
:100D30008A110A128A15DC270A128A110A128A15E8
:100D4000D3270A128A11D13083120313BE00003058
:100D5000BF000A128A1118200A128A110030F0000E
:100D6000F1000A128A1182210A128A117108F70011
:100D70007008F6000A128A11E6200A128A11770812
:100D800083120313A5007608A4000A128A15DC2733
:100D90000A128A110A128A15D3270A128A11D1302F
:100DA00083120313BE000030BF000A128A111820FC
:100DB0000A128A110030F000F1000A128A11822111
:100DC0000A128A117108F7007008F6000A128A11D7
:100DD000E6200A128A11770883120313BD007608F1
:100DE000BC000A128A15DC270A128A110A128A1517
:100DF000D3270A128A11D13083120313BE000030A8
:100E0000BF000A128A1118200A128A110030F0005D
:100E1000F1000A128A1182210A128A117108F70060
:100E20007008F6000A128A11E6200A128A11770861
:100E300083120313BB007608BA000A128A15DC2756
:100E40000A128A110A128A15D3270A128A11D1307E
:100E500083120313BE000030BF000A128A1118204B
:100E60000A128A110030F000F1000A128A11822160
:100E70000A128A110A128A15DC270A128A110A122A
:100E80008A15D3270A128A11D13083120313BE00A8
:100E90000030BF000A128A1118200A128A1100308D
:100EA000F000F1000A128A1182210A128A117108D7
:100EB000F7007008F6000A128A11E6200A128A1159
:100EC000770883120313B9007608B8000A128A154E
:100ED000DC270A128A110A128A15D3270A128A11EC
:100EE000D13083120313BE000030BF000A128A11F2
:100EF00018200A128A110030F000F1000A128A113B
:100F000082210A128A117108F7007008F6000A128D
:100F10008A11E6200A128A11770883120313B5009A
:100F20007608B4000A128A15DC270A128A110A12FE
:100F30008A15D3270A128A11D13083120313BE00F7
:100F40000030BF000A128A1118200A128A110030DC
:100F5000F000F1000A128A1182210A128A11710826
:100F6000F7007008F6000A128A11E6200A128A11A8
:100F7000770883120313B3007608B2000A128A15A9
:100F8000DC270A128A110A128A15DC270A128A1132
:100F90000A128A15D3270A128A11D1308312031339
:100FA000BE000030BF000A128A1118200A128A11EE
:100FB0000030F000F1000A128A1182210A128A110F
:100FC0000A128A15DC270A128A11080083133E30A0
:100FD000FD000F30FE00E530FF00323084000A12C1
:100FE0008A1137200A128A112030840032300A1206
:100FF0008A15CB270A128A1183010A128A11AE2A96
:101F8800831603130F128F160F170F14080064001F
:101F98008001840A0406031900340406CC2F0A12AF
:101FA8008A15F1270A128A158316031311140800DB
:101FB8000A128A15F1270A128A15831603131115B6
:101FC8000800143400340234003401340034183466
:101FD80000340A34003437340034F22F83160313E4
:101FE8001419F72FF82FF22F11081F39031DFD2F91
:081FF800FE2FF22FFF2F08005D
:04400E00D4E0FFFFFC
:00000001FF
