:020000040000FA
:060000000A128A11E62F2E
:10000A001434003402340034013400341834003417
:10001A000A340034373400340F307605F8000030E3
:10002A007705F900760E0F39F000770EF039F004F3
:10003A00770E0F39F100F030F11D0030F1040A306B
:10004A00F2000030F3000A128A11AC200A128A1157
:10005A0078087007F60079080318790A7107F7001B
:10006A0036280800F2000A30831203133C063D04C6
:10007A00031D402841285D2837303E063F04031DF2
:10008A00472848285D2872080F3EF0000030031800
:10009A000130F10025087106031D55282408700651
:1000AA00031D582859285D280610861006115D2858
:1000BA000800831203130818632864286728A60116
:1000CA00A60A7B282603031D6B286C287B2801308F
:1000DA00F0007008A707A6010730F1007D30F00094
:1000EA00F00B7528F10B75287B287B2883120313E4
:1000FA00270A031D812882288428A701842808004A
:10010A00F600F401F5019D287408760784000A12A6
:10011A008A1500200A128A110A128A15C8270A1299
:10012A008A110130F4070318F50A0030F5079D28F3
:10013A007408760784000A128A1500200A128A11A6
:10014A00003A031DA928AA288928AB280800F40127
:10015A00F501AF28701CB228B328B9287208F40731
:10016A000318F50A7308F50701300310F20DF30DB1
:10017A00FF3E031DBA2801300310F10CF00CFF3EBC
:10018A00031DC12870087104031DCC28CD28AF288F
:10019A00CE287508F1007408F000D3280800F4008E
:1001AA007408F200F301831203133D087306031D5A
:1001BA00E0283C087206031DE328E4280029700899
:1001CA00F200F3013F087306031DED283E0872068C
:1001DA00031DF028F12800297108F200F30125080F
:1001EA007306031DFA2824087206031DFD28FE283B
:1001FA000029061400290800F4007408F200F3012B
:10020A00831203133D087306031D0D293C08720669
:10021A00031D102911292D297008F200F3013F0846
:10022A007306031D1A293E087206031D1D291E297D
:10023A002D297108F200F30125087306031D2729E9
:10024A0024087206031D2A292B292D2986142D29F3
:10025A000800F4007408F200F301831203133D0846
:10026A007306031D3A293C087206031D3D293E29DF
:10027A005A297008F200F3013F087306031D472943
:10028A003E087206031D4A294B295A297108F200B1
:10029A00F30125087306031D542924087206031D59
:1002AA00572958295A2906155A2908000A128A155F
:1002BA007A270A128A118316031391150A128A15CC
:1002CA007A270A128A11831203131308F200F30120
:1002DA007208F4007308F5000A128A157A270A12BE
:1002EA008A1170037104031D7B297C2980298316D6
:1002FA000313911283298316031391161116750895
:10030A00F1007408F000892908000A30F000003072
:10031A00F1007A08F3007908F2000A128A115823C8
:10032A000A128A117008FB007108FC00FB0EFC0E11
:10033A00F030FC057B080F39FC04F030FB050A306D
:10034A00F0000030F1007A08F3007908F2000A128E
:10035A008A1188220A128A1170087B07F90071082B
:10036A000318710A7C07FA00BA2908002830831298
:10037A000313940083160313910183120313400895
:10038A00C4004108C5004208C6004308C70002303D
:10039A000310C40DC50DC60DC70DFF3E031DCD29A3
:1003AA004708F3004608F2004508F1004408F00047
:1003BA000030F7003D30F6000930F5000030F40057
:1003CA000A128A11EB220A128A117008FF3E83165A
:1003DA00031393009401871507160800F000701C98
:1003EA00F729F829FC29831203130514FF2983121C
:1003FA0003130510F01C022A032A052A8514062A6B
:10040A008510701D092A0A2A0C2A05150D2A0511BC
:10041A00F01D102A112A132A8515142A8511701E17
:10042A00172A182A1A2A05161B2A0512F01E1E2A2E
:10043A001F2A212A8516222A8512701F252A262A72
:10044A00282A0517292A0513F01F2C2A2D2A2F2AB4
:10045A008517312A8513312A08002730F500F5302F
:10046A00F400F40B362AF50B362A00300A128A11E8
:10047A00F3210A128A113430F500F130F400F40B3A
:10048A00442AF50B442A492A30300A128A15AE2723
:10049A000A128A110D30F500FB30F400F40B532ACE
:1004AA00F50B532A582A30300A128A15AE270A1237
:1004BA008A116A30F400F40B602A000030300A1204
:1004CA008A15AE270A128A1138300A128A15AE27FF
:1004DA000A128A1110300A128A15AE270A128A11D4
:1004EA0001300A128A15AE270A128A1106300A1238
:1004FA008A15AE270A128A110C300A128A15AE27FB
:10050A000A128A110800F601F31F8C2A8D2A952AED
:10051A00F209F309F20A0319F30AF601F60A952A0F
:10052A00F11F982A992A9F2AF009F109F00A03195A
:10053A00F10A9F2A700871040319A42AA52ADA2A43
:10054A00F501F50AB42A01300310F00DF10DFF3E52
:10055A00031DA92A0130F4007408F507B42AF11F13
:10056A00B72AB82AA82ABA2ABA2A71087302031D16
:10057A00C02A70087202031CC32AC42ACB2A700834
:10058A00F2027108031CF303F302CB2A01300310B1
:10059A00F10CF00CFF3E031DCC2A0130F502031DBD
:1005AA00D72AD82ABA2ADA2ADA2A76080319DE2AB0
:1005BA00DF2AE52AF209F309F20A0319F30AE52AFE
:1005CA007308F1007208F000EA2A08000030FC0003
:1005DA000030FB000030FA000030F90073087204A2
:1005EA00710470040319FA2AFB2A4E2BFD01FD0A35
:1005FA000C2B0130F8000310F00DF10DF20DF30D84
:10060A00F80B002B0130F8007808FD070C2BF31FBC
:10061A000F2B102BFE2A122B122B0130F80003107D
:10062A00F90DFA0DFB0DFC0DF80B142B730877026C
:10063A00031D292B72087602031D292B71087502E6
:10064A00031D292B70087402031C2C2B2D2B3D2B08
:10065A007008F4027108031C710FF5027208031C7A
:10066A00720FF6027308031C730FF70279143D2BFD
:10067A0001300310F30CF20CF10CF00CFF3E031DD9
:10068A003E2B0130FD02031D4B2B4C2B122B4E2B04
:10069A004E2B7C08F3007B08F2007A08F1007908F7
:1006AA00F000572B0800F601F11F5C2B5D2B652B20
:1006BA00F009F109F00A0319F10AF601F60A652BA5
:1006CA00F31F682B692B732BF209F309F20A03193A
:1006DA00F30A0130F4007408F606732BF701F801E7
:1006EA007008710403197A2B7B2BB82BF501F50AD4
:1006FA008A2B01300310F00DF10DFF3E031D7F2BF5
:10070A000130F4007408F5078A2BF11F8D2B8E2B0C
:10071A007E2B902B902B01300310F70DF80DFF3E26
:10072A00031D912B71087302031D9D2B7008720221
:10073A00031CA02BA12BA92B7008F2027108031C21
:10074A00F303F3027714A92B01300310F10CF00C18
:10075A00FF3E031DAA2B0130F502031DB52BB62B54
:10076A00902BB82BB82B76080319BC2BBD2BC32BA7
:10077A00F709F809F70A0319F80AC32B7808F100F0
:10078A007708F000C82B08000A128A154F270A12A8
:10079A008A110A128A1589270A128A110A128A11DB
:1007AA0032220A128A11003083120313C300013065
:1007BA00C2008630C100A030C0000A128A11BB21D3
:1007CA000A128A1101300A128A1185200A128A1124
:1007DA00F401F40A02300A128A15E2270A128A116F
:1007EA0008300A128A1185200A128A110A128A11FD
:1007FA00E9240A128A11012C0A128A117F260A1286
:10080A008A110A128A1198250A128A110A128A1161
:10081A0050240A128A11373083120313C800480879
:10082A00F0000530C9004908F1000A300A128A119D
:10083A00D4200A128A11373083120313C8004808D9
:10084A00F0000A30C9004908F1000A300A128A1178
:10085A0001210A128A11373083120313C80048088B
:10086A00F0000F30C9004908F1000A300A128A1153
:10087A002E210A128A1105300A128A1137200A1209
:10088A008A110A128A115E200A128A11012C012C7D
:10089A000A128A1100280830F7007708F40001309C
:1008AA000A128A15E2270A128A11831203132C08E4
:1008BA00303E0A128A15C8270A128A1183120313B4
:1008CA002D08303E0A128A15C8270A128A110E30DC
:1008DA000A128A1185200A128A11831203132A081E
:1008EA00303E0A128A15C8270A128A118312031384
:1008FA002B08303E0A128A15C8270A128A110E30AE
:10090A000A128A1185200A128A11831203132808EF
:10091A00303E0A128A15C8270A128A118312031353
:10092A002908303E0A128A15C8270A128A11083085
:10093A00F7007708F40002300A128A15E2270A1231
:10094A008A11831203132E08303E0A128A15C82709
:10095A000A128A11831203132F08303E0A128A15CB
:10096A00C8270A128A1106300A128A1185200A1229
:10097A008A11831203133008303E0A128A15C827D7
:10098A000A128A11831203133108303E0A128A1599
:10099A00C8270A128A1106300A128A1185200A12F9
:1009AA008A11831203133208303E0A128A15C827A5
:1009BA000A128A11831203133308303E0A128A1567
:1009CA00C8270A128A1108000A128A155E270A1213
:1009DA008A11D03083120313C0000030C1000A12FA
:1009EA008A1570270A128A11003083120313C00075
:1009FA00C1000A128A1570270A128A118312031378
:100A0A002508FA002408F9000A128A118A210A1212
:100A1A008A117A0883120313C1007908C0000A12E6
:100A2A008A1570270A128A11831203133F08FA00E3
:100A3A003E08F9000A128A118A210A128A117A08D2
:100A4A0083120313C1007908C0000A128A1570279D
:100A5A000A128A11831203133D08FA003C08F900AE
:100A6A000A128A118A210A128A117A088312031336
:100A7A00C1007908C0000A128A1570270A128A1161
:100A8A00013083120313C0000030C1000A128A1514
:100A9A0070270A128A11831203133B08FA003A08D4
:100AAA00F9000A128A118A210A128A117A08831213
:100ABA000313C1007908C0000A128A1570270A12A6
:100ACA008A11831203133708FA003608F9000A124A
:100ADA008A118A210A128A117A0883120313C10021
:100AEA007908C0000A128A1570270A128A1183121D
:100AFA0003133508FA003408F9000A128A118A2108
:100B0A000A128A117A0883120313C1007908C000F5
:100B1A000A128A1570270A128A110A128A15672779
:100B2A000A128A1108000A30F0000030F10083121C
:100B3A0003132508F3002408F2000A128A118822F6
:100B4A000A128A117008F900790883120313B30094
:100B5A000A30F0000030F1002508F3002408F20002
:100B6A000A128A1158230A128A117008F9007908A0
:100B7A0083120313B2000A30F0000030F1003F087C
:100B8A00F3003E08F2000A128A1188220A128A1118
:100B9A007008F900790883120313B1000A30F000D3
:100BAA000030F1003F08F3003E08F2000A128A11F1
:100BBA0058230A128A117008F9007908831203135C
:100BCA00B0000A30F0000030F1003D08F3003C08A4
:100BDA00F2000A128A1188220A128A117008F90090
:100BEA00790883120313AF000A30F0000030F100D5
:100BFA003D08F3003C08F2000A128A1158230A122F
:100C0A008A117008F900790883120313AE000A30BA
:100C1A00F0000030F1003B08F3003A08F2000A1233
:100C2A008A1188220A128A117008F9007908831237
:100C3A000313AD000A30F0000030F1003B08F30066
:100C4A003A08F2000A128A1158230A128A11700805
:100C5A00F900790883120313AC000A30F00000305F
:100C6A00F1003708F3003608F2000A128A118822C6
:100C7A000A128A117008F900790883120313AB006B
:100C8A000A30F0000030F1003708F3003608F200AD
:100C9A000A128A1158230A128A117008F90079086F
:100CAA0083120313AA000A30F0000030F10035085D
:100CBA00F3003408F2000A128A1188220A128A11F1
:100CCA007008F900790883120313A9000A30F000AA
:100CDA000030F1003508F3003408F2000A128A11D4
:100CEA0058230A128A117008F9007908831203132B
:100CFA00A80008000A128A155E270A128A11D03043
:100D0A0083120313C0000030C1000A128A1570272B
:100D1A000A128A11003083120313C000C1000A129A
:100D2A008A1570270A128A110A128A1567270A1267
:100D3A008A110A128A155E270A128A11D130831281
:100D4A000313C0000030C1000A128A1570270A1264
:100D5A008A110030F000F1000A128A115B210A128E
:100D6A008A117108F7007008F6000A128A11112018
:100D7A000A128A11770883120313A5007608A400C1
:100D8A000A128A1567270A128A110A128A155E2719
:100D9A000A128A11D13083120313C0000030C10035
:100DAA000A128A1570270A128A110030F000F1001F
:100DBA000A128A115B210A128A117108F700700857
:100DCA00F6000A128A1111200A128A117708831270
:100DDA000313BF007608BE000A128A1567270A1293
:100DEA008A110A128A155E270A128A11D1308312D1
:100DFA000313C0000030C1000A128A1570270A12B4
:100E0A008A110030F000F1000A128A115B210A12DD
:100E1A008A117108F7007008F6000A128A11112067
:100E2A000A128A11770883120313BD007608BC00E0
:100E3A000A128A1567270A128A110A128A155E2768
:100E4A000A128A11D13083120313C0000030C10084
:100E5A000A128A1570270A128A110030F000F1006E
:100E6A000A128A115B210A128A110A128A15672745
:100E7A000A128A110A128A155E270A128A11D130B9
:100E8A0083120313C0000030C1000A128A157027AA
:100E9A000A128A110030F000F1000A128A115B214D
:100EAA000A128A117108F7007008F6000A128A11EC
:100EBA0011200A128A11770883120313BB007608DD
:100ECA00BA000A128A1567270A128A110A128A15A3
:100EDA005E270A128A11D13083120313C000003030
:100EEA00C1000A128A1570270A128A110030F0000E
:100EFA00F1000A128A115B210A128A117108F7009D
:100F0A007008F6000A128A1111200A128A1177084B
:100F1A0083120313B7007608B6000A128A156727E8
:100F2A000A128A110A128A155E270A128A11D13008
:100F3A0083120313C0000030C1000A128A157027F9
:100F4A000A128A110030F000F1000A128A115B219C
:100F5A000A128A117108F7007008F6000A128A113B
:100F6A0011200A128A11770883120313B500760832
:100F7A00B4000A128A1567270A128A110A128A15F8
:100F8A0067270A128A110A128A155E270A128A111B
:100F9A00D13083120313C0000030C1000A128A152F
:100FAA0070270A128A110030F000F1000A128A1121
:100FBA005B210A128A110A128A1567270A128A11F4
:100FCA00080083134030FD000030FE000530FF00AA
:100FDA00343084000A128A159F270A128A11203097
:100FEA00840034300A128A1556270A128A1183019C
:100FFA000A128A11C92B08308A000408840A820757
:10100A000034463465346334683461343A34003425
:10101A0048346F34723461343A3400342F34003433
:101E9E00831603130F168F160F170F140800640006
:101EAE008001840A0406031900340406572F0A120F
:101EBE008A157A270A128A1583160313111408003D
:101ECE000A128A157A270A128A1583160313111518
:101EDE0008000A128A157A270A128A15831203132A
:101EEE004008930008007B2F831603131419802FCC
:101EFE00812F7B2F11081F39031D862F872F7B2FD4
:101F0E00882F08008316031385010130880089018C
:101F1E0086018312031385018801890186018316C8
:101F2E0003178801890108007E088A007F08820055
:101F3E000A128A159B270A128A158000840A040841
:101F4E007D0603190034FF0A0319FE0A9F2FF300C2
:101F5E0083120313861373080A128A11F3210A12CD
:101F6E008A158312031388171A30F200F830F10025
:101F7E00F10BBF2FF20BBF2F000083120313881338
:101F8E000800F30083120313861773080A128A11CE
:101F9E00F3210A128A158312031388170B30F200ED
:101FAE006230F100F10BD92FF20BD92F0000831202
:101FBE00031388130800F5007503031DE72FE82FA0
:101FCE00F02F74087F3E0A128A15AE270A128A1560
:101FDE00FF2F02307506031DF52FF62FFF2F740805
:101FEE00BF3E0A128A15AE270A128A15FF2FFF2F3F
:021FFE000800D9
:04400E00D4E0FFFFFC
:00000001FF
