:020000040000FA
:100000000A128A11E62F00308A000408840A820747
:100010000034463465346334683461343A3400342F
:1000200048346F34723461343A3400342F3400343D
:1000CC00831603130F128F160F170F1408006400FA
:1000DC008001840A04060319003404066E280A12EF
:1000EC008A119D200A128A11831603131114080019
:1000FC000A128A119D200A128A11831603131115F4
:10010C0008000A128A119D200A128A118312031305
:10011C003E089300080014340034023400340134D7
:10012C000034183400340A340034373400349E2838
:10013C00831603131419A328A4289E2811081F3909
:10014C00031DA928AA289E28AB2808008316031390
:10015C0085018801890186018312031385018801B9
:10016C0089018601831603178801890108007E081E
:10017C008A007F0882000A128A11BD200A128A1195
:10018C008000840A04087D0603190034FF0A031951
:10019C00FE0AC128F30083120313861373080A1294
:1001AC008A112F220A128A118312031388170D3019
:1001BC00F200FB30F100F10BE128F20BE128E6280C
:1001CC008312031388130800F3008312031386179A
:1001DC0073080A128A112F220A128A11831203132E
:1001EC0088170630F2003030F100F10BFB28F20BCF
:1001FC00FB2800008312031388130800F500750315
:10020C00031D09290A29122974087F3E0A128A1132
:10021C00D0200A128A11212902307506031D1729D4
:10022C00182921297408BF3E0A128A11D0200A12FB
:10023C008A112129212908000F307605F800003099
:10024C007705F900760E0F39F000770EF039F004CF
:10025C00770E0F39F100F030F11D0030F1040A3047
:10026C00F2000030F3000A128A116F210A128A116F
:10027C0078087007F60079080318790A7107F700F7
:10028C0047290800F600F401F50160297408760787
:10029C0084000A128A1103200A128A110A128A1186
:1002AC00EA200A128A110130F4070318F50A00300B
:1002BC00F50760297408760784000A128A11032056
:1002CC000A128A11003A031D6C296D294C296E29DA
:1002DC000800F401F5017229701C752976297C2916
:1002EC007208F4070318F50A7308F50701300310B8
:1002FC00F20DF30DFF3E031D7D2901300310F10CAF
:10030C00F00CFF3E031D842970087104031D8F2916
:10031C009029722991297508F1007408F00096292A
:10032C0008000A128A119D200A128A1183160313DF
:10033C0091150A128A119D200A128A118312031335
:10034C001308F200F3017208F4007308F5000A12A6
:10035C008A119D200A128A1170037104031DB7299A
:10036C00B829BC29831603139112BF2983160313D2
:10037C00911611167508F1007408F000C5290800D3
:10038C000A30F0000030F1007A08F3007908F2002E
:10039C000A128A11DF230A128A117008FB007108F5
:1003AC00FC00FB0EFC0EF030FC057B080F39FC0446
:1003BC00F030FB050A30F0000030F1007A08F30051
:1003CC007908F2000A128A110F230A128A11700896
:1003DC007B07F90071080318710A7C07FA00F629EB
:1003EC000800283083120313940083160313910121
:1003FC00831203133E08C2003F08C3004008C40028
:10040C004108C50002300310C20DC30DC40DC50D4B
:10041C00FF3E031D092A4508F3004408F200430877
:10042C00F1004208F0000030F7003D30F6000930D2
:10043C00F5000030F4000A128A1172230A128A1194
:10044C007008FF3E8316031393009401871507165B
:10045C000800F000701C332A342A382A8312031344
:10046C0005143B2A831203130510F01C3E2A3F2A65
:10047C00412A8514422A8510701D452A462A482A8D
:10048C000515492A0511F01D4C2A4D2A4F2A8515B0
:10049C00502A8511701E532A542A562A0516572A9B
:1004AC000512F01E5A2A5B2A5D2A85165E2A8512D1
:1004BC00701F612A622A642A0517652A0513F01F2A
:1004CC00682A692A6B2A85176D2A85136D2A0800FC
:1004DC000A128A1166200A128A110A128A11AC2099
:1004EC000A128A110A128A11BA220A128A110030CF
:1004FC0083120313C1000130C0008630BF00A0304E
:10050C00BE000A128A11F7210A128A1101300A124E
:10051C008A1148210A128A11F401F40A02300A12D3
:10052C008A1104210A128A1108300A128A114821F0
:10053C000A128A110A128A11E9240A128A11A62AAD
:10054C000A128A117F260A128A110A128A11982518
:10055C000A128A110A128A1150240A128A11A62A26
:10056C00A62A0A128A1100281430F5007930F400FA
:10057C00F40BBE2AF50BBE2AC32A00300A128A11CC
:10058C002F220A128A111A30F500F830F400F40BFD
:10059C00CD2AF50BCD2A000030300A128A11D0205A
:1005AC000A128A110730F5007D30F400F40BDC2AB6
:1005BC00F50BDC2A30300A128A11D0200A128A116B
:1005CC003530F400F40BE82A30300A128A11D020AE
:1005DC000A128A1138300A128A11D0200A128A1192
:1005EC0010300A128A11D0200A128A1101300A1214
:1005FC008A11D0200A128A1106300A128A11D020D0
:10060C000A128A110C300A128A11D0200A128A118D
:10061C000800F601F31F132B142B1C2BF209F30902
:10062C00F20A0319F30AF601F60A1C2BF11F1F2B11
:10063C00202B262BF009F109F00A0319F10A262BBD
:10064C007008710403192B2B2C2B612BF501F50A67
:10065C003B2B01300310F00DF10DFF3E031D302B31
:10066C000130F4007408F5073B2BF11F3E2B3F2B98
:10067C002F2B412B412B71087302031D472B700844
:10068C007202031C4A2B4B2B522B7008F20271087E
:10069C00031CF303F302522B01300310F10CF00C8A
:1006AC00FF3E031D532B0130F502031D5E2B5F2B08
:1006BC00412B612B612B76080319652B662B6C2B58
:1006CC00F209F309F20A0319F30A6C2B7308F1000F
:1006DC007208F000712B08000030FC000030FB00A9
:1006EC000030FA000030F9007308720471047004D1
:1006FC000319812B822BD52BFD01FD0A932B013085
:10070C00F8000310F00DF10DF20DF30DF80B872B23
:10071C000130F8007808FD07932BF31F962B972BCD
:10072C00852B992B992B0130F8000310F90DFA0D3C
:10073C00FB0DFC0DF80B9B2B73087702031DB02BE4
:10074C0072087602031DB02B71087502031DB02BC5
:10075C0070087402031CB32BB42BC42B7008F40266
:10076C007108031C710FF5027208031C720FF6025C
:10077C007308031C730FF7027914C42B0130031098
:10078C00F30CF20CF10CF00CFF3E031DC52B0130E9
:10079C00FD02031DD22BD32B992BD52BD52B7C08EB
:1007AC00F3007B08F2007A08F1007908F000DE2BE8
:1007BC000800F601F11FE32BE42BEC2BF009F109F7
:1007CC00F00A0319F10AF601F60AEC2BF31FEF2BD2
:1007DC00F02BFA2BF209F309F20A0319F30A013090
:1007EC00F4007408F606FA2BF701F801700871048E
:1007FC000319012C022C3F2CF501F50A112C0130A8
:10080C000310F00DF10DFF3E031D062C0130F4001A
:10081C007408F507112CF11F142C152C052C172C12
:10082C00172C01300310F70DF80DFF3E031D182C8B
:10083C0071087302031D242C70087202031C272CF0
:10084C00282C302C7008F2027108031CF303F302FD
:10085C007714302C01300310F10CF00CFF3E031D0B
:10086C00312C0130F502031D3C2C3D2C172C3F2C58
:10087C003F2C76080319432C442C4A2CF709F80911
:10088C00F70A0319F80A4A2C7808F1007708F000E7
:10089C004F2C08000830F7007708F40001300A12DA
:1008AC008A1104210A128A11831203132A08303E7A
:1008BC000A128A11EA200A128A11831203132B08D6
:1008CC00303E0A128A11EA200A128A110E300A12DC
:1008DC008A1148210A128A11831203132808303E08
:1008EC000A128A11EA200A128A11831203132908A8
:1008FC00303E0A128A11EA200A128A110E300A12AC
:10090C008A1148210A128A11831203132608303ED9
:10091C000A128A11EA200A128A1183120313270879
:10092C00303E0A128A11EA200A128A110830F700A6
:10093C007708F40002300A128A1104210A128A1173
:10094C00831203132C08303E0A128A11EA200A1271
:10095C008A11831203132D08303E0A128A11EA20E1
:10096C000A128A1106300A128A1148210A128A11B7
:10097C00831203132E08303E0A128A11EA200A123F
:10098C008A11831203132F08303E0A128A11EA20AF
:10099C000A128A1106300A128A1148210A128A1187
:1009AC00831203133008303E0A128A11EA200A120D
:1009BC008A11831203133108303E0A128A11EA207D
:1009CC000A128A1108000A128A1175200A128A1159
:1009DC00D03083120313BE000030BF000A128A11FC
:1009EC0087200A128A11003083120313BE00BF0045
:1009FC000A128A1187200A128A11831203132508FE
:100A0C00FA002408F9000A128A11C6210A128A1166
:100A1C007A0883120313BF007908BE000A128A11E8
:100A2C0087200A128A11831203133D08FA003C082E
:100A3C00F9000A128A11C6210A128A117A08831245
:100A4C000313BF007908BE000A128A1187200A120C
:100A5C008A11831203133B08FA003A08F9000A12B0
:100A6C008A11C6210A128A117A0883120313BF0055
:100A7C007908BE000A128A1187200A128A110130E5
:100A8C0083120313BE000030BF000A128A118720A4
:100A9C000A128A11831203133908FA003808F90074
:100AAC000A128A11C6210A128A117A0883120313B8
:100ABC00BF007908BE000A128A1187200A128A1117
:100ACC00831203133508FA003408F9000A128A114C
:100ADC00C6210A128A117A0883120313BF007908FF
:100AEC00BE000A128A1187200A128A11831203137C
:100AFC003308FA003208F9000A128A11C6210A12C8
:100B0C008A117A0883120313BF007908BE000A12F7
:100B1C008A1187200A128A110A128A117E200A125F
:100B2C008A1108000A30F0000030F1008312031320
:100B3C002508F3002408F2000A128A110F230A1266
:100B4C008A117008F900790883120313B1000A3076
:100B5C00F0000030F1002508F3002408F2000A121E
:100B6C008A11DF230A128A117008F900790883129E
:100B7C000313B0000A30F0000030F1003D08F30020
:100B8C003C08F2000A128A110F230A128A1170080B
:100B9C00F900790883120313AF000A30F00000301B
:100BAC00F1003D08F3003C08F2000A128A11DF2321
:100BBC000A128A117008F900790883120313AE0027
:100BCC000A30F0000030F1003B08F3003A08F20064
:100BDC000A128A110F230A128A117008F900790877
:100BEC0083120313AD000A30F0000030F1003B0813
:100BFC00F3003A08F2000A128A11DF230A128A1152
:100C0C007008F900790883120313AC000A30F00065
:100C1C000030F1003908F3003808F2000A128A118A
:100C2C000F230A128A117008F90079088312031332
:100C3C00AB000A30F0000030F1003908F30038083E
:100C4C00F2000A128A11DF230A128A117008F900C5
:100C5C00790883120313AA000A30F0000030F10067
:100C6C003508F3003408F2000A128A110F230A1215
:100C7C008A117008F900790883120313A9000A304D
:100C8C00F0000030F1003508F3003408F2000A12CD
:100C9C008A11DF230A128A117008F900790883126D
:100CAC000313A8000A30F0000030F1003308F30001
:100CBC003208F2000A128A110F230A128A117008E4
:100CCC00F900790883120313A7000A30F0000030F2
:100CDC00F1003308F3003208F2000A128A11DF2304
:100CEC000A128A117008F900790883120313A600FE
:100CFC0008000A128A1175200A128A11D030831248
:100D0C000313BE000030BF000A128A1187200A129A
:100D1C008A11003083120313BE00BF000A128A111D
:100D2C0087200A128A110A128A117E200A128A114D
:100D3C000A128A1175200A128A11D13083120313F8
:100D4C00BE000030BF000A128A1187200A128A11D5
:100D5C000030F000F1000A128A1197210A128A1150
:100D6C007108F7007008F6000A128A1122210A1283
:100D7C008A11770883120313A5007608A4000A12BF
:100D8C008A117E200A128A110A128A1175200A12FF
:100D9C008A11D13083120313BE000030BF000A1237
:100DAC008A1187200A128A110030F000F1000A1211
:100DBC008A1197210A128A117108F7007008F6003F
:100DCC000A128A1122210A128A117708831203133C
:100DDC00BD007608BC000A128A117E200A128A1104
:100DEC000A128A1175200A128A11D1308312031348
:100DFC00BE000030BF000A128A1187200A128A1125
:100E0C000030F000F1000A128A1197210A128A119F
:100E1C007108F7007008F6000A128A1122210A12D2
:100E2C008A11770883120313BB007608BA000A12E2
:100E3C008A117E200A128A110A128A1175200A124E
:100E4C008A11D13083120313BE000030BF000A1286
:100E5C008A1187200A128A110030F000F1000A1260
:100E6C008A1197210A128A110A128A117E200A12FB
:100E7C008A110A128A1175200A128A11D130831232
:100E8C000313BE000030BF000A128A1187200A1219
:100E9C008A110030F000F1000A128A1197210A120F
:100EAC008A117108F7007008F6000A128A112221C3
:100EBC000A128A11770883120313B9007608B80056
:100ECC000A128A117E200A128A110A128A117520BE
:100EDC000A128A11D13083120313BE000030BF00F6
:100EEC000A128A1187200A128A110030F000F100D0
:100EFC000A128A1197210A128A117108F7007008D8
:100F0C00F6000A128A1122210A128A11770883121A
:100F1C000313B5007608B4000A128A117E200A1257
:100F2C008A110A128A1175200A128A11D130831281
:100F3C000313BE000030BF000A128A1187200A1268
:100F4C008A110030F000F1000A128A1197210A125E
:100F5C008A117108F7007008F6000A128A11222112
:100F6C000A128A11770883120313B3007608B200B1
:100F7C000A128A117E200A128A110A128A117E2004
:100F8C000A128A110A128A1175200A128A11D1309A
:100F9C0083120313BE000030BF000A128A1187208F
:100FAC000A128A110030F000F1000A128A119721FE
:100FBC000A128A110A128A117E200A128A1108005A
:100FCC0083133E30FD000030FE009130FF003230C4
:100FDC0084000A128A11C1200A128A11203084005E
:100FEC0032300A128A116D200A128A1183010A12F8
:040FFC008A116E2ABE
:04400E00D4E0FFFFFC
:00000001FF
