:020000040000FA
:100000000A128A11F22F83160313141908280928DB
:10001000032811081F39031D0E280F280328080084
:10002000831203133E08F7003D08F6003C08F50074
:100030003B08F4004230F300C830F2000030F10019
:100040000030F0000A128A1177230A128A1173080D
:1000500083120313B3007208B2007108B100700874
:10006000B0000A128A1584270A128A118312031318
:100070003008BF003F08C2003E08AF003D08AE0098
:100080003C08AD003B08AC006430F2000030F300E7
:100090004208BF00C0013F08F0004008F1000A120A
:1000A0008A15CE240A128A117008F6007108F7002A
:1000B0000030F71BFF30F800F90001300A128A11F6
:1000C00054210A128A11790883120313AB007808AD
:1000D000AA007708A9007608A8000A128A15AA249F
:1000E0000A128A11831203132B08B3002A08B200E4
:1000F0002908B1002808B0000A128A1584270A12BC
:100100008A11831203133008C1004108C4000A3069
:10011000F0000030F1004408BF00C0013F08F200C9
:100120004008F3000A128A151D270A128A11700866
:1001300083120313C1004108C30043080A128A1541
:1001400059260A128A1183120313BF003F08C50003
:1001500045080800831203133E08F7003D08F60027
:100160003C08F5003B08F4004230F300C830F200D0
:100170000030F1000030F0000A128A1177230A12D1
:100180008A11730883120313B3007208B200710856
:10019000B1007008B0000A128A1584270A128A1169
:1001A000831203133008BF003F08C2003E08AF00AF
:1001B0003D08AE003C08AD003B08AC006430F200E6
:1001C0000030F3004208BF00C0013F08F0004008C3
:1001D000F1000A128A15CE240A128A117008F6005C
:1001E0007108F7000030F71BFF30F800F90001300C
:1001F0000A128A1154210A128A11790883120313F0
:10020000AB007808AA007708A9007608A8000A12AF
:100210008A15AA240A128A11831203132B08B30029
:100220002A08B2002908B1002808B0000A128A156D
:1002300084270A128A11831203133008C10041086F
:10024000C6000A30F0000030F1004608BF00C001CF
:100250003F08F2004008F3000A128A151D270A120F
:100260008A11700883120313C1004108C300F630DD
:10027000BF003F08F00043080A128A1540240A1202
:100280008A11831203134607C0004008C4004408C3
:100290000A128A1559260A128A1183120313BF0003
:1002A0003F08C5004508080083120313A00020087A
:1002B00003195B295C297029F91F5F2960297029BE
:1002C0007609A2007709A3007809A4007909A5009E
:1002D000A20A0319A30A0319A40A0319A50A782973
:1002E0007908A5007808A4007708A3007608A20082
:1002F0007908780477047604031D7F2980298929E9
:100300000030F9000030F8000030F7000030F6004F
:100310000F2A9630FA007A08A1009B290130FA00D2
:100320007A08A10701300310A50CA40CA30CA20CA1
:10033000FF3E031D9329FE302505031DA029A12999
:100340008E29BD290130FA007A08A1070130A207E1
:10035000003003180130A307003003180130A40750
:10036000003003180130A50701300310A50CA40CC0
:10037000A30CA20CFF3E031DB529FF302505031D6C
:10038000C229C329A229CF290130A1020130FA00D4
:100390000310A20DA30DA40DA50DFA0BC829A41BD3
:1003A000D229D329D929023021020318D829D929E1
:1003B000C4292118DC29DD29E529FF30A205FF30F9
:1003C000A3057F30A405FF30A5050310A10C21086B
:1003D000FA00FB01FC01FD0118300310FA0DFB0DC2
:1003E000FC0DFD0DFF3E031DED297A08A2047B08DC
:1003F000A3047C08A4047D08A50420080319012A8D
:10040000022A072AF91F052A062A072AA5172508FE
:10041000F9002408F8002308F7002208F600080075
:100420008316031788018901831603138501870149
:10043000860188010A128A1512260A128A110030D2
:1004400083120313A3000130A2008630A100A03064
:10045000A0000A128A1521250A128A11F401F40A51
:1004600001300A128A156B240A128A110130F30036
:100470008030F4000A128A15D0250A128A114C30F5
:1004800084000530FF0083138001840AFF0B432A98
:100490000A128A1524240A128A111130F000003041
:1004A000F1000A128A1536240A128A110030F0006F
:1004B000F1000A128A15F3240A128A1170088312B5
:1004C0000313C7004708E0000A128A152D240A12F8
:1004D0008A110D3083120313C800FB30C700C70B0D
:1004E0006F2AC80B6F2AF401F40A02300A128A1527
:1004F0006B240A128A11831203136008C700C80113
:10050000C901CA014A08F9004908F8004808F7007B
:100510004708F60000300A128A1154210A128A1183
:10052000790883120313D4007808D3007708D20027
:100530007608D1005408BE005308BD005208BC0024
:100540005108BB000A128A11AA200A128A118312CA
:100550000313C7004708CE006008C700C801C901DF
:10056000CA014A08F9004908F8004808F700470896
:10057000F60000300A128A1154210A128A117908F1
:1005800083120313D8007808D7007708D6007608BE
:10059000D5005808BE005708BD005608BC005508D5
:1005A000BB000A128A1110200A128A118312031347
:1005B000C7004708CD006008C700C801C901CA01CB
:1005C0004A08F9004908F8004808F7004708F6000B
:1005D00000300A128A1154210A128A1179088312F2
:1005E0000313BE007808BD007708BC007608BB0086
:1005F0000A128A1559250A128A1183120313CB0095
:100600004B08CC004C30F3000030F4000A128A157D
:10061000D0250A128A110A128A1524240A128A1174
:100620002130F0000030F1000A128A1536240A1237
:100630008A110030F000F1000A128A15F3240A1220
:100640008A11700883120313C7004708DF000A12DB
:100650008A152D240A128A110D3083120313C80043
:10066000FB30C700C70B322BC80B322B0A128A157E
:1006700024240A128A113130F0000030F1000A12ED
:100680008A1536240A128A110030F000F1000A128D
:100690008A15F3240A128A11700883120313C70003
:1006A0004708DE000A128A152D240A128A110D301D
:1006B00083120313C800FB30C700C70B5D2BC80BA8
:1006C0005D2B831203135F03031D672B682B6A2BBB
:1006D00006146B2B06105E03031D6F2B702B722B01
:1006E0008614482A8610482A0A128A110028770898
:1006F0008039F800780883120313A4007708F80003
:100700007807F9007908AB00F61F872B882B892B17
:100710002B142B0803198D2B8E2B9E2B2B0A031DBC
:10072000922B932B9B2B0030F7000030F60000300B
:10073000F5000030F400F617F701A62B0030F700A3
:100740000030F6000030F5000030F4007308803906
:10075000F8007808A4067308F8007807F90079080B
:10076000AC00F21FB42BB52BB62B2C142C0803199C
:10077000BA2BBB2BCB2B2C0A031DBF2BC02BC82B9A
:100780000030F3000030F2000030F1000030F000E3
:10079000F217F301D32B0030F3000030F2000030E9
:1007A000F1000030F0007308720471047004031D3E
:1007B000DA2BDB2BF42B0030F7000030F600003092
:1007C000F5000030F4008030F6047F30F704240890
:1007D000F8007808F7047708F3007608F200750847
:1007E000F1007408F000592D2B08031DF82BF92B8C
:1007F000022C0030F3000030F2000030F100003035
:10080000F000592D2B08F800F9017908FB002C089D
:100810007802FA00031CFB037A087F3EA5007B08E0
:100820000318013E003EA6007708A3007608A20048
:100830007508A1007408A0000030F7000030F60031
:100840000030F5000030F4000030AA000030A900AC
:100850000030A8000030A700AC017E2C2C08031942
:10086000322C332C532C0130F8000310A00DA10DB5
:10087000A20DA30DF80B352C0130F8000310F40D78
:10088000F50DF60DF70DF80B3E2CAA1F482C492C40
:100890004A2C74140130F8000310A70DA80DA90DFF
:1008A000AA0DF80B4C2C73082302031D612C72084F
:1008B0002202031D612C71082102031D612C7008A6
:1008C0002002031C642C652C7A2C2A177008A002C5
:1008D0007108031C710F6D2C6E2CA1027208031C91
:1008E000720F732C742CA2027308031C730F792CE3
:1008F0007A2CA3020130F8007808AC071A302C02D9
:10090000031C832C842C2E2C230822042104200475
:1009100003198B2C8C2CAB2C2714AB2C0130F8003A
:100920000310F40DF50DF60DF70DF80B902CAA1F22
:100930009A2C9B2C9C2C74140130F8000310A70DEA
:10094000A80DA90DAA0DF80B9E2CFF30A5070318C2
:10095000A60AFF30A607F61FAE2CAF2C8E2CAC01DA
:10096000AA1FB32CB42CD02CFF302705F800FF3081
:100970002805F900FF302905FA007F302A05FB0021
:100980007B087A04790478040319C72CC82CCB2C73
:10099000AC01AC0AD02C741CCE2CCF2CD02CC82C83
:1009A0002C080319D42CD52C062D0130F407003067
:1009B00003180130F507003003180130F607003046
:1009C00003180130F707771CE62CE72C062D740876
:1009D000F8007508F9007608FA007708FB00013086
:1009E000FC007B0DFB0CFA0CF90CF80CFC0BF12C49
:1009F0007B08F7007A08F6007908F5007808F4001B
:100A00000130A5070318A60A0030A6072608803A79
:100A1000FF0080307F02031D0F2DFF302502031CD5
:100A2000122D132D212DFF3083120313A50000304A
:100A3000A6000030F7000030F6000030F50000306E
:100A4000F400831203132608803AFF0080307F02EF
:100A5000031D2C2D0130250203182F2D302D3D2D87
:100A600083120313A501A6010030F7000030F60041
:100A70000030F5000030F400A401831203132508B0
:100A8000F8007808AB002B1C462D472D492DF61792
:100A90004D2D7F30F8007808F6052B08F80003107C
:100AA000780CF9007908F7002408F8007808F704B2
:100AB000EB2B08007308803983120313A000200871
:100AC000F8007308A0002007A1002108FA00F21F17
:100AD0006A2D6B2D6C2D7A147A080319702D712DE7
:100AE000812D7A0A031D752D762D7E2D0030F300A1
:100AF0000030F2000030F1000030F000F217F30196
:100B0000892D0030F3000030F2000030F100003099
:100B1000F00077088039A0002008F90079087806ED
:100B20000319932D942D952D78177708A000200791
:100B3000A1002108F900F61F9E2D9F2DA02D7914EC
:100B400079080319A42DA52DB52D790A031DA92D0A
:100B5000AA2DB22D0030F7000030F6000030F5006D
:100B60000030F400F617F701BD2D0030F70000301B
:100B7000F6000030F5000030F4007A08790203181E
:100B8000C22DC32D072E781FC62DC72DCB2D80302B
:100B9000A0002008F8067A08A0002008FB007908C9
:100BA000A0002008FA007B08A0002008F9007008C7
:100BB000A0002008FB007408A0002008F0007B08BB
:100BC000A0002008F4007108A0002008FB007508B0
:100BD000A0002008F1007B08A0002008F5007208A2
:100BE000A0002008FB007608A0002008F2007B0887
:100BF000A0002008F6007308A0002008FB0077087A
:100C0000A0002008F3007B08A0002008F700FB01EB
:100C10007908A000A1012108A3007A082002A200FF
:100C2000031CA3032308803AFF0080307F02031DCA
:100C30001B2E1A302202031C1E2E1F2E602E73083C
:100C4000720471047004031D262E282E0130292EF3
:100C5000003083120313A0002008FB000030F300D3
:100C60000030F2000030F1000030F0007908A00000
:100C70002008FA00662E7B1C3E2E3F2E4A2E7B0853
:100C800083120313A0000310200C0138A1002108D7
:100C9000FB004C2E0310FB0C701C4F2E502E512EBF
:100CA000FB17013083120313A000730DF30CF20C39
:100CB000F10CF00CA00B552E0130A0002008FA0713
:100CC00079087A02031C652E662E3B2E781B692E4E
:100CD0006A2EB92E7A08031D6E2E6F2E782E0030E4
:100CE000F3000030F2000030F1000030F000F12F8E
:100CF0007408F007750803110318013E0319812ECB
:100D0000F107760803110318013E0319882EF20734
:100D1000770803110318013E03198F2EF307731C84
:100D2000922E932E712F7B1C962E972EA22E7B082F
:100D300083120313A0000310200C0138A100210826
:100D4000FB00A42E0310FB0C701CA72EA82EA92EAE
:100D5000FB17013083120313A000730DF30CF20C88
:100D6000F10CF00CA00BAD2E0130A0002008FA070A
:100D7000712F7308803AFF007708803A7F02031DC5
:100D8000CB2E76087202031DCB2E75087102031D4F
:100D9000CB2E740870020318CE2ECF2E292FFF30D1
:100DA00083120313A000FF30A100FF30A200FF3028
:100DB000A3007408A4007508A5007608A6007708AB
:100DC000A7007008A4027108031C710FE82EE92E19
:100DD000A5027208031C720FEE2EEF2EA6027308F6
:100DE000031C730FF42EF52EA7022408A007250874
:100DF0000318250FFC2EFD2EA10726080318260F29
:100E0000022F032FA20727080318270AA307230886
:100E1000F3002208F2002108F1002008F0008030E1
:100E2000A0002008F806FB09FB0A7B08031D192F08
:100E30001A2F372F0130F007003003180130F10767
:100E4000003003180130F207003003180130F307B7
:100E5000372F7408F0027508031C750FF10276082D
:100E6000031C760FF2027708031C770FF302730856
:100E7000720471047004031D3E2F3F2F6D2F7B08F9
:100E8000031D432F442F6D2F0030F3000030F2007C
:100E90000030F1000030F000F12F01308312031315
:100EA000A0000310F00DF10DF20DF30DA00B512F6A
:100EB000FB1F5B2F5C2F5D2F70147B1C602F612F3D
:100EC000642F0314FB0D662F0310FB0D7A08031922
:100ED0006A2F6B2F6D2F0130FA02F21F702F712FC6
:100EE0004D2FF901FB1F752F762F842F7B087F393B
:100EF00003197B2F7C2F7F2FF901F90A842F701C97
:100F0000822F832F842F7C2F79080319882F892F14
:100F1000BF2F0130F007003003180130F107003017
:100F200003180130F207003003180130F307731C77
:100F30009A2F9B2FBF2F700883120313A0007108F4
:100F4000A1007208A2007308A3000130A400230DC1
:100F5000A30CA20CA10CA00CA40BA72F2308F30038
:100F60002208F2002108F1002008F0007A0A031993
:100F7000BA2FBB2FBF2F0130A0002008FA077A0A32
:100F80000319C32FC42FC92F7A08031DC82FC92FD7
:100F9000D72F0030F3000030F2000030F1000030B5
:100FA000F0007A08031DD52FD62FD72FF8017A1C11
:100FB000DA2FDB2FDD2FF217E32F7F30831203139D
:100FC000A0002008F2057A0883120313A000031082
:100FD000200CA1002108F300F81FEF2FF02FF12FB4
:100FE000F317080083120313D901DA01DB01DC01D6
:100FF000DD01DE01DF01E00183010A128A11102AFE
:10100000FF1B0A2883137F1883170008840A03191B
:10101000FF0A080008308A000408840A82070034A6
:0C102000543465346D3470343A340034BC
:101848000A128A1103200A128A1583160313111427
:1018580008000A128A1103200A128A158316031334
:10186800111508000A128A1103200A128A15700835
:101878008312031393000800F300F201731C452C34
:10188800462C4A2C7008F1007108F2070310F00D7D
:101898000310F30C7308031D522C532C422C7208AE
:1018A8000800F20083120313871472080A128A15BB
:1018B80092250A128A158312031307144230F10085
:1018C800F10B642C00008312031307100800F500C5
:1018D8007503031D702C712C792C74087F3E0A1235
:1018E8008A1587240A128A15862C02307506031D6C
:1018F8007E2C7F2C862C7408BF3E0A128A158724FA
:101908000A128A150800F30083120313871073085C
:101918000A128A1592250A128A15831203130714CC
:101928000D30F200FB30F100F10B982CF20B982CE3
:101938009D2C8312031307100330F2009730F10037
:10194800F10BA42CF20BA42CA92C080080308312D4
:101958000313AB062F08F3002E08F2002D08F10040
:101968002C08F0002B08F7002A08F6002908F500D3
:101978002808F4000A128A115A250A128A157308CF
:1019880083120313AB007208AA007108A90070083B
:10199800A8000800F401F501701CD32CD42CDA2C13
:1019A8007208F4070318F50A7308F50701300310E5
:1019B800F20DF30DFF3E031DDB2C01300310F10C7B
:1019C800F00CFF3E031DE22C70087104031DED2C82
:1019D800EE2CD02C7508F1007408F00008000A12EB
:1019E8008A1103200A128A158316031391150A1205
:1019F8008A1103200A128A15831203131308F200AE
:101A0800F3017208F4007308F5000A128A11032022
:101A18000A128A1570037104031D132D142D182D35
:101A28008316031391121B2D831603139116111697
:101A38007508F1007408F0000800283083120313B9
:101A48009400831603139101831203132008A40042
:101A58002108A5002208A6002308A70002300310C9
:101A6800A40DA50DA60DA70DFF3E031D332D2708B8
:101A7800F3002608F2002508F1002408F0000030E1
:101A8800F7007A30F6001230F5000030F4000A1240
:101A98008A15B7260A128A157008FF3E83160313A3
:101AA80093009401871507160800831203133E0854
:101AB800F7003D08F6003C08F5003B08F40042300A
:101AC800F300C830F2000030F1000030F0000A12D4
:101AD8008A1177230A128A15730883120313B30035
:101AE8007208B2007108B1007008B0000A128A15B5
:101AF80084270A128A15831203133008BF003F088F
:101B0800C00040080A128A1559260A128A1583123B
:101B18000313BF003F08C10041080800F000701C13
:101B2800962D972D9B2D8312031305149E2D83123A
:101B380003130510F01CA12DA22DA42D8514A52D8D
:101B48008510701DA82DA92DAB2D0515AC2D0511DF
:101B5800F01DAF2DB02DB22D8515B32D8511701E3A
:101B6800B62DB72DB92D0516BA2D0512F01EBD2DAF
:101B7800BE2DC02D8516C12D8512701FC42DC52DF3
:101B8800C72D0517C82D0513F01FCB2DCC2DCE2D35
:101B98008517CF2D85130800F801F901F52D780870
:101BA8007307F6007408F5000318F50AF81FDD2D11
:101BB800F5037508F700770883120313FF0076080A
:101BC80084000A128A1500200A128A150A128A1538
:101BD80055240A128A150130F8070318F90A00304B
:101BE800F90778087307F6007408F5000318F50A72
:101BF800F81FFF2DF5037508F70077088312031304
:101C0800FF00760884000A128A1500200A128A1535
:101C1800003A031D102E112ED32D08002730F50091
:101C2800F530F400F40B162EF50B162E30300A1290
:101C38008A1587240A128A150D30F500FB30F40046
:101C4800F40B242EF50B242E292E30300A128A1577
:101C580087240A128A156A30F400F40B312E00002A
:101C680030300A128A1587240A128A1538300A1267
:101C78008A1587240A128A1510300A128A158724B1
:101C88000A128A1501300A128A1587240A128A153F
:101C980006300A128A1587240A128A150C300A128D
:101CA8008A1587240A128A150800F2008D2E303012
:101CB800F0007008F300B52E3130F0007008F30022
:101CC800B52E3230F0007008F300B52E3330F00036
:101CD8007008F300B52E3430F0007008F300B52E0C
:101CE8003530F0007008F300B52E3630F00070087B
:101CF800F300B52E3730F0007008F300B52E3830F9
:101D0800F0007008F300B52E3930F0007008F300C9
:101D1800B52E7208F000F1017108003A0319952EEA
:101D2800B52E7008003A03195B2E013A0319602E8C
:101D3800033A0319652E013A03196A2E073A031963
:101D48006F2E013A0319742E033A0319792E013ABA
:101D580003197E2E0F3A0319832E013A0319882E90
:101D6800B52E730808000030FC000030FB0000307E
:101D7800FA000030F9007308720471047004031942
:101D8800C62EC72E142FFD01FD0AD72E0130F800EC
:101D98000310F00DF10DF20DF30DF80BCC2E013000
:101DA800F8007808FD07F31FDA2EDB2ECA2E013063
:101DB800F8000310F90DFA0DFB0DFC0DF80BDD2EE4
:101DC80073087702031DF22E72087602031DF22EA5
:101DD80071087502031DF22E70087402031CF52E9B
:101DE800F62E052F7008F4027108031C710FF50216
:101DF8007208031C720FF6027308031C730FF702B4
:101E0800791401300310F30CF20CF10CF00CFF3EC6
:101E1800031D062F0130FD02031D132F142FDB2E87
:101E28007C08F3007B08F2007A08F1007908F000DA
:101E38000800F601F11F212F222F292FF009F1099F
:101E4800F00A0319F10AF601F60AF31F2C2F2D2FB9
:101E5800362FF209F309F20A0319F30A0130F400E4
:101E68007408F606F701F8017008710403193D2F8C
:101E78003E2F752FF501F50A4C2F01300310F00D98
:101E8800F10DFF3E031D422F0130F4007408F507E1
:101E9800F11F4F2F502F412F01300310F70DF80D70
:101EA800FF3E031D512F71087302031D5D2F70083B
:101EB8007202031C602F612F682F7008F2027108EC
:101EC800031CF303F302771401300310F10CF00C38
:101ED800FF3E031D692F0130F502031D742F752F76
:101EE800502F76080319792F7A2F7F2FF709F809D1
:101EF800F70A0319F80A7808F1007708F0000800D3
:101F0800031083120313320D330DB4003408BA00E2
:101F18003A08031D902F912F9A2F0030B3000030FC
:101F2800B2000030B1000030B000FF2F3008B4001C
:101F38003108B5003208B6003308B7001F30031067
:101F4800B70CB60CB50CB40CFF3E031DA32F340818
:101F5800B8003808B900B217FF30B005FF30B10536
:101F6800FF30B2050030B3059630BA02BA1FBD2F54
:101F7800BE2FD82F3A08803A973E0318C42FC52F92
:101F8800C62F912F01300310B30CB20CB10CB00C5A
:101F9800FF3E031DC72F0130B4003408BA07031DE4
:101FA800D62FD72FC62FEF2F20303A02031CDD2F54
:101FB800DE2FEA2F912F0130B4000310B00DB10DC0
:101FC800B20DB30DB40BE12F0130BA023A08031D6C
:101FD800EE2FEF2FDF2F39080319F32FF42FFF2FE0
:101FE800B009B109B209B309B00A0319B10A031952
:081FF800B20A0319B30A080044
:04400E00D4E0FFFFFC
:00000001FF
