:020000040000FA
:060000000A128A110C280F
:10000800FE00030EF1000A08F2000A168A11542FA6
:100018000A128A110F28F901FA0183160313C9017C
:10002800CA01CB01CC01CD01CE0183010A128A1588
:10003800B12D8312031331088039B6003608BB008E
:100048003108B6003607B7003708C100B01F2D28A1
:100058002E282F284114410803193328342843280F
:10006800410A031D3828392841280030B1000030E2
:10007800B0000030AF000030AE00B0174B280030A1
:10008800B1000030B0000030AF000030AE003508DD
:100098008039B6003608BB063508B6003607B70003
:1000A8003708C000B41F59285A285B284014400854
:1000B80003195F2860286F28400A031D64286528F3
:1000C8006D280030B5000030B4000030B3000030B7
:1000D800B200B41777280030B5000030B400003003
:1000E800B3000030B200400803197B287C2881281F
:1000F8004108031D802881288A280030B10000307B
:10010800B0000030AF000030AE007D2B2E08B600E6
:100118003608F30034080A168A11D7270A128A11FA
:10012800740883120313C7007308C6004608B60094
:10013800B701B801B9013908BF003808BE0037084F
:10014800BD003608BC004708B600B701B801B901C0
:100158003908C5003808C4003708C3003608C2008B
:100168002F08B6003608F30033080A168A11D72775
:100178000A128A11740883120313C7007308C60091
:100188004608B600B701B801B9013608BC073708F8
:1001980003110318013E0319D228BD0738080311BB
:1001A8000318013E0319D928BE073908031103189B
:1001B800013E0319E028BF074708B600B701B80198
:1001C800B9013608C207370803110318013E03199D
:1001D800EE28C307380803110318013E0319F52850
:1001E800C407390803110318013E0319FC28C50781
:1001F8003008B6003608F30032080A168A11D727E5
:100208000A128A11740883120313C7007308C60000
:100218004608B600B701B801B9013608BC07370867
:1002280003110318013E03191A29BD0738080311E1
:100238000318013E03192129BE07390803110318C1
:10024800013E03192829BF074708B600B701B801BE
:10025800B9013608C207370803110318013E03190C
:100268003629C307380803110318013E03193D292D
:10027800C407390803110318013E03194429C507A7
:100288000830B6000310BC0DBD0DBE0DBF0DB60B7A
:1002980046292F08B6003608F30032080A168A11D4
:1002A800D7270A128A11740883120313C700730828
:1002B800C6004608B6004708B700B801B9013608B5
:1002C800BC07370803110318013E03196C29BD0741
:1002D800380803110318013E03197329BE073908AA
:1002E80003110318013E03197A29BF072E08B60027
:1002F8003608F30033080A168A11D7270A128A111A
:10030800740883120313C7007308C6004608B600B2
:100318004708B700B801B9013608BC073708031108
:100328000318013E03199929BD073808031103185A
:10033800013E0319A029BE07390803110318013E1D
:100348000319A729BF070830B6000310BC0DBD0D5F
:10035800BE0DBF0DB60BA9292E08B6003608F3004E
:1003680032080A168A11D7270A128A1174088312CA
:100378000313C7007308C6004608B6004708B7004D
:10038800B801B9013608BC07370803110318013E44
:100398000319CF29BD07380803110318013E0319B3
:1003A800D629BE07390803110318013E0319DD29B0
:1003B800BF072F08B6003608F30034080A168A115A
:1003C800D7270A128A11740883120313C700730807
:1003D800C6004608B6004708B700B801B901360894
:1003E800C207370803110318013E0319FC29C30784
:1003F800380803110318013E0319032AC4073908F2
:1004080003110318013E03190A2AC5073008B6006C
:100418003608F30033080A168A11D7270A128A11F8
:10042800740883120313C7007308C6004608B60091
:100438004708B700B801B9013608C20737080311E1
:100448000318013E0319292AC307380803110318A2
:10045800013E0319302AC407390803110318013E65
:100468000319372AC5073008B6003608F3003408E0
:100478000A168A11D7270A128A11740883120313DD
:10048800C7007308C6004608B6004708B700B80199
:10049800B90108300310B60DB70DB80DB90DFF3E00
:1004A800031D4E2A3608C207370803110318013EF8
:1004B80003195F2AC307380803110318013E0319FB
:1004C800662AC407390803110318013E03196D2A67
:1004D800C5073C08B6003D08B7003E08B8003F080D
:1004E800B90018300310B90CB80CB70CB60CFF3EA5
:1004F800031D762A3608C207370803110318013E80
:100508000319872AC307380803110318013E031982
:100518008E2AC407390803110318013E0319952AC6
:10052800C5070830B6000310BC0DBD0DBE0DBF0DCC
:10053800B60B972A41084007B600B701B70D360831
:10054800823EC60037080318013EFF3EC700C92A8D
:100558000130B6000310C20DC30DC40DC50DB60B96
:10056800AE2ABF1FB82AB92ABA2A42140130B600E7
:100578000310BC0DBD0DBE0DBF0DB60BBC2AFF3060
:10058800C6070318C70AFF30C707C41FCC2ACD2ADD
:10059800AC2AC001BF1FD12AD22AEE2AFF303C055F
:1005A800B600FF303D05B700FF303E05B8007F308C
:1005B8003F05B90039083804370436040319E52A19
:1005C800E62AE92AC001C00AEE2A421CEC2AED2AD2
:1005D800EE2AE62A40080319F22AF32A242B0130CE
:1005E800C207003003180130C30700300318013078
:1005F800C407003003180130C507451C042B052B20
:10060800242B4208B6004308B7004408B800450840
:10061800B9000130BA00390DB90CB80CB70CB60CDA
:10062800BA0B0F2B3908C5003808C4003708C300B7
:100638003608C2000130C6070318C70A0030C707CA
:100648004708803AFF0080307F02031D2D2BFF30C2
:100658004602031C302B312B3C2B7F3083120313B3
:10066800C5008030C4000030C3000030C200712BC8
:10067800831203134708803AFF0080307F02031D6E
:10068800472B0130460203184A2B4B2B572B0030BF
:1006980083120313C5000030C4000030C3000030CB
:1006A800C200BB01712B831203134608B60036083B
:1006B800C100FF30C205FF30C3057F30C4050030DC
:1006C800C505411C682B692B6A2BC4174108B60065
:1006D8000310360CB7003708C5003B08B6003608CB
:1006E800C5044508B1004408B0004308AF004208FB
:1006F800AE000800831203134B088039D00050085D
:10070800D8004B08D0005007D1005108DA00CA1FA2
:100718008E2B8F2B902B5A145A080319942B952B38
:10072800A52B5A0A031D992B9A2BA22B0030CB001C
:100738000030CA000030C9000030C800CA17CB0119
:10074800AD2B0030CB000030CA000030C9000030AB
:10075800C8004F088039D0005008D90059085806F9
:100768000319B72BB82BB92B58174F08D0005007CF
:10077800D1005108D900CE1FC22BC32BC42B59144A
:1007880059080319C82BC92BD92B590A031DCD2B7E
:10079800CE2BD62B0030CF000030CE000030CD005D
:1007A8000030CC00CE17CF01E12B0030CF00003055
:1007B800CE000030CD000030CC005A085902031892
:1007C800E62BE72B2B2C581FEA2BEB2BEF2B80303B
:1007D800D0005008D8065A08D0005008DB00590845
:1007E800D0005008DA005B08D0005008D90048084B
:1007F800D0005008DB004C08D0005008C8005B0847
:10080800D0005008CC004908D0005008DB004D0843
:10081800D0005008C9005B08D0005008CD004A0835
:10082800D0005008DB004E08D0005008CA005B0812
:10083800D0005008CE004B08D0005008DB004F080D
:10084800D0005008CB005B08D0005008CF00DB0177
:100858005908D000D1015108D3005A085002D200DB
:10086800031CD3035308803AFF0080307F02031D26
:100878003F2C1A305202031C422C432C802C83122A
:1008880003134B084A0449044804031D4C2C4E2CFE
:1008980001304F2C0030D0005008DB000030CB0076
:1008A8000030CA000030C9000030C8005908D00024
:1008B8005008DA00882C5B1C622C632C6C2C5B08BB
:1008C800D0000310500C0138D1005108DB006E2C09
:1008D8000310DB0C481C712C722C732CDB170130B5
:1008E800D0004B0DCB0CCA0CC90CC80CD00B752C06
:1008F8000130D0005008DA078312031359085A024E
:10090800031C872C882C5F2C581B8B2C8C2CD72CE9
:100918005A08031D902C912C9A2C0030CB000030E3
:10092800CA000030C9000030C800052E4C08C807AE
:100938004D0803110318013E0319A32CC9074E08DB
:1009480003110318013E0319AA2CCA074F08031103
:100958000318013E0319B12CCB074B1CB42CB52C42
:100968008B2D5B1CB82CB92CC22C5B08D000031053
:10097800500C0138D1005108DB00C42C0310DB0CEB
:10098800481CC72CC82CC92CDB170130D0004B0DD4
:10099800CB0CCA0CC90CC80CD00BCB2C0130D00026
:1009A8005008DA078B2D4B08803AFF004F08803A31
:1009B8007F02031DE92C4E084A02031DE92C4D084D
:1009C8004902031DE92C4C0848020318EC2CED2CB5
:1009D800452DFF30D000FF30D100FF30D200FF306E
:1009E800D3004C08D4004D08D5004E08D6004F0857
:1009F800D7004808D4024908031C490F042D052DC7
:100A0800D5024A08031C4A0F0A2D0B2DD6024B08A3
:100A1800031C4B0F102D112DD7025408D007550871
:100A28000318550F182D192DD10756080318560FFE
:100A38001E2D1F2DD20757080318570AD30753082E
:100A4800CB005208CA005108C9005008C8008030BD
:100A5800D0005008D806DB09DB0A5B08031D352DDA
:100A6800362D532D0130C807003003180130C9074F
:100A7800003003180130CA07003003180130CB07D3
:100A8800532D4C08C8024D08031C4D0FC9024E08CF
:100A9800031C4E0FCA024F08031C4F0FCB024B0812
:100AA8004A0449044804031D5A2D5B2D872D5B0811
:100AB800031D5F2D602D872D0030CB000030CA004C
:100AC8000030C9000030C800052E0130D0000310E6
:100AD800C80DC90DCA0DCB0DD00B6B2DDB1F752DA5
:100AE800762D772D48145B1C7A2D7B2D7E2D0314D3
:100AF800DB0D802D0310DB0D5A080319842D852D7D
:100B0800872D0130DA02CA1F8A2D8B2D692DD90154
:100B1800DB1F8F2D902D9E2D5B087F390319952D96
:100B2800962D992DD901D90A9E2D481C9C2D9D2DB5
:100B38009E2D962D59080319A22DA32DD72D0130CE
:100B4800C807003003180130C90700300318013006
:100B5800CA07003003180130CB074B1CB42DB52D44
:100B6800D72D4808D0004908D1004A08D2004B08C0
:100B7800D3000130D400530DD30CD20CD10CD00CBF
:100B8800D40BBF2D5308CB005208CA005108C90026
:100B98005008C8005A0A0319D22DD32DD72D013079
:100BA800D0005008DA075A0A0319DB2DDC2DE12D95
:100BB8005A08031DE02DE12DEF2D0030CB00003049
:100BC800CA000030C9000030C8005A08031DED2DC6
:100BD800EE2DEF2DD8015A1CF22DF32DF52DCA1745
:100BE800F92D7F30D0005008CA055A08D0000310EC
:100BF800500CD1005108CB00D81F032E042E052E0F
:100C0800CB1708008312031327088039F3007308F1
:100C1800AC002708F3007307F4007408B300A61F9C
:100C2800162E172E182E3314330803191C2E1D2EBA
:100C38002D2E330A031D212E222E2A2E0030A70026
:100C48000030A6000030A5000030A400A617A701B8
:100C5800352E0030A7000030A6000030A500003077
:100C6800A40023088039F3007308AC062308F300B6
:100C78007307F4007408B400A21F432E442E452EB7
:100C8800341434080319492E4A2E5A2E340A031DE7
:100C98004E2E4F2E572E0030A3000030A2000030F9
:100CA800A1000030A000A217A301622E0030A3000B
:100CB8000030A2000030A1000030A0002308220468
:100CC80021042004031D692E6A2E832E0030A700FC
:100CD8000030A6000030A5000030A4008030A60433
:100CE8007F30A7042C08F3007308A7042708A30083
:100CF8002608A2002508A1002408A000E22F330836
:100D0800031D872E882E912E0030A3000030A200EC
:100D18000030A1000030A000E22F3308F300F401F6
:100D28007408F60034087302F500031CF60375080E
:100D38007F3EAD0076080318013E003EAE0027084E
:100D4800AB002608AA002508A9002408A80000303E
:100D5800A7000030A6000030A5000030A400003035
:100D6800B2000030B1000030B0000030AF00B40174
:100D7800072F34080319C12EC22EE22E0130F300CA
:100D88000310A80DA90DAA0DAB0DF30BC42E01304D
:100D9800F3000310A40DA50DA60DA70DF30BCD2E82
:100DA800B21FD72ED82ED92E24140130F3000310E9
:100DB800AF0DB00DB10DB20DF30BDB2E23082B02D6
:100DC800031DF02E22082A02031DF02E21082902F5
:100DD800031DF02E20082802031CF32EF42E032FE7
:100DE80032172008A8022108031C210FA902220893
:100DF800031C220FAA022308031C230FAB02013095
:100E0800F3007308B4071A303402031C0C2F0D2F9B
:100E1800BD2E2B082A04290428040319142F152F82
:100E2800342F2F14342F0130F3000310A40DA50D17
:100E3800A60DA70DF30B192FB21F232F242F252F33
:100E480024140130F3000310AF0DB00DB10DB20D35
:100E5800F30B272FFF30AD070318AE0AFF30AE079C
:100E6800A61F372F382F172FB401B21F3C2F3D2F45
:100E7800592FFF302F05F300FF303005F400FF3005
:100E88003105F5007F303205F600760875047404E4
:100E980073040319502F512F542FB401B40A592F3A
:100EA800241C572F582F592F512F340803195D2F01
:100EB8005E2F8F2F0130A407003003180130A507DB
:100EC800003003180130A607003003180130A707C7
:100ED800271C6F2F702F8F2F2408F3002508F4008C
:100EE8002608F5002708F6000130F700760DF60C05
:100EF800F50CF40CF30CF70B7A2F7608A70075089D
:100F0800A6007408A5007308A4000130AD070318F3
:100F1800AE0A0030AE072E08803AFF0080307F020C
:100F2800031D982FFF302D02031C9B2F9C2FAA2FE7
:100F3800FF3083120313AD000030AE000030A7006D
:100F48000030A6000030A5000030A400831203136F
:100F58002E08803AFF0080307F02031DB52F013034
:100F68002D020318B82FB92FC62F83120313AD0112
:100F7800AE010030A7000030A6000030A500003008
:100F8800A400AC01831203132D08F3007308B30007
:100F9800331CCF2FD02FD22FA617D62F7F30F30098
:100FA8007308A6053308F3000310730CF4007408E3
:100FB800A7002C08F3007308A7047A2E0800F8008D
:100FC8007803031DE82FE92FF12F77087F3E0A16D3
:100FD8008A116B270A128A11FE2F02307806031D28
:100FE800F62FF72FFE2F7708BF3E0A168A116B27B8
:060FF8000A128A11080034
:10100A00F300731C09280A280E28831203130514F7
:10101A001128831203130510F31C14281528172806
:10102A00851418288510731D1B281C281E280515D1
:10103A001F280511F31D222823282528851526286F
:10104A008511731E29282A282C2805162D280512F1
:10105A00F31E302831283328851634288512731F49
:10106A00372838283A2805173B280513F31F3E2846
:10107A003F28412885174228851308008312031345
:10108A00A301A4016C2823087607A1007708A00011
:10109A000318A00AA31F5228A003831203132008CF
:1010AA00A2002208FF00210884000A168A110020E3
:1010BA000A128A150A168A113E270A128A1501305F
:1010CA0083120313A3070318A40A0030A4072308F2
:1010DA007607A1007708A0000318A00AA31F7628A4
:1010EA00A003831203132008A2002208FF0021088C
:1010FA0084000A168A1100200A128A15003A031D72
:10110A0087288828482808002730F800F530F70093
:10111A00F70B8D28F80B8D2830300A168A116B27A9
:10112A000A128A150D30F800FB30F700F70B9B28DE
:10113A00F80B9B28A02830300A168A116B270A124E
:10114A008A156A30F700F70BA828000030300A1613
:10115A008A116B270A128A1538300A168A116B27E8
:10116A000A128A1510300A168A116B270A128A1572
:10117A0001300A168A116B270A128A1506300A16D6
:10118A008A116B270A128A150C300A168A116B27E4
:10119A000A128A15080083160313230883120313FD
:1011AA00A70083160313220883120313A6008316CB
:1011BA000313210883120313A500831603132008BF
:1011CA0083120313A4004230A300C830A2000030E7
:1011DA00A1000030A0000A128A1106260A128A15F6
:1011EA00831203132308E7002208E6002108E5001A
:1011FA002008E4000A128A15E2210A128A158312CB
:10120A0003136408EF006F0883160313A40024086D
:10121A000A128A151B210A128A1583120313EF0078
:10122A006F0883160313A50025080800F5004F2947
:10123A003030F3007308F60077293130F300730871
:10124A00F60077293230F3007308F6007729333035
:10125A00F3007308F60077293430F3007308F600B8
:10126A0077293530F3007308F60077293630F30012
:10127A007308F60077293730F3007308F6007729E8
:10128A003830F3007308F60077293930F300730811
:10129A00F60077297508F300F4017408003A031977
:1012AA00572977297308003A03191D29013A0319A6
:1012BA002229033A03192729013A03192C29073A43
:1012CA0003193129013A03193629033A03193B292B
:1012DA00013A031940290F3A03194529013A03191A
:1012EA004A2977297608080083120313A101F41FFB
:1012FA007F2980298729F309F409F30A0319F40AD3
:10130A00A101A10AF61F8A298B299429F509F60950
:10131A00F50A0319F60A0130F7007708A106A201B7
:10132A00A3017308740403199B299C29D329A001DA
:10133A00A00AAA2901300310F30DF40DFF3E031D84
:10134A00A0290130F7007708A007F41FAD29AE29BC
:10135A009F2901300310A20DA30DFF3E031DAF29E3
:10136A0074087602031DBB2973087502031CBE2983
:10137A00BF29C6297308F5027408031CF603F6028E
:10138A00221401300310F40CF30CFF3E031DC7298D
:10139A000130A002031DD229D329AE29210803193D
:1013AA00D729D829DD29A209A309A20A0319A30A60
:1013BA002308F4002208F300080003108312031321
:1013CA00660D670DE8006808EE006E08031DEE2939
:1013DA00EF29F8290030E7000030E6000030E50088
:1013EA000030E4005D2A6408E8006508E900660840
:1013FA00EA006708EB001F300310EB0CEA0CE90C5B
:10140A00E80CFF3E031D012A6808EC006C08ED0099
:10141A00E617FF30E405FF30E505FF30E60500304A
:10142A00E7059630EE02EE1F1B2A1C2A362A6E08A2
:10143A00803A973E0318222A232A242AEF290130C8
:10144A000310E70CE60CE50CE40CFF3E031D252A0D
:10145A000130E8006808EE07031D342A352A242AD9
:10146A004D2A20306E02031C3B2A3C2A482AEF29C7
:10147A000130E8000310E40DE50DE60DE70DE80B79
:10148A003F2A0130EE026E08031D4C2A4D2A3D2ADE
:10149A006D080319512A522A5D2AE409E509E60969
:1014AA00E709E40A0319E50A0319E60A0319E70A30
:1014BA00080083120313A80028080319652A662A5C
:1014CA007A2AA31F692A6A2A7A2A2009AA002109E4
:1014DA00AB002209AC002309AD00AA0A0319AB0A22
:1014EA000319AC0A0319AD0A822A2308AD0022089F
:1014FA00AC002108AB002008AA002308220421041A
:10150A002004031D892A8A2A932A0030A300003066
:10151A00A2000030A1000030A000192B9630A400D0
:10152A002408A900A52A0130A4002408A90701302B
:10153A000310AD0CAC0CAB0CAA0CFF3E031D9D2A8C
:10154A00FE302D05031DAA2AAB2A982AC72A013084
:10155A00A4002408A9070130AA07003003180130A3
:10156A00AB07003003180130AC0700300318013014
:10157A00AD0701300310AD0CAC0CAB0CAA0CFF3E4E
:10158A00031DBF2AFF302D05031DCC2ACD2AAC2A04
:10159A00D92A0130A9020130A4000310AA0DAB0D0B
:1015AA00AC0DAD0DA40BD22AAC1BDC2ADD2AE32A32
:1015BA00023029020318E22AE32ACE2A2918E62A47
:1015CA00E72AEF2AFF30AA05FF30AB057F30AC05CA
:1015DA00FF30AD050310A90C2908A400A501A60136
:1015EA00A70118300310A40DA50DA60DA70DFF3EE7
:1015FA00031DF72A2408AA042508AB042608AC040C
:10160A002708AD04280803190B2B0C2B112BA31F39
:10161A000F2B102B112BAD172D08A3002C08A2009D
:10162A002B08A1002A08A000080083160313230828
:10163A0083120313A70083160313220883120313CA
:10164A00A60083160313210883120313A500831629
:10165A000313200883120313A4004230A300C830E6
:10166A00A2000030A1000030A0000A128A1106264A
:10167A000A128A15831203132308E7002208E600D8
:10168A002108E5002008E4000A128A15E2210A125C
:10169A008A1583120313640883160313A40024080B
:1016AA00A700230883120313E300831603132208F7
:1016BA0083120313E2008316031321088312031310
:1016CA00E10083160313200883120313E000643039
:1016DA00F5000030F600831603132708A400A501BD
:1016EA002408F3002508F4000A168A11B2270A1200
:1016FA008A15730883120313A0007408A10000302E
:10170A00A11BFF30A200A30001300A128A155E2233
:10171A000A128A15831203132308DF002208DE0047
:10172A002108DD002008DC000A168A118E270A1219
:10173A008A15831203135F08E7005E08E6005D0856
:10174A00E5005C08E4000A128A15E2210A128A15E9
:10175A0083120313640883160313A6002608A9003C
:10176A000A30F3000030F4002908A400A501240877
:10177A00F5002508F6000A128A1579210A128A1537
:10178A00730883160313A6002608A80028080A125D
:10179A008A151B210A128A1583160313A40024082A
:1017AA00AA002A08080083160313230883120313C6
:1017BA00A70083160313220883120313A6008316B5
:1017CA000313210883120313A500831603132008A9
:1017DA0083120313A4004230A300C830A2000030D1
:1017EA00A1000030A0000A128A1106260A128A15E0
:1017FA00831203132308E7002208E6002108E50004
:10180A002008E4000A128A15E2210A128A158312B4
:10181A000313640883160313A4002408A7002308EB
:10182A0083120313E300831603132208831203139C
:10183A00E20083160313210883120313E1008316BF
:10184A000313200883120313E0006430F50000300C
:10185A00F600831603132708A400A5012408F30041
:10186A002508F4000A168A11B2270A128A15730883
:10187A0083120313A0007408A1000030A11BFF30DB
:10188A00A200A30001300A128A155E220A128A15E2
:10189A00831203132308DF002208DE002108DD007B
:1018AA002008DC000A168A118E270A128A1583126A
:1018BA0003135F08E7005E08E6005D08E5005C08C0
:1018CA00E4000A128A15E2210A128A158312031306
:1018DA00640883160313A6002608AB000A30F30037
:1018EA000030F4002B08A400A5012408F5002508FF
:1018FA00F6000A128A1579210A128A1573088316C4
:10190A000313A6002608A800F630A4002408F30052
:10191A0028080A168A1129270A128A158316031318
:10192A002B07A5002508A90029080A128A151B21D8
:10193A000A128A1583160313A4002408AA002A0887
:10194A000800F600831203131F149F141F083F395F
:10195A0040389F00831603131F129F12682D8316A7
:10196A0003170814C330831203139F058316031346
:10197A000514A02D831603178814831203131F0856
:10198A00C33904389F00831603138514A02D8316C8
:10199A0003170815831203131F08C33908389F0059
:1019AA00831603130515A02D8316031788158312B2
:1019BA0003131F08C3390C389F00831603138515B8
:1019CA00A02D831603170816831203131F08C339A1
:1019DA0010389F00831603138516A02D831603174C
:1019EA008816831203131F08C33914389F008316FD
:1019FA0003130914A02D8316031708178312031360
:101A0A001F08C33918389F00831603138914A02DA1
:101A1A00831603178817831203131F08C3391C3848
:101A2A009F00831603130915A02D831603170914A3
:101A3A00831203131F08C33920389F008316031328
:101A4A000615A02D831603178914831203131F0882
:101A5A00C33924389F00831603138615A02D8316D5
:101A6A0003170915831203131F08C33928389F0067
:101A7A00831603138614A02D831603178915831260
:101A8A0003131F08C3392C389F0083160313061645
:101A9A00A02D831603170916831203131F08C339CF
:101AAA0030389F00831603130614A02D83160317DC
:101ABA008916831203131F08C33934389F0083160B
:101ACA0003138616A02D7608F400F5017508003A6E
:101ADA000319702DA02D7408003A0319B42C013A89
:101AEA000319BF2C033A0319CC2C013A0319D92C38
:101AFA00073A0319E62C013A0319F32C033A03199E
:101B0A00002D013A03190D2D0F3A03191A2D013A26
:101B1A000319272D033A0319342D013A0319412DCC
:101B2A00073A03194E2D013A03195B2DA02D9F1375
:101B3A00B02D9F17B02D7308F400F5017508003A0F
:101B4A000319A82DB02D7408003A03199C2D013AE7
:101B5A0003199E2DB02D08008316031788018901E9
:101B6A008316031385018701FF3086008801F3017C
:101B7A000D300A128A15A6240A128A150A168A1123
:101B8A0020270A128A15831203139F140A128A1530
:101B9A0089200A128A15F701F70A01300A128A11F6
:101BAA00E3270A128A150130F6008030F7000A127C
:101BBA008A1543200A128A15073083160313AC00CC
:101BCA002C08F70001300A128A11E3270A128A1533
:101BDA000730F6008030F7000A128A1543200A12ED
:101BEA008A150C3083160313AC002C08F700013059
:101BFA000A128A11E3270A128A150B30F60080307E
:101C0A00F7000A128A1543200A128A15831603134B
:101C1A00C601C701C401C501B33084000530FF0005
:101C2A0083138001840AFF0B152E4E08AC00AD0108
:101C3A00AE01AF012F0883120313A3008316031307
:101C4A002E0883120313A200831603132D0883128E
:101C5A000313A100831603132C0883120313A00095
:101C6A0001300A128A155E220A128A158312031398
:101C7A002308B5002208B4002108B3002008B200E6
:101C8A00BE30B100B430B0002C30AF003D30AE00F1
:101C9A000A128A111D200A128A15831203133108A7
:101CAA00CF003008CE002F08CD002E08CC004230DD
:101CBA00CB006C30CA00BD30C9007130C8000A12AE
:101CCA008A117E230A128A15831203134B0883167C
:101CDA000313BB00831203134A0883160313BA00C3
:101CEA0083120313490883160313B90083120313DB
:101CFA00480883160313B8003B0883120313CF0066
:101D0A00831603133A0883120313CE0083160313B0
:101D1A00390883120313CD0083160313380883127C
:101D2A000313CC004030CB008030CA000030C90019
:101D3A000030C8000A128A117E230A128A158312F9
:101D4A0003134B08E7004A08E6004908E50048087B
:101D5A00E4000A128A15E2210A128A158312031371
:101D6A00640883160313AC002C08C8000430F3007F
:101D7A000030F40048084607AC00AD01AD0D470835
:101D8A002C07AE000030031801302D07AF004508BC
:101D9A002E07F5000030031801302F07F6000A124B
:101DAA008A1579210A128A15730883160313B0005B
:101DBA003008C800F701F70A02300A128A11E3272D
:101DCA000A128A15831603134808AC00AD01AE0146
:101DDA00AF012F0883120313A300831603132E08DF
:101DEA0083120313A200831603132D08831203130D
:101DFA00A100831603132C0883120313A0000030DA
:101E0A000A128A155E220A128A15831203132308FC
:101E1A0083160313BF0083120313220883160313C6
:101E2A00BE0083120313210883160313BD00831215
:101E3A000313200883160313BC003F08A3003E08BF
:101E4A00A2003D08A1003C08A0000A128A15D82366
:101E5A000A128A1583160313AC002C08B500480829
:101E6A00AC00AD01AE01AF012F0883120313A3002A
:101E7A00831603132E0883120313A2008316031377
:101E8A002D0883120313A100831603132C0883124F
:101E9A000313A00000300A128A155E220A128A155C
:101EAA0083120313230883160313C3008312031335
:101EBA00220883160313C200831203132108831610
:101ECA000313C10083120313200883160313C000EF
:101EDA004308A3004208A2004108A1004008A0004C
:101EEA000A128A151A230A128A1583160313AC00DA
:101EFA002C08B4004808AC00AD01AE01AF012F08B0
:101F0A0083120313A300831603132E0883120313E9
:101F1A00A200831603132D0883120313A10083164C
:101F2A0003132C0883120313A00000300A128A1527
:101F3A005E220A128A1583120313230883160313D7
:101F4A00A30083120313220883160313A200831229
:101F5A000313210883160313A10083120313200815
:101F6A0083160313A0000A128A15D0200A128A15B2
:101F7A0083160313B0003008B300B330F600003004
:101F8A00F7000A128A1543200A128A1583120313CC
:101F9A00861CD02FD12FD32F0814D42F08101D3010
:101FAA00831603134802031CDB2FDC2FE02F831256
:101FBA0003138814E32F8312031388100618E62FDD
:101FCA00E72FE92F8815EA2F88118316031344088F
:101FDA00AC002C08C5004708AC002C08C400460811
:101FEA00AC002C08C7004808AC002C08C6001A2E02
:101FFA000A128A110C28FF1B0A2883137F188317D9
:10200A000008840A0319FF0A080010308A0004082D
:10201A00840A82070034543465346D3470343A3497
:10202A000034533432343A340034533433343A3487
:02203A00003470
:102E4000831203130C13831603130C178B170B1722
:102E50000800F600F501761C2E2F2F2F332F730854
:102E6000F4007408F5070310F30D0310F60C760850
:102E7000031D3B2F3C2F2B2F75080800F5008312F4
:102E80000313871475080A128A1505200A168A1179
:102E90008312031307144230F400F40B4D2F00008B
:102EA0008312031307100800831203130C1F592FFA
:102EB0005A2F642F1E08F000700883160313CE00EB
:102EC000831203130C139F1472088A00710E83007F
:102ED000FE0E7E0E0900F60083120313871076089B
:102EE0000A128A1505200A168A1183120313071481
:102EF0000D30F500FB30F400F40B7C2FF50B7C2F2C
:102F0000812F8312031307100330F5009730F4006C
:102F1000F40B882FF50B882F8D2F0800803083123B
:102F20000313DF066308CB006208CA006108C9000A
:102F30006008C8005F08CF005E08CE005D08CD00C5
:102F40005C08CC000A128A117E230A168A118312A9
:102F500003134B08DF004A08DE004908DD0048087B
:102F6000DC000800F701F801731CB72FB82FBE2F43
:102F70007508F7070318F80A7608F80701300310F8
:102F8000F50DF60DFF3E031DBF2F01300310F40CAD
:102F9000F30CFF3E031DC62F73087404031DD12FCD
:102FA000D22FB42F7808F4007708F30008008312BA
:102FB0000313A400A001A1017308F500F601750830
:102FC000A2007608A300241CE62FE72FED2F22088D
:102FD000A0070318A10A2308A10701300310A20DBE
:102FE000A30DFF3E031DEE2F0310A40C2408031DA8
:102FF000FA2FFB2FE32F2108F4002008F30008002C
:04400E00D4E0FFFFFC
:00000001FF
