:020000040000FA
:060000000A128A110C280F
:10000800FE00030EF1000A08F2000A128A15902871
:100018000A128A110F28F801F901FA01831603134D
:10002800BF01C001C101C201C301C401C501C601AC
:10003800C701C801C901CA0183010A128A15A12D85
:100048008312031333088039B8003808BD00330819
:10005800B8003807B9003908C300B21F342835285A
:10006800372843143728430803193B283C284C28D1
:10007800430A031D402841284A280030B3000030B5
:10008800B2000030B1000030B0004A28B21755283D
:100098000030B3000030B2000030B1000030B000D2
:1000A800552837088039B8003808BD063708B80021
:1000B8003807B9003908C200B61F632864286628C3
:1000C80042146628420803196A286B287B28420ACA
:1000D800031D6F28702879280030B7000030B6005B
:1000E8000030B5000030B4007928B61784280030F5
:1000F800B7000030B6000030B5000030B4008428E6
:1001080042080319882889288F284308031D8D2849
:100118008E2899288F280030B3000030B2000030B4
:10012800B1000030B000982B982B3008B800380880
:10013800F30036080A168A11F9250A128A1174087A
:1001480083120313C9007308C8004808B800B9012E
:10015800BA01BB013B08C1003A08C0003908BF001A
:100168003808BE004908B800B901BA01BB013B080C
:10017800C7003A08C6003908C5003808C400310865
:10018800B8003808F30035080A168A11F9250A124A
:100198008A11740883120313C9007308C800480839
:1001A800B800B901BA01BB013808BE073908031104
:1001B8000318013E0319E128BF073A080311031881
:1001C800013E0319E828C0073B0803110318013E44
:1001D8000319EF28C1074908B800B901BA01BB01E2
:1001E8003808C407390803110318013E0319FD280C
:1001F800C5073A0803110318013E03190429C60765
:100208003B0803110318013E03190B29C7073208DD
:10021800B8003808F30034080A168A11F9250A12BA
:100228008A11740883120313C9007308C8004808A8
:10023800B800B901BA01BB013808BE073908031173
:100248000318013E03192929BF073A0803110318A7
:10025800013E03193029C0073B0803110318013E6A
:1002680003193729C1074908B800B901BA01BB0108
:100278003808C407390803110318013E0319452932
:10028800C5073A0803110318013E03194C29C6078C
:100298003B0803110318013E03195329C707083007
:1002A800B8000310BE0DBF0DC00DC10DB80B552908
:1002B8003108B8003808F30034080A168A11F925FD
:1002C8000A128A11740883120313C9007308C8003C
:1002D8004808B8004908B900BA01BB013808BE0788
:1002E800390803110318013E03197B29BF073A088F
:1002F80003110318013E03198229C0073B080311A3
:100308000318013E03198929C1073008B8003808C5
:10031800F30035080A168A11F9250A128A11740899
:1003280083120313C9007308C8004808B8004908B5
:10033800B900BA01BB013808BE0739080311031810
:10034800013E0319A829BF073A0803110318013E03
:100358000319AF29C0073B0803110318013E03190D
:10036800B629C1070830B8000310BE0DBF0DC00D77
:10037800C10DB80BB8293008B8003808F3003408A4
:100388000A168A11F9250A128A11740883120313AE
:10039800C9007308C8004808B8004908B900BA017C
:1003A800BB013808BE07390803110318013E0319B9
:1003B800DE29BF073A0803110318013E0319E5298E
:1003C800C0073B0803110318013E0319EC29C107B4
:1003D8003108B8003808F30036080A168A11F925DA
:1003E8000A128A11740883120313C9007308C8001B
:1003F8004808B8004908B900BA01BB013808C40761
:10040800390803110318013E03190B2AC5073A08D6
:1004180003110318013E0319122AC6073B080311EA
:100428000318013E0319192AC7073208B80038080B
:10043800F30035080A168A11F9250A128A11740878
:1004480083120313C9007308C8004808B800490894
:10045800B900BA01BB013808C407390803110318E9
:10046800013E0319382AC5073A0803110318013E4B
:1004780003193F2AC6073B0803110318013E031955
:10048800462AC7073208B8003808F30036080A16A3
:100498008A11F9250A128A11740883120313C900F4
:1004A8007308C8004808B8004908B900BA01BB0178
:1004B80008300310B80DB90DBA0DBB0DFF3E031D72
:1004C8005D2A3808C407390803110318013E0319C7
:1004D8006E2AC5073A0803110318013E0319752A45
:1004E800C6073B0803110318013E03197C2AC707F6
:1004F8003E08B8003F08B9004008BA004108BB00F0
:1005080018300310BB0CBA0CB90CB80CFF3E031D15
:10051800852A3808C407390803110318013E03194E
:10052800962AC5073A0803110318013E03199D2AA4
:10053800C6073B0803110318013E0319A42AC7077D
:100548000830B8000310BE0DBF0DC00DC10DB80BAB
:10055800A62A43084207B800B901B90D3808823EF7
:10056800C80039080318013EFF3EC900DA2A0130E5
:10057800B8000310C40DC50DC60DC70DB80BBD2AB4
:10058800C11FC72AC82ACA2A4414CA2A0130B80077
:100598000310BE0DBF0DC00DC10DB80BCC2AFF3026
:1005A800C8070318C90AFF30C907DA2AC61FDD2A97
:1005B800DE2ABB2ADF2AC201C11FE32AE42A042B50
:1005C800FF303E05B800FF303F05B900FF30400559
:1005D800BA007F304105BB003B083A0439043804AF
:1005E8000319F72AF82AFB2AC201C20A042B441C61
:1005F800FE2AFF2A042BC201C20A042B042B042B57
:1006080042080319082B092B3C2B0130C407003082
:1006180003180130C507003003180130C607003041
:1006280003180130C707471C1A2B1B2B3C2B440807
:10063800B8004508B9004608BA004708BB000130B1
:10064800BC003B0DBB0CBA0CB90CB80CBC0B252B71
:100658003B08C7003A08C6003908C5003808C40076
:100668000130C8070318C90A0030C9073C2B3C2BC6
:100678004908803AFF0080307F02031D452BFF3078
:100688004802031C482B492B542B7F308312031339
:10069800C7008030C6000030C5000030C4008B2B76
:1006A800831203134908803AFF0080307F02031D3C
:1006B8005F2B013048020318622B632B6F2B00302D
:1006C80083120313C7000030C6000030C500003095
:1006D800C400BD018B2B831203134808B8003808E7
:1006E800C300FF30C405FF30C5057F30C6050030A4
:1006F800C705431C802B812B832BC617832B4308EC
:10070800B8000310380CB9003908C7008B2B3D0816
:10071800B8003808C7044708B3004608B2004508BF
:10072800B1004408B000982B0800831203134D0849
:100738008039D2005208DE004D08D2005207D3009B
:100748005308E000CC1FA92BAA2BAC2B6014AC2BB0
:1007580060080319B02BB12BC22B600A031DB52BFF
:10076800B62BBF2B0030CD000030CC000030CB00C2
:100778000030CA00BF2BCC17CD01CB2B0030CD00E9
:100788000030CC000030CB000030CA00CB2B510821
:100798008039D2005208DF005F085E060319D52BA6
:1007A800D62BD82B5E17D82B5108D2005207D3006E
:1007B8005308DF00D01FE12BE22BE42B5F14E42B5E
:1007C8005F080319E82BE92BFA2B5F0A031DED2BB1
:1007D800EE2BF72B0030D1000030D0000030CF00D6
:1007E8000030CE00F72BD017D101022C0030D100F9
:1007F8000030D0000030CF000030CE0060085F022B
:100808000318072C082C4E2C5E1F0B2C0C2C112CBB
:100818008030D2005208DE06112C6008D20052083F
:10082800E1005F08D2005208E0006108D2005208D7
:10083800DF004A08D2005208E1004E08D2005208F0
:10084800CA006108D2005208CE004B08D2005208F4
:10085800E1004F08D2005208CB006108D2005208CC
:10086800CF004C08D2005208E1005008D2005208CC
:10087800CC006108D2005208D0004D08D2005208BE
:10088800E1005108D2005208CD006108D200520898
:10089800D1004E2CE1016008D200D301D209D3095E
:1008A800D20A0319D30A5F085207D4005308031861
:1008B800530AD5005508803AFF0080307F02031D97
:1008C800672C1A305402031C6A2C6B2CAC2C831234
:1008D80003134D084C044B044A04031D742C762C56
:1008E8000130772C0030D2005208E1000030CD00F2
:1008F8000030CC000030CB000030CA005F08D200C6
:100908005208E000B52CAC2C611C8B2C8C2C952C3F
:100918006108D2000310520C0138D3005308E100DB
:10092800982C0310E10C982C4A1C9B2C9C2C9E2C78
:10093800E1179E2C0130D2004D0DCD0CCC0CCB0C08
:10094800CA0CD20BA02C0130D2005208E007AC2C04
:10095800831203135F086002031CB32CB42C882C89
:10096800B52C5E1BB82CB92C082D6008031DBD2CB6
:10097800BE2CC82C0030CD000030CC000030CB009D
:100988000030CA00542E542E4E08CA074F080311CF
:100998000318013E0319D12CCB0750080311031883
:1009A800013E0319D82CCC07510803110318013E46
:1009B8000319DF2CCD074D1CE22CE32CD12D611C33
:1009C800E62CE72CF02C6108D2000310520C0138F9
:1009D800D3005308E100F32C0310E10CF32C4A1C5C
:1009E800F62CF72CF92CE117F92C0130D2004D0D1B
:1009F800CD0CCC0CCB0CCA0CD20BFB2C0130D2008A
:100A08005208E007D12DD12D4D08803AFF0051083A
:100A1800803A7F02031D1A2D50084C02031D1A2D1F
:100A28004F084B02031D1A2D4E084A0203181D2DAC
:100A38001E2D842DFF30D200FF30D300FF30D400AC
:100A4800FF30D5004E08D6004F08D7005008D80010
:100A58005108D9004A09DA004B09DB004C09DC00CF
:100A68004D09DD00DA0A0319DB0A0319DC0A031948
:100A7800DD0A5A08D6075B0803185B0F442D452D7D
:100A8800D7075C0803185C0F4A2D4B2DD8075D0863
:100A980003185D0AD9075608D20757080318570FD5
:100AA800562D572DD30758080318580F5C2D5D2D68
:100AB800D40759080318590AD5075508CD00540812
:100AC800CC005308CB005208CA008030D20052082C
:100AD800DE06E109E10A6108031D732D742D922DCC
:100AE8000130CA07003003180130CB070030031863
:100AF8000130CC07003003180130CD07922D922D1C
:100B08004E08CA024F08031C4F0FCB025008031CA3
:100B1800500FCC025108031C510FCD024D084C0454
:100B28004B044A04031D992D9A2DCB2D6108031DF2
:100B38009E2D9F2DCB2D0030CD000030CC000030F5
:100B4800CB000030CA00542E542ECB2D0130D200D9
:100B58000310CA0DCB0DCC0DCD0DD20BAC2DE11F62
:100B6800B62DB72DB82D4A14611CBB2DBC2DBF2D39
:100B78000314E10DC22D0310E10DC22D6008031905
:100B8800C62DC72DCB2D0130E002CB2DCB2DCC1F90
:100B9800CE2DCF2DAA2DD12DD12DDF01E11FD52DA1
:100BA800D62DE82D61087F390319DB2DDC2DDF2DCB
:100BB800DF01DF0AE82D4A1CE22DE32DE82DDF01D5
:100BC800DF0AE82DE82DE82D5F080319EC2DED2D3F
:100BD800232E0130CA07003003180130CB0700303C
:100BE80003180130CC07003003180130CD074D1C25
:100BF800FE2DFF2D232E4A08D2004B08D3004C08A7
:100C0800D4004D08D5000130D600550DD50CD40CB4
:100C1800D30CD20CD60B092E5508CD005408CC00A5
:100C28005308CB005208CA00600A03191C2E1D2E57
:100C3800232E0130D2005208E007232E232E600A0B
:100C48000319272E282E2E2E6008031D2C2E2D2E3C
:100C58003E2E2E2E0030CD000030CC000030CB00D0
:100C68000030CA006008031D3A2E3B2E3E2EDE01DE
:100C78003E2E3E2E601C412E422E442ECC17482E6E
:100C88007F30D2005208CC056008D2000310520C05
:100C9800D3005308CD00DE1F522E532E542ECD17ED
:100CA8000800F600831203131F149F141F083F390E
:100CB80040389F00831603131F129F12182F8316A4
:100CC80003170814C330831203139F0583160313F5
:100CD8000514522F831603178814831203131F0851
:100CE800C33904389F00831603138514522F8316C3
:100CF80003170815831203131F08C33908389F0008
:100D0800831603130515522F8316031788158312AC
:100D180003131F08C3390C389F0083160313851566
:100D2800522F831603170816831203131F08C3399B
:100D380010389F00831603138516522F8316031746
:100D48008816831203131F08C33914389F008316AB
:100D580003130914522F831603170817831203135A
:100D68001F08C33918389F00831603138914522F9C
:100D7800831603178817831203131F08C3391C38F7
:100D88009F00831603130915522F8316031709149E
:100D9800831203131F08C33920389F0083160313D7
:100DA8000615522F831603178914831203131F087D
:100DB800C33924389F00831603138615522F8316D0
:100DC80003170915831203131F08C33928389F0016
:100DD800831603138614522F83160317891583125B
:100DE80003131F08C3392C389F00831603130616F4
:100DF800522F831603170916831203131F08C339CA
:100E080030389F00831603130614522F83160317D6
:100E18008916831203131F08C33934389F008316B9
:100E280003138616522F522F7608F400F501750821
:100E3800003A0319202F522F7408003A0319632E21
:100E4800013A03196E2E033A03197B2E013A03194E
:100E5800882E073A0319952E013A0319A22E033A50
:100E68000319AF2E013A0319BC2E0F3A0319C92EE4
:100E7800013A0319D62E033A0319E32E013A03194E
:100E8800F02E073A0319FD2E013A03190A2F522FA3
:100E9800522F9F13622F9F17622F622F7308F4003F
:100EA800F5017508003A03195A2F622F7408003AA1
:100EB80003194D2F013A03194F2F622F080083128F
:100EC80003136208E6006308E7006408E8006508A1
:100ED800E9000310680D690DEA006A08EC006C0867
:100EE800031D772F782F822F0030E5000030E400B3
:100EF8000030E3000030E200FE2FFE2F6208E6001B
:100F08006308E7006408E8006508E9001F3003107B
:100F1800E90CE80CE70CE60CFF3E031D8B2F660876
:100F2800EA006A08EB00E417FF30E205FF30E3054A
:100F3800FF30E4050030E5059630EC02EC1FA52FE4
:100F4800A62FCB2F6C08803A973E0318AC2FAD2FF5
:100F5800B82F0030E5000030E4000030E300003036
:100F6800E200FE2FFE2FB82F01300310E50CE40C31
:100F7800E30CE20CFF3E031DB92F0130E6006608C2
:100F8800EC07031DC82FC92FB82FEE2FEE2F2030E6
:100F98006C02031CD02FD12FE72F0030E500003062
:100FA800E4000030E3000030E200FE2FFE2FE72FC0
:100FB8000130E6000310E20DE30DE40DE50DE60B4C
:100FC800DE2F0130EC026C08031DEB2FEC2FDC2F19
:100FD800EE2FEE2F6B080319F22FF32FFE2FE209E5
:100FE800E309E409E509E20A0319E30A0319E40A33
:060FF8000319E50A0800E0
:10100600F300730883160313930036308312031319
:1010160094008030831603139400013091008715E5
:1010260007168B170B17831203138C1183160313E2
:101036008C15080083120313A101F41F232824280A
:101046002C28F309F409F30A0319F40AA101A10AE9
:101056002C28F61F2F2830283A28F509F609F50A14
:101066000319F60A0130F7007708A1063A28A2010B
:10107600A301730874040319412842287F28A0019C
:10108600A00A512801300310F30DF40DFF3E031D95
:1010960046280130F7007708A0075128F41F542886
:1010A600552845285728572801300310A20DA30DAF
:1010B600FF3E031D582874087602031D6428730832
:1010C6007502031C6728682870287308F5027408DF
:1010D600031CF603F6022214702801300310F40CE8
:1010E600F30CFF3E031D71280130A002031D7C286E
:1010F6007D2857287F287F282108031983288428DC
:101106008A28A209A309A20A0319A30A8A2823087E
:10111600F4002208F3008F280800831203130C1F23
:1011260095289628A1281E08F00070088316031338
:10113600CA00831203130C139F14A1288C1DA42824
:10114600A52807291412141BA928AA28AF28941F1A
:10115600AD28AE28B728AF281308F0007008F900AC
:10116600141394131416B72883160313941ABC2861
:10117600BD28DF281419C028C128DF2883120313CD
:101186001308F0007008F9008C111416CA2883168B
:101196000313141CCF28D028CA28D128831203137E
:1011A6001308F000700883160313C900A630F00078
:1011B600F00BDB2800000329941AE228E328032910
:1011C600141DE628E7280329831203131308F000E9
:1011D6007008F9008316031314107808831203139A
:1011E60093001416A630F000F00BF7280000FB2839
:1011F60083160313141800290129FB280329032940
:10120600831203138C11072972088A00710E83005A
:10121600FE0E7E0E090083120313AA002A08031984
:10122600152916292A29A51F19291A292A29220921
:10123600AC002309AD002409AE002509AF00AC0AB5
:101246000319AD0A0319AE0A0319AF0A3229250894
:10125600AF002408AE002308AD002208AC00250824
:10126600240423042204031D39293A294429003081
:10127600A5000030A4000030A3000030A200D12950
:10128600D1299630A6002608AB0057290130A600C2
:101296002608AB0701300310AF0CAE0CAD0CAC0C3E
:1012A600FF3E031D4E295729FE302F05031D5C29DD
:1012B6005D2949297A297A290130A6002608AB0733
:1012C6000130AC07003003180130AD0700300318B9
:1012D6000130AE07003003180130AF0701300310AC
:1012E600AF0CAE0CAD0CAC0CFF3E031D7229FF30EB
:1012F6002F05031D7F2980295F298E298E2901301C
:10130600AB020130A6000310AC0DAD0DAE0DAF0D56
:10131600A60B86298E29AE1B91299229992902307E
:101326002B02031897299829822999292B189C2979
:101336009D29A529FF30AC05FF30AD057F30AE05F0
:10134600FF30AF050310AB0C2B08A600A701A801C0
:10135600A90118300310A60DA70DA80DA90DFF3E73
:10136600031DAD292608AC042708AD042808AE04E1
:101376002908AF042A080319C129C229C829A51FAB
:10138600C529C629C829AF17C8292F08A5002E08C0
:10139600A4002D08A3002C08A200D129080083165A
:1013A6000313230883120313A700831603132208CB
:1013B60083120313A6008316031321088312031353
:1013C600A50083160313200883120313A4004230DA
:1013D600A300C830A2000030A1000030A0000A120D
:1013E6008A1598230A128A15831203132308E50027
:1013F6002208E4002108E3002008E2000A128A110C
:1014060063270A128A15831203136208ED006D081A
:1014160083160313A4006430F5000030F600240898
:1014260083120313ED00EE016D08F3006E08F4005D
:101436000A168A1125260A128A15730883120313BF
:10144600A2007408A3000030A31BFF30A400A5006F
:1014560001300A128A150E210A128A158312031305
:101466002508B3002408B2002308B1002208B00002
:101476000A168A1176250A128A158312031333086F
:10148600D1003208D0003108CF003008CE008316D4
:101496000313230883120313CD00831603132208B4
:1014A60083120313CC00831603132108831203133C
:1014B600CB0083160313200883120313CA000A12F3
:1014C6008A1199230A128A15831203134D08E5001F
:1014D6004C08E4004B08E3004A08E2000A128A11AD
:1014E60063270A128A15831203136208EF006F0836
:1014F60083160313A6000A30F3000030F400260812
:1015060083120313ED00EE016D08F5006E08F60078
:101516000A128A151D200A128A15730883120313EC
:10152600EF006F0883160313A50025080A168A1113
:10153600A0270A128A1583120313ED006D0883167D
:101546000313A7002708A72A0800831603132308F6
:1015560083120313A70083160313220883120313AF
:10156600A60083160313210883120313A50083160E
:101576000313200883120313A4004230A300C830CB
:10158600A2000030A1000030A0000A128A1598239C
:101596000A128A15831203132308E5002208E400C1
:1015A6002108E3002008E2000A128A1163270A12C2
:1015B6008A15831203136208ED006D088316031360
:1015C600A4006430F5000030F600240883120313EB
:1015D600ED00EE016D08F3006E08F4000A168A119C
:1015E60025260A128A15730883120313A2007408AB
:1015F600A3000030A31BFF30A400A50001300A128F
:101606008A150E210A128A15831203132508B300C0
:101616002408B2002308B1002208B0000A168A1175
:1016260076250A128A15831203133308D10032086D
:10163600D0003108CF003008CE00831603132308EC
:1016460083120313CD008316031322088312031398
:10165600CC0083160313210883120313CB008316D1
:101666000313200883120313CA000A128A1199234E
:101676000A128A15831203134D08E5004C08E4008C
:101686004B08E3004A08E2000A128A1163270A128D
:101696008A15831203136208EF006F08831603137B
:1016A600A8000A30F3000030F40028088312031360
:1016B600ED00EE016D08F5006E08F6000A128A15B7
:1016C6001D200A128A15730883120313EF006F0890
:1016D60083160313A5000A3083120313ED006D0869
:1016E600F3008316031325080A168A119B250A128E
:1016F6008A15FF3A013E8316031328078312031344
:10170600EE006E0883160313A60026080A168A1131
:10171600A0270A128A1583120313ED006D0883169B
:101726000313A7002708972B080083120313270823
:101736008039F3007308AC002708F3007307F40040
:101746007408B300A61FA82BA92BAB2B3314AB2B05
:1017560033080319AF2BB02BC12B330A031DB42B4F
:10176600B52BBE2B0030A7000030A6000030A50028
:101776000030A400BE2BA617A701CA2B0030A70075
:101786000030A6000030A5000030A400CA2B2308B4
:101796008039F3007308AC062308F3007307F400DE
:1017A6007408B400A21FD82BD92BDB2B3414DB2BE7
:1017B60034080319DF2BE02BF12B340A031DE42B2D
:1017C600E52BEE2B0030A3000030A2000030A10074
:1017D6000030A000EE2BA217A301F92B0030A300C6
:1017E6000030A2000030A1000030A000230822042F
:1017F60021042004031D002C012C1B2C0030A70003
:101806000030A6000030A5000030A4008030A604F9
:101816007F30A7042C08F3007308A7042708A30049
:101826002608A2002508A1002408A000A02DA02DAE
:101836003308031D1F2C202C322C0030A70000304B
:10184600A6000030A5000030A4002708A300260843
:10185600A2002508A1002408A000A02DA02D340870
:10186600F300F401F309F409F30A0319F40A33083F
:101876007307F50074080318740AF60075087F3EAE
:10188600AD0076080318013E003EAE002708AB0007
:101896002608AA002508A9002408A8000030A700E9
:1018A6000030A6000030A5000030A4000030B200D1
:1018B6000030B1000030B0000030AF00B401B12CF0
:1018C60034080319672C682C8A2C0130F3000310A6
:1018D600A80DA90DAA0DAB0DF30B6A2C0130F30070
:1018E6000310A40DA50DA60DA70DF30B732CB21FA7
:1018F6007D2C7E2C802C2414802C0130F3000310C8
:10190600AF0DB00DB10DB20DF30B822C8A2C23084E
:101916002B02031D982C22082A02031D982C21084D
:101926002902031D982C20082802031C9B2C9C2CA2
:10193600AC2C32172008A8022108031C210FA9028B
:101946002208031C220FAA022308031C230FAB0242
:10195600AC2C0130F3007308B407B12C1A303402F2
:10196600031CB62CB72C632CB82C2B082A0429048C
:1019760028040319BF2CC02CE22C2F14E22CE22CD5
:101986000130F3000310A40DA50DA60DA70DF30B52
:10199600C52CB21FCF2CD02CD22C2414D22C013023
:1019A600F3000310AF0DB00DB10DB20DF30BD42C37
:1019B600FF30AD070318AE0AFF30AE07E22CA61FB4
:1019C600E52CE62CC32CE72CB401B21FEB2CEC2C37
:1019D6000C2DFF302F05F300FF303005F400FF30EB
:1019E6003105F5007F303205F6007608750474047B
:1019F60073040319FF2C002D032DB401B40A0C2D1A
:101A0600241C062D072D0C2DB401B40A0C2D0C2D0B
:101A16000C2D34080319102D112D442D0130A40767
:101A2600003003180130A507003003180130A6075F
:101A3600003003180130A707271C222D232D442D23
:101A46002408F3002508F4002608F5002708F60008
:101A56000130F700760DF60CF50CF40CF30CF70BD1
:101A66002D2D7608A7007508A6007408A500730832
:101A7600A4000130AD070318AE0A0030AE07442DAE
:101A8600442D2E08803AFF0080307F02031D4D2D25
:101A9600FF302D02031C502D512D602DFF30831277
:101AA6000313AD000030AE000030A7000030A600E2
:101AB6000030A5000030A400602D831203132E0809
:101AC600803AFF0080307F02031D6B2D01302D020E
:101AD60003186E2D6F2D7C2D83120313AD01AE01FD
:101AE6000030A7000030A6000030A5000030A4009A
:101AF600AC01831203132D08F3007308B300331CE3
:101B0600852D862D882DA6178C2D7F30F300730822
:101B1600A6053308F3000310730CF4007408A7003D
:101B26002C08F3007308A7042708A3002608A200C0
:101B36002508A1002408A000A02D0800831603177D
:101B4600880189018316031385018701FF3086000A
:101B560088010A168A1153270A128A1510300A12AA
:101B66008A1503200A128A15F3010D300A128A110A
:101B760055260A128A150A168A116D250A128A1521
:101B8600831203139F14F701F70A01300A168A110C
:101B9600B4250A128A150130F6008030F7000A16BD
:101BA6008A11C3260A128A15073083160313A90061
:101BB6002908F70001300A168A11B4250A128A1577
:101BC6000730F6008030F7000A168A11C3260A127B
:101BD6008A150C3083160313A9002908F700013073
:101BE6000A168A11B4250A128A150B30F6008030BF
:101BF600F7000A168A11C3260A128A15AE30840027
:101C0600831603133F0883138000840A400880006C
:101C1600840A41088000840A42088000840A430836
:101C26008000152E831603134A08A900AA01AB01EA
:101C3600AC012C0883120313A500831603132B088B
:101C460083120313A400831603132A0883120313B3
:101C5600A30083160313290883120313A20001307D
:101C66000A128A150E210A128A15831203132508F1
:101C7600B7002408B6002308B5002208B400BE3019
:101C8600B300B430B2002C30B1003D30B0000A12BF
:101C96008A1124200A128A15831203133308D100ED
:101CA6003208D0003108CF003008CE004230CD00D7
:101CB6006C30CC00BD30CB007130CA000A128A11DC
:101CC60099230A128A15831203134D0883160313E8
:101CD600B600831203134C0883160313B500831250
:101CE60003134B0883160313B400831203134A0825
:101CF60083160313B300360883120313D100831629
:101D06000313350883120313D00083160313340814
:101D160083120313CF0083160313330883120313AE
:101D2600CE004030CD008030CC000030CB000030FB
:101D3600CA000A128A1199230A128A1583120313FA
:101D46004D08E5004C08E4004B08E3004A08E200B1
:101D56000A128A1163270A128A158312031362086C
:101D660083160313A9002908C6000230F3000030C9
:101D7600F40046084507F500F601F60D0A128A1525
:101D86001D200A128A15730883160313A900290851
:101D9600C600F701F70A02300A168A11B4250A129C
:101DA6008A15831603134608A900AA01AB01AC01E4
:101DB6002C0883120313A500831603132B08831222
:101DC6000313A400831603132A0883120313A30024
:101DD60083160313290883120313A20000300A1284
:101DE6008A150E210A128A158312031325088316F3
:101DF6000313BA0083120313240883160313B900CE
:101E060083120313230883160313B80083120313E4
:101E1600220883160313B7003A08A3003908A20064
:101E26003808A1003708A0000A128A15A8220A124B
:101E36008A1583160313A9002908B0004608A900CD
:101E4600AA01AB01AC012C0883120313A50083166B
:101E560003132B0883120313A400831603132A0803
:101E660083120313A3008316031329088312031393
:101E7600A20000300A128A150E210A128A15831250
:101E86000313250883160313BE00831203132408C5
:101E960083160313BD00831203132308831603134B
:101EA600BC0083120313220883160313BB003E08EB
:101EB600A3003D08A2003C08A1003B08A0000A12AE
:101EC6008A15D2210A128A1583160313A900290836
:101ED600AF004608A900AA01AB01AC012C08831289
:101EE6000313A500831603132B0883120313A40000
:101EF600831603132A0883120313A30083160313FE
:101F0600290883120313A20000300A128A150E2133
:101F16000A128A1583120313250883160313A300D6
:101F260083120313240883160313A20083120313D8
:101F3600230883160313A1008312031322088316B2
:101F46000313A0000A168A110B270A128A15831694
:101F56000313AD002D08AE00AE30F6000030F700DA
:101F66000A168A11C3260A128A1583120313861CBF
:101F7600BD2FBE2FC62F83160313C701C70A8312B0
:101F860003130814CD2F83160313C70183120313FB
:101F96000810CD2F1D30831603134602031CD42FC1
:101FA600D52FD92F831203138814DC2F8312031322
:101FB60088100618DF2FE02FE82F83160313C401BD
:101FC600C40A831203138815EF2F83160313C40163
:101FD600831203138811EF2F831603134608A900F3
:101FE6002908C50049080A168A1153260A128A15B5
:101FF600152E152E0A128A110C28FF1B0A28831388
:102006007F1883170008840A0319FF0A0800103096
:102016008A000408840A82070034543465346D3417
:1020260070343A340034533432343A34003453344E
:0620360033343A3400349B
:102ADA00831203130C13831603130C178B170B178C
:102AEA000800831203133308320431043004031933
:102AFA007F2D802D832D8030B306832D842D0800F1
:102B0A00F50083120313871475080A168A1184269E
:102B1A000A168A118312031307144230F400F40BC5
:102B2A00942D00008312031307100800F600F50124
:102B3A009E2D761CA12DA22DA72D7308F4007408D2
:102B4A00F507A72D0310F30D0310F60C7608031DE5
:102B5A00AF2DB02D9E2DB12D7508B32D080083120F
:102B6A000313A0002003031DBB2DBC2DC42D770821
:102B7A007F3E0A168A11D6250A168A11D52D0230E9
:102B8A00831203132006031DCB2DCC2DD52D7708D8
:102B9A00BF3E0A168A11D6250A168A11D52DD52DB9
:102BAA000800F60083120313871076080A168A11A2
:102BBA0084260A168A118312031307140D30F500AE
:102BCA00FB30F400F40BE72DF50BE72DEC2D831207
:102BDA00031307100330F5009730F400F40BF32DBC
:102BEA00F50BF32DF82D080083120313A400A0019E
:102BFA00A1017308F500F6017508A2007608A30082
:102C0A00062E241C092E0A2E102E2208A0070318AD
:102C1A00A10A2308A10701300310A20DA30DFF3E4C
:102C2A00031D112E0310A40C2408031D1D2E1E2E95
:102C3A00062E1F2E2108F4002008F300242E080077
:102C4A0083120313A001A1012A2E731C2D2E2E2EEE
:102C5A00362E750883120313A0070318A10A7608F3
:102C6A00A10701300310F50DF60DFF3E031D372EA7
:102C7A0001300310F40CF30CFF3E031D3E2E7308C3
:102C8A007404031D492E4A2E2A2E4B2E8312031337
:102C9A002108F4002008F300522E0800F500702ED7
:102CAA00831603134608F3007308F800832E83166D
:102CBA0003134408F3007308F800832E83160313E2
:102CCA004708F3007308F800832EFA30F3007308FC
:102CDA00F800832E832E7508F300F4017408003A75
:102CEA000319782E6A2E7308013A0319552E033AEE
:102CFA0003195C2E013A0319632E6A2E0800F300A9
:102D0A00731C882E892E8D2E831203130514902E80
:102D1A00831203130510F31C932E942E962E8514FA
:102D2A00972E8510731D9A2E9B2E9D2E05159E2E6D
:102D3A000511F31DA12EA22EA42E8515A52E8511EF
:102D4A00731EA82EA92EAB2E0516AC2E0512F31E45
:102D5A00AF2EB02EB22E8516B32E8512731FB62E45
:102D6A00B72EB92E0517BA2E0513F31FBD2EBE2E88
:102D7A00C02E8517C22E8513C22E08008312031394
:102D8A00A301A401ED2E23087607A1007708A0006D
:102D9A000318A00AA31FD22EA0038312031320082C
:102DAA00A2002208FF00210884000A168A110020C6
:102DBA000A168A110A168A1185250A168A110130FD
:102DCA0083120313A3070318A40A0030A407ED2EE5
:102DDA0023087607A1007708A0000318A00AA31FFA
:102DEA00F72EA003831203132008A2002208FF0073
:102DFA00210884000A168A1100200A168A11003A4C
:102E0A00031D082F092FC82E0A2F08008316031343
:102E1A00230883120313A7008316031322088312BD
:102E2A000313A60083160313210883120313A500B4
:102E3A0083160313200883120313A4004230A3004D
:102E4A00C830A2000030A1000030A0000A128A1582
:102E5A0098230A168A11831203132308E50022080D
:102E6A00E4002108E3002008E2000A128A1163271D
:102E7A000A168A11831203136208ED006D08EE0028
:102E8A006E080A168A11A0270A168A1183120313DA
:102E9A00ED006D08EF006F08522F080027308312EB
:102EAA000313A100F430A000A00B592FA10B592F36
:102EBA00000030300A168A11D6250A168A110D30FA
:102ECA0083120313A100FB30A000A00B6A2FA10BF1
:102EDA006A2F30300A168A11D6250A168A116930E5
:102EEA0083120313A000A00B782F7B2F30300A1611
:102EFA008A11D6250A168A1138300A168A11D62559
:102F0A000A168A1110300A168A11D6250A168A114B
:102F1A0001300A168A11D6250A168A1106300A16AF
:102F2A008A11D6250A168A110C300A168A11D62554
:102F3A000A168A110800F500D52F3030F3007308FD
:102F4A00F600FD2F3130F3007308F600FD2F323002
:102F5A00F3007308F600FD2F3330F3007308F60010
:102F6A00FD2F3430F3007308F600FD2F3530F300DF
:102F7A007308F600FD2F3630F3007308F600FD2FB4
:102F8A003730F3007308F600FD2F3830F30073086A
:102F9A00F600FD2F3930F3007308F600FD2FFD2FE0
:102FAA007508F300F4017408003A0319DD2FFD2FA8
:102FBA007308003A0319A22F013A0319A72F033AFB
:102FCA000319AC2F013A0319B12F073A0319B62F87
:102FDA00013A0319BB2F033A0319C02F013A031907
:102FEA00C52F0F3A0319CA2F013A0319CF2FFD2F04
:062FFA007608FF2F08001D
:04400E00D4E0FFFFFC
:00000001FF
