:020000040000FA
:060000000A128A110C280F
:10000800FE00030EF2000A08F3000A128A112B29D7
:100018000A128A110F28F601F701F801F901831273
:100028000313A001A101A201A301A401A501A60136
:10003800A701A801A901AA01AB0183010A128A112B
:10004800252883160317880189018316031386015F
:100058008312031386018316031385018312031386
:1000680085010A128A11CE210A128A1183120313FA
:100078008C11831603138C150B178B17831203131C
:10008800AC011030AF002F08AD004030B000300890
:10009800AE0025300A128A11EF210A128A110A12BB
:1000A8008A112D220A128A1183120313AF002F0816
:1000B800F900C8307906031D622863286D280A12E2
:1000C8008A112D220A128A1183120313AF002F08F6
:1000D800F700C9307906031D722873287D280A1293
:1000E8008A112D220A128A1183120313AF002F08D6
:1000F800AA00CA307906031D822883288D280A128F
:100108008A112D220A128A1183120313AF002F08B5
:10011800AB00CB307906031D922893289D280A123C
:100128008A112D220A128A1183120313AF002F0895
:10013800A900CC307906031DA228A328AD280A12ED
:100148008A112D220A128A1183120313AF002F0875
:10015800A800CD307906031DB228B328BD280A129D
:100168008A112D220A128A1183120313AF002F0855
:10017800A700CE307906031DC228C328CD280A124D
:100188008A112D220A128A1183120313AF002F0835
:10019800F600CF307906031DD228D328DD280A12AD
:1001A8008A112D220A128A1183120313AF002F0815
:1001B800A600D0307906031DE228E328ED280A12AC
:1001C8008A112D220A128A1183120313AF002F08F5
:1001D800A500D1307906031DF228F328FD280A125C
:1001E8008A112D220A128A1183120313AF002F08D5
:1001F800A4007708860022087602AF002F08A10025
:100208002108031908290929132909307606031D2D
:100218000E290F2913290130AF002F08A0070A3033
:10022800AF002F08F40020080A128A110D220A12C2
:100238008A11760783120313B0003008A3007608EA
:10024800AF002F08A20053280A128A110C28831223
:1002580003138C1D30293129C7290A128A11242237
:100268000A128A11F1007108F8007808031D3D2967
:100278003E29452977080A128A113C220A128A1156
:10028800C4297803031D49294A29532983120313D2
:100298002A080A128A113C220A128A11C429023039
:1002A8007806031D582959296229831203132B083C
:1002B8000A128A113C220A128A11C42903307806CC
:1002C800031D6729682971298312031329080A1253
:1002D8008A113C220A128A11C42904307806031DA7
:1002E8007629772980298312031328080A128A118C
:1002F8003C220A128A11C42905307806031D852973
:1003080086298F298312031327080A128A113C228F
:100318000A128A11C42906307806031D94299529E2
:100328009E298312031323080A128A113C220A12F7
:100338008A11C42907307806031DA329A429AD29E9
:100348008312031326080A128A113C220A128A1100
:10035800C42908307806031DB229B329BC298312A1
:10036800031325080A128A113C220A128A11C42989
:100378008312031324080A128A113C220A128A11D2
:10038800831203138C1173088A00720E8300FE0E09
:100398007E0E0900831603138717071383160317A6
:1003A80007128711071083160313981618121813CB
:1003B8001815831203139817181318161930831673
:1003C800031399001812831203139817181683162B
:1003D800031398160800F400831603138712741D7C
:1003E800F629F729FF29831203132E08831603130E
:1003F80094008715072A831203132C082E048316EA
:100408000313940087117408831203132D049400B6
:10041800080083120313AD00AC012D1C142A152A01
:10042800192A7408F5007508AC070310F40D0310B9
:10043800AD0C2D08031D212A222A112A2C08080098
:100448000A128A1135220A128A1183120313130819
:100458000800831203138C1E322A332A2D2A1A0805
:10046800080083160313141C3A2A3B2A352A08006D
:0C047800F00070088312031393000800CA
:04400E00D4E0FFFFFC
:00000001FF
